{
	"code-sample/docs.chain.link/samples/ChainlinkFunctions/Storage.sol": {
		"Storage": {
			"abi": [
				{
					"inputs": [],
					"stateMutability": "nonpayable",
					"type": "constructor"
				},
				{
					"inputs": [],
					"name": "EmptyArgs",
					"type": "error"
				},
				{
					"inputs": [],
					"name": "EmptySecrets",
					"type": "error"
				},
				{
					"inputs": [],
					"name": "EmptySource",
					"type": "error"
				},
				{
					"inputs": [],
					"name": "NoInlineSecrets",
					"type": "error"
				},
				{
					"inputs": [],
					"name": "OnlyRouterCanFulfill",
					"type": "error"
				},
				{
					"inputs": [
						{
							"internalType": "bytes32",
							"name": "requestId",
							"type": "bytes32"
						}
					],
					"name": "UnexpectedRequestID",
					"type": "error"
				},
				{
					"anonymous": false,
					"inputs": [
						{
							"indexed": true,
							"internalType": "address",
							"name": "from",
							"type": "address"
						},
						{
							"indexed": true,
							"internalType": "address",
							"name": "to",
							"type": "address"
						}
					],
					"name": "OwnershipTransferRequested",
					"type": "event"
				},
				{
					"anonymous": false,
					"inputs": [
						{
							"indexed": true,
							"internalType": "address",
							"name": "from",
							"type": "address"
						},
						{
							"indexed": true,
							"internalType": "address",
							"name": "to",
							"type": "address"
						}
					],
					"name": "OwnershipTransferred",
					"type": "event"
				},
				{
					"anonymous": false,
					"inputs": [
						{
							"indexed": true,
							"internalType": "bytes32",
							"name": "id",
							"type": "bytes32"
						}
					],
					"name": "RequestFulfilled",
					"type": "event"
				},
				{
					"anonymous": false,
					"inputs": [
						{
							"indexed": true,
							"internalType": "bytes32",
							"name": "id",
							"type": "bytes32"
						}
					],
					"name": "RequestSent",
					"type": "event"
				},
				{
					"anonymous": false,
					"inputs": [
						{
							"indexed": true,
							"internalType": "bytes32",
							"name": "requestId",
							"type": "bytes32"
						},
						{
							"indexed": false,
							"internalType": "bytes",
							"name": "response",
							"type": "bytes"
						},
						{
							"indexed": false,
							"internalType": "bytes",
							"name": "err",
							"type": "bytes"
						}
					],
					"name": "Response",
					"type": "event"
				},
				{
					"inputs": [],
					"name": "acceptOwnership",
					"outputs": [],
					"stateMutability": "nonpayable",
					"type": "function"
				},
				{
					"inputs": [],
					"name": "counter",
					"outputs": [
						{
							"internalType": "uint256",
							"name": "",
							"type": "uint256"
						}
					],
					"stateMutability": "view",
					"type": "function"
				},
				{
					"inputs": [
						{
							"internalType": "bytes32",
							"name": "requestId",
							"type": "bytes32"
						},
						{
							"internalType": "bytes",
							"name": "response",
							"type": "bytes"
						},
						{
							"internalType": "bytes",
							"name": "err",
							"type": "bytes"
						}
					],
					"name": "handleOracleFulfillment",
					"outputs": [],
					"stateMutability": "nonpayable",
					"type": "function"
				},
				{
					"inputs": [],
					"name": "increment",
					"outputs": [],
					"stateMutability": "nonpayable",
					"type": "function"
				},
				{
					"inputs": [],
					"name": "owner",
					"outputs": [
						{
							"internalType": "address",
							"name": "",
							"type": "address"
						}
					],
					"stateMutability": "view",
					"type": "function"
				},
				{
					"inputs": [],
					"name": "s_lastError",
					"outputs": [
						{
							"internalType": "bytes",
							"name": "",
							"type": "bytes"
						}
					],
					"stateMutability": "view",
					"type": "function"
				},
				{
					"inputs": [],
					"name": "s_lastRequestId",
					"outputs": [
						{
							"internalType": "bytes32",
							"name": "",
							"type": "bytes32"
						}
					],
					"stateMutability": "view",
					"type": "function"
				},
				{
					"inputs": [],
					"name": "s_lastResponse",
					"outputs": [
						{
							"internalType": "bytes",
							"name": "",
							"type": "bytes"
						}
					],
					"stateMutability": "view",
					"type": "function"
				},
				{
					"inputs": [
						{
							"internalType": "string",
							"name": "source",
							"type": "string"
						},
						{
							"internalType": "bytes",
							"name": "encryptedSecretsUrls",
							"type": "bytes"
						},
						{
							"internalType": "uint8",
							"name": "donHostedSecretsSlotID",
							"type": "uint8"
						},
						{
							"internalType": "uint64",
							"name": "donHostedSecretsVersion",
							"type": "uint64"
						},
						{
							"internalType": "string[]",
							"name": "args",
							"type": "string[]"
						},
						{
							"internalType": "bytes[]",
							"name": "bytesArgs",
							"type": "bytes[]"
						},
						{
							"internalType": "uint64",
							"name": "subscriptionId",
							"type": "uint64"
						},
						{
							"internalType": "uint32",
							"name": "gasLimit",
							"type": "uint32"
						}
					],
					"name": "sendRequest",
					"outputs": [
						{
							"internalType": "bytes32",
							"name": "requestId",
							"type": "bytes32"
						}
					],
					"stateMutability": "nonpayable",
					"type": "function"
				},
				{
					"inputs": [
						{
							"internalType": "bytes",
							"name": "request",
							"type": "bytes"
						},
						{
							"internalType": "uint64",
							"name": "subscriptionId",
							"type": "uint64"
						},
						{
							"internalType": "uint32",
							"name": "gasLimit",
							"type": "uint32"
						}
					],
					"name": "sendRequestCBOR",
					"outputs": [
						{
							"internalType": "bytes32",
							"name": "requestId",
							"type": "bytes32"
						}
					],
					"stateMutability": "nonpayable",
					"type": "function"
				},
				{
					"inputs": [
						{
							"internalType": "address",
							"name": "to",
							"type": "address"
						}
					],
					"name": "transferOwnership",
					"outputs": [],
					"stateMutability": "nonpayable",
					"type": "function"
				}
			],
			"devdoc": {
				"kind": "dev",
				"methods": {
					"handleOracleFulfillment(bytes32,bytes,bytes)": {
						"details": "Either response or error parameter will be set, but never both.",
						"params": {
							"err": "Aggregated error either from the request's source code or from the execution pipeline.",
							"requestId": "The requestId returned by FunctionsClient.sendRequest().",
							"response": "Aggregated response from the request's source code."
						}
					}
				},
				"version": 1
			},
			"evm": {
				"assembly": "    /* \"code-sample/docs.chain.link/samples/ChainlinkFunctions/Storage.sol\":397:2901  contract Storage is FunctionsClient, ConfirmedOwner {... */\n  mstore(0x40, 0xa0)\n    /* \"code-sample/docs.chain.link/samples/ChainlinkFunctions/Storage.sol\":539:540  0 */\n  0x00\n    /* \"code-sample/docs.chain.link/samples/ChainlinkFunctions/Storage.sol\":514:540  uint256 public counter = 0 */\n  0x02\n  sstore\n    /* \"code-sample/docs.chain.link/samples/ChainlinkFunctions/Storage.sol\":835:877  0xC22a79eBA640940ABB6dF0f7982cc119578E11De */\n  0xc22a79eba640940abb6df0f7982cc119578e11de\n    /* \"code-sample/docs.chain.link/samples/ChainlinkFunctions/Storage.sol\":819:877  address router= 0xC22a79eBA640940ABB6dF0f7982cc119578E11De */\n  0x06\n  exp(0x0100, 0x00)\n  dup2\n  sload\n  dup2\n  0xffffffffffffffffffffffffffffffffffffffff\n  mul\n  not\n  and\n  swap1\n  dup4\n  0xffffffffffffffffffffffffffffffffffffffff\n  and\n  mul\n  or\n  swap1\n  sstore\n  pop\n    /* \"code-sample/docs.chain.link/samples/ChainlinkFunctions/Storage.sol\":911:977  0x66756e2d706f6c79676f6e2d616d6f792d310000000000000000000000000000 */\n  0x66756e2d706f6c79676f6e2d616d6f792d310000000000000000000000000000\n    /* \"code-sample/docs.chain.link/samples/ChainlinkFunctions/Storage.sol\":887:977  bytes32 donID =... */\n  0x00\n  shl\n  0x07\n  sstore\n    /* \"code-sample/docs.chain.link/samples/ChainlinkFunctions/Storage.sol\":984:1064  constructor(... */\n  callvalue\n  dup1\n  iszero\n  tag_1\n  jumpi\n  0x00\n  dup1\n  revert\ntag_1:\n  pop\n    /* \"code-sample/docs.chain.link/samples/ChainlinkFunctions/Storage.sol\":1050:1060  msg.sender */\n  caller\n    /* \"@chainlink/contracts@1.2.0/src/v0.8/shared/access/ConfirmedOwner.sol\":355:363  newOwner */\n  dup1\n    /* \"@chainlink/contracts@1.2.0/src/v0.8/shared/access/ConfirmedOwner.sol\":373:374  0 */\n  0x00\n    /* \"code-sample/docs.chain.link/samples/ChainlinkFunctions/Storage.sol\":1027:1033  router */\n  0x06\n  0x00\n  swap1\n  sload\n  swap1\n  0x0100\n  exp\n  swap1\n  div\n  0xffffffffffffffffffffffffffffffffffffffff\n  and\n    /* \"@chainlink/contracts@1.2.0/src/v0.8/functions/v1_0_0/FunctionsClient.sol\":764:770  router */\n  dup1\n    /* \"@chainlink/contracts@1.2.0/src/v0.8/functions/v1_0_0/FunctionsClient.sol\":736:771  i_router = IFunctionsRouter(router) */\n  0xffffffffffffffffffffffffffffffffffffffff\n  and\n  0x80\n  dup2\n  0xffffffffffffffffffffffffffffffffffffffff\n  and\n  dup2\n  mstore\n  pop\n  pop\n    /* \"@chainlink/contracts@1.2.0/src/v0.8/functions/v1_0_0/FunctionsClient.sol\":702:776  constructor(address router) {... */\n  pop\n    /* \"@chainlink/contracts@1.2.0/src/v0.8/shared/access/ConfirmedOwnerWithProposal.sol\":618:619  0 */\n  0x00\n    /* \"@chainlink/contracts@1.2.0/src/v0.8/shared/access/ConfirmedOwnerWithProposal.sol\":598:620  newOwner != address(0) */\n  0xffffffffffffffffffffffffffffffffffffffff\n  and\n    /* \"@chainlink/contracts@1.2.0/src/v0.8/shared/access/ConfirmedOwnerWithProposal.sol\":598:606  newOwner */\n  dup3\n    /* \"@chainlink/contracts@1.2.0/src/v0.8/shared/access/ConfirmedOwnerWithProposal.sol\":598:620  newOwner != address(0) */\n  0xffffffffffffffffffffffffffffffffffffffff\n  and\n  sub\n    /* \"@chainlink/contracts@1.2.0/src/v0.8/shared/access/ConfirmedOwnerWithProposal.sol\":590:649  require(newOwner != address(0), \"Cannot set owner to zero\") */\n  tag_8\n  jumpi\n  mload(0x40)\n  0x08c379a000000000000000000000000000000000000000000000000000000000\n  dup2\n  mstore\n  0x04\n  add\n  tag_9\n  swap1\n  tag_10\n  jump\t// in\ntag_9:\n  mload(0x40)\n  dup1\n  swap2\n  sub\n  swap1\n  revert\ntag_8:\n    /* \"@chainlink/contracts@1.2.0/src/v0.8/shared/access/ConfirmedOwnerWithProposal.sol\":666:674  newOwner */\n  dup2\n    /* \"@chainlink/contracts@1.2.0/src/v0.8/shared/access/ConfirmedOwnerWithProposal.sol\":656:663  s_owner */\n  0x00\n  dup1\n    /* \"@chainlink/contracts@1.2.0/src/v0.8/shared/access/ConfirmedOwnerWithProposal.sol\":656:674  s_owner = newOwner */\n  0x0100\n  exp\n  dup2\n  sload\n  dup2\n  0xffffffffffffffffffffffffffffffffffffffff\n  mul\n  not\n  and\n  swap1\n  dup4\n  0xffffffffffffffffffffffffffffffffffffffff\n  and\n  mul\n  or\n  swap1\n  sstore\n  pop\n    /* \"@chainlink/contracts@1.2.0/src/v0.8/shared/access/ConfirmedOwnerWithProposal.sol\":708:709  0 */\n  0x00\n    /* \"@chainlink/contracts@1.2.0/src/v0.8/shared/access/ConfirmedOwnerWithProposal.sol\":684:710  pendingOwner != address(0) */\n  0xffffffffffffffffffffffffffffffffffffffff\n  and\n    /* \"@chainlink/contracts@1.2.0/src/v0.8/shared/access/ConfirmedOwnerWithProposal.sol\":684:696  pendingOwner */\n  dup2\n    /* \"@chainlink/contracts@1.2.0/src/v0.8/shared/access/ConfirmedOwnerWithProposal.sol\":684:710  pendingOwner != address(0) */\n  0xffffffffffffffffffffffffffffffffffffffff\n  and\n  eq\n    /* \"@chainlink/contracts@1.2.0/src/v0.8/shared/access/ConfirmedOwnerWithProposal.sol\":680:759  if (pendingOwner != address(0)) {... */\n  tag_11\n  jumpi\n    /* \"@chainlink/contracts@1.2.0/src/v0.8/shared/access/ConfirmedOwnerWithProposal.sol\":720:752  _transferOwnership(pendingOwner) */\n  tag_12\n    /* \"@chainlink/contracts@1.2.0/src/v0.8/shared/access/ConfirmedOwnerWithProposal.sol\":739:751  pendingOwner */\n  dup2\n    /* \"@chainlink/contracts@1.2.0/src/v0.8/shared/access/ConfirmedOwnerWithProposal.sol\":720:738  _transferOwnership */\n  shl(0x20, tag_13)\n    /* \"@chainlink/contracts@1.2.0/src/v0.8/shared/access/ConfirmedOwnerWithProposal.sol\":720:752  _transferOwnership(pendingOwner) */\n  0x20\n  shr\n  jump\t// in\ntag_12:\n    /* \"@chainlink/contracts@1.2.0/src/v0.8/shared/access/ConfirmedOwnerWithProposal.sol\":680:759  if (pendingOwner != address(0)) {... */\ntag_11:\n    /* \"@chainlink/contracts@1.2.0/src/v0.8/shared/access/ConfirmedOwnerWithProposal.sol\":481:763  constructor(address newOwner, address pendingOwner) {... */\n  pop\n  pop\n    /* \"@chainlink/contracts@1.2.0/src/v0.8/shared/access/ConfirmedOwner.sol\":298:379  constructor(address newOwner) ConfirmedOwnerWithProposal(newOwner, address(0)) {} */\n  pop\n    /* \"code-sample/docs.chain.link/samples/ChainlinkFunctions/Storage.sol\":397:2901  contract Storage is FunctionsClient, ConfirmedOwner {... */\n  jump(tag_16)\n    /* \"@chainlink/contracts@1.2.0/src/v0.8/shared/access/ConfirmedOwnerWithProposal.sol\":1536:1775  function _transferOwnership(address to) private {... */\ntag_13:\n    /* \"@chainlink/contracts@1.2.0/src/v0.8/shared/access/ConfirmedOwnerWithProposal.sol\":1655:1665  msg.sender */\n  caller\n    /* \"@chainlink/contracts@1.2.0/src/v0.8/shared/access/ConfirmedOwnerWithProposal.sol\":1649:1665  to != msg.sender */\n  0xffffffffffffffffffffffffffffffffffffffff\n  and\n    /* \"@chainlink/contracts@1.2.0/src/v0.8/shared/access/ConfirmedOwnerWithProposal.sol\":1649:1651  to */\n  dup2\n    /* \"@chainlink/contracts@1.2.0/src/v0.8/shared/access/ConfirmedOwnerWithProposal.sol\":1649:1665  to != msg.sender */\n  0xffffffffffffffffffffffffffffffffffffffff\n  and\n  sub\n    /* \"@chainlink/contracts@1.2.0/src/v0.8/shared/access/ConfirmedOwnerWithProposal.sol\":1641:1693  require(to != msg.sender, \"Cannot transfer to self\") */\n  tag_18\n  jumpi\n  mload(0x40)\n  0x08c379a000000000000000000000000000000000000000000000000000000000\n  dup2\n  mstore\n  0x04\n  add\n  tag_19\n  swap1\n  tag_20\n  jump\t// in\ntag_19:\n  mload(0x40)\n  dup1\n  swap2\n  sub\n  swap1\n  revert\ntag_18:\n    /* \"@chainlink/contracts@1.2.0/src/v0.8/shared/access/ConfirmedOwnerWithProposal.sol\":1717:1719  to */\n  dup1\n    /* \"@chainlink/contracts@1.2.0/src/v0.8/shared/access/ConfirmedOwnerWithProposal.sol\":1700:1714  s_pendingOwner */\n  0x01\n  0x00\n    /* \"@chainlink/contracts@1.2.0/src/v0.8/shared/access/ConfirmedOwnerWithProposal.sol\":1700:1719  s_pendingOwner = to */\n  0x0100\n  exp\n  dup2\n  sload\n  dup2\n  0xffffffffffffffffffffffffffffffffffffffff\n  mul\n  not\n  and\n  swap1\n  dup4\n  0xffffffffffffffffffffffffffffffffffffffff\n  and\n  mul\n  or\n  swap1\n  sstore\n  pop\n    /* \"@chainlink/contracts@1.2.0/src/v0.8/shared/access/ConfirmedOwnerWithProposal.sol\":1767:1769  to */\n  dup1\n    /* \"@chainlink/contracts@1.2.0/src/v0.8/shared/access/ConfirmedOwnerWithProposal.sol\":1731:1770  OwnershipTransferRequested(s_owner, to) */\n  0xffffffffffffffffffffffffffffffffffffffff\n  and\n    /* \"@chainlink/contracts@1.2.0/src/v0.8/shared/access/ConfirmedOwnerWithProposal.sol\":1758:1765  s_owner */\n  0x00\n  dup1\n  sload\n  swap1\n  0x0100\n  exp\n  swap1\n  div\n  0xffffffffffffffffffffffffffffffffffffffff\n  and\n    /* \"@chainlink/contracts@1.2.0/src/v0.8/shared/access/ConfirmedOwnerWithProposal.sol\":1731:1770  OwnershipTransferRequested(s_owner, to) */\n  0xffffffffffffffffffffffffffffffffffffffff\n  and\n  0xed8889f560326eb138920d842192f0eb3dd22b4f139c87a2c57538e05bae1278\n  mload(0x40)\n  mload(0x40)\n  dup1\n  swap2\n  sub\n  swap1\n  log3\n    /* \"@chainlink/contracts@1.2.0/src/v0.8/shared/access/ConfirmedOwnerWithProposal.sol\":1536:1775  function _transferOwnership(address to) private {... */\n  pop\n  jump\t// out\n    /* \"#utility.yul\":7:176   */\ntag_21:\n    /* \"#utility.yul\":91:102   */\n  0x00\n    /* \"#utility.yul\":125:131   */\n  dup3\n    /* \"#utility.yul\":120:123   */\n  dup3\n    /* \"#utility.yul\":113:132   */\n  mstore\n    /* \"#utility.yul\":165:169   */\n  0x20\n    /* \"#utility.yul\":160:163   */\n  dup3\n    /* \"#utility.yul\":156:170   */\n  add\n    /* \"#utility.yul\":141:170   */\n  swap1\n  pop\n    /* \"#utility.yul\":7:176   */\n  swap3\n  swap2\n  pop\n  pop\n  jump\t// out\n    /* \"#utility.yul\":182:356   */\ntag_22:\n    /* \"#utility.yul\":322:348   */\n  0x43616e6e6f7420736574206f776e657220746f207a65726f0000000000000000\n    /* \"#utility.yul\":318:319   */\n  0x00\n    /* \"#utility.yul\":310:316   */\n  dup3\n    /* \"#utility.yul\":306:320   */\n  add\n    /* \"#utility.yul\":299:349   */\n  mstore\n    /* \"#utility.yul\":182:356   */\n  pop\n  jump\t// out\n    /* \"#utility.yul\":362:728   */\ntag_23:\n    /* \"#utility.yul\":504:507   */\n  0x00\n    /* \"#utility.yul\":525:592   */\n  tag_30\n    /* \"#utility.yul\":589:591   */\n  0x18\n    /* \"#utility.yul\":584:587   */\n  dup4\n    /* \"#utility.yul\":525:592   */\n  tag_21\n  jump\t// in\ntag_30:\n    /* \"#utility.yul\":518:592   */\n  swap2\n  pop\n    /* \"#utility.yul\":601:694   */\n  tag_31\n    /* \"#utility.yul\":690:693   */\n  dup3\n    /* \"#utility.yul\":601:694   */\n  tag_22\n  jump\t// in\ntag_31:\n    /* \"#utility.yul\":719:721   */\n  0x20\n    /* \"#utility.yul\":714:717   */\n  dup3\n    /* \"#utility.yul\":710:722   */\n  add\n    /* \"#utility.yul\":703:722   */\n  swap1\n  pop\n    /* \"#utility.yul\":362:728   */\n  swap2\n  swap1\n  pop\n  jump\t// out\n    /* \"#utility.yul\":734:1153   */\ntag_10:\n    /* \"#utility.yul\":900:904   */\n  0x00\n    /* \"#utility.yul\":938:940   */\n  0x20\n    /* \"#utility.yul\":927:936   */\n  dup3\n    /* \"#utility.yul\":923:941   */\n  add\n    /* \"#utility.yul\":915:941   */\n  swap1\n  pop\n    /* \"#utility.yul\":987:996   */\n  dup2\n    /* \"#utility.yul\":981:985   */\n  dup2\n    /* \"#utility.yul\":977:997   */\n  sub\n    /* \"#utility.yul\":973:974   */\n  0x00\n    /* \"#utility.yul\":962:971   */\n  dup4\n    /* \"#utility.yul\":958:975   */\n  add\n    /* \"#utility.yul\":951:998   */\n  mstore\n    /* \"#utility.yul\":1015:1146   */\n  tag_33\n    /* \"#utility.yul\":1141:1145   */\n  dup2\n    /* \"#utility.yul\":1015:1146   */\n  tag_23\n  jump\t// in\ntag_33:\n    /* \"#utility.yul\":1007:1146   */\n  swap1\n  pop\n    /* \"#utility.yul\":734:1153   */\n  swap2\n  swap1\n  pop\n  jump\t// out\n    /* \"#utility.yul\":1159:1332   */\ntag_24:\n    /* \"#utility.yul\":1299:1324   */\n  0x43616e6e6f74207472616e7366657220746f2073656c66000000000000000000\n    /* \"#utility.yul\":1295:1296   */\n  0x00\n    /* \"#utility.yul\":1287:1293   */\n  dup3\n    /* \"#utility.yul\":1283:1297   */\n  add\n    /* \"#utility.yul\":1276:1325   */\n  mstore\n    /* \"#utility.yul\":1159:1332   */\n  pop\n  jump\t// out\n    /* \"#utility.yul\":1338:1704   */\ntag_25:\n    /* \"#utility.yul\":1480:1483   */\n  0x00\n    /* \"#utility.yul\":1501:1568   */\n  tag_36\n    /* \"#utility.yul\":1565:1567   */\n  0x17\n    /* \"#utility.yul\":1560:1563   */\n  dup4\n    /* \"#utility.yul\":1501:1568   */\n  tag_21\n  jump\t// in\ntag_36:\n    /* \"#utility.yul\":1494:1568   */\n  swap2\n  pop\n    /* \"#utility.yul\":1577:1670   */\n  tag_37\n    /* \"#utility.yul\":1666:1669   */\n  dup3\n    /* \"#utility.yul\":1577:1670   */\n  tag_24\n  jump\t// in\ntag_37:\n    /* \"#utility.yul\":1695:1697   */\n  0x20\n    /* \"#utility.yul\":1690:1693   */\n  dup3\n    /* \"#utility.yul\":1686:1698   */\n  add\n    /* \"#utility.yul\":1679:1698   */\n  swap1\n  pop\n    /* \"#utility.yul\":1338:1704   */\n  swap2\n  swap1\n  pop\n  jump\t// out\n    /* \"#utility.yul\":1710:2129   */\ntag_20:\n    /* \"#utility.yul\":1876:1880   */\n  0x00\n    /* \"#utility.yul\":1914:1916   */\n  0x20\n    /* \"#utility.yul\":1903:1912   */\n  dup3\n    /* \"#utility.yul\":1899:1917   */\n  add\n    /* \"#utility.yul\":1891:1917   */\n  swap1\n  pop\n    /* \"#utility.yul\":1963:1972   */\n  dup2\n    /* \"#utility.yul\":1957:1961   */\n  dup2\n    /* \"#utility.yul\":1953:1973   */\n  sub\n    /* \"#utility.yul\":1949:1950   */\n  0x00\n    /* \"#utility.yul\":1938:1947   */\n  dup4\n    /* \"#utility.yul\":1934:1951   */\n  add\n    /* \"#utility.yul\":1927:1974   */\n  mstore\n    /* \"#utility.yul\":1991:2122   */\n  tag_39\n    /* \"#utility.yul\":2117:2121   */\n  dup2\n    /* \"#utility.yul\":1991:2122   */\n  tag_25\n  jump\t// in\ntag_39:\n    /* \"#utility.yul\":1983:2122   */\n  swap1\n  pop\n    /* \"#utility.yul\":1710:2129   */\n  swap2\n  swap1\n  pop\n  jump\t// out\n    /* \"code-sample/docs.chain.link/samples/ChainlinkFunctions/Storage.sol\":397:2901  contract Storage is FunctionsClient, ConfirmedOwner {... */\ntag_16:\n  mload(0x80)\n  codecopy(0x00, dataOffset(sub_0), dataSize(sub_0))\n  0x00\n  assignImmutable(\"0x8e8fab5f003314da8d1873ea7720e8d9f47650136d916064d1edb8a11d682624\")\n  return(0x00, dataSize(sub_0))\nstop\n\nsub_0: assembly {\n        /* \"code-sample/docs.chain.link/samples/ChainlinkFunctions/Storage.sol\":397:2901  contract Storage is FunctionsClient, ConfirmedOwner {... */\n      mstore(0x40, 0x80)\n      callvalue\n      dup1\n      iszero\n      tag_1\n      jumpi\n      0x00\n      dup1\n      revert\n    tag_1:\n      pop\n      jumpi(tag_2, lt(calldatasize, 0x04))\n      shr(0xe0, calldataload(0x00))\n      dup1\n      0x79ba5097\n      gt\n      tag_14\n      jumpi\n      dup1\n      0x79ba5097\n      eq\n      tag_8\n      jumpi\n      dup1\n      0x8da5cb5b\n      eq\n      tag_9\n      jumpi\n      dup1\n      0xb1e21749\n      eq\n      tag_10\n      jumpi\n      dup1\n      0xd09de08a\n      eq\n      tag_11\n      jumpi\n      dup1\n      0xd5f226bc\n      eq\n      tag_12\n      jumpi\n      dup1\n      0xf2fde38b\n      eq\n      tag_13\n      jumpi\n      jump(tag_2)\n    tag_14:\n      dup1\n      0x0ca76175\n      eq\n      tag_3\n      jumpi\n      dup1\n      0x3944ea3a\n      eq\n      tag_4\n      jumpi\n      dup1\n      0x4b0795a8\n      eq\n      tag_5\n      jumpi\n      dup1\n      0x4d533ad6\n      eq\n      tag_6\n      jumpi\n      dup1\n      0x61bc221a\n      eq\n      tag_7\n      jumpi\n    tag_2:\n      0x00\n      dup1\n      revert\n        /* \"@chainlink/contracts@1.2.0/src/v0.8/functions/v1_0_0/FunctionsClient.sol\":2078:2364  function handleOracleFulfillment(bytes32 requestId, bytes memory response, bytes memory err) external override {... */\n    tag_3:\n      tag_15\n      0x04\n      dup1\n      calldatasize\n      sub\n      dup2\n      add\n      swap1\n      tag_16\n      swap2\n      swap1\n      tag_17\n      jump\t// in\n    tag_16:\n      tag_18\n      jump\t// in\n    tag_15:\n      stop\n        /* \"code-sample/docs.chain.link/samples/ChainlinkFunctions/Storage.sol\":583:610  bytes public s_lastResponse */\n    tag_4:\n      tag_19\n      tag_20\n      jump\t// in\n    tag_19:\n      mload(0x40)\n      tag_21\n      swap2\n      swap1\n      tag_22\n      jump\t// in\n    tag_21:\n      mload(0x40)\n      dup1\n      swap2\n      sub\n      swap1\n      return\n        /* \"code-sample/docs.chain.link/samples/ChainlinkFunctions/Storage.sol\":616:640  bytes public s_lastError */\n    tag_5:\n      tag_23\n      tag_24\n      jump\t// in\n    tag_23:\n      mload(0x40)\n      tag_25\n      swap2\n      swap1\n      tag_22\n      jump\t// in\n    tag_25:\n      mload(0x40)\n      dup1\n      swap2\n      sub\n      swap1\n      return\n        /* \"code-sample/docs.chain.link/samples/ChainlinkFunctions/Storage.sol\":1133:2174  function sendRequest(... */\n    tag_6:\n      tag_26\n      0x04\n      dup1\n      calldatasize\n      sub\n      dup2\n      add\n      swap1\n      tag_27\n      swap2\n      swap1\n      tag_28\n      jump\t// in\n    tag_27:\n      tag_29\n      jump\t// in\n    tag_26:\n      mload(0x40)\n      tag_30\n      swap2\n      swap1\n      tag_31\n      jump\t// in\n    tag_30:\n      mload(0x40)\n      dup1\n      swap2\n      sub\n      swap1\n      return\n        /* \"code-sample/docs.chain.link/samples/ChainlinkFunctions/Storage.sol\":514:540  uint256 public counter = 0 */\n    tag_7:\n      tag_32\n      tag_33\n      jump\t// in\n    tag_32:\n      mload(0x40)\n      tag_34\n      swap2\n      swap1\n      tag_35\n      jump\t// in\n    tag_34:\n      mload(0x40)\n      dup1\n      swap2\n      sub\n      swap1\n      return\n        /* \"@chainlink/contracts@1.2.0/src/v0.8/shared/access/ConfirmedOwnerWithProposal.sol\":1026:1342  function acceptOwnership() external override {... */\n    tag_8:\n      tag_36\n      tag_37\n      jump\t// in\n    tag_36:\n      stop\n        /* \"@chainlink/contracts@1.2.0/src/v0.8/shared/access/ConfirmedOwnerWithProposal.sol\":1382:1463  function owner() public view override returns (address) {... */\n    tag_9:\n      tag_38\n      tag_39\n      jump\t// in\n    tag_38:\n      mload(0x40)\n      tag_40\n      swap2\n      swap1\n      tag_41\n      jump\t// in\n    tag_40:\n      mload(0x40)\n      dup1\n      swap2\n      sub\n      swap1\n      return\n        /* \"code-sample/docs.chain.link/samples/ChainlinkFunctions/Storage.sol\":547:577  bytes32 public s_lastRequestId */\n    tag_10:\n      tag_42\n      tag_43\n      jump\t// in\n    tag_42:\n      mload(0x40)\n      tag_44\n      swap2\n      swap1\n      tag_31\n      jump\t// in\n    tag_44:\n      mload(0x40)\n      dup1\n      swap2\n      sub\n      swap1\n      return\n        /* \"code-sample/docs.chain.link/samples/ChainlinkFunctions/Storage.sol\":1071:1127  function increment() external {... */\n    tag_11:\n      tag_45\n      tag_46\n      jump\t// in\n    tag_45:\n      stop\n        /* \"code-sample/docs.chain.link/samples/ChainlinkFunctions/Storage.sol\":2181:2524  function sendRequestCBOR(... */\n    tag_12:\n      tag_47\n      0x04\n      dup1\n      calldatasize\n      sub\n      dup2\n      add\n      swap1\n      tag_48\n      swap2\n      swap1\n      tag_49\n      jump\t// in\n    tag_48:\n      tag_50\n      jump\t// in\n    tag_47:\n      mload(0x40)\n      tag_51\n      swap2\n      swap1\n      tag_31\n      jump\t// in\n    tag_51:\n      mload(0x40)\n      dup1\n      swap2\n      sub\n      swap1\n      return\n        /* \"@chainlink/contracts@1.2.0/src/v0.8/shared/access/ConfirmedOwnerWithProposal.sol\":847:945  function transferOwnership(address to) public override onlyOwner {... */\n    tag_13:\n      tag_52\n      0x04\n      dup1\n      calldatasize\n      sub\n      dup2\n      add\n      swap1\n      tag_53\n      swap2\n      swap1\n      tag_54\n      jump\t// in\n    tag_53:\n      tag_55\n      jump\t// in\n    tag_52:\n      stop\n        /* \"@chainlink/contracts@1.2.0/src/v0.8/functions/v1_0_0/FunctionsClient.sol\":2078:2364  function handleOracleFulfillment(bytes32 requestId, bytes memory response, bytes memory err) external override {... */\n    tag_18:\n        /* \"@chainlink/contracts@1.2.0/src/v0.8/functions/v1_0_0/FunctionsClient.sol\":2221:2229  i_router */\n      immutable(\"0x8e8fab5f003314da8d1873ea7720e8d9f47650136d916064d1edb8a11d682624\")\n        /* \"@chainlink/contracts@1.2.0/src/v0.8/functions/v1_0_0/FunctionsClient.sol\":2199:2230  msg.sender != address(i_router) */\n      0xffffffffffffffffffffffffffffffffffffffff\n      and\n        /* \"@chainlink/contracts@1.2.0/src/v0.8/functions/v1_0_0/FunctionsClient.sol\":2199:2209  msg.sender */\n      caller\n        /* \"@chainlink/contracts@1.2.0/src/v0.8/functions/v1_0_0/FunctionsClient.sol\":2199:2230  msg.sender != address(i_router) */\n      0xffffffffffffffffffffffffffffffffffffffff\n      and\n      eq\n        /* \"@chainlink/contracts@1.2.0/src/v0.8/functions/v1_0_0/FunctionsClient.sol\":2195:2276  if (msg.sender != address(i_router)) {... */\n      tag_57\n      jumpi\n        /* \"@chainlink/contracts@1.2.0/src/v0.8/functions/v1_0_0/FunctionsClient.sol\":2247:2269  OnlyRouterCanFulfill() */\n      mload(0x40)\n      0xc6829f8300000000000000000000000000000000000000000000000000000000\n      dup2\n      mstore\n      0x04\n      add\n      mload(0x40)\n      dup1\n      swap2\n      sub\n      swap1\n      revert\n        /* \"@chainlink/contracts@1.2.0/src/v0.8/functions/v1_0_0/FunctionsClient.sol\":2195:2276  if (msg.sender != address(i_router)) {... */\n    tag_57:\n        /* \"@chainlink/contracts@1.2.0/src/v0.8/functions/v1_0_0/FunctionsClient.sol\":2281:2321  fulfillRequest(requestId, response, err) */\n      tag_58\n        /* \"@chainlink/contracts@1.2.0/src/v0.8/functions/v1_0_0/FunctionsClient.sol\":2296:2305  requestId */\n      dup4\n        /* \"@chainlink/contracts@1.2.0/src/v0.8/functions/v1_0_0/FunctionsClient.sol\":2307:2315  response */\n      dup4\n        /* \"@chainlink/contracts@1.2.0/src/v0.8/functions/v1_0_0/FunctionsClient.sol\":2317:2320  err */\n      dup4\n        /* \"@chainlink/contracts@1.2.0/src/v0.8/functions/v1_0_0/FunctionsClient.sol\":2281:2295  fulfillRequest */\n      tag_59\n        /* \"@chainlink/contracts@1.2.0/src/v0.8/functions/v1_0_0/FunctionsClient.sol\":2281:2321  fulfillRequest(requestId, response, err) */\n      jump\t// in\n    tag_58:\n        /* \"@chainlink/contracts@1.2.0/src/v0.8/functions/v1_0_0/FunctionsClient.sol\":2349:2358  requestId */\n      dup3\n        /* \"@chainlink/contracts@1.2.0/src/v0.8/functions/v1_0_0/FunctionsClient.sol\":2332:2359  RequestFulfilled(requestId) */\n      0x85e1543bf2f84fe80c6badbce3648c8539ad1df4d2b3d822938ca0538be727e6\n      mload(0x40)\n      mload(0x40)\n      dup1\n      swap2\n      sub\n      swap1\n      log2\n        /* \"@chainlink/contracts@1.2.0/src/v0.8/functions/v1_0_0/FunctionsClient.sol\":2078:2364  function handleOracleFulfillment(bytes32 requestId, bytes memory response, bytes memory err) external override {... */\n      pop\n      pop\n      pop\n      jump\t// out\n        /* \"code-sample/docs.chain.link/samples/ChainlinkFunctions/Storage.sol\":583:610  bytes public s_lastResponse */\n    tag_20:\n      0x04\n      dup1\n      sload\n      tag_60\n      swap1\n      tag_61\n      jump\t// in\n    tag_60:\n      dup1\n      0x1f\n      add\n      0x20\n      dup1\n      swap2\n      div\n      mul\n      0x20\n      add\n      mload(0x40)\n      swap1\n      dup2\n      add\n      0x40\n      mstore\n      dup1\n      swap3\n      swap2\n      swap1\n      dup2\n      dup2\n      mstore\n      0x20\n      add\n      dup3\n      dup1\n      sload\n      tag_62\n      swap1\n      tag_61\n      jump\t// in\n    tag_62:\n      dup1\n      iszero\n      tag_63\n      jumpi\n      dup1\n      0x1f\n      lt\n      tag_64\n      jumpi\n      0x0100\n      dup1\n      dup4\n      sload\n      div\n      mul\n      dup4\n      mstore\n      swap2\n      0x20\n      add\n      swap2\n      jump(tag_63)\n    tag_64:\n      dup3\n      add\n      swap2\n      swap1\n      0x00\n      mstore\n      keccak256(0x00, 0x20)\n      swap1\n    tag_65:\n      dup2\n      sload\n      dup2\n      mstore\n      swap1\n      0x01\n      add\n      swap1\n      0x20\n      add\n      dup1\n      dup4\n      gt\n      tag_65\n      jumpi\n      dup3\n      swap1\n      sub\n      0x1f\n      and\n      dup3\n      add\n      swap2\n    tag_63:\n      pop\n      pop\n      pop\n      pop\n      pop\n      dup2\n      jump\t// out\n        /* \"code-sample/docs.chain.link/samples/ChainlinkFunctions/Storage.sol\":616:640  bytes public s_lastError */\n    tag_24:\n      0x05\n      dup1\n      sload\n      tag_66\n      swap1\n      tag_61\n      jump\t// in\n    tag_66:\n      dup1\n      0x1f\n      add\n      0x20\n      dup1\n      swap2\n      div\n      mul\n      0x20\n      add\n      mload(0x40)\n      swap1\n      dup2\n      add\n      0x40\n      mstore\n      dup1\n      swap3\n      swap2\n      swap1\n      dup2\n      dup2\n      mstore\n      0x20\n      add\n      dup3\n      dup1\n      sload\n      tag_67\n      swap1\n      tag_61\n      jump\t// in\n    tag_67:\n      dup1\n      iszero\n      tag_68\n      jumpi\n      dup1\n      0x1f\n      lt\n      tag_69\n      jumpi\n      0x0100\n      dup1\n      dup4\n      sload\n      div\n      mul\n      dup4\n      mstore\n      swap2\n      0x20\n      add\n      swap2\n      jump(tag_68)\n    tag_69:\n      dup3\n      add\n      swap2\n      swap1\n      0x00\n      mstore\n      keccak256(0x00, 0x20)\n      swap1\n    tag_70:\n      dup2\n      sload\n      dup2\n      mstore\n      swap1\n      0x01\n      add\n      swap1\n      0x20\n      add\n      dup1\n      dup4\n      gt\n      tag_70\n      jumpi\n      dup3\n      swap1\n      sub\n      0x1f\n      and\n      dup3\n      add\n      swap2\n    tag_68:\n      pop\n      pop\n      pop\n      pop\n      pop\n      dup2\n      jump\t// out\n        /* \"code-sample/docs.chain.link/samples/ChainlinkFunctions/Storage.sol\":1133:2174  function sendRequest(... */\n    tag_29:\n        /* \"code-sample/docs.chain.link/samples/ChainlinkFunctions/Storage.sol\":1459:1476  bytes32 requestId */\n      0x00\n        /* \"@chainlink/contracts@1.2.0/src/v0.8/shared/access/ConfirmedOwnerWithProposal.sol\":2075:2095  _validateOwnership() */\n      tag_72\n        /* \"@chainlink/contracts@1.2.0/src/v0.8/shared/access/ConfirmedOwnerWithProposal.sol\":2075:2093  _validateOwnership */\n      tag_73\n        /* \"@chainlink/contracts@1.2.0/src/v0.8/shared/access/ConfirmedOwnerWithProposal.sol\":2075:2095  _validateOwnership() */\n      jump\t// in\n    tag_72:\n        /* \"code-sample/docs.chain.link/samples/ChainlinkFunctions/Storage.sol\":1488:1523  FunctionsRequest.Request memory req */\n      tag_75\n      tag_76\n      jump\t// in\n    tag_75:\n        /* \"code-sample/docs.chain.link/samples/ChainlinkFunctions/Storage.sol\":1533:1581  req.initializeRequestForInlineJavaScript(source) */\n      tag_77\n        /* \"code-sample/docs.chain.link/samples/ChainlinkFunctions/Storage.sol\":1574:1580  source */\n      dup11\n        /* \"code-sample/docs.chain.link/samples/ChainlinkFunctions/Storage.sol\":1533:1536  req */\n      dup3\n        /* \"code-sample/docs.chain.link/samples/ChainlinkFunctions/Storage.sol\":1533:1573  req.initializeRequestForInlineJavaScript */\n      tag_78\n      swap1\n        /* \"code-sample/docs.chain.link/samples/ChainlinkFunctions/Storage.sol\":1533:1581  req.initializeRequestForInlineJavaScript(source) */\n      swap2\n      swap1\n      0xffffffff\n      and\n      jump\t// in\n    tag_77:\n        /* \"code-sample/docs.chain.link/samples/ChainlinkFunctions/Storage.sol\":1625:1626  0 */\n      0x00\n        /* \"code-sample/docs.chain.link/samples/ChainlinkFunctions/Storage.sol\":1595:1615  encryptedSecretsUrls */\n      dup10\n        /* \"code-sample/docs.chain.link/samples/ChainlinkFunctions/Storage.sol\":1595:1622  encryptedSecretsUrls.length */\n      mload\n        /* \"code-sample/docs.chain.link/samples/ChainlinkFunctions/Storage.sol\":1595:1626  encryptedSecretsUrls.length > 0 */\n      gt\n        /* \"code-sample/docs.chain.link/samples/ChainlinkFunctions/Storage.sol\":1591:1876  if (encryptedSecretsUrls.length > 0)... */\n      iszero\n      tag_79\n      jumpi\n        /* \"code-sample/docs.chain.link/samples/ChainlinkFunctions/Storage.sol\":1640:1685  req.addSecretsReference(encryptedSecretsUrls) */\n      tag_80\n        /* \"code-sample/docs.chain.link/samples/ChainlinkFunctions/Storage.sol\":1664:1684  encryptedSecretsUrls */\n      dup10\n        /* \"code-sample/docs.chain.link/samples/ChainlinkFunctions/Storage.sol\":1640:1643  req */\n      dup3\n        /* \"code-sample/docs.chain.link/samples/ChainlinkFunctions/Storage.sol\":1640:1663  req.addSecretsReference */\n      tag_81\n      swap1\n        /* \"code-sample/docs.chain.link/samples/ChainlinkFunctions/Storage.sol\":1640:1685  req.addSecretsReference(encryptedSecretsUrls) */\n      swap2\n      swap1\n      0xffffffff\n      and\n      jump\t// in\n    tag_80:\n        /* \"code-sample/docs.chain.link/samples/ChainlinkFunctions/Storage.sol\":1591:1876  if (encryptedSecretsUrls.length > 0)... */\n      jump(tag_82)\n    tag_79:\n        /* \"code-sample/docs.chain.link/samples/ChainlinkFunctions/Storage.sol\":1730:1731  0 */\n      0x00\n        /* \"code-sample/docs.chain.link/samples/ChainlinkFunctions/Storage.sol\":1704:1727  donHostedSecretsVersion */\n      dup8\n        /* \"code-sample/docs.chain.link/samples/ChainlinkFunctions/Storage.sol\":1704:1731  donHostedSecretsVersion > 0 */\n      0xffffffffffffffff\n      and\n      gt\n        /* \"code-sample/docs.chain.link/samples/ChainlinkFunctions/Storage.sol\":1700:1876  if (donHostedSecretsVersion > 0) {... */\n      iszero\n      tag_83\n      jumpi\n        /* \"code-sample/docs.chain.link/samples/ChainlinkFunctions/Storage.sol\":1747:1865  req.addDONHostedSecrets(... */\n      tag_84\n        /* \"code-sample/docs.chain.link/samples/ChainlinkFunctions/Storage.sol\":1788:1810  donHostedSecretsSlotID */\n      dup9\n        /* \"code-sample/docs.chain.link/samples/ChainlinkFunctions/Storage.sol\":1828:1851  donHostedSecretsVersion */\n      dup9\n        /* \"code-sample/docs.chain.link/samples/ChainlinkFunctions/Storage.sol\":1747:1750  req */\n      dup4\n        /* \"code-sample/docs.chain.link/samples/ChainlinkFunctions/Storage.sol\":1747:1770  req.addDONHostedSecrets */\n      tag_85\n      swap1\n        /* \"code-sample/docs.chain.link/samples/ChainlinkFunctions/Storage.sol\":1747:1865  req.addDONHostedSecrets(... */\n      swap3\n      swap2\n      swap1\n      0xffffffff\n      and\n      jump\t// in\n    tag_84:\n        /* \"code-sample/docs.chain.link/samples/ChainlinkFunctions/Storage.sol\":1700:1876  if (donHostedSecretsVersion > 0) {... */\n    tag_83:\n        /* \"code-sample/docs.chain.link/samples/ChainlinkFunctions/Storage.sol\":1591:1876  if (encryptedSecretsUrls.length > 0)... */\n    tag_82:\n        /* \"code-sample/docs.chain.link/samples/ChainlinkFunctions/Storage.sol\":1903:1904  0 */\n      0x00\n        /* \"code-sample/docs.chain.link/samples/ChainlinkFunctions/Storage.sol\":1889:1893  args */\n      dup7\n        /* \"code-sample/docs.chain.link/samples/ChainlinkFunctions/Storage.sol\":1889:1900  args.length */\n      mload\n        /* \"code-sample/docs.chain.link/samples/ChainlinkFunctions/Storage.sol\":1889:1904  args.length > 0 */\n      gt\n        /* \"code-sample/docs.chain.link/samples/ChainlinkFunctions/Storage.sol\":1885:1923  if (args.length > 0) req.setArgs(args) */\n      iszero\n      tag_86\n      jumpi\n        /* \"code-sample/docs.chain.link/samples/ChainlinkFunctions/Storage.sol\":1906:1923  req.setArgs(args) */\n      tag_87\n        /* \"code-sample/docs.chain.link/samples/ChainlinkFunctions/Storage.sol\":1918:1922  args */\n      dup7\n        /* \"code-sample/docs.chain.link/samples/ChainlinkFunctions/Storage.sol\":1906:1909  req */\n      dup3\n        /* \"code-sample/docs.chain.link/samples/ChainlinkFunctions/Storage.sol\":1906:1917  req.setArgs */\n      tag_88\n      swap1\n        /* \"code-sample/docs.chain.link/samples/ChainlinkFunctions/Storage.sol\":1906:1923  req.setArgs(args) */\n      swap2\n      swap1\n      0xffffffff\n      and\n      jump\t// in\n    tag_87:\n        /* \"code-sample/docs.chain.link/samples/ChainlinkFunctions/Storage.sol\":1885:1923  if (args.length > 0) req.setArgs(args) */\n    tag_86:\n        /* \"code-sample/docs.chain.link/samples/ChainlinkFunctions/Storage.sol\":1956:1957  0 */\n      0x00\n        /* \"code-sample/docs.chain.link/samples/ChainlinkFunctions/Storage.sol\":1937:1946  bytesArgs */\n      dup6\n        /* \"code-sample/docs.chain.link/samples/ChainlinkFunctions/Storage.sol\":1937:1953  bytesArgs.length */\n      mload\n        /* \"code-sample/docs.chain.link/samples/ChainlinkFunctions/Storage.sol\":1937:1957  bytesArgs.length > 0 */\n      gt\n        /* \"code-sample/docs.chain.link/samples/ChainlinkFunctions/Storage.sol\":1933:1986  if (bytesArgs.length > 0) req.setBytesArgs(bytesArgs) */\n      iszero\n      tag_89\n      jumpi\n        /* \"code-sample/docs.chain.link/samples/ChainlinkFunctions/Storage.sol\":1959:1986  req.setBytesArgs(bytesArgs) */\n      tag_90\n        /* \"code-sample/docs.chain.link/samples/ChainlinkFunctions/Storage.sol\":1976:1985  bytesArgs */\n      dup6\n        /* \"code-sample/docs.chain.link/samples/ChainlinkFunctions/Storage.sol\":1959:1962  req */\n      dup3\n        /* \"code-sample/docs.chain.link/samples/ChainlinkFunctions/Storage.sol\":1959:1975  req.setBytesArgs */\n      tag_91\n      swap1\n        /* \"code-sample/docs.chain.link/samples/ChainlinkFunctions/Storage.sol\":1959:1986  req.setBytesArgs(bytesArgs) */\n      swap2\n      swap1\n      0xffffffff\n      and\n      jump\t// in\n    tag_90:\n        /* \"code-sample/docs.chain.link/samples/ChainlinkFunctions/Storage.sol\":1933:1986  if (bytesArgs.length > 0) req.setBytesArgs(bytesArgs) */\n    tag_89:\n        /* \"code-sample/docs.chain.link/samples/ChainlinkFunctions/Storage.sol\":2014:2135  _sendRequest(... */\n      tag_92\n        /* \"code-sample/docs.chain.link/samples/ChainlinkFunctions/Storage.sol\":2040:2056  req.encodeCBOR() */\n      tag_93\n        /* \"code-sample/docs.chain.link/samples/ChainlinkFunctions/Storage.sol\":2040:2043  req */\n      dup3\n        /* \"code-sample/docs.chain.link/samples/ChainlinkFunctions/Storage.sol\":2040:2054  req.encodeCBOR */\n      tag_94\n        /* \"code-sample/docs.chain.link/samples/ChainlinkFunctions/Storage.sol\":2040:2056  req.encodeCBOR() */\n      jump\t// in\n    tag_93:\n        /* \"code-sample/docs.chain.link/samples/ChainlinkFunctions/Storage.sol\":2070:2084  subscriptionId */\n      dup6\n        /* \"code-sample/docs.chain.link/samples/ChainlinkFunctions/Storage.sol\":2098:2106  gasLimit */\n      dup6\n        /* \"code-sample/docs.chain.link/samples/ChainlinkFunctions/Storage.sol\":2120:2125  donID */\n      sload(0x07)\n        /* \"code-sample/docs.chain.link/samples/ChainlinkFunctions/Storage.sol\":2014:2026  _sendRequest */\n      tag_95\n        /* \"code-sample/docs.chain.link/samples/ChainlinkFunctions/Storage.sol\":2014:2135  _sendRequest(... */\n      jump\t// in\n    tag_92:\n        /* \"code-sample/docs.chain.link/samples/ChainlinkFunctions/Storage.sol\":1996:2011  s_lastRequestId */\n      0x03\n        /* \"code-sample/docs.chain.link/samples/ChainlinkFunctions/Storage.sol\":1996:2135  s_lastRequestId = _sendRequest(... */\n      dup2\n      swap1\n      sstore\n      pop\n        /* \"code-sample/docs.chain.link/samples/ChainlinkFunctions/Storage.sol\":2152:2167  s_lastRequestId */\n      sload(0x03)\n        /* \"code-sample/docs.chain.link/samples/ChainlinkFunctions/Storage.sol\":2145:2167  return s_lastRequestId */\n      swap2\n      pop\n      pop\n        /* \"code-sample/docs.chain.link/samples/ChainlinkFunctions/Storage.sol\":1133:2174  function sendRequest(... */\n      swap9\n      swap8\n      pop\n      pop\n      pop\n      pop\n      pop\n      pop\n      pop\n      pop\n      jump\t// out\n        /* \"code-sample/docs.chain.link/samples/ChainlinkFunctions/Storage.sol\":514:540  uint256 public counter = 0 */\n    tag_33:\n      sload(0x02)\n      dup2\n      jump\t// out\n        /* \"@chainlink/contracts@1.2.0/src/v0.8/shared/access/ConfirmedOwnerWithProposal.sol\":1026:1342  function acceptOwnership() external override {... */\n    tag_37:\n        /* \"@chainlink/contracts@1.2.0/src/v0.8/shared/access/ConfirmedOwnerWithProposal.sol\":1150:1164  s_pendingOwner */\n      0x01\n      0x00\n      swap1\n      sload\n      swap1\n      0x0100\n      exp\n      swap1\n      div\n      0xffffffffffffffffffffffffffffffffffffffff\n      and\n        /* \"@chainlink/contracts@1.2.0/src/v0.8/shared/access/ConfirmedOwnerWithProposal.sol\":1136:1164  msg.sender == s_pendingOwner */\n      0xffffffffffffffffffffffffffffffffffffffff\n      and\n        /* \"@chainlink/contracts@1.2.0/src/v0.8/shared/access/ConfirmedOwnerWithProposal.sol\":1136:1146  msg.sender */\n      caller\n        /* \"@chainlink/contracts@1.2.0/src/v0.8/shared/access/ConfirmedOwnerWithProposal.sol\":1136:1164  msg.sender == s_pendingOwner */\n      0xffffffffffffffffffffffffffffffffffffffff\n      and\n      eq\n        /* \"@chainlink/contracts@1.2.0/src/v0.8/shared/access/ConfirmedOwnerWithProposal.sol\":1128:1191  require(msg.sender == s_pendingOwner, \"Must be proposed owner\") */\n      tag_97\n      jumpi\n      mload(0x40)\n      0x08c379a000000000000000000000000000000000000000000000000000000000\n      dup2\n      mstore\n      0x04\n      add\n      tag_98\n      swap1\n      tag_99\n      jump\t// in\n    tag_98:\n      mload(0x40)\n      dup1\n      swap2\n      sub\n      swap1\n      revert\n    tag_97:\n        /* \"@chainlink/contracts@1.2.0/src/v0.8/shared/access/ConfirmedOwnerWithProposal.sol\":1198:1214  address oldOwner */\n      0x00\n        /* \"@chainlink/contracts@1.2.0/src/v0.8/shared/access/ConfirmedOwnerWithProposal.sol\":1217:1224  s_owner */\n      dup1\n      0x00\n      swap1\n      sload\n      swap1\n      0x0100\n      exp\n      swap1\n      div\n      0xffffffffffffffffffffffffffffffffffffffff\n      and\n        /* \"@chainlink/contracts@1.2.0/src/v0.8/shared/access/ConfirmedOwnerWithProposal.sol\":1198:1224  address oldOwner = s_owner */\n      swap1\n      pop\n        /* \"@chainlink/contracts@1.2.0/src/v0.8/shared/access/ConfirmedOwnerWithProposal.sol\":1240:1250  msg.sender */\n      caller\n        /* \"@chainlink/contracts@1.2.0/src/v0.8/shared/access/ConfirmedOwnerWithProposal.sol\":1230:1237  s_owner */\n      0x00\n      dup1\n        /* \"@chainlink/contracts@1.2.0/src/v0.8/shared/access/ConfirmedOwnerWithProposal.sol\":1230:1250  s_owner = msg.sender */\n      0x0100\n      exp\n      dup2\n      sload\n      dup2\n      0xffffffffffffffffffffffffffffffffffffffff\n      mul\n      not\n      and\n      swap1\n      dup4\n      0xffffffffffffffffffffffffffffffffffffffff\n      and\n      mul\n      or\n      swap1\n      sstore\n      pop\n        /* \"@chainlink/contracts@1.2.0/src/v0.8/shared/access/ConfirmedOwnerWithProposal.sol\":1281:1282  0 */\n      0x00\n        /* \"@chainlink/contracts@1.2.0/src/v0.8/shared/access/ConfirmedOwnerWithProposal.sol\":1256:1270  s_pendingOwner */\n      0x01\n      0x00\n        /* \"@chainlink/contracts@1.2.0/src/v0.8/shared/access/ConfirmedOwnerWithProposal.sol\":1256:1283  s_pendingOwner = address(0) */\n      0x0100\n      exp\n      dup2\n      sload\n      dup2\n      0xffffffffffffffffffffffffffffffffffffffff\n      mul\n      not\n      and\n      swap1\n      dup4\n      0xffffffffffffffffffffffffffffffffffffffff\n      and\n      mul\n      or\n      swap1\n      sstore\n      pop\n        /* \"@chainlink/contracts@1.2.0/src/v0.8/shared/access/ConfirmedOwnerWithProposal.sol\":1326:1336  msg.sender */\n      caller\n        /* \"@chainlink/contracts@1.2.0/src/v0.8/shared/access/ConfirmedOwnerWithProposal.sol\":1295:1337  OwnershipTransferred(oldOwner, msg.sender) */\n      0xffffffffffffffffffffffffffffffffffffffff\n      and\n        /* \"@chainlink/contracts@1.2.0/src/v0.8/shared/access/ConfirmedOwnerWithProposal.sol\":1316:1324  oldOwner */\n      dup2\n        /* \"@chainlink/contracts@1.2.0/src/v0.8/shared/access/ConfirmedOwnerWithProposal.sol\":1295:1337  OwnershipTransferred(oldOwner, msg.sender) */\n      0xffffffffffffffffffffffffffffffffffffffff\n      and\n      0x8be0079c531659141344cd1fd0a4f28419497f9722a3daafe3b4186f6b6457e0\n      mload(0x40)\n      mload(0x40)\n      dup1\n      swap2\n      sub\n      swap1\n      log3\n        /* \"@chainlink/contracts@1.2.0/src/v0.8/shared/access/ConfirmedOwnerWithProposal.sol\":1071:1342  {... */\n      pop\n        /* \"@chainlink/contracts@1.2.0/src/v0.8/shared/access/ConfirmedOwnerWithProposal.sol\":1026:1342  function acceptOwnership() external override {... */\n      jump\t// out\n        /* \"@chainlink/contracts@1.2.0/src/v0.8/shared/access/ConfirmedOwnerWithProposal.sol\":1382:1463  function owner() public view override returns (address) {... */\n    tag_39:\n        /* \"@chainlink/contracts@1.2.0/src/v0.8/shared/access/ConfirmedOwnerWithProposal.sol\":1429:1436  address */\n      0x00\n        /* \"@chainlink/contracts@1.2.0/src/v0.8/shared/access/ConfirmedOwnerWithProposal.sol\":1451:1458  s_owner */\n      dup1\n      0x00\n      swap1\n      sload\n      swap1\n      0x0100\n      exp\n      swap1\n      div\n      0xffffffffffffffffffffffffffffffffffffffff\n      and\n        /* \"@chainlink/contracts@1.2.0/src/v0.8/shared/access/ConfirmedOwnerWithProposal.sol\":1444:1458  return s_owner */\n      swap1\n      pop\n        /* \"@chainlink/contracts@1.2.0/src/v0.8/shared/access/ConfirmedOwnerWithProposal.sol\":1382:1463  function owner() public view override returns (address) {... */\n      swap1\n      jump\t// out\n        /* \"code-sample/docs.chain.link/samples/ChainlinkFunctions/Storage.sol\":547:577  bytes32 public s_lastRequestId */\n    tag_43:\n      sload(0x03)\n      dup2\n      jump\t// out\n        /* \"code-sample/docs.chain.link/samples/ChainlinkFunctions/Storage.sol\":1071:1127  function increment() external {... */\n    tag_46:\n        /* \"code-sample/docs.chain.link/samples/ChainlinkFunctions/Storage.sol\":1111:1118  counter */\n      0x02\n      0x00\n        /* \"code-sample/docs.chain.link/samples/ChainlinkFunctions/Storage.sol\":1111:1120  counter++ */\n      dup2\n      sload\n      dup1\n      swap3\n      swap2\n      swap1\n      tag_102\n      swap1\n      tag_103\n      jump\t// in\n    tag_102:\n      swap2\n      swap1\n      pop\n      sstore\n      pop\n        /* \"code-sample/docs.chain.link/samples/ChainlinkFunctions/Storage.sol\":1071:1127  function increment() external {... */\n      jump\t// out\n        /* \"code-sample/docs.chain.link/samples/ChainlinkFunctions/Storage.sol\":2181:2524  function sendRequestCBOR(... */\n    tag_50:\n        /* \"code-sample/docs.chain.link/samples/ChainlinkFunctions/Storage.sol\":2326:2343  bytes32 requestId */\n      0x00\n        /* \"@chainlink/contracts@1.2.0/src/v0.8/shared/access/ConfirmedOwnerWithProposal.sol\":2075:2095  _validateOwnership() */\n      tag_105\n        /* \"@chainlink/contracts@1.2.0/src/v0.8/shared/access/ConfirmedOwnerWithProposal.sol\":2075:2093  _validateOwnership */\n      tag_73\n        /* \"@chainlink/contracts@1.2.0/src/v0.8/shared/access/ConfirmedOwnerWithProposal.sol\":2075:2095  _validateOwnership() */\n      jump\t// in\n    tag_105:\n        /* \"code-sample/docs.chain.link/samples/ChainlinkFunctions/Storage.sol\":2373:2485  _sendRequest(... */\n      tag_107\n        /* \"code-sample/docs.chain.link/samples/ChainlinkFunctions/Storage.sol\":2399:2406  request */\n      dup5\n        /* \"code-sample/docs.chain.link/samples/ChainlinkFunctions/Storage.sol\":2420:2434  subscriptionId */\n      dup5\n        /* \"code-sample/docs.chain.link/samples/ChainlinkFunctions/Storage.sol\":2448:2456  gasLimit */\n      dup5\n        /* \"code-sample/docs.chain.link/samples/ChainlinkFunctions/Storage.sol\":2470:2475  donID */\n      sload(0x07)\n        /* \"code-sample/docs.chain.link/samples/ChainlinkFunctions/Storage.sol\":2373:2385  _sendRequest */\n      tag_95\n        /* \"code-sample/docs.chain.link/samples/ChainlinkFunctions/Storage.sol\":2373:2485  _sendRequest(... */\n      jump\t// in\n    tag_107:\n        /* \"code-sample/docs.chain.link/samples/ChainlinkFunctions/Storage.sol\":2355:2370  s_lastRequestId */\n      0x03\n        /* \"code-sample/docs.chain.link/samples/ChainlinkFunctions/Storage.sol\":2355:2485  s_lastRequestId = _sendRequest(... */\n      dup2\n      swap1\n      sstore\n      pop\n        /* \"code-sample/docs.chain.link/samples/ChainlinkFunctions/Storage.sol\":2502:2517  s_lastRequestId */\n      sload(0x03)\n        /* \"code-sample/docs.chain.link/samples/ChainlinkFunctions/Storage.sol\":2495:2517  return s_lastRequestId */\n      swap1\n      pop\n        /* \"code-sample/docs.chain.link/samples/ChainlinkFunctions/Storage.sol\":2181:2524  function sendRequestCBOR(... */\n      swap4\n      swap3\n      pop\n      pop\n      pop\n      jump\t// out\n        /* \"@chainlink/contracts@1.2.0/src/v0.8/shared/access/ConfirmedOwnerWithProposal.sol\":847:945  function transferOwnership(address to) public override onlyOwner {... */\n    tag_55:\n        /* \"@chainlink/contracts@1.2.0/src/v0.8/shared/access/ConfirmedOwnerWithProposal.sol\":2075:2095  _validateOwnership() */\n      tag_109\n        /* \"@chainlink/contracts@1.2.0/src/v0.8/shared/access/ConfirmedOwnerWithProposal.sol\":2075:2093  _validateOwnership */\n      tag_73\n        /* \"@chainlink/contracts@1.2.0/src/v0.8/shared/access/ConfirmedOwnerWithProposal.sol\":2075:2095  _validateOwnership() */\n      jump\t// in\n    tag_109:\n        /* \"@chainlink/contracts@1.2.0/src/v0.8/shared/access/ConfirmedOwnerWithProposal.sol\":918:940  _transferOwnership(to) */\n      tag_111\n        /* \"@chainlink/contracts@1.2.0/src/v0.8/shared/access/ConfirmedOwnerWithProposal.sol\":937:939  to */\n      dup2\n        /* \"@chainlink/contracts@1.2.0/src/v0.8/shared/access/ConfirmedOwnerWithProposal.sol\":918:936  _transferOwnership */\n      tag_112\n        /* \"@chainlink/contracts@1.2.0/src/v0.8/shared/access/ConfirmedOwnerWithProposal.sol\":918:940  _transferOwnership(to) */\n      jump\t// in\n    tag_111:\n        /* \"@chainlink/contracts@1.2.0/src/v0.8/shared/access/ConfirmedOwnerWithProposal.sol\":847:945  function transferOwnership(address to) public override onlyOwner {... */\n      pop\n      jump\t// out\n        /* \"code-sample/docs.chain.link/samples/ChainlinkFunctions/Storage.sol\":2530:2899  function fulfillRequest(... */\n    tag_59:\n        /* \"code-sample/docs.chain.link/samples/ChainlinkFunctions/Storage.sol\":2695:2704  requestId */\n      dup3\n        /* \"code-sample/docs.chain.link/samples/ChainlinkFunctions/Storage.sol\":2676:2691  s_lastRequestId */\n      sload(0x03)\n        /* \"code-sample/docs.chain.link/samples/ChainlinkFunctions/Storage.sol\":2676:2704  s_lastRequestId != requestId */\n      eq\n        /* \"code-sample/docs.chain.link/samples/ChainlinkFunctions/Storage.sol\":2672:2768  if (s_lastRequestId != requestId) {... */\n      tag_114\n      jumpi\n        /* \"code-sample/docs.chain.link/samples/ChainlinkFunctions/Storage.sol\":2747:2756  requestId */\n      dup3\n        /* \"code-sample/docs.chain.link/samples/ChainlinkFunctions/Storage.sol\":2727:2757  UnexpectedRequestID(requestId) */\n      mload(0x40)\n      0xd068bf5b00000000000000000000000000000000000000000000000000000000\n      dup2\n      mstore\n      0x04\n      add\n      tag_115\n      swap2\n      swap1\n      tag_31\n      jump\t// in\n    tag_115:\n      mload(0x40)\n      dup1\n      swap2\n      sub\n      swap1\n      revert\n        /* \"code-sample/docs.chain.link/samples/ChainlinkFunctions/Storage.sol\":2672:2768  if (s_lastRequestId != requestId) {... */\n    tag_114:\n        /* \"code-sample/docs.chain.link/samples/ChainlinkFunctions/Storage.sol\":2794:2802  response */\n      dup2\n        /* \"code-sample/docs.chain.link/samples/ChainlinkFunctions/Storage.sol\":2777:2791  s_lastResponse */\n      0x04\n        /* \"code-sample/docs.chain.link/samples/ChainlinkFunctions/Storage.sol\":2777:2802  s_lastResponse = response */\n      swap1\n      dup2\n      tag_116\n      swap2\n      swap1\n      tag_117\n      jump\t// in\n    tag_116:\n      pop\n        /* \"code-sample/docs.chain.link/samples/ChainlinkFunctions/Storage.sol\":2826:2829  err */\n      dup1\n        /* \"code-sample/docs.chain.link/samples/ChainlinkFunctions/Storage.sol\":2812:2823  s_lastError */\n      0x05\n        /* \"code-sample/docs.chain.link/samples/ChainlinkFunctions/Storage.sol\":2812:2829  s_lastError = err */\n      swap1\n      dup2\n      tag_118\n      swap2\n      swap1\n      tag_117\n      jump\t// in\n    tag_118:\n      pop\n        /* \"code-sample/docs.chain.link/samples/ChainlinkFunctions/Storage.sol\":2853:2862  requestId */\n      dup3\n        /* \"code-sample/docs.chain.link/samples/ChainlinkFunctions/Storage.sol\":2844:2892  Response(requestId, s_lastResponse, s_lastError) */\n      0x7873807bf6ddc50401cd3d29bbe0decee23fd4d68d273f4b5eb83cded4d2f172\n        /* \"code-sample/docs.chain.link/samples/ChainlinkFunctions/Storage.sol\":2864:2878  s_lastResponse */\n      0x04\n        /* \"code-sample/docs.chain.link/samples/ChainlinkFunctions/Storage.sol\":2880:2891  s_lastError */\n      0x05\n        /* \"code-sample/docs.chain.link/samples/ChainlinkFunctions/Storage.sol\":2844:2892  Response(requestId, s_lastResponse, s_lastError) */\n      mload(0x40)\n      tag_119\n      swap3\n      swap2\n      swap1\n      tag_120\n      jump\t// in\n    tag_119:\n      mload(0x40)\n      dup1\n      swap2\n      sub\n      swap1\n      log2\n        /* \"code-sample/docs.chain.link/samples/ChainlinkFunctions/Storage.sol\":2530:2899  function fulfillRequest(... */\n      pop\n      pop\n      pop\n      jump\t// out\n        /* \"@chainlink/contracts@1.2.0/src/v0.8/shared/access/ConfirmedOwnerWithProposal.sol\":1809:1971  function _validateOwnership() internal view {... */\n    tag_73:\n        /* \"@chainlink/contracts@1.2.0/src/v0.8/shared/access/ConfirmedOwnerWithProposal.sol\":1932:1939  s_owner */\n      0x00\n      dup1\n      sload\n      swap1\n      0x0100\n      exp\n      swap1\n      div\n      0xffffffffffffffffffffffffffffffffffffffff\n      and\n        /* \"@chainlink/contracts@1.2.0/src/v0.8/shared/access/ConfirmedOwnerWithProposal.sol\":1918:1939  msg.sender == s_owner */\n      0xffffffffffffffffffffffffffffffffffffffff\n      and\n        /* \"@chainlink/contracts@1.2.0/src/v0.8/shared/access/ConfirmedOwnerWithProposal.sol\":1918:1928  msg.sender */\n      caller\n        /* \"@chainlink/contracts@1.2.0/src/v0.8/shared/access/ConfirmedOwnerWithProposal.sol\":1918:1939  msg.sender == s_owner */\n      0xffffffffffffffffffffffffffffffffffffffff\n      and\n      eq\n        /* \"@chainlink/contracts@1.2.0/src/v0.8/shared/access/ConfirmedOwnerWithProposal.sol\":1910:1966  require(msg.sender == s_owner, \"Only callable by owner\") */\n      tag_122\n      jumpi\n      mload(0x40)\n      0x08c379a000000000000000000000000000000000000000000000000000000000\n      dup2\n      mstore\n      0x04\n      add\n      tag_123\n      swap1\n      tag_124\n      jump\t// in\n    tag_123:\n      mload(0x40)\n      dup1\n      swap2\n      sub\n      swap1\n      revert\n    tag_122:\n        /* \"@chainlink/contracts@1.2.0/src/v0.8/shared/access/ConfirmedOwnerWithProposal.sol\":1809:1971  function _validateOwnership() internal view {... */\n      jump\t// out\n        /* \"@chainlink/contracts@1.2.0/src/v0.8/functions/v1_0_0/libraries/FunctionsRequest.sol\":4323:4530  function initializeRequestForInlineJavaScript(Request memory self, string memory javaScriptSource) internal pure {... */\n    tag_78:\n        /* \"@chainlink/contracts@1.2.0/src/v0.8/functions/v1_0_0/libraries/FunctionsRequest.sol\":4442:4525  initializeRequest(self, Location.Inline, CodeLanguage.JavaScript, javaScriptSource) */\n      tag_126\n        /* \"@chainlink/contracts@1.2.0/src/v0.8/functions/v1_0_0/libraries/FunctionsRequest.sol\":4460:4464  self */\n      dup3\n        /* \"@chainlink/contracts@1.2.0/src/v0.8/functions/v1_0_0/libraries/FunctionsRequest.sol\":4466:4481  Location.Inline */\n      0x00\n        /* \"@chainlink/contracts@1.2.0/src/v0.8/functions/v1_0_0/libraries/FunctionsRequest.sol\":4483:4506  CodeLanguage.JavaScript */\n      dup1\n        /* \"@chainlink/contracts@1.2.0/src/v0.8/functions/v1_0_0/libraries/FunctionsRequest.sol\":4508:4524  javaScriptSource */\n      dup5\n        /* \"@chainlink/contracts@1.2.0/src/v0.8/functions/v1_0_0/libraries/FunctionsRequest.sol\":4442:4459  initializeRequest */\n      tag_127\n        /* \"@chainlink/contracts@1.2.0/src/v0.8/functions/v1_0_0/libraries/FunctionsRequest.sol\":4442:4525  initializeRequest(self, Location.Inline, CodeLanguage.JavaScript, javaScriptSource) */\n      jump\t// in\n    tag_126:\n        /* \"@chainlink/contracts@1.2.0/src/v0.8/functions/v1_0_0/libraries/FunctionsRequest.sol\":4323:4530  function initializeRequestForInlineJavaScript(Request memory self, string memory javaScriptSource) internal pure {... */\n      pop\n      pop\n      jump\t// out\n        /* \"@chainlink/contracts@1.2.0/src/v0.8/functions/v1_0_0/libraries/FunctionsRequest.sol\":4748:5036  function addSecretsReference(Request memory self, bytes memory encryptedSecretsReference) internal pure {... */\n    tag_81:\n        /* \"@chainlink/contracts@1.2.0/src/v0.8/functions/v1_0_0/libraries/FunctionsRequest.sol\":4898:4899  0 */\n      0x00\n        /* \"@chainlink/contracts@1.2.0/src/v0.8/functions/v1_0_0/libraries/FunctionsRequest.sol\":4862:4887  encryptedSecretsReference */\n      dup2\n        /* \"@chainlink/contracts@1.2.0/src/v0.8/functions/v1_0_0/libraries/FunctionsRequest.sol\":4862:4894  encryptedSecretsReference.length */\n      mload\n        /* \"@chainlink/contracts@1.2.0/src/v0.8/functions/v1_0_0/libraries/FunctionsRequest.sol\":4862:4899  encryptedSecretsReference.length == 0 */\n      sub\n        /* \"@chainlink/contracts@1.2.0/src/v0.8/functions/v1_0_0/libraries/FunctionsRequest.sol\":4858:4922  if (encryptedSecretsReference.length == 0) revert EmptySecrets() */\n      tag_129\n      jumpi\n        /* \"@chainlink/contracts@1.2.0/src/v0.8/functions/v1_0_0/libraries/FunctionsRequest.sol\":4908:4922  EmptySecrets() */\n      mload(0x40)\n      0xe889636f00000000000000000000000000000000000000000000000000000000\n      dup2\n      mstore\n      0x04\n      add\n      mload(0x40)\n      dup1\n      swap2\n      sub\n      swap1\n      revert\n        /* \"@chainlink/contracts@1.2.0/src/v0.8/functions/v1_0_0/libraries/FunctionsRequest.sol\":4858:4922  if (encryptedSecretsReference.length == 0) revert EmptySecrets() */\n    tag_129:\n        /* \"@chainlink/contracts@1.2.0/src/v0.8/functions/v1_0_0/libraries/FunctionsRequest.sol\":4952:4967  Location.Remote */\n      0x01\n        /* \"@chainlink/contracts@1.2.0/src/v0.8/functions/v1_0_0/libraries/FunctionsRequest.sol\":4929:4933  self */\n      dup3\n        /* \"@chainlink/contracts@1.2.0/src/v0.8/functions/v1_0_0/libraries/FunctionsRequest.sol\":4929:4949  self.secretsLocation */\n      0x20\n      add\n        /* \"@chainlink/contracts@1.2.0/src/v0.8/functions/v1_0_0/libraries/FunctionsRequest.sol\":4929:4967  self.secretsLocation = Location.Remote */\n      swap1\n      0x02\n      dup2\n      gt\n      iszero\n      tag_130\n      jumpi\n      tag_131\n      tag_132\n      jump\t// in\n    tag_131:\n    tag_130:\n      swap1\n      dup2\n      0x02\n      dup2\n      gt\n      iszero\n      tag_133\n      jumpi\n      tag_134\n      tag_132\n      jump\t// in\n    tag_134:\n    tag_133:\n      dup2\n      mstore\n      pop\n      pop\n        /* \"@chainlink/contracts@1.2.0/src/v0.8/functions/v1_0_0/libraries/FunctionsRequest.sol\":5006:5031  encryptedSecretsReference */\n      dup1\n        /* \"@chainlink/contracts@1.2.0/src/v0.8/functions/v1_0_0/libraries/FunctionsRequest.sol\":4973:4977  self */\n      dup3\n        /* \"@chainlink/contracts@1.2.0/src/v0.8/functions/v1_0_0/libraries/FunctionsRequest.sol\":4973:5003  self.encryptedSecretsReference */\n      0x80\n      add\n        /* \"@chainlink/contracts@1.2.0/src/v0.8/functions/v1_0_0/libraries/FunctionsRequest.sol\":4973:5031  self.encryptedSecretsReference = encryptedSecretsReference */\n      dup2\n      swap1\n      mstore\n      pop\n        /* \"@chainlink/contracts@1.2.0/src/v0.8/functions/v1_0_0/libraries/FunctionsRequest.sol\":4748:5036  function addSecretsReference(Request memory self, bytes memory encryptedSecretsReference) internal pure {... */\n      pop\n      pop\n      jump\t// out\n        /* \"@chainlink/contracts@1.2.0/src/v0.8/functions/v1_0_0/libraries/FunctionsRequest.sol\":5263:5668  function addDONHostedSecrets(Request memory self, uint8 slotID, uint64 version) internal pure {... */\n    tag_85:\n        /* \"@chainlink/contracts@1.2.0/src/v0.8/functions/v1_0_0/libraries/FunctionsRequest.sol\":5363:5392  CBOR.CBORBuffer memory buffer */\n      0x00\n        /* \"@chainlink/contracts@1.2.0/src/v0.8/functions/v1_0_0/libraries/FunctionsRequest.sol\":5395:5427  CBOR.create(DEFAULT_BUFFER_SIZE) */\n      tag_136\n        /* \"@chainlink/contracts@1.2.0/src/v0.8/functions/v1_0_0/libraries/FunctionsRequest.sol\":375:378  256 */\n      0x0100\n        /* \"@chainlink/contracts@1.2.0/src/v0.8/functions/v1_0_0/libraries/FunctionsRequest.sol\":5395:5406  CBOR.create */\n      tag_137\n        /* \"@chainlink/contracts@1.2.0/src/v0.8/functions/v1_0_0/libraries/FunctionsRequest.sol\":5395:5427  CBOR.create(DEFAULT_BUFFER_SIZE) */\n      jump\t// in\n    tag_136:\n        /* \"@chainlink/contracts@1.2.0/src/v0.8/functions/v1_0_0/libraries/FunctionsRequest.sol\":5363:5427  CBOR.CBORBuffer memory buffer = CBOR.create(DEFAULT_BUFFER_SIZE) */\n      swap1\n      pop\n        /* \"@chainlink/contracts@1.2.0/src/v0.8/functions/v1_0_0/libraries/FunctionsRequest.sol\":5434:5462  buffer.writeString(\"slotID\") */\n      tag_138\n      mload(0x40)\n      dup1\n      0x40\n      add\n      0x40\n      mstore\n      dup1\n      0x06\n      dup2\n      mstore\n      0x20\n      add\n      0x736c6f7449440000000000000000000000000000000000000000000000000000\n      dup2\n      mstore\n      pop\n        /* \"@chainlink/contracts@1.2.0/src/v0.8/functions/v1_0_0/libraries/FunctionsRequest.sol\":5434:5440  buffer */\n      dup3\n        /* \"@chainlink/contracts@1.2.0/src/v0.8/functions/v1_0_0/libraries/FunctionsRequest.sol\":5434:5452  buffer.writeString */\n      tag_139\n      swap1\n        /* \"@chainlink/contracts@1.2.0/src/v0.8/functions/v1_0_0/libraries/FunctionsRequest.sol\":5434:5462  buffer.writeString(\"slotID\") */\n      swap2\n      swap1\n      0xffffffff\n      and\n      jump\t// in\n    tag_138:\n        /* \"@chainlink/contracts@1.2.0/src/v0.8/functions/v1_0_0/libraries/FunctionsRequest.sol\":5468:5494  buffer.writeUInt64(slotID) */\n      tag_140\n        /* \"@chainlink/contracts@1.2.0/src/v0.8/functions/v1_0_0/libraries/FunctionsRequest.sol\":5487:5493  slotID */\n      dup4\n        /* \"@chainlink/contracts@1.2.0/src/v0.8/functions/v1_0_0/libraries/FunctionsRequest.sol\":5468:5494  buffer.writeUInt64(slotID) */\n      0xff\n      and\n        /* \"@chainlink/contracts@1.2.0/src/v0.8/functions/v1_0_0/libraries/FunctionsRequest.sol\":5468:5474  buffer */\n      dup3\n        /* \"@chainlink/contracts@1.2.0/src/v0.8/functions/v1_0_0/libraries/FunctionsRequest.sol\":5468:5486  buffer.writeUInt64 */\n      tag_141\n      swap1\n        /* \"@chainlink/contracts@1.2.0/src/v0.8/functions/v1_0_0/libraries/FunctionsRequest.sol\":5468:5494  buffer.writeUInt64(slotID) */\n      swap2\n      swap1\n      0xffffffff\n      and\n      jump\t// in\n    tag_140:\n        /* \"@chainlink/contracts@1.2.0/src/v0.8/functions/v1_0_0/libraries/FunctionsRequest.sol\":5500:5529  buffer.writeString(\"version\") */\n      tag_142\n      mload(0x40)\n      dup1\n      0x40\n      add\n      0x40\n      mstore\n      dup1\n      0x07\n      dup2\n      mstore\n      0x20\n      add\n      0x76657273696f6e00000000000000000000000000000000000000000000000000\n      dup2\n      mstore\n      pop\n        /* \"@chainlink/contracts@1.2.0/src/v0.8/functions/v1_0_0/libraries/FunctionsRequest.sol\":5500:5506  buffer */\n      dup3\n        /* \"@chainlink/contracts@1.2.0/src/v0.8/functions/v1_0_0/libraries/FunctionsRequest.sol\":5500:5518  buffer.writeString */\n      tag_139\n      swap1\n        /* \"@chainlink/contracts@1.2.0/src/v0.8/functions/v1_0_0/libraries/FunctionsRequest.sol\":5500:5529  buffer.writeString(\"version\") */\n      swap2\n      swap1\n      0xffffffff\n      and\n      jump\t// in\n    tag_142:\n        /* \"@chainlink/contracts@1.2.0/src/v0.8/functions/v1_0_0/libraries/FunctionsRequest.sol\":5535:5562  buffer.writeUInt64(version) */\n      tag_143\n        /* \"@chainlink/contracts@1.2.0/src/v0.8/functions/v1_0_0/libraries/FunctionsRequest.sol\":5554:5561  version */\n      dup3\n        /* \"@chainlink/contracts@1.2.0/src/v0.8/functions/v1_0_0/libraries/FunctionsRequest.sol\":5535:5541  buffer */\n      dup3\n        /* \"@chainlink/contracts@1.2.0/src/v0.8/functions/v1_0_0/libraries/FunctionsRequest.sol\":5535:5553  buffer.writeUInt64 */\n      tag_141\n      swap1\n        /* \"@chainlink/contracts@1.2.0/src/v0.8/functions/v1_0_0/libraries/FunctionsRequest.sol\":5535:5562  buffer.writeUInt64(version) */\n      swap2\n      swap1\n      0xffffffff\n      and\n      jump\t// in\n    tag_143:\n        /* \"@chainlink/contracts@1.2.0/src/v0.8/functions/v1_0_0/libraries/FunctionsRequest.sol\":5592:5610  Location.DONHosted */\n      0x02\n        /* \"@chainlink/contracts@1.2.0/src/v0.8/functions/v1_0_0/libraries/FunctionsRequest.sol\":5569:5573  self */\n      dup5\n        /* \"@chainlink/contracts@1.2.0/src/v0.8/functions/v1_0_0/libraries/FunctionsRequest.sol\":5569:5589  self.secretsLocation */\n      0x20\n      add\n        /* \"@chainlink/contracts@1.2.0/src/v0.8/functions/v1_0_0/libraries/FunctionsRequest.sol\":5569:5610  self.secretsLocation = Location.DONHosted */\n      swap1\n      0x02\n      dup2\n      gt\n      iszero\n      tag_144\n      jumpi\n      tag_145\n      tag_132\n      jump\t// in\n    tag_145:\n    tag_144:\n      swap1\n      dup2\n      0x02\n      dup2\n      gt\n      iszero\n      tag_146\n      jumpi\n      tag_147\n      tag_132\n      jump\t// in\n    tag_147:\n    tag_146:\n      dup2\n      mstore\n      pop\n      pop\n        /* \"@chainlink/contracts@1.2.0/src/v0.8/functions/v1_0_0/libraries/FunctionsRequest.sol\":5649:5655  buffer */\n      dup1\n        /* \"@chainlink/contracts@1.2.0/src/v0.8/functions/v1_0_0/libraries/FunctionsRequest.sol\":5649:5659  buffer.buf */\n      0x00\n      add\n      mload\n        /* \"@chainlink/contracts@1.2.0/src/v0.8/functions/v1_0_0/libraries/FunctionsRequest.sol\":5649:5663  buffer.buf.buf */\n      0x00\n      add\n      mload\n        /* \"@chainlink/contracts@1.2.0/src/v0.8/functions/v1_0_0/libraries/FunctionsRequest.sol\":5616:5620  self */\n      dup5\n        /* \"@chainlink/contracts@1.2.0/src/v0.8/functions/v1_0_0/libraries/FunctionsRequest.sol\":5616:5646  self.encryptedSecretsReference */\n      0x80\n      add\n        /* \"@chainlink/contracts@1.2.0/src/v0.8/functions/v1_0_0/libraries/FunctionsRequest.sol\":5616:5663  self.encryptedSecretsReference = buffer.buf.buf */\n      dup2\n      swap1\n      mstore\n      pop\n        /* \"@chainlink/contracts@1.2.0/src/v0.8/functions/v1_0_0/libraries/FunctionsRequest.sol\":5357:5668  {... */\n      pop\n        /* \"@chainlink/contracts@1.2.0/src/v0.8/functions/v1_0_0/libraries/FunctionsRequest.sol\":5263:5668  function addDONHostedSecrets(Request memory self, uint8 slotID, uint64 version) internal pure {... */\n      pop\n      pop\n      pop\n      jump\t// out\n        /* \"@chainlink/contracts@1.2.0/src/v0.8/functions/v1_0_0/libraries/FunctionsRequest.sol\":5827:5975  function setArgs(Request memory self, string[] memory args) internal pure {... */\n    tag_88:\n        /* \"@chainlink/contracts@1.2.0/src/v0.8/functions/v1_0_0/libraries/FunctionsRequest.sol\":5926:5927  0 */\n      0x00\n        /* \"@chainlink/contracts@1.2.0/src/v0.8/functions/v1_0_0/libraries/FunctionsRequest.sol\":5911:5915  args */\n      dup2\n        /* \"@chainlink/contracts@1.2.0/src/v0.8/functions/v1_0_0/libraries/FunctionsRequest.sol\":5911:5922  args.length */\n      mload\n        /* \"@chainlink/contracts@1.2.0/src/v0.8/functions/v1_0_0/libraries/FunctionsRequest.sol\":5911:5927  args.length == 0 */\n      sub\n        /* \"@chainlink/contracts@1.2.0/src/v0.8/functions/v1_0_0/libraries/FunctionsRequest.sol\":5907:5947  if (args.length == 0) revert EmptyArgs() */\n      tag_149\n      jumpi\n        /* \"@chainlink/contracts@1.2.0/src/v0.8/functions/v1_0_0/libraries/FunctionsRequest.sol\":5936:5947  EmptyArgs() */\n      mload(0x40)\n      0xfe936cb700000000000000000000000000000000000000000000000000000000\n      dup2\n      mstore\n      0x04\n      add\n      mload(0x40)\n      dup1\n      swap2\n      sub\n      swap1\n      revert\n        /* \"@chainlink/contracts@1.2.0/src/v0.8/functions/v1_0_0/libraries/FunctionsRequest.sol\":5907:5947  if (args.length == 0) revert EmptyArgs() */\n    tag_149:\n        /* \"@chainlink/contracts@1.2.0/src/v0.8/functions/v1_0_0/libraries/FunctionsRequest.sol\":5966:5970  args */\n      dup1\n        /* \"@chainlink/contracts@1.2.0/src/v0.8/functions/v1_0_0/libraries/FunctionsRequest.sol\":5954:5958  self */\n      dup3\n        /* \"@chainlink/contracts@1.2.0/src/v0.8/functions/v1_0_0/libraries/FunctionsRequest.sol\":5954:5963  self.args */\n      0xa0\n      add\n        /* \"@chainlink/contracts@1.2.0/src/v0.8/functions/v1_0_0/libraries/FunctionsRequest.sol\":5954:5970  self.args = args */\n      dup2\n      swap1\n      mstore\n      pop\n        /* \"@chainlink/contracts@1.2.0/src/v0.8/functions/v1_0_0/libraries/FunctionsRequest.sol\":5827:5975  function setArgs(Request memory self, string[] memory args) internal pure {... */\n      pop\n      pop\n      jump\t// out\n        /* \"@chainlink/contracts@1.2.0/src/v0.8/functions/v1_0_0/libraries/FunctionsRequest.sol\":6139:6296  function setBytesArgs(Request memory self, bytes[] memory args) internal pure {... */\n    tag_91:\n        /* \"@chainlink/contracts@1.2.0/src/v0.8/functions/v1_0_0/libraries/FunctionsRequest.sol\":6242:6243  0 */\n      0x00\n        /* \"@chainlink/contracts@1.2.0/src/v0.8/functions/v1_0_0/libraries/FunctionsRequest.sol\":6227:6231  args */\n      dup2\n        /* \"@chainlink/contracts@1.2.0/src/v0.8/functions/v1_0_0/libraries/FunctionsRequest.sol\":6227:6238  args.length */\n      mload\n        /* \"@chainlink/contracts@1.2.0/src/v0.8/functions/v1_0_0/libraries/FunctionsRequest.sol\":6227:6243  args.length == 0 */\n      sub\n        /* \"@chainlink/contracts@1.2.0/src/v0.8/functions/v1_0_0/libraries/FunctionsRequest.sol\":6223:6263  if (args.length == 0) revert EmptyArgs() */\n      tag_151\n      jumpi\n        /* \"@chainlink/contracts@1.2.0/src/v0.8/functions/v1_0_0/libraries/FunctionsRequest.sol\":6252:6263  EmptyArgs() */\n      mload(0x40)\n      0xfe936cb700000000000000000000000000000000000000000000000000000000\n      dup2\n      mstore\n      0x04\n      add\n      mload(0x40)\n      dup1\n      swap2\n      sub\n      swap1\n      revert\n        /* \"@chainlink/contracts@1.2.0/src/v0.8/functions/v1_0_0/libraries/FunctionsRequest.sol\":6223:6263  if (args.length == 0) revert EmptyArgs() */\n    tag_151:\n        /* \"@chainlink/contracts@1.2.0/src/v0.8/functions/v1_0_0/libraries/FunctionsRequest.sol\":6287:6291  args */\n      dup1\n        /* \"@chainlink/contracts@1.2.0/src/v0.8/functions/v1_0_0/libraries/FunctionsRequest.sol\":6270:6274  self */\n      dup3\n        /* \"@chainlink/contracts@1.2.0/src/v0.8/functions/v1_0_0/libraries/FunctionsRequest.sol\":6270:6284  self.bytesArgs */\n      0xc0\n      add\n        /* \"@chainlink/contracts@1.2.0/src/v0.8/functions/v1_0_0/libraries/FunctionsRequest.sol\":6270:6291  self.bytesArgs = args */\n      dup2\n      swap1\n      mstore\n      pop\n        /* \"@chainlink/contracts@1.2.0/src/v0.8/functions/v1_0_0/libraries/FunctionsRequest.sol\":6139:6296  function setBytesArgs(Request memory self, bytes[] memory args) internal pure {... */\n      pop\n      pop\n      jump\t// out\n        /* \"@chainlink/contracts@1.2.0/src/v0.8/functions/v1_0_0/libraries/FunctionsRequest.sol\":2158:3428  function encodeCBOR(Request memory self) internal pure returns (bytes memory) {... */\n    tag_94:\n        /* \"@chainlink/contracts@1.2.0/src/v0.8/functions/v1_0_0/libraries/FunctionsRequest.sol\":2222:2234  bytes memory */\n      0x60\n        /* \"@chainlink/contracts@1.2.0/src/v0.8/functions/v1_0_0/libraries/FunctionsRequest.sol\":2242:2271  CBOR.CBORBuffer memory buffer */\n      0x00\n        /* \"@chainlink/contracts@1.2.0/src/v0.8/functions/v1_0_0/libraries/FunctionsRequest.sol\":2274:2306  CBOR.create(DEFAULT_BUFFER_SIZE) */\n      tag_153\n        /* \"@chainlink/contracts@1.2.0/src/v0.8/functions/v1_0_0/libraries/FunctionsRequest.sol\":375:378  256 */\n      0x0100\n        /* \"@chainlink/contracts@1.2.0/src/v0.8/functions/v1_0_0/libraries/FunctionsRequest.sol\":2274:2285  CBOR.create */\n      tag_137\n        /* \"@chainlink/contracts@1.2.0/src/v0.8/functions/v1_0_0/libraries/FunctionsRequest.sol\":2274:2306  CBOR.create(DEFAULT_BUFFER_SIZE) */\n      jump\t// in\n    tag_153:\n        /* \"@chainlink/contracts@1.2.0/src/v0.8/functions/v1_0_0/libraries/FunctionsRequest.sol\":2242:2306  CBOR.CBORBuffer memory buffer = CBOR.create(DEFAULT_BUFFER_SIZE) */\n      swap1\n      pop\n        /* \"@chainlink/contracts@1.2.0/src/v0.8/functions/v1_0_0/libraries/FunctionsRequest.sol\":2313:2347  buffer.writeString(\"codeLocation\") */\n      tag_154\n      mload(0x40)\n      dup1\n      0x40\n      add\n      0x40\n      mstore\n      dup1\n      0x0c\n      dup2\n      mstore\n      0x20\n      add\n      0x636f64654c6f636174696f6e0000000000000000000000000000000000000000\n      dup2\n      mstore\n      pop\n        /* \"@chainlink/contracts@1.2.0/src/v0.8/functions/v1_0_0/libraries/FunctionsRequest.sol\":2313:2319  buffer */\n      dup3\n        /* \"@chainlink/contracts@1.2.0/src/v0.8/functions/v1_0_0/libraries/FunctionsRequest.sol\":2313:2331  buffer.writeString */\n      tag_139\n      swap1\n        /* \"@chainlink/contracts@1.2.0/src/v0.8/functions/v1_0_0/libraries/FunctionsRequest.sol\":2313:2347  buffer.writeString(\"codeLocation\") */\n      swap2\n      swap1\n      0xffffffff\n      and\n      jump\t// in\n    tag_154:\n        /* \"@chainlink/contracts@1.2.0/src/v0.8/functions/v1_0_0/libraries/FunctionsRequest.sol\":2353:2400  buffer.writeUInt256(uint256(self.codeLocation)) */\n      tag_155\n        /* \"@chainlink/contracts@1.2.0/src/v0.8/functions/v1_0_0/libraries/FunctionsRequest.sol\":2381:2385  self */\n      dup4\n        /* \"@chainlink/contracts@1.2.0/src/v0.8/functions/v1_0_0/libraries/FunctionsRequest.sol\":2381:2398  self.codeLocation */\n      0x00\n      add\n      mload\n        /* \"@chainlink/contracts@1.2.0/src/v0.8/functions/v1_0_0/libraries/FunctionsRequest.sol\":2373:2399  uint256(self.codeLocation) */\n      0x02\n      dup2\n      gt\n      iszero\n      tag_156\n      jumpi\n      tag_157\n      tag_132\n      jump\t// in\n    tag_157:\n    tag_156:\n        /* \"@chainlink/contracts@1.2.0/src/v0.8/functions/v1_0_0/libraries/FunctionsRequest.sol\":2353:2359  buffer */\n      dup3\n        /* \"@chainlink/contracts@1.2.0/src/v0.8/functions/v1_0_0/libraries/FunctionsRequest.sol\":2353:2372  buffer.writeUInt256 */\n      tag_158\n      swap1\n        /* \"@chainlink/contracts@1.2.0/src/v0.8/functions/v1_0_0/libraries/FunctionsRequest.sol\":2353:2400  buffer.writeUInt256(uint256(self.codeLocation)) */\n      swap2\n      swap1\n      0xffffffff\n      and\n      jump\t// in\n    tag_155:\n        /* \"@chainlink/contracts@1.2.0/src/v0.8/functions/v1_0_0/libraries/FunctionsRequest.sol\":2407:2437  buffer.writeString(\"language\") */\n      tag_159\n      mload(0x40)\n      dup1\n      0x40\n      add\n      0x40\n      mstore\n      dup1\n      0x08\n      dup2\n      mstore\n      0x20\n      add\n      0x6c616e6775616765000000000000000000000000000000000000000000000000\n      dup2\n      mstore\n      pop\n        /* \"@chainlink/contracts@1.2.0/src/v0.8/functions/v1_0_0/libraries/FunctionsRequest.sol\":2407:2413  buffer */\n      dup3\n        /* \"@chainlink/contracts@1.2.0/src/v0.8/functions/v1_0_0/libraries/FunctionsRequest.sol\":2407:2425  buffer.writeString */\n      tag_139\n      swap1\n        /* \"@chainlink/contracts@1.2.0/src/v0.8/functions/v1_0_0/libraries/FunctionsRequest.sol\":2407:2437  buffer.writeString(\"language\") */\n      swap2\n      swap1\n      0xffffffff\n      and\n      jump\t// in\n    tag_159:\n        /* \"@chainlink/contracts@1.2.0/src/v0.8/functions/v1_0_0/libraries/FunctionsRequest.sol\":2443:2486  buffer.writeUInt256(uint256(self.language)) */\n      tag_160\n        /* \"@chainlink/contracts@1.2.0/src/v0.8/functions/v1_0_0/libraries/FunctionsRequest.sol\":2471:2475  self */\n      dup4\n        /* \"@chainlink/contracts@1.2.0/src/v0.8/functions/v1_0_0/libraries/FunctionsRequest.sol\":2471:2484  self.language */\n      0x40\n      add\n      mload\n        /* \"@chainlink/contracts@1.2.0/src/v0.8/functions/v1_0_0/libraries/FunctionsRequest.sol\":2463:2485  uint256(self.language) */\n      0x00\n      dup2\n      gt\n      iszero\n      tag_161\n      jumpi\n      tag_162\n      tag_132\n      jump\t// in\n    tag_162:\n    tag_161:\n        /* \"@chainlink/contracts@1.2.0/src/v0.8/functions/v1_0_0/libraries/FunctionsRequest.sol\":2443:2449  buffer */\n      dup3\n        /* \"@chainlink/contracts@1.2.0/src/v0.8/functions/v1_0_0/libraries/FunctionsRequest.sol\":2443:2462  buffer.writeUInt256 */\n      tag_158\n      swap1\n        /* \"@chainlink/contracts@1.2.0/src/v0.8/functions/v1_0_0/libraries/FunctionsRequest.sol\":2443:2486  buffer.writeUInt256(uint256(self.language)) */\n      swap2\n      swap1\n      0xffffffff\n      and\n      jump\t// in\n    tag_160:\n        /* \"@chainlink/contracts@1.2.0/src/v0.8/functions/v1_0_0/libraries/FunctionsRequest.sol\":2493:2521  buffer.writeString(\"source\") */\n      tag_163\n      mload(0x40)\n      dup1\n      0x40\n      add\n      0x40\n      mstore\n      dup1\n      0x06\n      dup2\n      mstore\n      0x20\n      add\n      0x736f757263650000000000000000000000000000000000000000000000000000\n      dup2\n      mstore\n      pop\n        /* \"@chainlink/contracts@1.2.0/src/v0.8/functions/v1_0_0/libraries/FunctionsRequest.sol\":2493:2499  buffer */\n      dup3\n        /* \"@chainlink/contracts@1.2.0/src/v0.8/functions/v1_0_0/libraries/FunctionsRequest.sol\":2493:2511  buffer.writeString */\n      tag_139\n      swap1\n        /* \"@chainlink/contracts@1.2.0/src/v0.8/functions/v1_0_0/libraries/FunctionsRequest.sol\":2493:2521  buffer.writeString(\"source\") */\n      swap2\n      swap1\n      0xffffffff\n      and\n      jump\t// in\n    tag_163:\n        /* \"@chainlink/contracts@1.2.0/src/v0.8/functions/v1_0_0/libraries/FunctionsRequest.sol\":2527:2558  buffer.writeString(self.source) */\n      tag_164\n        /* \"@chainlink/contracts@1.2.0/src/v0.8/functions/v1_0_0/libraries/FunctionsRequest.sol\":2546:2550  self */\n      dup4\n        /* \"@chainlink/contracts@1.2.0/src/v0.8/functions/v1_0_0/libraries/FunctionsRequest.sol\":2546:2557  self.source */\n      0x60\n      add\n      mload\n        /* \"@chainlink/contracts@1.2.0/src/v0.8/functions/v1_0_0/libraries/FunctionsRequest.sol\":2527:2533  buffer */\n      dup3\n        /* \"@chainlink/contracts@1.2.0/src/v0.8/functions/v1_0_0/libraries/FunctionsRequest.sol\":2527:2545  buffer.writeString */\n      tag_139\n      swap1\n        /* \"@chainlink/contracts@1.2.0/src/v0.8/functions/v1_0_0/libraries/FunctionsRequest.sol\":2527:2558  buffer.writeString(self.source) */\n      swap2\n      swap1\n      0xffffffff\n      and\n      jump\t// in\n    tag_164:\n        /* \"@chainlink/contracts@1.2.0/src/v0.8/functions/v1_0_0/libraries/FunctionsRequest.sol\":2588:2589  0 */\n      0x00\n        /* \"@chainlink/contracts@1.2.0/src/v0.8/functions/v1_0_0/libraries/FunctionsRequest.sol\":2569:2573  self */\n      dup4\n        /* \"@chainlink/contracts@1.2.0/src/v0.8/functions/v1_0_0/libraries/FunctionsRequest.sol\":2569:2578  self.args */\n      0xa0\n      add\n      mload\n        /* \"@chainlink/contracts@1.2.0/src/v0.8/functions/v1_0_0/libraries/FunctionsRequest.sol\":2569:2585  self.args.length */\n      mload\n        /* \"@chainlink/contracts@1.2.0/src/v0.8/functions/v1_0_0/libraries/FunctionsRequest.sol\":2569:2589  self.args.length > 0 */\n      gt\n        /* \"@chainlink/contracts@1.2.0/src/v0.8/functions/v1_0_0/libraries/FunctionsRequest.sol\":2565:2792  if (self.args.length > 0) {... */\n      iszero\n      tag_165\n      jumpi\n        /* \"@chainlink/contracts@1.2.0/src/v0.8/functions/v1_0_0/libraries/FunctionsRequest.sol\":2599:2625  buffer.writeString(\"args\") */\n      tag_166\n      mload(0x40)\n      dup1\n      0x40\n      add\n      0x40\n      mstore\n      dup1\n      0x04\n      dup2\n      mstore\n      0x20\n      add\n      0x6172677300000000000000000000000000000000000000000000000000000000\n      dup2\n      mstore\n      pop\n        /* \"@chainlink/contracts@1.2.0/src/v0.8/functions/v1_0_0/libraries/FunctionsRequest.sol\":2599:2605  buffer */\n      dup3\n        /* \"@chainlink/contracts@1.2.0/src/v0.8/functions/v1_0_0/libraries/FunctionsRequest.sol\":2599:2617  buffer.writeString */\n      tag_139\n      swap1\n        /* \"@chainlink/contracts@1.2.0/src/v0.8/functions/v1_0_0/libraries/FunctionsRequest.sol\":2599:2625  buffer.writeString(\"args\") */\n      swap2\n      swap1\n      0xffffffff\n      and\n      jump\t// in\n    tag_166:\n        /* \"@chainlink/contracts@1.2.0/src/v0.8/functions/v1_0_0/libraries/FunctionsRequest.sol\":2633:2652  buffer.startArray() */\n      tag_167\n        /* \"@chainlink/contracts@1.2.0/src/v0.8/functions/v1_0_0/libraries/FunctionsRequest.sol\":2633:2639  buffer */\n      dup2\n        /* \"@chainlink/contracts@1.2.0/src/v0.8/functions/v1_0_0/libraries/FunctionsRequest.sol\":2633:2650  buffer.startArray */\n      tag_168\n        /* \"@chainlink/contracts@1.2.0/src/v0.8/functions/v1_0_0/libraries/FunctionsRequest.sol\":2633:2652  buffer.startArray() */\n      jump\t// in\n    tag_167:\n        /* \"@chainlink/contracts@1.2.0/src/v0.8/functions/v1_0_0/libraries/FunctionsRequest.sol\":2665:2674  uint256 i */\n      0x00\n        /* \"@chainlink/contracts@1.2.0/src/v0.8/functions/v1_0_0/libraries/FunctionsRequest.sol\":2660:2758  for (uint256 i = 0; i < self.args.length; ++i) {... */\n    tag_169:\n        /* \"@chainlink/contracts@1.2.0/src/v0.8/functions/v1_0_0/libraries/FunctionsRequest.sol\":2684:2688  self */\n      dup4\n        /* \"@chainlink/contracts@1.2.0/src/v0.8/functions/v1_0_0/libraries/FunctionsRequest.sol\":2684:2693  self.args */\n      0xa0\n      add\n      mload\n        /* \"@chainlink/contracts@1.2.0/src/v0.8/functions/v1_0_0/libraries/FunctionsRequest.sol\":2684:2700  self.args.length */\n      mload\n        /* \"@chainlink/contracts@1.2.0/src/v0.8/functions/v1_0_0/libraries/FunctionsRequest.sol\":2680:2681  i */\n      dup2\n        /* \"@chainlink/contracts@1.2.0/src/v0.8/functions/v1_0_0/libraries/FunctionsRequest.sol\":2680:2700  i < self.args.length */\n      lt\n        /* \"@chainlink/contracts@1.2.0/src/v0.8/functions/v1_0_0/libraries/FunctionsRequest.sol\":2660:2758  for (uint256 i = 0; i < self.args.length; ++i) {... */\n      iszero\n      tag_170\n      jumpi\n        /* \"@chainlink/contracts@1.2.0/src/v0.8/functions/v1_0_0/libraries/FunctionsRequest.sol\":2717:2749  buffer.writeString(self.args[i]) */\n      tag_172\n        /* \"@chainlink/contracts@1.2.0/src/v0.8/functions/v1_0_0/libraries/FunctionsRequest.sol\":2736:2740  self */\n      dup5\n        /* \"@chainlink/contracts@1.2.0/src/v0.8/functions/v1_0_0/libraries/FunctionsRequest.sol\":2736:2745  self.args */\n      0xa0\n      add\n      mload\n        /* \"@chainlink/contracts@1.2.0/src/v0.8/functions/v1_0_0/libraries/FunctionsRequest.sol\":2746:2747  i */\n      dup3\n        /* \"@chainlink/contracts@1.2.0/src/v0.8/functions/v1_0_0/libraries/FunctionsRequest.sol\":2736:2748  self.args[i] */\n      dup2\n      mload\n      dup2\n      lt\n      tag_173\n      jumpi\n      tag_174\n      tag_175\n      jump\t// in\n    tag_174:\n    tag_173:\n      0x20\n      mul\n      0x20\n      add\n      add\n      mload\n        /* \"@chainlink/contracts@1.2.0/src/v0.8/functions/v1_0_0/libraries/FunctionsRequest.sol\":2717:2723  buffer */\n      dup4\n        /* \"@chainlink/contracts@1.2.0/src/v0.8/functions/v1_0_0/libraries/FunctionsRequest.sol\":2717:2735  buffer.writeString */\n      tag_139\n      swap1\n        /* \"@chainlink/contracts@1.2.0/src/v0.8/functions/v1_0_0/libraries/FunctionsRequest.sol\":2717:2749  buffer.writeString(self.args[i]) */\n      swap2\n      swap1\n      0xffffffff\n      and\n      jump\t// in\n    tag_172:\n        /* \"@chainlink/contracts@1.2.0/src/v0.8/functions/v1_0_0/libraries/FunctionsRequest.sol\":2702:2705  ++i */\n      dup1\n      tag_176\n      swap1\n      tag_103\n      jump\t// in\n    tag_176:\n      swap1\n      pop\n        /* \"@chainlink/contracts@1.2.0/src/v0.8/functions/v1_0_0/libraries/FunctionsRequest.sol\":2660:2758  for (uint256 i = 0; i < self.args.length; ++i) {... */\n      jump(tag_169)\n    tag_170:\n      pop\n        /* \"@chainlink/contracts@1.2.0/src/v0.8/functions/v1_0_0/libraries/FunctionsRequest.sol\":2765:2785  buffer.endSequence() */\n      tag_177\n        /* \"@chainlink/contracts@1.2.0/src/v0.8/functions/v1_0_0/libraries/FunctionsRequest.sol\":2765:2771  buffer */\n      dup2\n        /* \"@chainlink/contracts@1.2.0/src/v0.8/functions/v1_0_0/libraries/FunctionsRequest.sol\":2765:2783  buffer.endSequence */\n      tag_178\n        /* \"@chainlink/contracts@1.2.0/src/v0.8/functions/v1_0_0/libraries/FunctionsRequest.sol\":2765:2785  buffer.endSequence() */\n      jump\t// in\n    tag_177:\n        /* \"@chainlink/contracts@1.2.0/src/v0.8/functions/v1_0_0/libraries/FunctionsRequest.sol\":2565:2792  if (self.args.length > 0) {... */\n    tag_165:\n        /* \"@chainlink/contracts@1.2.0/src/v0.8/functions/v1_0_0/libraries/FunctionsRequest.sol\":2842:2843  0 */\n      0x00\n        /* \"@chainlink/contracts@1.2.0/src/v0.8/functions/v1_0_0/libraries/FunctionsRequest.sol\":2802:2806  self */\n      dup4\n        /* \"@chainlink/contracts@1.2.0/src/v0.8/functions/v1_0_0/libraries/FunctionsRequest.sol\":2802:2832  self.encryptedSecretsReference */\n      0x80\n      add\n      mload\n        /* \"@chainlink/contracts@1.2.0/src/v0.8/functions/v1_0_0/libraries/FunctionsRequest.sol\":2802:2839  self.encryptedSecretsReference.length */\n      mload\n        /* \"@chainlink/contracts@1.2.0/src/v0.8/functions/v1_0_0/libraries/FunctionsRequest.sol\":2802:2843  self.encryptedSecretsReference.length > 0 */\n      gt\n        /* \"@chainlink/contracts@1.2.0/src/v0.8/functions/v1_0_0/libraries/FunctionsRequest.sol\":2798:3144  if (self.encryptedSecretsReference.length > 0) {... */\n      iszero\n      tag_179\n      jumpi\n        /* \"@chainlink/contracts@1.2.0/src/v0.8/functions/v1_0_0/libraries/FunctionsRequest.sol\":2881:2896  Location.Inline */\n      0x00\n        /* \"@chainlink/contracts@1.2.0/src/v0.8/functions/v1_0_0/libraries/FunctionsRequest.sol\":2857:2896  self.secretsLocation == Location.Inline */\n      0x02\n      dup2\n      gt\n      iszero\n      tag_180\n      jumpi\n      tag_181\n      tag_132\n      jump\t// in\n    tag_181:\n    tag_180:\n        /* \"@chainlink/contracts@1.2.0/src/v0.8/functions/v1_0_0/libraries/FunctionsRequest.sol\":2857:2861  self */\n      dup4\n        /* \"@chainlink/contracts@1.2.0/src/v0.8/functions/v1_0_0/libraries/FunctionsRequest.sol\":2857:2877  self.secretsLocation */\n      0x20\n      add\n      mload\n        /* \"@chainlink/contracts@1.2.0/src/v0.8/functions/v1_0_0/libraries/FunctionsRequest.sol\":2857:2896  self.secretsLocation == Location.Inline */\n      0x02\n      dup2\n      gt\n      iszero\n      tag_182\n      jumpi\n      tag_183\n      tag_132\n      jump\t// in\n    tag_183:\n    tag_182:\n      sub\n        /* \"@chainlink/contracts@1.2.0/src/v0.8/functions/v1_0_0/libraries/FunctionsRequest.sol\":2853:2941  if (self.secretsLocation == Location.Inline) {... */\n      tag_184\n      jumpi\n        /* \"@chainlink/contracts@1.2.0/src/v0.8/functions/v1_0_0/libraries/FunctionsRequest.sol\":2915:2932  NoInlineSecrets() */\n      mload(0x40)\n      0xa80d31f700000000000000000000000000000000000000000000000000000000\n      dup2\n      mstore\n      0x04\n      add\n      mload(0x40)\n      dup1\n      swap2\n      sub\n      swap1\n      revert\n        /* \"@chainlink/contracts@1.2.0/src/v0.8/functions/v1_0_0/libraries/FunctionsRequest.sol\":2853:2941  if (self.secretsLocation == Location.Inline) {... */\n    tag_184:\n        /* \"@chainlink/contracts@1.2.0/src/v0.8/functions/v1_0_0/libraries/FunctionsRequest.sol\":2948:2985  buffer.writeString(\"secretsLocation\") */\n      tag_185\n      mload(0x40)\n      dup1\n      0x40\n      add\n      0x40\n      mstore\n      dup1\n      0x0f\n      dup2\n      mstore\n      0x20\n      add\n      0x736563726574734c6f636174696f6e0000000000000000000000000000000000\n      dup2\n      mstore\n      pop\n        /* \"@chainlink/contracts@1.2.0/src/v0.8/functions/v1_0_0/libraries/FunctionsRequest.sol\":2948:2954  buffer */\n      dup3\n        /* \"@chainlink/contracts@1.2.0/src/v0.8/functions/v1_0_0/libraries/FunctionsRequest.sol\":2948:2966  buffer.writeString */\n      tag_139\n      swap1\n        /* \"@chainlink/contracts@1.2.0/src/v0.8/functions/v1_0_0/libraries/FunctionsRequest.sol\":2948:2985  buffer.writeString(\"secretsLocation\") */\n      swap2\n      swap1\n      0xffffffff\n      and\n      jump\t// in\n    tag_185:\n        /* \"@chainlink/contracts@1.2.0/src/v0.8/functions/v1_0_0/libraries/FunctionsRequest.sol\":2993:3043  buffer.writeUInt256(uint256(self.secretsLocation)) */\n      tag_186\n        /* \"@chainlink/contracts@1.2.0/src/v0.8/functions/v1_0_0/libraries/FunctionsRequest.sol\":3021:3025  self */\n      dup4\n        /* \"@chainlink/contracts@1.2.0/src/v0.8/functions/v1_0_0/libraries/FunctionsRequest.sol\":3021:3041  self.secretsLocation */\n      0x20\n      add\n      mload\n        /* \"@chainlink/contracts@1.2.0/src/v0.8/functions/v1_0_0/libraries/FunctionsRequest.sol\":3013:3042  uint256(self.secretsLocation) */\n      0x02\n      dup2\n      gt\n      iszero\n      tag_187\n      jumpi\n      tag_188\n      tag_132\n      jump\t// in\n    tag_188:\n    tag_187:\n        /* \"@chainlink/contracts@1.2.0/src/v0.8/functions/v1_0_0/libraries/FunctionsRequest.sol\":2993:2999  buffer */\n      dup3\n        /* \"@chainlink/contracts@1.2.0/src/v0.8/functions/v1_0_0/libraries/FunctionsRequest.sol\":2993:3012  buffer.writeUInt256 */\n      tag_158\n      swap1\n        /* \"@chainlink/contracts@1.2.0/src/v0.8/functions/v1_0_0/libraries/FunctionsRequest.sol\":2993:3043  buffer.writeUInt256(uint256(self.secretsLocation)) */\n      swap2\n      swap1\n      0xffffffff\n      and\n      jump\t// in\n    tag_186:\n        /* \"@chainlink/contracts@1.2.0/src/v0.8/functions/v1_0_0/libraries/FunctionsRequest.sol\":3051:3080  buffer.writeString(\"secrets\") */\n      tag_189\n      mload(0x40)\n      dup1\n      0x40\n      add\n      0x40\n      mstore\n      dup1\n      0x07\n      dup2\n      mstore\n      0x20\n      add\n      0x7365637265747300000000000000000000000000000000000000000000000000\n      dup2\n      mstore\n      pop\n        /* \"@chainlink/contracts@1.2.0/src/v0.8/functions/v1_0_0/libraries/FunctionsRequest.sol\":3051:3057  buffer */\n      dup3\n        /* \"@chainlink/contracts@1.2.0/src/v0.8/functions/v1_0_0/libraries/FunctionsRequest.sol\":3051:3069  buffer.writeString */\n      tag_139\n      swap1\n        /* \"@chainlink/contracts@1.2.0/src/v0.8/functions/v1_0_0/libraries/FunctionsRequest.sol\":3051:3080  buffer.writeString(\"secrets\") */\n      swap2\n      swap1\n      0xffffffff\n      and\n      jump\t// in\n    tag_189:\n        /* \"@chainlink/contracts@1.2.0/src/v0.8/functions/v1_0_0/libraries/FunctionsRequest.sol\":3088:3137  buffer.writeBytes(self.encryptedSecretsReference) */\n      tag_190\n        /* \"@chainlink/contracts@1.2.0/src/v0.8/functions/v1_0_0/libraries/FunctionsRequest.sol\":3106:3110  self */\n      dup4\n        /* \"@chainlink/contracts@1.2.0/src/v0.8/functions/v1_0_0/libraries/FunctionsRequest.sol\":3106:3136  self.encryptedSecretsReference */\n      0x80\n      add\n      mload\n        /* \"@chainlink/contracts@1.2.0/src/v0.8/functions/v1_0_0/libraries/FunctionsRequest.sol\":3088:3094  buffer */\n      dup3\n        /* \"@chainlink/contracts@1.2.0/src/v0.8/functions/v1_0_0/libraries/FunctionsRequest.sol\":3088:3105  buffer.writeBytes */\n      tag_191\n      swap1\n        /* \"@chainlink/contracts@1.2.0/src/v0.8/functions/v1_0_0/libraries/FunctionsRequest.sol\":3088:3137  buffer.writeBytes(self.encryptedSecretsReference) */\n      swap2\n      swap1\n      0xffffffff\n      and\n      jump\t// in\n    tag_190:\n        /* \"@chainlink/contracts@1.2.0/src/v0.8/functions/v1_0_0/libraries/FunctionsRequest.sol\":2798:3144  if (self.encryptedSecretsReference.length > 0) {... */\n    tag_179:\n        /* \"@chainlink/contracts@1.2.0/src/v0.8/functions/v1_0_0/libraries/FunctionsRequest.sol\":3178:3179  0 */\n      0x00\n        /* \"@chainlink/contracts@1.2.0/src/v0.8/functions/v1_0_0/libraries/FunctionsRequest.sol\":3154:3158  self */\n      dup4\n        /* \"@chainlink/contracts@1.2.0/src/v0.8/functions/v1_0_0/libraries/FunctionsRequest.sol\":3154:3168  self.bytesArgs */\n      0xc0\n      add\n      mload\n        /* \"@chainlink/contracts@1.2.0/src/v0.8/functions/v1_0_0/libraries/FunctionsRequest.sol\":3154:3175  self.bytesArgs.length */\n      mload\n        /* \"@chainlink/contracts@1.2.0/src/v0.8/functions/v1_0_0/libraries/FunctionsRequest.sol\":3154:3179  self.bytesArgs.length > 0 */\n      gt\n        /* \"@chainlink/contracts@1.2.0/src/v0.8/functions/v1_0_0/libraries/FunctionsRequest.sol\":3150:3396  if (self.bytesArgs.length > 0) {... */\n      iszero\n      tag_192\n      jumpi\n        /* \"@chainlink/contracts@1.2.0/src/v0.8/functions/v1_0_0/libraries/FunctionsRequest.sol\":3189:3220  buffer.writeString(\"bytesArgs\") */\n      tag_193\n      mload(0x40)\n      dup1\n      0x40\n      add\n      0x40\n      mstore\n      dup1\n      0x09\n      dup2\n      mstore\n      0x20\n      add\n      0x6279746573417267730000000000000000000000000000000000000000000000\n      dup2\n      mstore\n      pop\n        /* \"@chainlink/contracts@1.2.0/src/v0.8/functions/v1_0_0/libraries/FunctionsRequest.sol\":3189:3195  buffer */\n      dup3\n        /* \"@chainlink/contracts@1.2.0/src/v0.8/functions/v1_0_0/libraries/FunctionsRequest.sol\":3189:3207  buffer.writeString */\n      tag_139\n      swap1\n        /* \"@chainlink/contracts@1.2.0/src/v0.8/functions/v1_0_0/libraries/FunctionsRequest.sol\":3189:3220  buffer.writeString(\"bytesArgs\") */\n      swap2\n      swap1\n      0xffffffff\n      and\n      jump\t// in\n    tag_193:\n        /* \"@chainlink/contracts@1.2.0/src/v0.8/functions/v1_0_0/libraries/FunctionsRequest.sol\":3228:3247  buffer.startArray() */\n      tag_194\n        /* \"@chainlink/contracts@1.2.0/src/v0.8/functions/v1_0_0/libraries/FunctionsRequest.sol\":3228:3234  buffer */\n      dup2\n        /* \"@chainlink/contracts@1.2.0/src/v0.8/functions/v1_0_0/libraries/FunctionsRequest.sol\":3228:3245  buffer.startArray */\n      tag_168\n        /* \"@chainlink/contracts@1.2.0/src/v0.8/functions/v1_0_0/libraries/FunctionsRequest.sol\":3228:3247  buffer.startArray() */\n      jump\t// in\n    tag_194:\n        /* \"@chainlink/contracts@1.2.0/src/v0.8/functions/v1_0_0/libraries/FunctionsRequest.sol\":3260:3269  uint256 i */\n      0x00\n        /* \"@chainlink/contracts@1.2.0/src/v0.8/functions/v1_0_0/libraries/FunctionsRequest.sol\":3255:3362  for (uint256 i = 0; i < self.bytesArgs.length; ++i) {... */\n    tag_195:\n        /* \"@chainlink/contracts@1.2.0/src/v0.8/functions/v1_0_0/libraries/FunctionsRequest.sol\":3279:3283  self */\n      dup4\n        /* \"@chainlink/contracts@1.2.0/src/v0.8/functions/v1_0_0/libraries/FunctionsRequest.sol\":3279:3293  self.bytesArgs */\n      0xc0\n      add\n      mload\n        /* \"@chainlink/contracts@1.2.0/src/v0.8/functions/v1_0_0/libraries/FunctionsRequest.sol\":3279:3300  self.bytesArgs.length */\n      mload\n        /* \"@chainlink/contracts@1.2.0/src/v0.8/functions/v1_0_0/libraries/FunctionsRequest.sol\":3275:3276  i */\n      dup2\n        /* \"@chainlink/contracts@1.2.0/src/v0.8/functions/v1_0_0/libraries/FunctionsRequest.sol\":3275:3300  i < self.bytesArgs.length */\n      lt\n        /* \"@chainlink/contracts@1.2.0/src/v0.8/functions/v1_0_0/libraries/FunctionsRequest.sol\":3255:3362  for (uint256 i = 0; i < self.bytesArgs.length; ++i) {... */\n      iszero\n      tag_196\n      jumpi\n        /* \"@chainlink/contracts@1.2.0/src/v0.8/functions/v1_0_0/libraries/FunctionsRequest.sol\":3317:3353  buffer.writeBytes(self.bytesArgs[i]) */\n      tag_198\n        /* \"@chainlink/contracts@1.2.0/src/v0.8/functions/v1_0_0/libraries/FunctionsRequest.sol\":3335:3339  self */\n      dup5\n        /* \"@chainlink/contracts@1.2.0/src/v0.8/functions/v1_0_0/libraries/FunctionsRequest.sol\":3335:3349  self.bytesArgs */\n      0xc0\n      add\n      mload\n        /* \"@chainlink/contracts@1.2.0/src/v0.8/functions/v1_0_0/libraries/FunctionsRequest.sol\":3350:3351  i */\n      dup3\n        /* \"@chainlink/contracts@1.2.0/src/v0.8/functions/v1_0_0/libraries/FunctionsRequest.sol\":3335:3352  self.bytesArgs[i] */\n      dup2\n      mload\n      dup2\n      lt\n      tag_199\n      jumpi\n      tag_200\n      tag_175\n      jump\t// in\n    tag_200:\n    tag_199:\n      0x20\n      mul\n      0x20\n      add\n      add\n      mload\n        /* \"@chainlink/contracts@1.2.0/src/v0.8/functions/v1_0_0/libraries/FunctionsRequest.sol\":3317:3323  buffer */\n      dup4\n        /* \"@chainlink/contracts@1.2.0/src/v0.8/functions/v1_0_0/libraries/FunctionsRequest.sol\":3317:3334  buffer.writeBytes */\n      tag_191\n      swap1\n        /* \"@chainlink/contracts@1.2.0/src/v0.8/functions/v1_0_0/libraries/FunctionsRequest.sol\":3317:3353  buffer.writeBytes(self.bytesArgs[i]) */\n      swap2\n      swap1\n      0xffffffff\n      and\n      jump\t// in\n    tag_198:\n        /* \"@chainlink/contracts@1.2.0/src/v0.8/functions/v1_0_0/libraries/FunctionsRequest.sol\":3302:3305  ++i */\n      dup1\n      tag_201\n      swap1\n      tag_103\n      jump\t// in\n    tag_201:\n      swap1\n      pop\n        /* \"@chainlink/contracts@1.2.0/src/v0.8/functions/v1_0_0/libraries/FunctionsRequest.sol\":3255:3362  for (uint256 i = 0; i < self.bytesArgs.length; ++i) {... */\n      jump(tag_195)\n    tag_196:\n      pop\n        /* \"@chainlink/contracts@1.2.0/src/v0.8/functions/v1_0_0/libraries/FunctionsRequest.sol\":3369:3389  buffer.endSequence() */\n      tag_202\n        /* \"@chainlink/contracts@1.2.0/src/v0.8/functions/v1_0_0/libraries/FunctionsRequest.sol\":3369:3375  buffer */\n      dup2\n        /* \"@chainlink/contracts@1.2.0/src/v0.8/functions/v1_0_0/libraries/FunctionsRequest.sol\":3369:3387  buffer.endSequence */\n      tag_178\n        /* \"@chainlink/contracts@1.2.0/src/v0.8/functions/v1_0_0/libraries/FunctionsRequest.sol\":3369:3389  buffer.endSequence() */\n      jump\t// in\n    tag_202:\n        /* \"@chainlink/contracts@1.2.0/src/v0.8/functions/v1_0_0/libraries/FunctionsRequest.sol\":3150:3396  if (self.bytesArgs.length > 0) {... */\n    tag_192:\n        /* \"@chainlink/contracts@1.2.0/src/v0.8/functions/v1_0_0/libraries/FunctionsRequest.sol\":3409:3415  buffer */\n      dup1\n        /* \"@chainlink/contracts@1.2.0/src/v0.8/functions/v1_0_0/libraries/FunctionsRequest.sol\":3409:3419  buffer.buf */\n      0x00\n      add\n      mload\n        /* \"@chainlink/contracts@1.2.0/src/v0.8/functions/v1_0_0/libraries/FunctionsRequest.sol\":3409:3423  buffer.buf.buf */\n      0x00\n      add\n      mload\n        /* \"@chainlink/contracts@1.2.0/src/v0.8/functions/v1_0_0/libraries/FunctionsRequest.sol\":3402:3423  return buffer.buf.buf */\n      swap2\n      pop\n      pop\n        /* \"@chainlink/contracts@1.2.0/src/v0.8/functions/v1_0_0/libraries/FunctionsRequest.sol\":2158:3428  function encodeCBOR(Request memory self) internal pure returns (bytes memory) {... */\n      swap2\n      swap1\n      pop\n      jump\t// out\n        /* \"@chainlink/contracts@1.2.0/src/v0.8/functions/v1_0_0/FunctionsClient.sol\":1158:1537  function _sendRequest(... */\n    tag_95:\n        /* \"@chainlink/contracts@1.2.0/src/v0.8/functions/v1_0_0/FunctionsClient.sol\":1300:1307  bytes32 */\n      0x00\n        /* \"@chainlink/contracts@1.2.0/src/v0.8/functions/v1_0_0/FunctionsClient.sol\":1315:1332  bytes32 requestId */\n      dup1\n        /* \"@chainlink/contracts@1.2.0/src/v0.8/functions/v1_0_0/FunctionsClient.sol\":1335:1343  i_router */\n      immutable(\"0x8e8fab5f003314da8d1873ea7720e8d9f47650136d916064d1edb8a11d682624\")\n        /* \"@chainlink/contracts@1.2.0/src/v0.8/functions/v1_0_0/FunctionsClient.sol\":1335:1355  i_router.sendRequest */\n      0xffffffffffffffffffffffffffffffffffffffff\n      and\n      0x461d2762\n        /* \"@chainlink/contracts@1.2.0/src/v0.8/functions/v1_0_0/FunctionsClient.sol\":1363:1377  subscriptionId */\n      dup7\n        /* \"@chainlink/contracts@1.2.0/src/v0.8/functions/v1_0_0/FunctionsClient.sol\":1385:1389  data */\n      dup9\n        /* \"@chainlink/contracts@1.2.0/src/v0.8/functions/v1_0_0/libraries/FunctionsRequest.sol\":322:323  1 */\n      0x01\n        /* \"@chainlink/contracts@1.2.0/src/v0.8/functions/v1_0_0/FunctionsClient.sol\":1442:1458  callbackGasLimit */\n      dup9\n        /* \"@chainlink/contracts@1.2.0/src/v0.8/functions/v1_0_0/FunctionsClient.sol\":1466:1471  donId */\n      dup9\n        /* \"@chainlink/contracts@1.2.0/src/v0.8/functions/v1_0_0/FunctionsClient.sol\":1335:1477  i_router.sendRequest(... */\n      mload(0x40)\n      dup7\n      0xffffffff\n      and\n      0xe0\n      shl\n      dup2\n      mstore\n      0x04\n      add\n      tag_204\n      swap6\n      swap5\n      swap4\n      swap3\n      swap2\n      swap1\n      tag_205\n      jump\t// in\n    tag_204:\n      0x20\n      mload(0x40)\n      dup1\n      dup4\n      sub\n      dup2\n      0x00\n      dup8\n      gas\n      call\n      iszero\n      dup1\n      iszero\n      tag_207\n      jumpi\n      returndatasize\n      0x00\n      dup1\n      returndatacopy\n      revert(0x00, returndatasize)\n    tag_207:\n      pop\n      pop\n      pop\n      pop\n      mload(0x40)\n      returndatasize\n      not(0x1f)\n      0x1f\n      dup3\n      add\n      and\n      dup3\n      add\n      dup1\n      0x40\n      mstore\n      pop\n      dup2\n      add\n      swap1\n      tag_208\n      swap2\n      swap1\n      tag_209\n      jump\t// in\n    tag_208:\n        /* \"@chainlink/contracts@1.2.0/src/v0.8/functions/v1_0_0/FunctionsClient.sol\":1315:1477  bytes32 requestId = i_router.sendRequest(... */\n      swap1\n      pop\n        /* \"@chainlink/contracts@1.2.0/src/v0.8/functions/v1_0_0/FunctionsClient.sol\":1500:1509  requestId */\n      dup1\n        /* \"@chainlink/contracts@1.2.0/src/v0.8/functions/v1_0_0/FunctionsClient.sol\":1488:1510  RequestSent(requestId) */\n      0x1131472297a800fee664d1d89cfa8f7676ff07189ecc53f80bbb5f4969099db8\n      mload(0x40)\n      mload(0x40)\n      dup1\n      swap2\n      sub\n      swap1\n      log2\n        /* \"@chainlink/contracts@1.2.0/src/v0.8/functions/v1_0_0/FunctionsClient.sol\":1523:1532  requestId */\n      dup1\n        /* \"@chainlink/contracts@1.2.0/src/v0.8/functions/v1_0_0/FunctionsClient.sol\":1516:1532  return requestId */\n      swap2\n      pop\n      pop\n        /* \"@chainlink/contracts@1.2.0/src/v0.8/functions/v1_0_0/FunctionsClient.sol\":1158:1537  function _sendRequest(... */\n      swap5\n      swap4\n      pop\n      pop\n      pop\n      pop\n      jump\t// out\n        /* \"@chainlink/contracts@1.2.0/src/v0.8/shared/access/ConfirmedOwnerWithProposal.sol\":1536:1775  function _transferOwnership(address to) private {... */\n    tag_112:\n        /* \"@chainlink/contracts@1.2.0/src/v0.8/shared/access/ConfirmedOwnerWithProposal.sol\":1655:1665  msg.sender */\n      caller\n        /* \"@chainlink/contracts@1.2.0/src/v0.8/shared/access/ConfirmedOwnerWithProposal.sol\":1649:1665  to != msg.sender */\n      0xffffffffffffffffffffffffffffffffffffffff\n      and\n        /* \"@chainlink/contracts@1.2.0/src/v0.8/shared/access/ConfirmedOwnerWithProposal.sol\":1649:1651  to */\n      dup2\n        /* \"@chainlink/contracts@1.2.0/src/v0.8/shared/access/ConfirmedOwnerWithProposal.sol\":1649:1665  to != msg.sender */\n      0xffffffffffffffffffffffffffffffffffffffff\n      and\n      sub\n        /* \"@chainlink/contracts@1.2.0/src/v0.8/shared/access/ConfirmedOwnerWithProposal.sol\":1641:1693  require(to != msg.sender, \"Cannot transfer to self\") */\n      tag_211\n      jumpi\n      mload(0x40)\n      0x08c379a000000000000000000000000000000000000000000000000000000000\n      dup2\n      mstore\n      0x04\n      add\n      tag_212\n      swap1\n      tag_213\n      jump\t// in\n    tag_212:\n      mload(0x40)\n      dup1\n      swap2\n      sub\n      swap1\n      revert\n    tag_211:\n        /* \"@chainlink/contracts@1.2.0/src/v0.8/shared/access/ConfirmedOwnerWithProposal.sol\":1717:1719  to */\n      dup1\n        /* \"@chainlink/contracts@1.2.0/src/v0.8/shared/access/ConfirmedOwnerWithProposal.sol\":1700:1714  s_pendingOwner */\n      0x01\n      0x00\n        /* \"@chainlink/contracts@1.2.0/src/v0.8/shared/access/ConfirmedOwnerWithProposal.sol\":1700:1719  s_pendingOwner = to */\n      0x0100\n      exp\n      dup2\n      sload\n      dup2\n      0xffffffffffffffffffffffffffffffffffffffff\n      mul\n      not\n      and\n      swap1\n      dup4\n      0xffffffffffffffffffffffffffffffffffffffff\n      and\n      mul\n      or\n      swap1\n      sstore\n      pop\n        /* \"@chainlink/contracts@1.2.0/src/v0.8/shared/access/ConfirmedOwnerWithProposal.sol\":1767:1769  to */\n      dup1\n        /* \"@chainlink/contracts@1.2.0/src/v0.8/shared/access/ConfirmedOwnerWithProposal.sol\":1731:1770  OwnershipTransferRequested(s_owner, to) */\n      0xffffffffffffffffffffffffffffffffffffffff\n      and\n        /* \"@chainlink/contracts@1.2.0/src/v0.8/shared/access/ConfirmedOwnerWithProposal.sol\":1758:1765  s_owner */\n      0x00\n      dup1\n      sload\n      swap1\n      0x0100\n      exp\n      swap1\n      div\n      0xffffffffffffffffffffffffffffffffffffffff\n      and\n        /* \"@chainlink/contracts@1.2.0/src/v0.8/shared/access/ConfirmedOwnerWithProposal.sol\":1731:1770  OwnershipTransferRequested(s_owner, to) */\n      0xffffffffffffffffffffffffffffffffffffffff\n      and\n      0xed8889f560326eb138920d842192f0eb3dd22b4f139c87a2c57538e05bae1278\n      mload(0x40)\n      mload(0x40)\n      dup1\n      swap2\n      sub\n      swap1\n      log3\n        /* \"@chainlink/contracts@1.2.0/src/v0.8/shared/access/ConfirmedOwnerWithProposal.sol\":1536:1775  function _transferOwnership(address to) private {... */\n      pop\n      jump\t// out\n        /* \"@chainlink/contracts@1.2.0/src/v0.8/functions/v1_0_0/libraries/FunctionsRequest.sol\":3777:4084  function initializeRequest(... */\n    tag_127:\n        /* \"@chainlink/contracts@1.2.0/src/v0.8/functions/v1_0_0/libraries/FunctionsRequest.sol\":3961:3962  0 */\n      0x00\n        /* \"@chainlink/contracts@1.2.0/src/v0.8/functions/v1_0_0/libraries/FunctionsRequest.sol\":3943:3949  source */\n      dup2\n        /* \"@chainlink/contracts@1.2.0/src/v0.8/functions/v1_0_0/libraries/FunctionsRequest.sol\":3937:3957  bytes(source).length */\n      mload\n        /* \"@chainlink/contracts@1.2.0/src/v0.8/functions/v1_0_0/libraries/FunctionsRequest.sol\":3937:3962  bytes(source).length == 0 */\n      sub\n        /* \"@chainlink/contracts@1.2.0/src/v0.8/functions/v1_0_0/libraries/FunctionsRequest.sol\":3933:3984  if (bytes(source).length == 0) revert EmptySource() */\n      tag_215\n      jumpi\n        /* \"@chainlink/contracts@1.2.0/src/v0.8/functions/v1_0_0/libraries/FunctionsRequest.sol\":3971:3984  EmptySource() */\n      mload(0x40)\n      0x22ce3edd00000000000000000000000000000000000000000000000000000000\n      dup2\n      mstore\n      0x04\n      add\n      mload(0x40)\n      dup1\n      swap2\n      sub\n      swap1\n      revert\n        /* \"@chainlink/contracts@1.2.0/src/v0.8/functions/v1_0_0/libraries/FunctionsRequest.sol\":3933:3984  if (bytes(source).length == 0) revert EmptySource() */\n    tag_215:\n        /* \"@chainlink/contracts@1.2.0/src/v0.8/functions/v1_0_0/libraries/FunctionsRequest.sol\":4011:4023  codeLocation */\n      dup3\n        /* \"@chainlink/contracts@1.2.0/src/v0.8/functions/v1_0_0/libraries/FunctionsRequest.sol\":3991:3995  self */\n      dup5\n        /* \"@chainlink/contracts@1.2.0/src/v0.8/functions/v1_0_0/libraries/FunctionsRequest.sol\":3991:4008  self.codeLocation */\n      0x00\n      add\n        /* \"@chainlink/contracts@1.2.0/src/v0.8/functions/v1_0_0/libraries/FunctionsRequest.sol\":3991:4023  self.codeLocation = codeLocation */\n      swap1\n      0x02\n      dup2\n      gt\n      iszero\n      tag_216\n      jumpi\n      tag_217\n      tag_132\n      jump\t// in\n    tag_217:\n    tag_216:\n      swap1\n      dup2\n      0x02\n      dup2\n      gt\n      iszero\n      tag_218\n      jumpi\n      tag_219\n      tag_132\n      jump\t// in\n    tag_219:\n    tag_218:\n      dup2\n      mstore\n      pop\n      pop\n        /* \"@chainlink/contracts@1.2.0/src/v0.8/functions/v1_0_0/libraries/FunctionsRequest.sol\":4045:4053  language */\n      dup2\n        /* \"@chainlink/contracts@1.2.0/src/v0.8/functions/v1_0_0/libraries/FunctionsRequest.sol\":4029:4033  self */\n      dup5\n        /* \"@chainlink/contracts@1.2.0/src/v0.8/functions/v1_0_0/libraries/FunctionsRequest.sol\":4029:4042  self.language */\n      0x40\n      add\n        /* \"@chainlink/contracts@1.2.0/src/v0.8/functions/v1_0_0/libraries/FunctionsRequest.sol\":4029:4053  self.language = language */\n      swap1\n      0x00\n      dup2\n      gt\n      iszero\n      tag_220\n      jumpi\n      tag_221\n      tag_132\n      jump\t// in\n    tag_221:\n    tag_220:\n      swap1\n      dup2\n      0x00\n      dup2\n      gt\n      iszero\n      tag_222\n      jumpi\n      tag_223\n      tag_132\n      jump\t// in\n    tag_223:\n    tag_222:\n      dup2\n      mstore\n      pop\n      pop\n        /* \"@chainlink/contracts@1.2.0/src/v0.8/functions/v1_0_0/libraries/FunctionsRequest.sol\":4073:4079  source */\n      dup1\n        /* \"@chainlink/contracts@1.2.0/src/v0.8/functions/v1_0_0/libraries/FunctionsRequest.sol\":4059:4063  self */\n      dup5\n        /* \"@chainlink/contracts@1.2.0/src/v0.8/functions/v1_0_0/libraries/FunctionsRequest.sol\":4059:4070  self.source */\n      0x60\n      add\n        /* \"@chainlink/contracts@1.2.0/src/v0.8/functions/v1_0_0/libraries/FunctionsRequest.sol\":4059:4079  self.source = source */\n      dup2\n      swap1\n      mstore\n      pop\n        /* \"@chainlink/contracts@1.2.0/src/v0.8/functions/v1_0_0/libraries/FunctionsRequest.sol\":3777:4084  function initializeRequest(... */\n      pop\n      pop\n      pop\n      pop\n      jump\t// out\n        /* \"@chainlink/contracts@1.2.0/src/v0.8/vendor/solidity-cborutils/v2.0.0/CBOR.sol\":1490:1663  function create(uint256 capacity) internal pure returns(CBORBuffer memory cbor) {... */\n    tag_137:\n        /* \"@chainlink/contracts@1.2.0/src/v0.8/vendor/solidity-cborutils/v2.0.0/CBOR.sol\":1546:1568  CBORBuffer memory cbor */\n      tag_224\n      tag_225\n      jump\t// in\n    tag_224:\n        /* \"@chainlink/contracts@1.2.0/src/v0.8/vendor/solidity-cborutils/v2.0.0/CBOR.sol\":1580:1611  Buffer.init(cbor.buf, capacity) */\n      tag_227\n        /* \"@chainlink/contracts@1.2.0/src/v0.8/vendor/solidity-cborutils/v2.0.0/CBOR.sol\":1592:1596  cbor */\n      dup2\n        /* \"@chainlink/contracts@1.2.0/src/v0.8/vendor/solidity-cborutils/v2.0.0/CBOR.sol\":1592:1600  cbor.buf */\n      0x00\n      add\n      mload\n        /* \"@chainlink/contracts@1.2.0/src/v0.8/vendor/solidity-cborutils/v2.0.0/CBOR.sol\":1602:1610  capacity */\n      dup4\n        /* \"@chainlink/contracts@1.2.0/src/v0.8/vendor/solidity-cborutils/v2.0.0/CBOR.sol\":1580:1591  Buffer.init */\n      tag_228\n        /* \"@chainlink/contracts@1.2.0/src/v0.8/vendor/solidity-cborutils/v2.0.0/CBOR.sol\":1580:1611  Buffer.init(cbor.buf, capacity) */\n      jump\t// in\n    tag_227:\n      pop\n        /* \"@chainlink/contracts@1.2.0/src/v0.8/vendor/solidity-cborutils/v2.0.0/CBOR.sol\":1634:1635  0 */\n      0x00\n        /* \"@chainlink/contracts@1.2.0/src/v0.8/vendor/solidity-cborutils/v2.0.0/CBOR.sol\":1621:1625  cbor */\n      dup2\n        /* \"@chainlink/contracts@1.2.0/src/v0.8/vendor/solidity-cborutils/v2.0.0/CBOR.sol\":1621:1631  cbor.depth */\n      0x20\n      add\n        /* \"@chainlink/contracts@1.2.0/src/v0.8/vendor/solidity-cborutils/v2.0.0/CBOR.sol\":1621:1635  cbor.depth = 0 */\n      dup2\n      dup2\n      mstore\n      pop\n      pop\n        /* \"@chainlink/contracts@1.2.0/src/v0.8/vendor/solidity-cborutils/v2.0.0/CBOR.sol\":1490:1663  function create(uint256 capacity) internal pure returns(CBORBuffer memory cbor) {... */\n      swap2\n      swap1\n      pop\n      jump\t// out\n        /* \"@chainlink/contracts@1.2.0/src/v0.8/vendor/solidity-cborutils/v2.0.0/CBOR.sol\":3021:3225  function writeString(CBORBuffer memory buf, string memory value) internal pure {... */\n    tag_139:\n        /* \"@chainlink/contracts@1.2.0/src/v0.8/vendor/solidity-cborutils/v2.0.0/CBOR.sol\":3110:3180  writeFixedNumeric(buf, MAJOR_TYPE_STRING, uint64(bytes(value).length)) */\n      tag_230\n        /* \"@chainlink/contracts@1.2.0/src/v0.8/vendor/solidity-cborutils/v2.0.0/CBOR.sol\":3128:3131  buf */\n      dup3\n        /* \"@chainlink/contracts@1.2.0/src/v0.8/vendor/solidity-cborutils/v2.0.0/CBOR.sol\":998:999  3 */\n      0x03\n        /* \"@chainlink/contracts@1.2.0/src/v0.8/vendor/solidity-cborutils/v2.0.0/CBOR.sol\":3165:3170  value */\n      dup4\n        /* \"@chainlink/contracts@1.2.0/src/v0.8/vendor/solidity-cborutils/v2.0.0/CBOR.sol\":3159:3178  bytes(value).length */\n      mload\n        /* \"@chainlink/contracts@1.2.0/src/v0.8/vendor/solidity-cborutils/v2.0.0/CBOR.sol\":3110:3127  writeFixedNumeric */\n      tag_231\n        /* \"@chainlink/contracts@1.2.0/src/v0.8/vendor/solidity-cborutils/v2.0.0/CBOR.sol\":3110:3180  writeFixedNumeric(buf, MAJOR_TYPE_STRING, uint64(bytes(value).length)) */\n      jump\t// in\n    tag_230:\n        /* \"@chainlink/contracts@1.2.0/src/v0.8/vendor/solidity-cborutils/v2.0.0/CBOR.sol\":3190:3218  buf.buf.append(bytes(value)) */\n      tag_232\n        /* \"@chainlink/contracts@1.2.0/src/v0.8/vendor/solidity-cborutils/v2.0.0/CBOR.sol\":3211:3216  value */\n      dup2\n        /* \"@chainlink/contracts@1.2.0/src/v0.8/vendor/solidity-cborutils/v2.0.0/CBOR.sol\":3190:3193  buf */\n      dup4\n        /* \"@chainlink/contracts@1.2.0/src/v0.8/vendor/solidity-cborutils/v2.0.0/CBOR.sol\":3190:3197  buf.buf */\n      0x00\n      add\n      mload\n        /* \"@chainlink/contracts@1.2.0/src/v0.8/vendor/solidity-cborutils/v2.0.0/CBOR.sol\":3190:3204  buf.buf.append */\n      tag_233\n      swap1\n        /* \"@chainlink/contracts@1.2.0/src/v0.8/vendor/solidity-cborutils/v2.0.0/CBOR.sol\":3190:3218  buf.buf.append(bytes(value)) */\n      swap2\n      swap1\n      0xffffffff\n      and\n      jump\t// in\n    tag_232:\n      pop\n        /* \"@chainlink/contracts@1.2.0/src/v0.8/vendor/solidity-cborutils/v2.0.0/CBOR.sol\":3021:3225  function writeString(CBORBuffer memory buf, string memory value) internal pure {... */\n      pop\n      pop\n      jump\t// out\n        /* \"@chainlink/contracts@1.2.0/src/v0.8/vendor/solidity-cborutils/v2.0.0/CBOR.sol\":2406:2540  function writeUInt64(CBORBuffer memory buf, uint64 value) internal pure {... */\n    tag_141:\n        /* \"@chainlink/contracts@1.2.0/src/v0.8/vendor/solidity-cborutils/v2.0.0/CBOR.sol\":2488:2533  writeFixedNumeric(buf, MAJOR_TYPE_INT, value) */\n      tag_235\n        /* \"@chainlink/contracts@1.2.0/src/v0.8/vendor/solidity-cborutils/v2.0.0/CBOR.sol\":2506:2509  buf */\n      dup3\n        /* \"@chainlink/contracts@1.2.0/src/v0.8/vendor/solidity-cborutils/v2.0.0/CBOR.sol\":843:844  0 */\n      0x00\n        /* \"@chainlink/contracts@1.2.0/src/v0.8/vendor/solidity-cborutils/v2.0.0/CBOR.sol\":2527:2532  value */\n      dup4\n        /* \"@chainlink/contracts@1.2.0/src/v0.8/vendor/solidity-cborutils/v2.0.0/CBOR.sol\":2488:2505  writeFixedNumeric */\n      tag_231\n        /* \"@chainlink/contracts@1.2.0/src/v0.8/vendor/solidity-cborutils/v2.0.0/CBOR.sol\":2488:2533  writeFixedNumeric(buf, MAJOR_TYPE_INT, value) */\n      jump\t// in\n    tag_235:\n        /* \"@chainlink/contracts@1.2.0/src/v0.8/vendor/solidity-cborutils/v2.0.0/CBOR.sol\":2406:2540  function writeUInt64(CBORBuffer memory buf, uint64 value) internal pure {... */\n      pop\n      pop\n      jump\t// out\n        /* \"@chainlink/contracts@1.2.0/src/v0.8/vendor/solidity-cborutils/v2.0.0/CBOR.sol\":1832:2034  function writeUInt256(CBORBuffer memory buf, uint256 value) internal pure {... */\n    tag_158:\n        /* \"@chainlink/contracts@1.2.0/src/v0.8/vendor/solidity-cborutils/v2.0.0/CBOR.sol\":1916:1983  buf.buf.appendUint8(uint8((MAJOR_TYPE_TAG << 5) | TAG_TYPE_BIGNUM)) */\n      tag_237\n        /* \"@chainlink/contracts@1.2.0/src/v0.8/vendor/solidity-cborutils/v2.0.0/CBOR.sol\":1246:1247  2 */\n      0x02\n        /* \"@chainlink/contracts@1.2.0/src/v0.8/vendor/solidity-cborutils/v2.0.0/CBOR.sol\":1961:1962  5 */\n      0x05\n        /* \"@chainlink/contracts@1.2.0/src/v0.8/vendor/solidity-cborutils/v2.0.0/CBOR.sol\":1141:1142  6 */\n      0x06\n        /* \"@chainlink/contracts@1.2.0/src/v0.8/vendor/solidity-cborutils/v2.0.0/CBOR.sol\":1943:1962  MAJOR_TYPE_TAG << 5 */\n      0xff\n      and\n      swap1\n      shl\n        /* \"@chainlink/contracts@1.2.0/src/v0.8/vendor/solidity-cborutils/v2.0.0/CBOR.sol\":1942:1981  (MAJOR_TYPE_TAG << 5) | TAG_TYPE_BIGNUM */\n      or\n        /* \"@chainlink/contracts@1.2.0/src/v0.8/vendor/solidity-cborutils/v2.0.0/CBOR.sol\":1916:1919  buf */\n      dup4\n        /* \"@chainlink/contracts@1.2.0/src/v0.8/vendor/solidity-cborutils/v2.0.0/CBOR.sol\":1916:1923  buf.buf */\n      0x00\n      add\n      mload\n        /* \"@chainlink/contracts@1.2.0/src/v0.8/vendor/solidity-cborutils/v2.0.0/CBOR.sol\":1916:1935  buf.buf.appendUint8 */\n      tag_238\n      swap1\n        /* \"@chainlink/contracts@1.2.0/src/v0.8/vendor/solidity-cborutils/v2.0.0/CBOR.sol\":1916:1983  buf.buf.appendUint8(uint8((MAJOR_TYPE_TAG << 5) | TAG_TYPE_BIGNUM)) */\n      swap2\n      swap1\n      0xffffffff\n      and\n      jump\t// in\n    tag_237:\n      pop\n        /* \"@chainlink/contracts@1.2.0/src/v0.8/vendor/solidity-cborutils/v2.0.0/CBOR.sol\":1993:2027  writeBytes(buf, abi.encode(value)) */\n      tag_239\n        /* \"@chainlink/contracts@1.2.0/src/v0.8/vendor/solidity-cborutils/v2.0.0/CBOR.sol\":2004:2007  buf */\n      dup3\n        /* \"@chainlink/contracts@1.2.0/src/v0.8/vendor/solidity-cborutils/v2.0.0/CBOR.sol\":2020:2025  value */\n      dup3\n        /* \"@chainlink/contracts@1.2.0/src/v0.8/vendor/solidity-cborutils/v2.0.0/CBOR.sol\":2009:2026  abi.encode(value) */\n      add(0x20, mload(0x40))\n      tag_240\n      swap2\n      swap1\n      tag_35\n      jump\t// in\n    tag_240:\n      mload(0x40)\n      0x20\n      dup2\n      dup4\n      sub\n      sub\n      dup2\n      mstore\n      swap1\n      0x40\n      mstore\n        /* \"@chainlink/contracts@1.2.0/src/v0.8/vendor/solidity-cborutils/v2.0.0/CBOR.sol\":1993:2003  writeBytes */\n      tag_191\n        /* \"@chainlink/contracts@1.2.0/src/v0.8/vendor/solidity-cborutils/v2.0.0/CBOR.sol\":1993:2027  writeBytes(buf, abi.encode(value)) */\n      jump\t// in\n    tag_239:\n        /* \"@chainlink/contracts@1.2.0/src/v0.8/vendor/solidity-cborutils/v2.0.0/CBOR.sol\":1832:2034  function writeUInt256(CBORBuffer memory buf, uint256 value) internal pure {... */\n      pop\n      pop\n      jump\t// out\n        /* \"@chainlink/contracts@1.2.0/src/v0.8/vendor/solidity-cborutils/v2.0.0/CBOR.sol\":3607:3753  function startArray(CBORBuffer memory buf) internal pure {... */\n    tag_168:\n        /* \"@chainlink/contracts@1.2.0/src/v0.8/vendor/solidity-cborutils/v2.0.0/CBOR.sol\":3674:3722  writeIndefiniteLengthType(buf, MAJOR_TYPE_ARRAY) */\n      tag_242\n        /* \"@chainlink/contracts@1.2.0/src/v0.8/vendor/solidity-cborutils/v2.0.0/CBOR.sol\":3700:3703  buf */\n      dup2\n        /* \"@chainlink/contracts@1.2.0/src/v0.8/vendor/solidity-cborutils/v2.0.0/CBOR.sol\":1047:1048  4 */\n      0x04\n        /* \"@chainlink/contracts@1.2.0/src/v0.8/vendor/solidity-cborutils/v2.0.0/CBOR.sol\":3674:3699  writeIndefiniteLengthType */\n      tag_243\n        /* \"@chainlink/contracts@1.2.0/src/v0.8/vendor/solidity-cborutils/v2.0.0/CBOR.sol\":3674:3722  writeIndefiniteLengthType(buf, MAJOR_TYPE_ARRAY) */\n      jump\t// in\n    tag_242:\n        /* \"@chainlink/contracts@1.2.0/src/v0.8/vendor/solidity-cborutils/v2.0.0/CBOR.sol\":3745:3746  1 */\n      0x01\n        /* \"@chainlink/contracts@1.2.0/src/v0.8/vendor/solidity-cborutils/v2.0.0/CBOR.sol\":3732:3735  buf */\n      dup2\n        /* \"@chainlink/contracts@1.2.0/src/v0.8/vendor/solidity-cborutils/v2.0.0/CBOR.sol\":3732:3741  buf.depth */\n      0x20\n      add\n        /* \"@chainlink/contracts@1.2.0/src/v0.8/vendor/solidity-cborutils/v2.0.0/CBOR.sol\":3732:3746  buf.depth += 1 */\n      dup2\n      dup2\n      mload\n      tag_244\n      swap2\n      swap1\n      tag_245\n      jump\t// in\n    tag_244:\n      swap2\n      pop\n      dup2\n      dup2\n      mstore\n      pop\n      pop\n        /* \"@chainlink/contracts@1.2.0/src/v0.8/vendor/solidity-cborutils/v2.0.0/CBOR.sol\":3607:3753  function startArray(CBORBuffer memory buf) internal pure {... */\n      pop\n      jump\t// out\n        /* \"@chainlink/contracts@1.2.0/src/v0.8/vendor/solidity-cborutils/v2.0.0/CBOR.sol\":4211:4365  function endSequence(CBORBuffer memory buf) internal pure {... */\n    tag_178:\n        /* \"@chainlink/contracts@1.2.0/src/v0.8/vendor/solidity-cborutils/v2.0.0/CBOR.sol\":4279:4334  writeIndefiniteLengthType(buf, MAJOR_TYPE_CONTENT_FREE) */\n      tag_247\n        /* \"@chainlink/contracts@1.2.0/src/v0.8/vendor/solidity-cborutils/v2.0.0/CBOR.sol\":4305:4308  buf */\n      dup2\n        /* \"@chainlink/contracts@1.2.0/src/v0.8/vendor/solidity-cborutils/v2.0.0/CBOR.sol\":1197:1198  7 */\n      0x07\n        /* \"@chainlink/contracts@1.2.0/src/v0.8/vendor/solidity-cborutils/v2.0.0/CBOR.sol\":4279:4304  writeIndefiniteLengthType */\n      tag_243\n        /* \"@chainlink/contracts@1.2.0/src/v0.8/vendor/solidity-cborutils/v2.0.0/CBOR.sol\":4279:4334  writeIndefiniteLengthType(buf, MAJOR_TYPE_CONTENT_FREE) */\n      jump\t// in\n    tag_247:\n        /* \"@chainlink/contracts@1.2.0/src/v0.8/vendor/solidity-cborutils/v2.0.0/CBOR.sol\":4357:4358  1 */\n      0x01\n        /* \"@chainlink/contracts@1.2.0/src/v0.8/vendor/solidity-cborutils/v2.0.0/CBOR.sol\":4344:4347  buf */\n      dup2\n        /* \"@chainlink/contracts@1.2.0/src/v0.8/vendor/solidity-cborutils/v2.0.0/CBOR.sol\":4344:4353  buf.depth */\n      0x20\n      add\n        /* \"@chainlink/contracts@1.2.0/src/v0.8/vendor/solidity-cborutils/v2.0.0/CBOR.sol\":4344:4358  buf.depth -= 1 */\n      dup2\n      dup2\n      mload\n      tag_248\n      swap2\n      swap1\n      tag_249\n      jump\t// in\n    tag_248:\n      swap2\n      pop\n      dup2\n      dup2\n      mstore\n      pop\n      pop\n        /* \"@chainlink/contracts@1.2.0/src/v0.8/vendor/solidity-cborutils/v2.0.0/CBOR.sol\":4211:4365  function endSequence(CBORBuffer memory buf) internal pure {... */\n      pop\n      jump\t// out\n        /* \"@chainlink/contracts@1.2.0/src/v0.8/vendor/solidity-cborutils/v2.0.0/CBOR.sol\":2828:3015  function writeBytes(CBORBuffer memory buf, bytes memory value) internal pure {... */\n    tag_191:\n        /* \"@chainlink/contracts@1.2.0/src/v0.8/vendor/solidity-cborutils/v2.0.0/CBOR.sol\":2915:2977  writeFixedNumeric(buf, MAJOR_TYPE_BYTES, uint64(value.length)) */\n      tag_251\n        /* \"@chainlink/contracts@1.2.0/src/v0.8/vendor/solidity-cborutils/v2.0.0/CBOR.sol\":2933:2936  buf */\n      dup3\n        /* \"@chainlink/contracts@1.2.0/src/v0.8/vendor/solidity-cborutils/v2.0.0/CBOR.sol\":948:949  2 */\n      0x02\n        /* \"@chainlink/contracts@1.2.0/src/v0.8/vendor/solidity-cborutils/v2.0.0/CBOR.sol\":2963:2968  value */\n      dup4\n        /* \"@chainlink/contracts@1.2.0/src/v0.8/vendor/solidity-cborutils/v2.0.0/CBOR.sol\":2963:2975  value.length */\n      mload\n        /* \"@chainlink/contracts@1.2.0/src/v0.8/vendor/solidity-cborutils/v2.0.0/CBOR.sol\":2915:2932  writeFixedNumeric */\n      tag_231\n        /* \"@chainlink/contracts@1.2.0/src/v0.8/vendor/solidity-cborutils/v2.0.0/CBOR.sol\":2915:2977  writeFixedNumeric(buf, MAJOR_TYPE_BYTES, uint64(value.length)) */\n      jump\t// in\n    tag_251:\n        /* \"@chainlink/contracts@1.2.0/src/v0.8/vendor/solidity-cborutils/v2.0.0/CBOR.sol\":2987:3008  buf.buf.append(value) */\n      tag_252\n        /* \"@chainlink/contracts@1.2.0/src/v0.8/vendor/solidity-cborutils/v2.0.0/CBOR.sol\":3002:3007  value */\n      dup2\n        /* \"@chainlink/contracts@1.2.0/src/v0.8/vendor/solidity-cborutils/v2.0.0/CBOR.sol\":2987:2990  buf */\n      dup4\n        /* \"@chainlink/contracts@1.2.0/src/v0.8/vendor/solidity-cborutils/v2.0.0/CBOR.sol\":2987:2994  buf.buf */\n      0x00\n      add\n      mload\n        /* \"@chainlink/contracts@1.2.0/src/v0.8/vendor/solidity-cborutils/v2.0.0/CBOR.sol\":2987:3001  buf.buf.append */\n      tag_233\n      swap1\n        /* \"@chainlink/contracts@1.2.0/src/v0.8/vendor/solidity-cborutils/v2.0.0/CBOR.sol\":2987:3008  buf.buf.append(value) */\n      swap2\n      swap1\n      0xffffffff\n      and\n      jump\t// in\n    tag_252:\n      pop\n        /* \"@chainlink/contracts@1.2.0/src/v0.8/vendor/solidity-cborutils/v2.0.0/CBOR.sol\":2828:3015  function writeBytes(CBORBuffer memory buf, bytes memory value) internal pure {... */\n      pop\n      pop\n      jump\t// out\n        /* \"@chainlink/contracts@1.2.0/src/v0.8/vendor/@ensdomains/buffer/v0.1.0/Buffer.sol\":1020:1575  function init(buffer memory buf, uint capacity) internal pure returns(buffer memory) {... */\n    tag_228:\n        /* \"@chainlink/contracts@1.2.0/src/v0.8/vendor/@ensdomains/buffer/v0.1.0/Buffer.sol\":1090:1103  buffer memory */\n      tag_253\n      tag_254\n      jump\t// in\n    tag_253:\n        /* \"@chainlink/contracts@1.2.0/src/v0.8/vendor/@ensdomains/buffer/v0.1.0/Buffer.sol\":1136:1137  0 */\n      0x00\n        /* \"@chainlink/contracts@1.2.0/src/v0.8/vendor/@ensdomains/buffer/v0.1.0/Buffer.sol\":1130:1132  32 */\n      0x20\n        /* \"@chainlink/contracts@1.2.0/src/v0.8/vendor/@ensdomains/buffer/v0.1.0/Buffer.sol\":1119:1127  capacity */\n      dup4\n        /* \"@chainlink/contracts@1.2.0/src/v0.8/vendor/@ensdomains/buffer/v0.1.0/Buffer.sol\":1119:1132  capacity % 32 */\n      tag_256\n      swap2\n      swap1\n      tag_257\n      jump\t// in\n    tag_256:\n        /* \"@chainlink/contracts@1.2.0/src/v0.8/vendor/@ensdomains/buffer/v0.1.0/Buffer.sol\":1119:1137  capacity % 32 != 0 */\n      eq\n        /* \"@chainlink/contracts@1.2.0/src/v0.8/vendor/@ensdomains/buffer/v0.1.0/Buffer.sol\":1115:1196  if (capacity % 32 != 0) {... */\n      tag_258\n      jumpi\n        /* \"@chainlink/contracts@1.2.0/src/v0.8/vendor/@ensdomains/buffer/v0.1.0/Buffer.sol\":1182:1184  32 */\n      0x20\n        /* \"@chainlink/contracts@1.2.0/src/v0.8/vendor/@ensdomains/buffer/v0.1.0/Buffer.sol\":1171:1179  capacity */\n      dup3\n        /* \"@chainlink/contracts@1.2.0/src/v0.8/vendor/@ensdomains/buffer/v0.1.0/Buffer.sol\":1171:1184  capacity % 32 */\n      tag_259\n      swap2\n      swap1\n      tag_257\n      jump\t// in\n    tag_259:\n        /* \"@chainlink/contracts@1.2.0/src/v0.8/vendor/@ensdomains/buffer/v0.1.0/Buffer.sol\":1165:1167  32 */\n      0x20\n        /* \"@chainlink/contracts@1.2.0/src/v0.8/vendor/@ensdomains/buffer/v0.1.0/Buffer.sol\":1165:1185  32 - (capacity % 32) */\n      tag_260\n      swap2\n      swap1\n      tag_249\n      jump\t// in\n    tag_260:\n        /* \"@chainlink/contracts@1.2.0/src/v0.8/vendor/@ensdomains/buffer/v0.1.0/Buffer.sol\":1153:1185  capacity += 32 - (capacity % 32) */\n      dup3\n      tag_261\n      swap2\n      swap1\n      tag_245\n      jump\t// in\n    tag_261:\n      swap2\n      pop\n        /* \"@chainlink/contracts@1.2.0/src/v0.8/vendor/@ensdomains/buffer/v0.1.0/Buffer.sol\":1115:1196  if (capacity % 32 != 0) {... */\n    tag_258:\n        /* \"@chainlink/contracts@1.2.0/src/v0.8/vendor/@ensdomains/buffer/v0.1.0/Buffer.sol\":1266:1274  capacity */\n      dup2\n        /* \"@chainlink/contracts@1.2.0/src/v0.8/vendor/@ensdomains/buffer/v0.1.0/Buffer.sol\":1251:1254  buf */\n      dup4\n        /* \"@chainlink/contracts@1.2.0/src/v0.8/vendor/@ensdomains/buffer/v0.1.0/Buffer.sol\":1251:1263  buf.capacity */\n      0x20\n      add\n        /* \"@chainlink/contracts@1.2.0/src/v0.8/vendor/@ensdomains/buffer/v0.1.0/Buffer.sol\":1251:1274  buf.capacity = capacity */\n      dup2\n      dup2\n      mstore\n      pop\n      pop\n        /* \"@chainlink/contracts@1.2.0/src/v0.8/vendor/@ensdomains/buffer/v0.1.0/Buffer.sol\":1324:1328  0x40 */\n      0x40\n        /* \"@chainlink/contracts@1.2.0/src/v0.8/vendor/@ensdomains/buffer/v0.1.0/Buffer.sol\":1318:1329  mload(0x40) */\n      mload\n        /* \"@chainlink/contracts@1.2.0/src/v0.8/vendor/@ensdomains/buffer/v0.1.0/Buffer.sol\":1354:1357  ptr */\n      dup1\n        /* \"@chainlink/contracts@1.2.0/src/v0.8/vendor/@ensdomains/buffer/v0.1.0/Buffer.sol\":1349:1352  buf */\n      dup5\n        /* \"@chainlink/contracts@1.2.0/src/v0.8/vendor/@ensdomains/buffer/v0.1.0/Buffer.sol\":1342:1358  mstore(buf, ptr) */\n      mstore\n        /* \"@chainlink/contracts@1.2.0/src/v0.8/vendor/@ensdomains/buffer/v0.1.0/Buffer.sol\":1383:1384  0 */\n      0x00\n        /* \"@chainlink/contracts@1.2.0/src/v0.8/vendor/@ensdomains/buffer/v0.1.0/Buffer.sol\":1378:1381  ptr */\n      dup2\n        /* \"@chainlink/contracts@1.2.0/src/v0.8/vendor/@ensdomains/buffer/v0.1.0/Buffer.sol\":1371:1385  mstore(ptr, 0) */\n      mstore\n        /* \"@chainlink/contracts@1.2.0/src/v0.8/vendor/@ensdomains/buffer/v0.1.0/Buffer.sol\":1426:1434  capacity */\n      dup3\n        /* \"@chainlink/contracts@1.2.0/src/v0.8/vendor/@ensdomains/buffer/v0.1.0/Buffer.sol\":1421:1424  ptr */\n      dup2\n        /* \"@chainlink/contracts@1.2.0/src/v0.8/vendor/@ensdomains/buffer/v0.1.0/Buffer.sol\":1417:1435  add(ptr, capacity) */\n      add\n        /* \"@chainlink/contracts@1.2.0/src/v0.8/vendor/@ensdomains/buffer/v0.1.0/Buffer.sol\":1413:1415  32 */\n      0x20\n        /* \"@chainlink/contracts@1.2.0/src/v0.8/vendor/@ensdomains/buffer/v0.1.0/Buffer.sol\":1409:1436  add(32, add(ptr, capacity)) */\n      add\n        /* \"@chainlink/contracts@1.2.0/src/v0.8/vendor/@ensdomains/buffer/v0.1.0/Buffer.sol\":1460:1463  ptr */\n      dup2\n        /* \"@chainlink/contracts@1.2.0/src/v0.8/vendor/@ensdomains/buffer/v0.1.0/Buffer.sol\":1455:1458  fpm */\n      dup2\n        /* \"@chainlink/contracts@1.2.0/src/v0.8/vendor/@ensdomains/buffer/v0.1.0/Buffer.sol\":1452:1464  lt(fpm, ptr) */\n      lt\n        /* \"@chainlink/contracts@1.2.0/src/v0.8/vendor/@ensdomains/buffer/v0.1.0/Buffer.sol\":1449:1509  if lt(fpm, ptr) {... */\n      iszero\n      tag_262\n      jumpi\n        /* \"@chainlink/contracts@1.2.0/src/v0.8/vendor/@ensdomains/buffer/v0.1.0/Buffer.sol\":1493:1494  0 */\n      0x00\n        /* \"@chainlink/contracts@1.2.0/src/v0.8/vendor/@ensdomains/buffer/v0.1.0/Buffer.sol\":1490:1491  0 */\n      dup1\n        /* \"@chainlink/contracts@1.2.0/src/v0.8/vendor/@ensdomains/buffer/v0.1.0/Buffer.sol\":1483:1495  revert(0, 0) */\n      revert\n        /* \"@chainlink/contracts@1.2.0/src/v0.8/vendor/@ensdomains/buffer/v0.1.0/Buffer.sol\":1449:1509  if lt(fpm, ptr) {... */\n    tag_262:\n        /* \"@chainlink/contracts@1.2.0/src/v0.8/vendor/@ensdomains/buffer/v0.1.0/Buffer.sol\":1535:1538  fpm */\n      dup1\n        /* \"@chainlink/contracts@1.2.0/src/v0.8/vendor/@ensdomains/buffer/v0.1.0/Buffer.sol\":1529:1533  0x40 */\n      0x40\n        /* \"@chainlink/contracts@1.2.0/src/v0.8/vendor/@ensdomains/buffer/v0.1.0/Buffer.sol\":1522:1539  mstore(0x40, fpm) */\n      mstore\n        /* \"@chainlink/contracts@1.2.0/src/v0.8/vendor/@ensdomains/buffer/v0.1.0/Buffer.sol\":1293:1549  {... */\n      pop\n      pop\n        /* \"@chainlink/contracts@1.2.0/src/v0.8/vendor/@ensdomains/buffer/v0.1.0/Buffer.sol\":1565:1568  buf */\n      dup3\n        /* \"@chainlink/contracts@1.2.0/src/v0.8/vendor/@ensdomains/buffer/v0.1.0/Buffer.sol\":1558:1568  return buf */\n      swap1\n      pop\n        /* \"@chainlink/contracts@1.2.0/src/v0.8/vendor/@ensdomains/buffer/v0.1.0/Buffer.sol\":1020:1575  function init(buffer memory buf, uint capacity) internal pure returns(buffer memory) {... */\n      swap3\n      swap2\n      pop\n      pop\n      jump\t// out\n        /* \"@chainlink/contracts@1.2.0/src/v0.8/vendor/solidity-cborutils/v2.0.0/CBOR.sol\":6156:6915  function writeFixedNumeric(... */\n    tag_231:\n        /* \"@chainlink/contracts@1.2.0/src/v0.8/vendor/solidity-cborutils/v2.0.0/CBOR.sol\":6299:6301  23 */\n      0x17\n        /* \"@chainlink/contracts@1.2.0/src/v0.8/vendor/solidity-cborutils/v2.0.0/CBOR.sol\":6290:6295  value */\n      dup2\n        /* \"@chainlink/contracts@1.2.0/src/v0.8/vendor/solidity-cborutils/v2.0.0/CBOR.sol\":6290:6301  value <= 23 */\n      0xffffffffffffffff\n      and\n      gt\n        /* \"@chainlink/contracts@1.2.0/src/v0.8/vendor/solidity-cborutils/v2.0.0/CBOR.sol\":6286:6909  if (value <= 23) {... */\n      tag_264\n      jumpi\n        /* \"@chainlink/contracts@1.2.0/src/v0.8/vendor/solidity-cborutils/v2.0.0/CBOR.sol\":6317:6365  buf.buf.appendUint8(uint8((major << 5) | value)) */\n      tag_265\n        /* \"@chainlink/contracts@1.2.0/src/v0.8/vendor/solidity-cborutils/v2.0.0/CBOR.sol\":6358:6363  value */\n      dup2\n        /* \"@chainlink/contracts@1.2.0/src/v0.8/vendor/solidity-cborutils/v2.0.0/CBOR.sol\":6353:6354  5 */\n      0x05\n        /* \"@chainlink/contracts@1.2.0/src/v0.8/vendor/solidity-cborutils/v2.0.0/CBOR.sol\":6344:6349  major */\n      dup5\n        /* \"@chainlink/contracts@1.2.0/src/v0.8/vendor/solidity-cborutils/v2.0.0/CBOR.sol\":6344:6354  major << 5 */\n      0xff\n      and\n      swap1\n      shl\n        /* \"@chainlink/contracts@1.2.0/src/v0.8/vendor/solidity-cborutils/v2.0.0/CBOR.sol\":6343:6363  (major << 5) | value */\n      0xff\n      and\n      or\n        /* \"@chainlink/contracts@1.2.0/src/v0.8/vendor/solidity-cborutils/v2.0.0/CBOR.sol\":6317:6320  buf */\n      dup5\n        /* \"@chainlink/contracts@1.2.0/src/v0.8/vendor/solidity-cborutils/v2.0.0/CBOR.sol\":6317:6324  buf.buf */\n      0x00\n      add\n      mload\n        /* \"@chainlink/contracts@1.2.0/src/v0.8/vendor/solidity-cborutils/v2.0.0/CBOR.sol\":6317:6336  buf.buf.appendUint8 */\n      tag_238\n      swap1\n        /* \"@chainlink/contracts@1.2.0/src/v0.8/vendor/solidity-cborutils/v2.0.0/CBOR.sol\":6317:6365  buf.buf.appendUint8(uint8((major << 5) | value)) */\n      swap2\n      swap1\n      0xffffffff\n      and\n      jump\t// in\n    tag_265:\n      pop\n        /* \"@chainlink/contracts@1.2.0/src/v0.8/vendor/solidity-cborutils/v2.0.0/CBOR.sol\":6286:6909  if (value <= 23) {... */\n      jump(tag_266)\n    tag_264:\n        /* \"@chainlink/contracts@1.2.0/src/v0.8/vendor/solidity-cborutils/v2.0.0/CBOR.sol\":6395:6399  0xFF */\n      0xff\n        /* \"@chainlink/contracts@1.2.0/src/v0.8/vendor/solidity-cborutils/v2.0.0/CBOR.sol\":6386:6391  value */\n      dup2\n        /* \"@chainlink/contracts@1.2.0/src/v0.8/vendor/solidity-cborutils/v2.0.0/CBOR.sol\":6386:6399  value <= 0xFF */\n      0xffffffffffffffff\n      and\n      gt\n        /* \"@chainlink/contracts@1.2.0/src/v0.8/vendor/solidity-cborutils/v2.0.0/CBOR.sol\":6382:6909  if (value <= 0xFF) {... */\n      tag_267\n      jumpi\n        /* \"@chainlink/contracts@1.2.0/src/v0.8/vendor/solidity-cborutils/v2.0.0/CBOR.sol\":6415:6460  buf.buf.appendUint8(uint8((major << 5) | 24)) */\n      tag_268\n        /* \"@chainlink/contracts@1.2.0/src/v0.8/vendor/solidity-cborutils/v2.0.0/CBOR.sol\":6456:6458  24 */\n      0x18\n        /* \"@chainlink/contracts@1.2.0/src/v0.8/vendor/solidity-cborutils/v2.0.0/CBOR.sol\":6451:6452  5 */\n      0x05\n        /* \"@chainlink/contracts@1.2.0/src/v0.8/vendor/solidity-cborutils/v2.0.0/CBOR.sol\":6442:6447  major */\n      dup5\n        /* \"@chainlink/contracts@1.2.0/src/v0.8/vendor/solidity-cborutils/v2.0.0/CBOR.sol\":6442:6452  major << 5 */\n      0xff\n      and\n      swap1\n      shl\n        /* \"@chainlink/contracts@1.2.0/src/v0.8/vendor/solidity-cborutils/v2.0.0/CBOR.sol\":6441:6458  (major << 5) | 24 */\n      or\n        /* \"@chainlink/contracts@1.2.0/src/v0.8/vendor/solidity-cborutils/v2.0.0/CBOR.sol\":6415:6418  buf */\n      dup5\n        /* \"@chainlink/contracts@1.2.0/src/v0.8/vendor/solidity-cborutils/v2.0.0/CBOR.sol\":6415:6422  buf.buf */\n      0x00\n      add\n      mload\n        /* \"@chainlink/contracts@1.2.0/src/v0.8/vendor/solidity-cborutils/v2.0.0/CBOR.sol\":6415:6434  buf.buf.appendUint8 */\n      tag_238\n      swap1\n        /* \"@chainlink/contracts@1.2.0/src/v0.8/vendor/solidity-cborutils/v2.0.0/CBOR.sol\":6415:6460  buf.buf.appendUint8(uint8((major << 5) | 24)) */\n      swap2\n      swap1\n      0xffffffff\n      and\n      jump\t// in\n    tag_268:\n      pop\n        /* \"@chainlink/contracts@1.2.0/src/v0.8/vendor/solidity-cborutils/v2.0.0/CBOR.sol\":6474:6501  buf.buf.appendInt(value, 1) */\n      tag_269\n        /* \"@chainlink/contracts@1.2.0/src/v0.8/vendor/solidity-cborutils/v2.0.0/CBOR.sol\":6492:6497  value */\n      dup2\n        /* \"@chainlink/contracts@1.2.0/src/v0.8/vendor/solidity-cborutils/v2.0.0/CBOR.sol\":6474:6501  buf.buf.appendInt(value, 1) */\n      0xffffffffffffffff\n      and\n        /* \"@chainlink/contracts@1.2.0/src/v0.8/vendor/solidity-cborutils/v2.0.0/CBOR.sol\":6499:6500  1 */\n      0x01\n        /* \"@chainlink/contracts@1.2.0/src/v0.8/vendor/solidity-cborutils/v2.0.0/CBOR.sol\":6474:6477  buf */\n      dup6\n        /* \"@chainlink/contracts@1.2.0/src/v0.8/vendor/solidity-cborutils/v2.0.0/CBOR.sol\":6474:6481  buf.buf */\n      0x00\n      add\n      mload\n        /* \"@chainlink/contracts@1.2.0/src/v0.8/vendor/solidity-cborutils/v2.0.0/CBOR.sol\":6474:6491  buf.buf.appendInt */\n      tag_270\n      swap1\n        /* \"@chainlink/contracts@1.2.0/src/v0.8/vendor/solidity-cborutils/v2.0.0/CBOR.sol\":6474:6501  buf.buf.appendInt(value, 1) */\n      swap3\n      swap2\n      swap1\n      0xffffffff\n      and\n      jump\t// in\n    tag_269:\n      pop\n        /* \"@chainlink/contracts@1.2.0/src/v0.8/vendor/solidity-cborutils/v2.0.0/CBOR.sol\":6382:6909  if (value <= 0xFF) {... */\n      jump(tag_271)\n    tag_267:\n        /* \"@chainlink/contracts@1.2.0/src/v0.8/vendor/solidity-cborutils/v2.0.0/CBOR.sol\":6531:6537  0xFFFF */\n      0xffff\n        /* \"@chainlink/contracts@1.2.0/src/v0.8/vendor/solidity-cborutils/v2.0.0/CBOR.sol\":6522:6527  value */\n      dup2\n        /* \"@chainlink/contracts@1.2.0/src/v0.8/vendor/solidity-cborutils/v2.0.0/CBOR.sol\":6522:6537  value <= 0xFFFF */\n      0xffffffffffffffff\n      and\n      gt\n        /* \"@chainlink/contracts@1.2.0/src/v0.8/vendor/solidity-cborutils/v2.0.0/CBOR.sol\":6518:6909  if (value <= 0xFFFF) {... */\n      tag_272\n      jumpi\n        /* \"@chainlink/contracts@1.2.0/src/v0.8/vendor/solidity-cborutils/v2.0.0/CBOR.sol\":6553:6598  buf.buf.appendUint8(uint8((major << 5) | 25)) */\n      tag_273\n        /* \"@chainlink/contracts@1.2.0/src/v0.8/vendor/solidity-cborutils/v2.0.0/CBOR.sol\":6594:6596  25 */\n      0x19\n        /* \"@chainlink/contracts@1.2.0/src/v0.8/vendor/solidity-cborutils/v2.0.0/CBOR.sol\":6589:6590  5 */\n      0x05\n        /* \"@chainlink/contracts@1.2.0/src/v0.8/vendor/solidity-cborutils/v2.0.0/CBOR.sol\":6580:6585  major */\n      dup5\n        /* \"@chainlink/contracts@1.2.0/src/v0.8/vendor/solidity-cborutils/v2.0.0/CBOR.sol\":6580:6590  major << 5 */\n      0xff\n      and\n      swap1\n      shl\n        /* \"@chainlink/contracts@1.2.0/src/v0.8/vendor/solidity-cborutils/v2.0.0/CBOR.sol\":6579:6596  (major << 5) | 25 */\n      or\n        /* \"@chainlink/contracts@1.2.0/src/v0.8/vendor/solidity-cborutils/v2.0.0/CBOR.sol\":6553:6556  buf */\n      dup5\n        /* \"@chainlink/contracts@1.2.0/src/v0.8/vendor/solidity-cborutils/v2.0.0/CBOR.sol\":6553:6560  buf.buf */\n      0x00\n      add\n      mload\n        /* \"@chainlink/contracts@1.2.0/src/v0.8/vendor/solidity-cborutils/v2.0.0/CBOR.sol\":6553:6572  buf.buf.appendUint8 */\n      tag_238\n      swap1\n        /* \"@chainlink/contracts@1.2.0/src/v0.8/vendor/solidity-cborutils/v2.0.0/CBOR.sol\":6553:6598  buf.buf.appendUint8(uint8((major << 5) | 25)) */\n      swap2\n      swap1\n      0xffffffff\n      and\n      jump\t// in\n    tag_273:\n      pop\n        /* \"@chainlink/contracts@1.2.0/src/v0.8/vendor/solidity-cborutils/v2.0.0/CBOR.sol\":6612:6639  buf.buf.appendInt(value, 2) */\n      tag_274\n        /* \"@chainlink/contracts@1.2.0/src/v0.8/vendor/solidity-cborutils/v2.0.0/CBOR.sol\":6630:6635  value */\n      dup2\n        /* \"@chainlink/contracts@1.2.0/src/v0.8/vendor/solidity-cborutils/v2.0.0/CBOR.sol\":6612:6639  buf.buf.appendInt(value, 2) */\n      0xffffffffffffffff\n      and\n        /* \"@chainlink/contracts@1.2.0/src/v0.8/vendor/solidity-cborutils/v2.0.0/CBOR.sol\":6637:6638  2 */\n      0x02\n        /* \"@chainlink/contracts@1.2.0/src/v0.8/vendor/solidity-cborutils/v2.0.0/CBOR.sol\":6612:6615  buf */\n      dup6\n        /* \"@chainlink/contracts@1.2.0/src/v0.8/vendor/solidity-cborutils/v2.0.0/CBOR.sol\":6612:6619  buf.buf */\n      0x00\n      add\n      mload\n        /* \"@chainlink/contracts@1.2.0/src/v0.8/vendor/solidity-cborutils/v2.0.0/CBOR.sol\":6612:6629  buf.buf.appendInt */\n      tag_270\n      swap1\n        /* \"@chainlink/contracts@1.2.0/src/v0.8/vendor/solidity-cborutils/v2.0.0/CBOR.sol\":6612:6639  buf.buf.appendInt(value, 2) */\n      swap3\n      swap2\n      swap1\n      0xffffffff\n      and\n      jump\t// in\n    tag_274:\n      pop\n        /* \"@chainlink/contracts@1.2.0/src/v0.8/vendor/solidity-cborutils/v2.0.0/CBOR.sol\":6518:6909  if (value <= 0xFFFF) {... */\n      jump(tag_275)\n    tag_272:\n        /* \"@chainlink/contracts@1.2.0/src/v0.8/vendor/solidity-cborutils/v2.0.0/CBOR.sol\":6669:6679  0xFFFFFFFF */\n      0xffffffff\n        /* \"@chainlink/contracts@1.2.0/src/v0.8/vendor/solidity-cborutils/v2.0.0/CBOR.sol\":6660:6665  value */\n      dup2\n        /* \"@chainlink/contracts@1.2.0/src/v0.8/vendor/solidity-cborutils/v2.0.0/CBOR.sol\":6660:6679  value <= 0xFFFFFFFF */\n      0xffffffffffffffff\n      and\n      gt\n        /* \"@chainlink/contracts@1.2.0/src/v0.8/vendor/solidity-cborutils/v2.0.0/CBOR.sol\":6656:6909  if (value <= 0xFFFFFFFF) {... */\n      tag_276\n      jumpi\n        /* \"@chainlink/contracts@1.2.0/src/v0.8/vendor/solidity-cborutils/v2.0.0/CBOR.sol\":6695:6740  buf.buf.appendUint8(uint8((major << 5) | 26)) */\n      tag_277\n        /* \"@chainlink/contracts@1.2.0/src/v0.8/vendor/solidity-cborutils/v2.0.0/CBOR.sol\":6736:6738  26 */\n      0x1a\n        /* \"@chainlink/contracts@1.2.0/src/v0.8/vendor/solidity-cborutils/v2.0.0/CBOR.sol\":6731:6732  5 */\n      0x05\n        /* \"@chainlink/contracts@1.2.0/src/v0.8/vendor/solidity-cborutils/v2.0.0/CBOR.sol\":6722:6727  major */\n      dup5\n        /* \"@chainlink/contracts@1.2.0/src/v0.8/vendor/solidity-cborutils/v2.0.0/CBOR.sol\":6722:6732  major << 5 */\n      0xff\n      and\n      swap1\n      shl\n        /* \"@chainlink/contracts@1.2.0/src/v0.8/vendor/solidity-cborutils/v2.0.0/CBOR.sol\":6721:6738  (major << 5) | 26 */\n      or\n        /* \"@chainlink/contracts@1.2.0/src/v0.8/vendor/solidity-cborutils/v2.0.0/CBOR.sol\":6695:6698  buf */\n      dup5\n        /* \"@chainlink/contracts@1.2.0/src/v0.8/vendor/solidity-cborutils/v2.0.0/CBOR.sol\":6695:6702  buf.buf */\n      0x00\n      add\n      mload\n        /* \"@chainlink/contracts@1.2.0/src/v0.8/vendor/solidity-cborutils/v2.0.0/CBOR.sol\":6695:6714  buf.buf.appendUint8 */\n      tag_238\n      swap1\n        /* \"@chainlink/contracts@1.2.0/src/v0.8/vendor/solidity-cborutils/v2.0.0/CBOR.sol\":6695:6740  buf.buf.appendUint8(uint8((major << 5) | 26)) */\n      swap2\n      swap1\n      0xffffffff\n      and\n      jump\t// in\n    tag_277:\n      pop\n        /* \"@chainlink/contracts@1.2.0/src/v0.8/vendor/solidity-cborutils/v2.0.0/CBOR.sol\":6754:6781  buf.buf.appendInt(value, 4) */\n      tag_278\n        /* \"@chainlink/contracts@1.2.0/src/v0.8/vendor/solidity-cborutils/v2.0.0/CBOR.sol\":6772:6777  value */\n      dup2\n        /* \"@chainlink/contracts@1.2.0/src/v0.8/vendor/solidity-cborutils/v2.0.0/CBOR.sol\":6754:6781  buf.buf.appendInt(value, 4) */\n      0xffffffffffffffff\n      and\n        /* \"@chainlink/contracts@1.2.0/src/v0.8/vendor/solidity-cborutils/v2.0.0/CBOR.sol\":6779:6780  4 */\n      0x04\n        /* \"@chainlink/contracts@1.2.0/src/v0.8/vendor/solidity-cborutils/v2.0.0/CBOR.sol\":6754:6757  buf */\n      dup6\n        /* \"@chainlink/contracts@1.2.0/src/v0.8/vendor/solidity-cborutils/v2.0.0/CBOR.sol\":6754:6761  buf.buf */\n      0x00\n      add\n      mload\n        /* \"@chainlink/contracts@1.2.0/src/v0.8/vendor/solidity-cborutils/v2.0.0/CBOR.sol\":6754:6771  buf.buf.appendInt */\n      tag_270\n      swap1\n        /* \"@chainlink/contracts@1.2.0/src/v0.8/vendor/solidity-cborutils/v2.0.0/CBOR.sol\":6754:6781  buf.buf.appendInt(value, 4) */\n      swap3\n      swap2\n      swap1\n      0xffffffff\n      and\n      jump\t// in\n    tag_278:\n      pop\n        /* \"@chainlink/contracts@1.2.0/src/v0.8/vendor/solidity-cborutils/v2.0.0/CBOR.sol\":6656:6909  if (value <= 0xFFFFFFFF) {... */\n      jump(tag_279)\n    tag_276:\n        /* \"@chainlink/contracts@1.2.0/src/v0.8/vendor/solidity-cborutils/v2.0.0/CBOR.sol\":6812:6857  buf.buf.appendUint8(uint8((major << 5) | 27)) */\n      tag_280\n        /* \"@chainlink/contracts@1.2.0/src/v0.8/vendor/solidity-cborutils/v2.0.0/CBOR.sol\":6853:6855  27 */\n      0x1b\n        /* \"@chainlink/contracts@1.2.0/src/v0.8/vendor/solidity-cborutils/v2.0.0/CBOR.sol\":6848:6849  5 */\n      0x05\n        /* \"@chainlink/contracts@1.2.0/src/v0.8/vendor/solidity-cborutils/v2.0.0/CBOR.sol\":6839:6844  major */\n      dup5\n        /* \"@chainlink/contracts@1.2.0/src/v0.8/vendor/solidity-cborutils/v2.0.0/CBOR.sol\":6839:6849  major << 5 */\n      0xff\n      and\n      swap1\n      shl\n        /* \"@chainlink/contracts@1.2.0/src/v0.8/vendor/solidity-cborutils/v2.0.0/CBOR.sol\":6838:6855  (major << 5) | 27 */\n      or\n        /* \"@chainlink/contracts@1.2.0/src/v0.8/vendor/solidity-cborutils/v2.0.0/CBOR.sol\":6812:6815  buf */\n      dup5\n        /* \"@chainlink/contracts@1.2.0/src/v0.8/vendor/solidity-cborutils/v2.0.0/CBOR.sol\":6812:6819  buf.buf */\n      0x00\n      add\n      mload\n        /* \"@chainlink/contracts@1.2.0/src/v0.8/vendor/solidity-cborutils/v2.0.0/CBOR.sol\":6812:6831  buf.buf.appendUint8 */\n      tag_238\n      swap1\n        /* \"@chainlink/contracts@1.2.0/src/v0.8/vendor/solidity-cborutils/v2.0.0/CBOR.sol\":6812:6857  buf.buf.appendUint8(uint8((major << 5) | 27)) */\n      swap2\n      swap1\n      0xffffffff\n      and\n      jump\t// in\n    tag_280:\n      pop\n        /* \"@chainlink/contracts@1.2.0/src/v0.8/vendor/solidity-cborutils/v2.0.0/CBOR.sol\":6871:6898  buf.buf.appendInt(value, 8) */\n      tag_281\n        /* \"@chainlink/contracts@1.2.0/src/v0.8/vendor/solidity-cborutils/v2.0.0/CBOR.sol\":6889:6894  value */\n      dup2\n        /* \"@chainlink/contracts@1.2.0/src/v0.8/vendor/solidity-cborutils/v2.0.0/CBOR.sol\":6871:6898  buf.buf.appendInt(value, 8) */\n      0xffffffffffffffff\n      and\n        /* \"@chainlink/contracts@1.2.0/src/v0.8/vendor/solidity-cborutils/v2.0.0/CBOR.sol\":6896:6897  8 */\n      0x08\n        /* \"@chainlink/contracts@1.2.0/src/v0.8/vendor/solidity-cborutils/v2.0.0/CBOR.sol\":6871:6874  buf */\n      dup6\n        /* \"@chainlink/contracts@1.2.0/src/v0.8/vendor/solidity-cborutils/v2.0.0/CBOR.sol\":6871:6878  buf.buf */\n      0x00\n      add\n      mload\n        /* \"@chainlink/contracts@1.2.0/src/v0.8/vendor/solidity-cborutils/v2.0.0/CBOR.sol\":6871:6888  buf.buf.appendInt */\n      tag_270\n      swap1\n        /* \"@chainlink/contracts@1.2.0/src/v0.8/vendor/solidity-cborutils/v2.0.0/CBOR.sol\":6871:6898  buf.buf.appendInt(value, 8) */\n      swap3\n      swap2\n      swap1\n      0xffffffff\n      and\n      jump\t// in\n    tag_281:\n      pop\n        /* \"@chainlink/contracts@1.2.0/src/v0.8/vendor/solidity-cborutils/v2.0.0/CBOR.sol\":6656:6909  if (value <= 0xFFFFFFFF) {... */\n    tag_279:\n        /* \"@chainlink/contracts@1.2.0/src/v0.8/vendor/solidity-cborutils/v2.0.0/CBOR.sol\":6518:6909  if (value <= 0xFFFF) {... */\n    tag_275:\n        /* \"@chainlink/contracts@1.2.0/src/v0.8/vendor/solidity-cborutils/v2.0.0/CBOR.sol\":6382:6909  if (value <= 0xFF) {... */\n    tag_271:\n        /* \"@chainlink/contracts@1.2.0/src/v0.8/vendor/solidity-cborutils/v2.0.0/CBOR.sol\":6286:6909  if (value <= 23) {... */\n    tag_266:\n        /* \"@chainlink/contracts@1.2.0/src/v0.8/vendor/solidity-cborutils/v2.0.0/CBOR.sol\":6156:6915  function writeFixedNumeric(... */\n      pop\n      pop\n      pop\n      jump\t// out\n        /* \"@chainlink/contracts@1.2.0/src/v0.8/vendor/@ensdomains/buffer/v0.1.0/Buffer.sol\":4539:4685  function append(buffer memory buf, bytes memory data) internal pure returns (buffer memory) {... */\n    tag_233:\n        /* \"@chainlink/contracts@1.2.0/src/v0.8/vendor/@ensdomains/buffer/v0.1.0/Buffer.sol\":4616:4629  buffer memory */\n      tag_282\n      tag_254\n      jump\t// in\n    tag_282:\n        /* \"@chainlink/contracts@1.2.0/src/v0.8/vendor/@ensdomains/buffer/v0.1.0/Buffer.sol\":4648:4678  append(buf, data, data.length) */\n      tag_284\n        /* \"@chainlink/contracts@1.2.0/src/v0.8/vendor/@ensdomains/buffer/v0.1.0/Buffer.sol\":4655:4658  buf */\n      dup4\n        /* \"@chainlink/contracts@1.2.0/src/v0.8/vendor/@ensdomains/buffer/v0.1.0/Buffer.sol\":4660:4664  data */\n      dup4\n        /* \"@chainlink/contracts@1.2.0/src/v0.8/vendor/@ensdomains/buffer/v0.1.0/Buffer.sol\":4666:4670  data */\n      dup5\n        /* \"@chainlink/contracts@1.2.0/src/v0.8/vendor/@ensdomains/buffer/v0.1.0/Buffer.sol\":4666:4677  data.length */\n      mload\n        /* \"@chainlink/contracts@1.2.0/src/v0.8/vendor/@ensdomains/buffer/v0.1.0/Buffer.sol\":4648:4654  append */\n      tag_285\n        /* \"@chainlink/contracts@1.2.0/src/v0.8/vendor/@ensdomains/buffer/v0.1.0/Buffer.sol\":4648:4678  append(buf, data, data.length) */\n      jump\t// in\n    tag_284:\n        /* \"@chainlink/contracts@1.2.0/src/v0.8/vendor/@ensdomains/buffer/v0.1.0/Buffer.sol\":4641:4678  return append(buf, data, data.length) */\n      swap1\n      pop\n        /* \"@chainlink/contracts@1.2.0/src/v0.8/vendor/@ensdomains/buffer/v0.1.0/Buffer.sol\":4539:4685  function append(buffer memory buf, bytes memory data) internal pure returns (buffer memory) {... */\n      swap3\n      swap2\n      pop\n      pop\n      jump\t// out\n        /* \"@chainlink/contracts@1.2.0/src/v0.8/vendor/@ensdomains/buffer/v0.1.0/Buffer.sol\":4948:5647  function appendUint8(buffer memory buf, uint8 data) internal pure returns(buffer memory) {... */\n    tag_238:\n        /* \"@chainlink/contracts@1.2.0/src/v0.8/vendor/@ensdomains/buffer/v0.1.0/Buffer.sol\":5022:5035  buffer memory */\n      tag_286\n      tag_254\n      jump\t// in\n    tag_286:\n        /* \"@chainlink/contracts@1.2.0/src/v0.8/vendor/@ensdomains/buffer/v0.1.0/Buffer.sol\":5047:5055  uint off */\n      0x00\n        /* \"@chainlink/contracts@1.2.0/src/v0.8/vendor/@ensdomains/buffer/v0.1.0/Buffer.sol\":5058:5061  buf */\n      dup4\n        /* \"@chainlink/contracts@1.2.0/src/v0.8/vendor/@ensdomains/buffer/v0.1.0/Buffer.sol\":5058:5065  buf.buf */\n      0x00\n      add\n      mload\n        /* \"@chainlink/contracts@1.2.0/src/v0.8/vendor/@ensdomains/buffer/v0.1.0/Buffer.sol\":5058:5072  buf.buf.length */\n      mload\n        /* \"@chainlink/contracts@1.2.0/src/v0.8/vendor/@ensdomains/buffer/v0.1.0/Buffer.sol\":5047:5072  uint off = buf.buf.length */\n      swap1\n      pop\n        /* \"@chainlink/contracts@1.2.0/src/v0.8/vendor/@ensdomains/buffer/v0.1.0/Buffer.sol\":5082:5097  uint offPlusOne */\n      0x00\n        /* \"@chainlink/contracts@1.2.0/src/v0.8/vendor/@ensdomains/buffer/v0.1.0/Buffer.sol\":5106:5107  1 */\n      0x01\n        /* \"@chainlink/contracts@1.2.0/src/v0.8/vendor/@ensdomains/buffer/v0.1.0/Buffer.sol\":5100:5103  off */\n      dup3\n        /* \"@chainlink/contracts@1.2.0/src/v0.8/vendor/@ensdomains/buffer/v0.1.0/Buffer.sol\":5100:5107  off + 1 */\n      tag_288\n      swap2\n      swap1\n      tag_245\n      jump\t// in\n    tag_288:\n        /* \"@chainlink/contracts@1.2.0/src/v0.8/vendor/@ensdomains/buffer/v0.1.0/Buffer.sol\":5082:5107  uint offPlusOne = off + 1 */\n      swap1\n      pop\n        /* \"@chainlink/contracts@1.2.0/src/v0.8/vendor/@ensdomains/buffer/v0.1.0/Buffer.sol\":5128:5131  buf */\n      dup5\n        /* \"@chainlink/contracts@1.2.0/src/v0.8/vendor/@ensdomains/buffer/v0.1.0/Buffer.sol\":5128:5140  buf.capacity */\n      0x20\n      add\n      mload\n        /* \"@chainlink/contracts@1.2.0/src/v0.8/vendor/@ensdomains/buffer/v0.1.0/Buffer.sol\":5121:5124  off */\n      dup3\n        /* \"@chainlink/contracts@1.2.0/src/v0.8/vendor/@ensdomains/buffer/v0.1.0/Buffer.sol\":5121:5140  off >= buf.capacity */\n      lt\n        /* \"@chainlink/contracts@1.2.0/src/v0.8/vendor/@ensdomains/buffer/v0.1.0/Buffer.sol\":5117:5194  if (off >= buf.capacity) {... */\n      tag_289\n      jumpi\n        /* \"@chainlink/contracts@1.2.0/src/v0.8/vendor/@ensdomains/buffer/v0.1.0/Buffer.sol\":5156:5183  resize(buf, offPlusOne * 2) */\n      tag_290\n        /* \"@chainlink/contracts@1.2.0/src/v0.8/vendor/@ensdomains/buffer/v0.1.0/Buffer.sol\":5163:5166  buf */\n      dup6\n        /* \"@chainlink/contracts@1.2.0/src/v0.8/vendor/@ensdomains/buffer/v0.1.0/Buffer.sol\":5181:5182  2 */\n      0x02\n        /* \"@chainlink/contracts@1.2.0/src/v0.8/vendor/@ensdomains/buffer/v0.1.0/Buffer.sol\":5168:5178  offPlusOne */\n      dup4\n        /* \"@chainlink/contracts@1.2.0/src/v0.8/vendor/@ensdomains/buffer/v0.1.0/Buffer.sol\":5168:5182  offPlusOne * 2 */\n      tag_291\n      swap2\n      swap1\n      tag_292\n      jump\t// in\n    tag_291:\n        /* \"@chainlink/contracts@1.2.0/src/v0.8/vendor/@ensdomains/buffer/v0.1.0/Buffer.sol\":5156:5162  resize */\n      tag_293\n        /* \"@chainlink/contracts@1.2.0/src/v0.8/vendor/@ensdomains/buffer/v0.1.0/Buffer.sol\":5156:5183  resize(buf, offPlusOne * 2) */\n      jump\t// in\n    tag_290:\n        /* \"@chainlink/contracts@1.2.0/src/v0.8/vendor/@ensdomains/buffer/v0.1.0/Buffer.sol\":5117:5194  if (off >= buf.capacity) {... */\n    tag_289:\n        /* \"@chainlink/contracts@1.2.0/src/v0.8/vendor/@ensdomains/buffer/v0.1.0/Buffer.sol\":5296:5299  buf */\n      dup5\n        /* \"@chainlink/contracts@1.2.0/src/v0.8/vendor/@ensdomains/buffer/v0.1.0/Buffer.sol\":5290:5300  mload(buf) */\n      mload\n        /* \"@chainlink/contracts@1.2.0/src/v0.8/vendor/@ensdomains/buffer/v0.1.0/Buffer.sol\":5417:5419  32 */\n      0x20\n        /* \"@chainlink/contracts@1.2.0/src/v0.8/vendor/@ensdomains/buffer/v0.1.0/Buffer.sol\":5411:5414  off */\n      dup4\n        /* \"@chainlink/contracts@1.2.0/src/v0.8/vendor/@ensdomains/buffer/v0.1.0/Buffer.sol\":5403:5409  bufptr */\n      dup3\n        /* \"@chainlink/contracts@1.2.0/src/v0.8/vendor/@ensdomains/buffer/v0.1.0/Buffer.sol\":5399:5415  add(bufptr, off) */\n      add\n        /* \"@chainlink/contracts@1.2.0/src/v0.8/vendor/@ensdomains/buffer/v0.1.0/Buffer.sol\":5395:5420  add(add(bufptr, off), 32) */\n      add\n        /* \"@chainlink/contracts@1.2.0/src/v0.8/vendor/@ensdomains/buffer/v0.1.0/Buffer.sol\":5447:5451  data */\n      dup6\n        /* \"@chainlink/contracts@1.2.0/src/v0.8/vendor/@ensdomains/buffer/v0.1.0/Buffer.sol\":5441:5445  dest */\n      dup2\n        /* \"@chainlink/contracts@1.2.0/src/v0.8/vendor/@ensdomains/buffer/v0.1.0/Buffer.sol\":5433:5452  mstore8(dest, data) */\n      mstore8\n        /* \"@chainlink/contracts@1.2.0/src/v0.8/vendor/@ensdomains/buffer/v0.1.0/Buffer.sol\":5543:5549  bufptr */\n      dup2\n        /* \"@chainlink/contracts@1.2.0/src/v0.8/vendor/@ensdomains/buffer/v0.1.0/Buffer.sol\":5537:5550  mload(bufptr) */\n      mload\n        /* \"@chainlink/contracts@1.2.0/src/v0.8/vendor/@ensdomains/buffer/v0.1.0/Buffer.sol\":5525:5535  offPlusOne */\n      dup4\n        /* \"@chainlink/contracts@1.2.0/src/v0.8/vendor/@ensdomains/buffer/v0.1.0/Buffer.sol\":5522:5551  gt(offPlusOne, mload(bufptr)) */\n      gt\n        /* \"@chainlink/contracts@1.2.0/src/v0.8/vendor/@ensdomains/buffer/v0.1.0/Buffer.sol\":5519:5610  if gt(offPlusOne, mload(bufptr)) {... */\n      iszero\n      tag_294\n      jumpi\n        /* \"@chainlink/contracts@1.2.0/src/v0.8/vendor/@ensdomains/buffer/v0.1.0/Buffer.sol\":5585:5595  offPlusOne */\n      dup3\n        /* \"@chainlink/contracts@1.2.0/src/v0.8/vendor/@ensdomains/buffer/v0.1.0/Buffer.sol\":5577:5583  bufptr */\n      dup3\n        /* \"@chainlink/contracts@1.2.0/src/v0.8/vendor/@ensdomains/buffer/v0.1.0/Buffer.sol\":5570:5596  mstore(bufptr, offPlusOne) */\n      mstore\n        /* \"@chainlink/contracts@1.2.0/src/v0.8/vendor/@ensdomains/buffer/v0.1.0/Buffer.sol\":5519:5610  if gt(offPlusOne, mload(bufptr)) {... */\n    tag_294:\n        /* \"@chainlink/contracts@1.2.0/src/v0.8/vendor/@ensdomains/buffer/v0.1.0/Buffer.sol\":5213:5620  {... */\n      pop\n      pop\n        /* \"@chainlink/contracts@1.2.0/src/v0.8/vendor/@ensdomains/buffer/v0.1.0/Buffer.sol\":5637:5640  buf */\n      dup5\n        /* \"@chainlink/contracts@1.2.0/src/v0.8/vendor/@ensdomains/buffer/v0.1.0/Buffer.sol\":5630:5640  return buf */\n      swap3\n      pop\n      pop\n      pop\n        /* \"@chainlink/contracts@1.2.0/src/v0.8/vendor/@ensdomains/buffer/v0.1.0/Buffer.sol\":4948:5647  function appendUint8(buffer memory buf, uint8 data) internal pure returns(buffer memory) {... */\n      swap3\n      swap2\n      pop\n      pop\n      jump\t// out\n        /* \"@chainlink/contracts@1.2.0/src/v0.8/vendor/solidity-cborutils/v2.0.0/CBOR.sol\":6921:7087  function writeIndefiniteLengthType(CBORBuffer memory buf, uint8 major)... */\n    tag_243:\n        /* \"@chainlink/contracts@1.2.0/src/v0.8/vendor/solidity-cborutils/v2.0.0/CBOR.sol\":7035:7080  buf.buf.appendUint8(uint8((major << 5) | 31)) */\n      tag_296\n        /* \"@chainlink/contracts@1.2.0/src/v0.8/vendor/solidity-cborutils/v2.0.0/CBOR.sol\":7076:7078  31 */\n      0x1f\n        /* \"@chainlink/contracts@1.2.0/src/v0.8/vendor/solidity-cborutils/v2.0.0/CBOR.sol\":7071:7072  5 */\n      0x05\n        /* \"@chainlink/contracts@1.2.0/src/v0.8/vendor/solidity-cborutils/v2.0.0/CBOR.sol\":7062:7067  major */\n      dup4\n        /* \"@chainlink/contracts@1.2.0/src/v0.8/vendor/solidity-cborutils/v2.0.0/CBOR.sol\":7062:7072  major << 5 */\n      0xff\n      and\n      swap1\n      shl\n        /* \"@chainlink/contracts@1.2.0/src/v0.8/vendor/solidity-cborutils/v2.0.0/CBOR.sol\":7061:7078  (major << 5) | 31 */\n      or\n        /* \"@chainlink/contracts@1.2.0/src/v0.8/vendor/solidity-cborutils/v2.0.0/CBOR.sol\":7035:7038  buf */\n      dup4\n        /* \"@chainlink/contracts@1.2.0/src/v0.8/vendor/solidity-cborutils/v2.0.0/CBOR.sol\":7035:7042  buf.buf */\n      0x00\n      add\n      mload\n        /* \"@chainlink/contracts@1.2.0/src/v0.8/vendor/solidity-cborutils/v2.0.0/CBOR.sol\":7035:7054  buf.buf.appendUint8 */\n      tag_238\n      swap1\n        /* \"@chainlink/contracts@1.2.0/src/v0.8/vendor/solidity-cborutils/v2.0.0/CBOR.sol\":7035:7080  buf.buf.appendUint8(uint8((major << 5) | 31)) */\n      swap2\n      swap1\n      0xffffffff\n      and\n      jump\t// in\n    tag_296:\n      pop\n        /* \"@chainlink/contracts@1.2.0/src/v0.8/vendor/solidity-cborutils/v2.0.0/CBOR.sol\":6921:7087  function writeIndefiniteLengthType(CBORBuffer memory buf, uint8 major)... */\n      pop\n      pop\n      jump\t// out\n        /* \"@chainlink/contracts@1.2.0/src/v0.8/vendor/@ensdomains/buffer/v0.1.0/Buffer.sol\":8083:8878  function appendInt(buffer memory buf, uint data, uint len) internal pure returns(buffer memory) {... */\n    tag_270:\n        /* \"@chainlink/contracts@1.2.0/src/v0.8/vendor/@ensdomains/buffer/v0.1.0/Buffer.sol\":8164:8177  buffer memory */\n      tag_297\n      tag_254\n      jump\t// in\n    tag_297:\n        /* \"@chainlink/contracts@1.2.0/src/v0.8/vendor/@ensdomains/buffer/v0.1.0/Buffer.sol\":8189:8197  uint off */\n      0x00\n        /* \"@chainlink/contracts@1.2.0/src/v0.8/vendor/@ensdomains/buffer/v0.1.0/Buffer.sol\":8200:8203  buf */\n      dup5\n        /* \"@chainlink/contracts@1.2.0/src/v0.8/vendor/@ensdomains/buffer/v0.1.0/Buffer.sol\":8200:8207  buf.buf */\n      0x00\n      add\n      mload\n        /* \"@chainlink/contracts@1.2.0/src/v0.8/vendor/@ensdomains/buffer/v0.1.0/Buffer.sol\":8200:8214  buf.buf.length */\n      mload\n        /* \"@chainlink/contracts@1.2.0/src/v0.8/vendor/@ensdomains/buffer/v0.1.0/Buffer.sol\":8189:8214  uint off = buf.buf.length */\n      swap1\n      pop\n        /* \"@chainlink/contracts@1.2.0/src/v0.8/vendor/@ensdomains/buffer/v0.1.0/Buffer.sol\":8224:8240  uint newCapacity */\n      0x00\n        /* \"@chainlink/contracts@1.2.0/src/v0.8/vendor/@ensdomains/buffer/v0.1.0/Buffer.sol\":8249:8252  off */\n      dup2\n        /* \"@chainlink/contracts@1.2.0/src/v0.8/vendor/@ensdomains/buffer/v0.1.0/Buffer.sol\":8243:8246  len */\n      dup5\n        /* \"@chainlink/contracts@1.2.0/src/v0.8/vendor/@ensdomains/buffer/v0.1.0/Buffer.sol\":8243:8252  len + off */\n      tag_299\n      swap2\n      swap1\n      tag_245\n      jump\t// in\n    tag_299:\n        /* \"@chainlink/contracts@1.2.0/src/v0.8/vendor/@ensdomains/buffer/v0.1.0/Buffer.sol\":8224:8252  uint newCapacity = len + off */\n      swap1\n      pop\n        /* \"@chainlink/contracts@1.2.0/src/v0.8/vendor/@ensdomains/buffer/v0.1.0/Buffer.sol\":8280:8283  buf */\n      dup6\n        /* \"@chainlink/contracts@1.2.0/src/v0.8/vendor/@ensdomains/buffer/v0.1.0/Buffer.sol\":8280:8292  buf.capacity */\n      0x20\n      add\n      mload\n        /* \"@chainlink/contracts@1.2.0/src/v0.8/vendor/@ensdomains/buffer/v0.1.0/Buffer.sol\":8266:8277  newCapacity */\n      dup2\n        /* \"@chainlink/contracts@1.2.0/src/v0.8/vendor/@ensdomains/buffer/v0.1.0/Buffer.sol\":8266:8292  newCapacity > buf.capacity */\n      gt\n        /* \"@chainlink/contracts@1.2.0/src/v0.8/vendor/@ensdomains/buffer/v0.1.0/Buffer.sol\":8262:8347  if (newCapacity > buf.capacity) {... */\n      iszero\n      tag_300\n      jumpi\n        /* \"@chainlink/contracts@1.2.0/src/v0.8/vendor/@ensdomains/buffer/v0.1.0/Buffer.sol\":8308:8336  resize(buf, newCapacity * 2) */\n      tag_301\n        /* \"@chainlink/contracts@1.2.0/src/v0.8/vendor/@ensdomains/buffer/v0.1.0/Buffer.sol\":8315:8318  buf */\n      dup7\n        /* \"@chainlink/contracts@1.2.0/src/v0.8/vendor/@ensdomains/buffer/v0.1.0/Buffer.sol\":8334:8335  2 */\n      0x02\n        /* \"@chainlink/contracts@1.2.0/src/v0.8/vendor/@ensdomains/buffer/v0.1.0/Buffer.sol\":8320:8331  newCapacity */\n      dup4\n        /* \"@chainlink/contracts@1.2.0/src/v0.8/vendor/@ensdomains/buffer/v0.1.0/Buffer.sol\":8320:8335  newCapacity * 2 */\n      tag_302\n      swap2\n      swap1\n      tag_292\n      jump\t// in\n    tag_302:\n        /* \"@chainlink/contracts@1.2.0/src/v0.8/vendor/@ensdomains/buffer/v0.1.0/Buffer.sol\":8308:8314  resize */\n      tag_293\n        /* \"@chainlink/contracts@1.2.0/src/v0.8/vendor/@ensdomains/buffer/v0.1.0/Buffer.sol\":8308:8336  resize(buf, newCapacity * 2) */\n      jump\t// in\n    tag_301:\n        /* \"@chainlink/contracts@1.2.0/src/v0.8/vendor/@ensdomains/buffer/v0.1.0/Buffer.sol\":8262:8347  if (newCapacity > buf.capacity) {... */\n    tag_300:\n        /* \"@chainlink/contracts@1.2.0/src/v0.8/vendor/@ensdomains/buffer/v0.1.0/Buffer.sol\":8357:8366  uint mask */\n      0x00\n        /* \"@chainlink/contracts@1.2.0/src/v0.8/vendor/@ensdomains/buffer/v0.1.0/Buffer.sol\":8384:8385  1 */\n      0x01\n        /* \"@chainlink/contracts@1.2.0/src/v0.8/vendor/@ensdomains/buffer/v0.1.0/Buffer.sol\":8377:8380  len */\n      dup6\n        /* \"@chainlink/contracts@1.2.0/src/v0.8/vendor/@ensdomains/buffer/v0.1.0/Buffer.sol\":8370:8373  256 */\n      0x0100\n        /* \"@chainlink/contracts@1.2.0/src/v0.8/vendor/@ensdomains/buffer/v0.1.0/Buffer.sol\":8370:8380  256 ** len */\n      tag_303\n      swap2\n      swap1\n      tag_304\n      jump\t// in\n    tag_303:\n        /* \"@chainlink/contracts@1.2.0/src/v0.8/vendor/@ensdomains/buffer/v0.1.0/Buffer.sol\":8369:8385  (256 ** len) - 1 */\n      tag_305\n      swap2\n      swap1\n      tag_249\n      jump\t// in\n    tag_305:\n        /* \"@chainlink/contracts@1.2.0/src/v0.8/vendor/@ensdomains/buffer/v0.1.0/Buffer.sol\":8357:8385  uint mask = (256 ** len) - 1 */\n      swap1\n      pop\n        /* \"@chainlink/contracts@1.2.0/src/v0.8/vendor/@ensdomains/buffer/v0.1.0/Buffer.sol\":8487:8490  buf */\n      dup7\n        /* \"@chainlink/contracts@1.2.0/src/v0.8/vendor/@ensdomains/buffer/v0.1.0/Buffer.sol\":8481:8491  mload(buf) */\n      mload\n        /* \"@chainlink/contracts@1.2.0/src/v0.8/vendor/@ensdomains/buffer/v0.1.0/Buffer.sol\":8606:8617  newCapacity */\n      dup3\n        /* \"@chainlink/contracts@1.2.0/src/v0.8/vendor/@ensdomains/buffer/v0.1.0/Buffer.sol\":8598:8604  bufptr */\n      dup2\n        /* \"@chainlink/contracts@1.2.0/src/v0.8/vendor/@ensdomains/buffer/v0.1.0/Buffer.sol\":8594:8618  add(bufptr, newCapacity) */\n      add\n        /* \"@chainlink/contracts@1.2.0/src/v0.8/vendor/@ensdomains/buffer/v0.1.0/Buffer.sol\":8676:8680  data */\n      dup8\n        /* \"@chainlink/contracts@1.2.0/src/v0.8/vendor/@ensdomains/buffer/v0.1.0/Buffer.sol\":8668:8672  mask */\n      dup4\n        /* \"@chainlink/contracts@1.2.0/src/v0.8/vendor/@ensdomains/buffer/v0.1.0/Buffer.sol\":8664:8673  not(mask) */\n      not\n        /* \"@chainlink/contracts@1.2.0/src/v0.8/vendor/@ensdomains/buffer/v0.1.0/Buffer.sol\":8657:8661  dest */\n      dup3\n        /* \"@chainlink/contracts@1.2.0/src/v0.8/vendor/@ensdomains/buffer/v0.1.0/Buffer.sol\":8651:8662  mload(dest) */\n      mload\n        /* \"@chainlink/contracts@1.2.0/src/v0.8/vendor/@ensdomains/buffer/v0.1.0/Buffer.sol\":8647:8674  and(mload(dest), not(mask)) */\n      and\n        /* \"@chainlink/contracts@1.2.0/src/v0.8/vendor/@ensdomains/buffer/v0.1.0/Buffer.sol\":8644:8681  or(and(mload(dest), not(mask)), data) */\n      or\n        /* \"@chainlink/contracts@1.2.0/src/v0.8/vendor/@ensdomains/buffer/v0.1.0/Buffer.sol\":8638:8642  dest */\n      dup2\n        /* \"@chainlink/contracts@1.2.0/src/v0.8/vendor/@ensdomains/buffer/v0.1.0/Buffer.sol\":8631:8682  mstore(dest, or(and(mload(dest), not(mask)), data)) */\n      mstore\n        /* \"@chainlink/contracts@1.2.0/src/v0.8/vendor/@ensdomains/buffer/v0.1.0/Buffer.sol\":8774:8780  bufptr */\n      dup2\n        /* \"@chainlink/contracts@1.2.0/src/v0.8/vendor/@ensdomains/buffer/v0.1.0/Buffer.sol\":8768:8781  mload(bufptr) */\n      mload\n        /* \"@chainlink/contracts@1.2.0/src/v0.8/vendor/@ensdomains/buffer/v0.1.0/Buffer.sol\":8755:8766  newCapacity */\n      dup5\n        /* \"@chainlink/contracts@1.2.0/src/v0.8/vendor/@ensdomains/buffer/v0.1.0/Buffer.sol\":8752:8782  gt(newCapacity, mload(bufptr)) */\n      gt\n        /* \"@chainlink/contracts@1.2.0/src/v0.8/vendor/@ensdomains/buffer/v0.1.0/Buffer.sol\":8749:8842  if gt(newCapacity, mload(bufptr)) {... */\n      iszero\n      tag_306\n      jumpi\n        /* \"@chainlink/contracts@1.2.0/src/v0.8/vendor/@ensdomains/buffer/v0.1.0/Buffer.sol\":8816:8827  newCapacity */\n      dup4\n        /* \"@chainlink/contracts@1.2.0/src/v0.8/vendor/@ensdomains/buffer/v0.1.0/Buffer.sol\":8808:8814  bufptr */\n      dup3\n        /* \"@chainlink/contracts@1.2.0/src/v0.8/vendor/@ensdomains/buffer/v0.1.0/Buffer.sol\":8801:8828  mstore(bufptr, newCapacity) */\n      mstore\n        /* \"@chainlink/contracts@1.2.0/src/v0.8/vendor/@ensdomains/buffer/v0.1.0/Buffer.sol\":8749:8842  if gt(newCapacity, mload(bufptr)) {... */\n    tag_306:\n        /* \"@chainlink/contracts@1.2.0/src/v0.8/vendor/@ensdomains/buffer/v0.1.0/Buffer.sol\":8404:8852  {... */\n      pop\n      pop\n        /* \"@chainlink/contracts@1.2.0/src/v0.8/vendor/@ensdomains/buffer/v0.1.0/Buffer.sol\":8868:8871  buf */\n      dup7\n        /* \"@chainlink/contracts@1.2.0/src/v0.8/vendor/@ensdomains/buffer/v0.1.0/Buffer.sol\":8861:8871  return buf */\n      swap4\n      pop\n      pop\n      pop\n      pop\n        /* \"@chainlink/contracts@1.2.0/src/v0.8/vendor/@ensdomains/buffer/v0.1.0/Buffer.sol\":8083:8878  function appendInt(buffer memory buf, uint data, uint len) internal pure returns(buffer memory) {... */\n      swap4\n      swap3\n      pop\n      pop\n      pop\n      jump\t// out\n        /* \"@chainlink/contracts@1.2.0/src/v0.8/vendor/@ensdomains/buffer/v0.1.0/Buffer.sol\":2844:4271  function append(buffer memory buf, bytes memory data, uint len) internal pure returns(buffer memory) {... */\n    tag_285:\n        /* \"@chainlink/contracts@1.2.0/src/v0.8/vendor/@ensdomains/buffer/v0.1.0/Buffer.sol\":2930:2943  buffer memory */\n      tag_307\n      tag_254\n      jump\t// in\n    tag_307:\n        /* \"@chainlink/contracts@1.2.0/src/v0.8/vendor/@ensdomains/buffer/v0.1.0/Buffer.sol\":2970:2974  data */\n      dup3\n        /* \"@chainlink/contracts@1.2.0/src/v0.8/vendor/@ensdomains/buffer/v0.1.0/Buffer.sol\":2970:2981  data.length */\n      mload\n        /* \"@chainlink/contracts@1.2.0/src/v0.8/vendor/@ensdomains/buffer/v0.1.0/Buffer.sol\":2963:2966  len */\n      dup3\n        /* \"@chainlink/contracts@1.2.0/src/v0.8/vendor/@ensdomains/buffer/v0.1.0/Buffer.sol\":2963:2981  len <= data.length */\n      gt\n      iszero\n        /* \"@chainlink/contracts@1.2.0/src/v0.8/vendor/@ensdomains/buffer/v0.1.0/Buffer.sol\":2955:2982  require(len <= data.length) */\n      tag_309\n      jumpi\n      0x00\n      dup1\n      revert\n    tag_309:\n        /* \"@chainlink/contracts@1.2.0/src/v0.8/vendor/@ensdomains/buffer/v0.1.0/Buffer.sol\":2993:3001  uint off */\n      0x00\n        /* \"@chainlink/contracts@1.2.0/src/v0.8/vendor/@ensdomains/buffer/v0.1.0/Buffer.sol\":3004:3007  buf */\n      dup5\n        /* \"@chainlink/contracts@1.2.0/src/v0.8/vendor/@ensdomains/buffer/v0.1.0/Buffer.sol\":3004:3011  buf.buf */\n      0x00\n      add\n      mload\n        /* \"@chainlink/contracts@1.2.0/src/v0.8/vendor/@ensdomains/buffer/v0.1.0/Buffer.sol\":3004:3018  buf.buf.length */\n      mload\n        /* \"@chainlink/contracts@1.2.0/src/v0.8/vendor/@ensdomains/buffer/v0.1.0/Buffer.sol\":2993:3018  uint off = buf.buf.length */\n      swap1\n      pop\n        /* \"@chainlink/contracts@1.2.0/src/v0.8/vendor/@ensdomains/buffer/v0.1.0/Buffer.sol\":3028:3044  uint newCapacity */\n      0x00\n        /* \"@chainlink/contracts@1.2.0/src/v0.8/vendor/@ensdomains/buffer/v0.1.0/Buffer.sol\":3053:3056  len */\n      dup4\n        /* \"@chainlink/contracts@1.2.0/src/v0.8/vendor/@ensdomains/buffer/v0.1.0/Buffer.sol\":3047:3050  off */\n      dup3\n        /* \"@chainlink/contracts@1.2.0/src/v0.8/vendor/@ensdomains/buffer/v0.1.0/Buffer.sol\":3047:3056  off + len */\n      tag_310\n      swap2\n      swap1\n      tag_245\n      jump\t// in\n    tag_310:\n        /* \"@chainlink/contracts@1.2.0/src/v0.8/vendor/@ensdomains/buffer/v0.1.0/Buffer.sol\":3028:3056  uint newCapacity = off + len */\n      swap1\n      pop\n        /* \"@chainlink/contracts@1.2.0/src/v0.8/vendor/@ensdomains/buffer/v0.1.0/Buffer.sol\":3084:3087  buf */\n      dup6\n        /* \"@chainlink/contracts@1.2.0/src/v0.8/vendor/@ensdomains/buffer/v0.1.0/Buffer.sol\":3084:3096  buf.capacity */\n      0x20\n      add\n      mload\n        /* \"@chainlink/contracts@1.2.0/src/v0.8/vendor/@ensdomains/buffer/v0.1.0/Buffer.sol\":3070:3081  newCapacity */\n      dup2\n        /* \"@chainlink/contracts@1.2.0/src/v0.8/vendor/@ensdomains/buffer/v0.1.0/Buffer.sol\":3070:3096  newCapacity > buf.capacity */\n      gt\n        /* \"@chainlink/contracts@1.2.0/src/v0.8/vendor/@ensdomains/buffer/v0.1.0/Buffer.sol\":3066:3151  if (newCapacity > buf.capacity) {... */\n      iszero\n      tag_311\n      jumpi\n        /* \"@chainlink/contracts@1.2.0/src/v0.8/vendor/@ensdomains/buffer/v0.1.0/Buffer.sol\":3112:3140  resize(buf, newCapacity * 2) */\n      tag_312\n        /* \"@chainlink/contracts@1.2.0/src/v0.8/vendor/@ensdomains/buffer/v0.1.0/Buffer.sol\":3119:3122  buf */\n      dup7\n        /* \"@chainlink/contracts@1.2.0/src/v0.8/vendor/@ensdomains/buffer/v0.1.0/Buffer.sol\":3138:3139  2 */\n      0x02\n        /* \"@chainlink/contracts@1.2.0/src/v0.8/vendor/@ensdomains/buffer/v0.1.0/Buffer.sol\":3124:3135  newCapacity */\n      dup4\n        /* \"@chainlink/contracts@1.2.0/src/v0.8/vendor/@ensdomains/buffer/v0.1.0/Buffer.sol\":3124:3139  newCapacity * 2 */\n      tag_313\n      swap2\n      swap1\n      tag_292\n      jump\t// in\n    tag_313:\n        /* \"@chainlink/contracts@1.2.0/src/v0.8/vendor/@ensdomains/buffer/v0.1.0/Buffer.sol\":3112:3118  resize */\n      tag_293\n        /* \"@chainlink/contracts@1.2.0/src/v0.8/vendor/@ensdomains/buffer/v0.1.0/Buffer.sol\":3112:3140  resize(buf, newCapacity * 2) */\n      jump\t// in\n    tag_312:\n        /* \"@chainlink/contracts@1.2.0/src/v0.8/vendor/@ensdomains/buffer/v0.1.0/Buffer.sol\":3066:3151  if (newCapacity > buf.capacity) {... */\n    tag_311:\n        /* \"@chainlink/contracts@1.2.0/src/v0.8/vendor/@ensdomains/buffer/v0.1.0/Buffer.sol\":3161:3170  uint dest */\n      0x00\n        /* \"@chainlink/contracts@1.2.0/src/v0.8/vendor/@ensdomains/buffer/v0.1.0/Buffer.sol\":3180:3188  uint src */\n      dup1\n        /* \"@chainlink/contracts@1.2.0/src/v0.8/vendor/@ensdomains/buffer/v0.1.0/Buffer.sol\":3290:3293  buf */\n      dup8\n        /* \"@chainlink/contracts@1.2.0/src/v0.8/vendor/@ensdomains/buffer/v0.1.0/Buffer.sol\":3284:3294  mload(buf) */\n      mload\n        /* \"@chainlink/contracts@1.2.0/src/v0.8/vendor/@ensdomains/buffer/v0.1.0/Buffer.sol\":3373:3379  bufptr */\n      dup1\n        /* \"@chainlink/contracts@1.2.0/src/v0.8/vendor/@ensdomains/buffer/v0.1.0/Buffer.sol\":3367:3380  mload(bufptr) */\n      mload\n        /* \"@chainlink/contracts@1.2.0/src/v0.8/vendor/@ensdomains/buffer/v0.1.0/Buffer.sol\":3501:3504  off */\n      dup6\n        /* \"@chainlink/contracts@1.2.0/src/v0.8/vendor/@ensdomains/buffer/v0.1.0/Buffer.sol\":3496:3498  32 */\n      0x20\n        /* \"@chainlink/contracts@1.2.0/src/v0.8/vendor/@ensdomains/buffer/v0.1.0/Buffer.sol\":3488:3494  bufptr */\n      dup4\n        /* \"@chainlink/contracts@1.2.0/src/v0.8/vendor/@ensdomains/buffer/v0.1.0/Buffer.sol\":3484:3499  add(bufptr, 32) */\n      add\n        /* \"@chainlink/contracts@1.2.0/src/v0.8/vendor/@ensdomains/buffer/v0.1.0/Buffer.sol\":3480:3505  add(add(bufptr, 32), off) */\n      add\n        /* \"@chainlink/contracts@1.2.0/src/v0.8/vendor/@ensdomains/buffer/v0.1.0/Buffer.sol\":3472:3505  dest := add(add(bufptr, 32), off) */\n      swap4\n      pop\n        /* \"@chainlink/contracts@1.2.0/src/v0.8/vendor/@ensdomains/buffer/v0.1.0/Buffer.sol\":3595:3601  buflen */\n      dup1\n        /* \"@chainlink/contracts@1.2.0/src/v0.8/vendor/@ensdomains/buffer/v0.1.0/Buffer.sol\":3582:3593  newCapacity */\n      dup6\n        /* \"@chainlink/contracts@1.2.0/src/v0.8/vendor/@ensdomains/buffer/v0.1.0/Buffer.sol\":3579:3602  gt(newCapacity, buflen) */\n      gt\n        /* \"@chainlink/contracts@1.2.0/src/v0.8/vendor/@ensdomains/buffer/v0.1.0/Buffer.sol\":3576:3662  if gt(newCapacity, buflen) {... */\n      iszero\n      tag_314\n      jumpi\n        /* \"@chainlink/contracts@1.2.0/src/v0.8/vendor/@ensdomains/buffer/v0.1.0/Buffer.sol\":3636:3647  newCapacity */\n      dup5\n        /* \"@chainlink/contracts@1.2.0/src/v0.8/vendor/@ensdomains/buffer/v0.1.0/Buffer.sol\":3628:3634  bufptr */\n      dup3\n        /* \"@chainlink/contracts@1.2.0/src/v0.8/vendor/@ensdomains/buffer/v0.1.0/Buffer.sol\":3621:3648  mstore(bufptr, newCapacity) */\n      mstore\n        /* \"@chainlink/contracts@1.2.0/src/v0.8/vendor/@ensdomains/buffer/v0.1.0/Buffer.sol\":3576:3662  if gt(newCapacity, buflen) {... */\n    tag_314:\n        /* \"@chainlink/contracts@1.2.0/src/v0.8/vendor/@ensdomains/buffer/v0.1.0/Buffer.sol\":3692:3694  32 */\n      0x20\n        /* \"@chainlink/contracts@1.2.0/src/v0.8/vendor/@ensdomains/buffer/v0.1.0/Buffer.sol\":3686:3690  data */\n      dup10\n        /* \"@chainlink/contracts@1.2.0/src/v0.8/vendor/@ensdomains/buffer/v0.1.0/Buffer.sol\":3682:3695  add(data, 32) */\n      add\n        /* \"@chainlink/contracts@1.2.0/src/v0.8/vendor/@ensdomains/buffer/v0.1.0/Buffer.sol\":3675:3695  src := add(data, 32) */\n      swap3\n      pop\n        /* \"@chainlink/contracts@1.2.0/src/v0.8/vendor/@ensdomains/buffer/v0.1.0/Buffer.sol\":3207:3705  {... */\n      pop\n      pop\n        /* \"@chainlink/contracts@1.2.0/src/v0.8/vendor/@ensdomains/buffer/v0.1.0/Buffer.sol\":3765:3930  for (; len >= 32; len -= 32) {... */\n    tag_315:\n        /* \"@chainlink/contracts@1.2.0/src/v0.8/vendor/@ensdomains/buffer/v0.1.0/Buffer.sol\":3779:3781  32 */\n      0x20\n        /* \"@chainlink/contracts@1.2.0/src/v0.8/vendor/@ensdomains/buffer/v0.1.0/Buffer.sol\":3772:3775  len */\n      dup7\n        /* \"@chainlink/contracts@1.2.0/src/v0.8/vendor/@ensdomains/buffer/v0.1.0/Buffer.sol\":3772:3781  len >= 32 */\n      lt\n        /* \"@chainlink/contracts@1.2.0/src/v0.8/vendor/@ensdomains/buffer/v0.1.0/Buffer.sol\":3765:3930  for (; len >= 32; len -= 32) {... */\n      tag_316\n      jumpi\n        /* \"@chainlink/contracts@1.2.0/src/v0.8/vendor/@ensdomains/buffer/v0.1.0/Buffer.sol\":3854:3857  src */\n      dup1\n        /* \"@chainlink/contracts@1.2.0/src/v0.8/vendor/@ensdomains/buffer/v0.1.0/Buffer.sol\":3848:3858  mload(src) */\n      mload\n        /* \"@chainlink/contracts@1.2.0/src/v0.8/vendor/@ensdomains/buffer/v0.1.0/Buffer.sol\":3842:3846  dest */\n      dup3\n        /* \"@chainlink/contracts@1.2.0/src/v0.8/vendor/@ensdomains/buffer/v0.1.0/Buffer.sol\":3835:3859  mstore(dest, mload(src)) */\n      mstore\n        /* \"@chainlink/contracts@1.2.0/src/v0.8/vendor/@ensdomains/buffer/v0.1.0/Buffer.sol\":3894:3896  32 */\n      0x20\n        /* \"@chainlink/contracts@1.2.0/src/v0.8/vendor/@ensdomains/buffer/v0.1.0/Buffer.sol\":3886:3896  dest += 32 */\n      dup3\n      tag_318\n      swap2\n      swap1\n      tag_245\n      jump\t// in\n    tag_318:\n      swap2\n      pop\n        /* \"@chainlink/contracts@1.2.0/src/v0.8/vendor/@ensdomains/buffer/v0.1.0/Buffer.sol\":3917:3919  32 */\n      0x20\n        /* \"@chainlink/contracts@1.2.0/src/v0.8/vendor/@ensdomains/buffer/v0.1.0/Buffer.sol\":3910:3919  src += 32 */\n      dup2\n      tag_319\n      swap2\n      swap1\n      tag_245\n      jump\t// in\n    tag_319:\n      swap1\n      pop\n        /* \"@chainlink/contracts@1.2.0/src/v0.8/vendor/@ensdomains/buffer/v0.1.0/Buffer.sol\":3790:3792  32 */\n      0x20\n        /* \"@chainlink/contracts@1.2.0/src/v0.8/vendor/@ensdomains/buffer/v0.1.0/Buffer.sol\":3783:3792  len -= 32 */\n      dup7\n      tag_320\n      swap2\n      swap1\n      tag_249\n      jump\t// in\n    tag_320:\n      swap6\n      pop\n        /* \"@chainlink/contracts@1.2.0/src/v0.8/vendor/@ensdomains/buffer/v0.1.0/Buffer.sol\":3765:3930  for (; len >= 32; len -= 32) {... */\n      jump(tag_315)\n    tag_316:\n        /* \"@chainlink/contracts@1.2.0/src/v0.8/vendor/@ensdomains/buffer/v0.1.0/Buffer.sol\":3996:4005  uint mask */\n      0x00\n        /* \"@chainlink/contracts@1.2.0/src/v0.8/vendor/@ensdomains/buffer/v0.1.0/Buffer.sol\":4030:4031  1 */\n      0x01\n        /* \"@chainlink/contracts@1.2.0/src/v0.8/vendor/@ensdomains/buffer/v0.1.0/Buffer.sol\":4022:4025  len */\n      dup8\n        /* \"@chainlink/contracts@1.2.0/src/v0.8/vendor/@ensdomains/buffer/v0.1.0/Buffer.sol\":4017:4019  32 */\n      0x20\n        /* \"@chainlink/contracts@1.2.0/src/v0.8/vendor/@ensdomains/buffer/v0.1.0/Buffer.sol\":4017:4025  32 - len */\n      sub\n        /* \"@chainlink/contracts@1.2.0/src/v0.8/vendor/@ensdomains/buffer/v0.1.0/Buffer.sol\":4009:4012  256 */\n      0x0100\n        /* \"@chainlink/contracts@1.2.0/src/v0.8/vendor/@ensdomains/buffer/v0.1.0/Buffer.sol\":4009:4026  256 ** (32 - len) */\n      exp\n        /* \"@chainlink/contracts@1.2.0/src/v0.8/vendor/@ensdomains/buffer/v0.1.0/Buffer.sol\":4008:4031  (256 ** (32 - len)) - 1 */\n      sub\n        /* \"@chainlink/contracts@1.2.0/src/v0.8/vendor/@ensdomains/buffer/v0.1.0/Buffer.sol\":3996:4031  uint mask = (256 ** (32 - len)) - 1 */\n      swap1\n      pop\n        /* \"@chainlink/contracts@1.2.0/src/v0.8/vendor/@ensdomains/buffer/v0.1.0/Buffer.sol\":4107:4111  mask */\n      dup1\n        /* \"@chainlink/contracts@1.2.0/src/v0.8/vendor/@ensdomains/buffer/v0.1.0/Buffer.sol\":4103:4112  not(mask) */\n      not\n        /* \"@chainlink/contracts@1.2.0/src/v0.8/vendor/@ensdomains/buffer/v0.1.0/Buffer.sol\":4097:4100  src */\n      dup3\n        /* \"@chainlink/contracts@1.2.0/src/v0.8/vendor/@ensdomains/buffer/v0.1.0/Buffer.sol\":4091:4101  mload(src) */\n      mload\n        /* \"@chainlink/contracts@1.2.0/src/v0.8/vendor/@ensdomains/buffer/v0.1.0/Buffer.sol\":4087:4113  and(mload(src), not(mask)) */\n      and\n        /* \"@chainlink/contracts@1.2.0/src/v0.8/vendor/@ensdomains/buffer/v0.1.0/Buffer.sol\":4163:4167  mask */\n      dup2\n        /* \"@chainlink/contracts@1.2.0/src/v0.8/vendor/@ensdomains/buffer/v0.1.0/Buffer.sol\":4156:4160  dest */\n      dup5\n        /* \"@chainlink/contracts@1.2.0/src/v0.8/vendor/@ensdomains/buffer/v0.1.0/Buffer.sol\":4150:4161  mload(dest) */\n      mload\n        /* \"@chainlink/contracts@1.2.0/src/v0.8/vendor/@ensdomains/buffer/v0.1.0/Buffer.sol\":4146:4168  and(mload(dest), mask) */\n      and\n        /* \"@chainlink/contracts@1.2.0/src/v0.8/vendor/@ensdomains/buffer/v0.1.0/Buffer.sol\":4211:4218  srcpart */\n      dup2\n        /* \"@chainlink/contracts@1.2.0/src/v0.8/vendor/@ensdomains/buffer/v0.1.0/Buffer.sol\":4201:4209  destpart */\n      dup2\n        /* \"@chainlink/contracts@1.2.0/src/v0.8/vendor/@ensdomains/buffer/v0.1.0/Buffer.sol\":4198:4219  or(destpart, srcpart) */\n      or\n        /* \"@chainlink/contracts@1.2.0/src/v0.8/vendor/@ensdomains/buffer/v0.1.0/Buffer.sol\":4192:4196  dest */\n      dup6\n        /* \"@chainlink/contracts@1.2.0/src/v0.8/vendor/@ensdomains/buffer/v0.1.0/Buffer.sol\":4185:4220  mstore(dest, or(destpart, srcpart)) */\n      mstore\n        /* \"@chainlink/contracts@1.2.0/src/v0.8/vendor/@ensdomains/buffer/v0.1.0/Buffer.sol\":4054:4234  {... */\n      pop\n      pop\n      pop\n        /* \"@chainlink/contracts@1.2.0/src/v0.8/vendor/@ensdomains/buffer/v0.1.0/Buffer.sol\":4261:4264  buf */\n      dup8\n        /* \"@chainlink/contracts@1.2.0/src/v0.8/vendor/@ensdomains/buffer/v0.1.0/Buffer.sol\":4254:4264  return buf */\n      swap5\n      pop\n      pop\n      pop\n      pop\n      pop\n        /* \"@chainlink/contracts@1.2.0/src/v0.8/vendor/@ensdomains/buffer/v0.1.0/Buffer.sol\":2844:4271  function append(buffer memory buf, bytes memory data, uint len) internal pure returns(buffer memory) {... */\n      swap4\n      swap3\n      pop\n      pop\n      pop\n      jump\t// out\n        /* \"@chainlink/contracts@1.2.0/src/v0.8/vendor/@ensdomains/buffer/v0.1.0/Buffer.sol\":2004:2171  function resize(buffer memory buf, uint capacity) private pure {... */\n    tag_293:\n        /* \"@chainlink/contracts@1.2.0/src/v0.8/vendor/@ensdomains/buffer/v0.1.0/Buffer.sol\":2077:2096  bytes memory oldbuf */\n      0x00\n        /* \"@chainlink/contracts@1.2.0/src/v0.8/vendor/@ensdomains/buffer/v0.1.0/Buffer.sol\":2099:2102  buf */\n      dup3\n        /* \"@chainlink/contracts@1.2.0/src/v0.8/vendor/@ensdomains/buffer/v0.1.0/Buffer.sol\":2099:2106  buf.buf */\n      0x00\n      add\n      mload\n        /* \"@chainlink/contracts@1.2.0/src/v0.8/vendor/@ensdomains/buffer/v0.1.0/Buffer.sol\":2077:2106  bytes memory oldbuf = buf.buf */\n      swap1\n      pop\n        /* \"@chainlink/contracts@1.2.0/src/v0.8/vendor/@ensdomains/buffer/v0.1.0/Buffer.sol\":2116:2135  init(buf, capacity) */\n      tag_322\n        /* \"@chainlink/contracts@1.2.0/src/v0.8/vendor/@ensdomains/buffer/v0.1.0/Buffer.sol\":2121:2124  buf */\n      dup4\n        /* \"@chainlink/contracts@1.2.0/src/v0.8/vendor/@ensdomains/buffer/v0.1.0/Buffer.sol\":2126:2134  capacity */\n      dup4\n        /* \"@chainlink/contracts@1.2.0/src/v0.8/vendor/@ensdomains/buffer/v0.1.0/Buffer.sol\":2116:2120  init */\n      tag_228\n        /* \"@chainlink/contracts@1.2.0/src/v0.8/vendor/@ensdomains/buffer/v0.1.0/Buffer.sol\":2116:2135  init(buf, capacity) */\n      jump\t// in\n    tag_322:\n      pop\n        /* \"@chainlink/contracts@1.2.0/src/v0.8/vendor/@ensdomains/buffer/v0.1.0/Buffer.sol\":2145:2164  append(buf, oldbuf) */\n      tag_323\n        /* \"@chainlink/contracts@1.2.0/src/v0.8/vendor/@ensdomains/buffer/v0.1.0/Buffer.sol\":2152:2155  buf */\n      dup4\n        /* \"@chainlink/contracts@1.2.0/src/v0.8/vendor/@ensdomains/buffer/v0.1.0/Buffer.sol\":2157:2163  oldbuf */\n      dup3\n        /* \"@chainlink/contracts@1.2.0/src/v0.8/vendor/@ensdomains/buffer/v0.1.0/Buffer.sol\":2145:2151  append */\n      tag_233\n        /* \"@chainlink/contracts@1.2.0/src/v0.8/vendor/@ensdomains/buffer/v0.1.0/Buffer.sol\":2145:2164  append(buf, oldbuf) */\n      jump\t// in\n    tag_323:\n      pop\n        /* \"@chainlink/contracts@1.2.0/src/v0.8/vendor/@ensdomains/buffer/v0.1.0/Buffer.sol\":2067:2171  {... */\n      pop\n        /* \"@chainlink/contracts@1.2.0/src/v0.8/vendor/@ensdomains/buffer/v0.1.0/Buffer.sol\":2004:2171  function resize(buffer memory buf, uint capacity) private pure {... */\n      pop\n      pop\n      jump\t// out\n    tag_76:\n      mload(0x40)\n      dup1\n      0xe0\n      add\n      0x40\n      mstore\n      dup1\n      0x00\n      0x02\n      dup2\n      gt\n      iszero\n      tag_324\n      jumpi\n      tag_325\n      tag_132\n      jump\t// in\n    tag_325:\n    tag_324:\n      dup2\n      mstore\n      0x20\n      add\n      0x00\n      0x02\n      dup2\n      gt\n      iszero\n      tag_326\n      jumpi\n      tag_327\n      tag_132\n      jump\t// in\n    tag_327:\n    tag_326:\n      dup2\n      mstore\n      0x20\n      add\n      0x00\n      dup1\n      dup2\n      gt\n      iszero\n      tag_328\n      jumpi\n      tag_329\n      tag_132\n      jump\t// in\n    tag_329:\n    tag_328:\n      dup2\n      mstore\n      0x20\n      add\n      0x60\n      dup2\n      mstore\n      0x20\n      add\n      0x60\n      dup2\n      mstore\n      0x20\n      add\n      0x60\n      dup2\n      mstore\n      0x20\n      add\n      0x60\n      dup2\n      mstore\n      pop\n      swap1\n      jump\t// out\n    tag_225:\n      mload(0x40)\n      dup1\n      0x40\n      add\n      0x40\n      mstore\n      dup1\n      tag_330\n      tag_254\n      jump\t// in\n    tag_330:\n      dup2\n      mstore\n      0x20\n      add\n      0x00\n      dup2\n      mstore\n      pop\n      swap1\n      jump\t// out\n    tag_254:\n      mload(0x40)\n      dup1\n      0x40\n      add\n      0x40\n      mstore\n      dup1\n      0x60\n      dup2\n      mstore\n      0x20\n      add\n      0x00\n      dup2\n      mstore\n      pop\n      swap1\n      jump\t// out\n        /* \"#utility.yul\":7:82   */\n    tag_331:\n        /* \"#utility.yul\":40:46   */\n      0x00\n        /* \"#utility.yul\":73:75   */\n      0x40\n        /* \"#utility.yul\":67:76   */\n      mload\n        /* \"#utility.yul\":57:76   */\n      swap1\n      pop\n        /* \"#utility.yul\":7:82   */\n      swap1\n      jump\t// out\n        /* \"#utility.yul\":88:205   */\n    tag_332:\n        /* \"#utility.yul\":197:198   */\n      0x00\n        /* \"#utility.yul\":194:195   */\n      dup1\n        /* \"#utility.yul\":187:199   */\n      revert\n        /* \"#utility.yul\":211:328   */\n    tag_333:\n        /* \"#utility.yul\":320:321   */\n      0x00\n        /* \"#utility.yul\":317:318   */\n      dup1\n        /* \"#utility.yul\":310:322   */\n      revert\n        /* \"#utility.yul\":334:411   */\n    tag_334:\n        /* \"#utility.yul\":371:378   */\n      0x00\n        /* \"#utility.yul\":400:405   */\n      dup2\n        /* \"#utility.yul\":389:405   */\n      swap1\n      pop\n        /* \"#utility.yul\":334:411   */\n      swap2\n      swap1\n      pop\n      jump\t// out\n        /* \"#utility.yul\":417:539   */\n    tag_335:\n        /* \"#utility.yul\":490:514   */\n      tag_418\n        /* \"#utility.yul\":508:513   */\n      dup2\n        /* \"#utility.yul\":490:514   */\n      tag_334\n      jump\t// in\n    tag_418:\n        /* \"#utility.yul\":483:488   */\n      dup2\n        /* \"#utility.yul\":480:515   */\n      eq\n        /* \"#utility.yul\":470:533   */\n      tag_419\n      jumpi\n        /* \"#utility.yul\":529:530   */\n      0x00\n        /* \"#utility.yul\":526:527   */\n      dup1\n        /* \"#utility.yul\":519:531   */\n      revert\n        /* \"#utility.yul\":470:533   */\n    tag_419:\n        /* \"#utility.yul\":417:539   */\n      pop\n      jump\t// out\n        /* \"#utility.yul\":545:684   */\n    tag_336:\n        /* \"#utility.yul\":591:596   */\n      0x00\n        /* \"#utility.yul\":629:635   */\n      dup2\n        /* \"#utility.yul\":616:636   */\n      calldataload\n        /* \"#utility.yul\":607:636   */\n      swap1\n      pop\n        /* \"#utility.yul\":645:678   */\n      tag_421\n        /* \"#utility.yul\":672:677   */\n      dup2\n        /* \"#utility.yul\":645:678   */\n      tag_335\n      jump\t// in\n    tag_421:\n        /* \"#utility.yul\":545:684   */\n      swap3\n      swap2\n      pop\n      pop\n      jump\t// out\n        /* \"#utility.yul\":690:807   */\n    tag_337:\n        /* \"#utility.yul\":799:800   */\n      0x00\n        /* \"#utility.yul\":796:797   */\n      dup1\n        /* \"#utility.yul\":789:801   */\n      revert\n        /* \"#utility.yul\":813:930   */\n    tag_338:\n        /* \"#utility.yul\":922:923   */\n      0x00\n        /* \"#utility.yul\":919:920   */\n      dup1\n        /* \"#utility.yul\":912:924   */\n      revert\n        /* \"#utility.yul\":936:1038   */\n    tag_339:\n        /* \"#utility.yul\":977:983   */\n      0x00\n        /* \"#utility.yul\":1028:1030   */\n      0x1f\n        /* \"#utility.yul\":1024:1031   */\n      not\n        /* \"#utility.yul\":1019:1021   */\n      0x1f\n        /* \"#utility.yul\":1012:1017   */\n      dup4\n        /* \"#utility.yul\":1008:1022   */\n      add\n        /* \"#utility.yul\":1004:1032   */\n      and\n        /* \"#utility.yul\":994:1032   */\n      swap1\n      pop\n        /* \"#utility.yul\":936:1038   */\n      swap2\n      swap1\n      pop\n      jump\t// out\n        /* \"#utility.yul\":1044:1224   */\n    tag_340:\n        /* \"#utility.yul\":1092:1169   */\n      0x4e487b7100000000000000000000000000000000000000000000000000000000\n        /* \"#utility.yul\":1089:1090   */\n      0x00\n        /* \"#utility.yul\":1082:1170   */\n      mstore\n        /* \"#utility.yul\":1189:1193   */\n      0x41\n        /* \"#utility.yul\":1186:1187   */\n      0x04\n        /* \"#utility.yul\":1179:1194   */\n      mstore\n        /* \"#utility.yul\":1213:1217   */\n      0x24\n        /* \"#utility.yul\":1210:1211   */\n      0x00\n        /* \"#utility.yul\":1203:1218   */\n      revert\n        /* \"#utility.yul\":1230:1511   */\n    tag_341:\n        /* \"#utility.yul\":1313:1340   */\n      tag_427\n        /* \"#utility.yul\":1335:1339   */\n      dup3\n        /* \"#utility.yul\":1313:1340   */\n      tag_339\n      jump\t// in\n    tag_427:\n        /* \"#utility.yul\":1305:1311   */\n      dup2\n        /* \"#utility.yul\":1301:1341   */\n      add\n        /* \"#utility.yul\":1443:1449   */\n      dup2\n        /* \"#utility.yul\":1431:1441   */\n      dup2\n        /* \"#utility.yul\":1428:1450   */\n      lt\n        /* \"#utility.yul\":1407:1425   */\n      0xffffffffffffffff\n        /* \"#utility.yul\":1395:1405   */\n      dup3\n        /* \"#utility.yul\":1392:1426   */\n      gt\n        /* \"#utility.yul\":1389:1451   */\n      or\n        /* \"#utility.yul\":1386:1474   */\n      iszero\n      tag_428\n      jumpi\n        /* \"#utility.yul\":1454:1472   */\n      tag_429\n      tag_340\n      jump\t// in\n    tag_429:\n        /* \"#utility.yul\":1386:1474   */\n    tag_428:\n        /* \"#utility.yul\":1494:1504   */\n      dup1\n        /* \"#utility.yul\":1490:1492   */\n      0x40\n        /* \"#utility.yul\":1483:1505   */\n      mstore\n        /* \"#utility.yul\":1273:1511   */\n      pop\n        /* \"#utility.yul\":1230:1511   */\n      pop\n      pop\n      jump\t// out\n        /* \"#utility.yul\":1517:1646   */\n    tag_342:\n        /* \"#utility.yul\":1551:1557   */\n      0x00\n        /* \"#utility.yul\":1578:1598   */\n      tag_431\n      tag_331\n      jump\t// in\n    tag_431:\n        /* \"#utility.yul\":1568:1598   */\n      swap1\n      pop\n        /* \"#utility.yul\":1607:1640   */\n      tag_432\n        /* \"#utility.yul\":1635:1639   */\n      dup3\n        /* \"#utility.yul\":1627:1633   */\n      dup3\n        /* \"#utility.yul\":1607:1640   */\n      tag_341\n      jump\t// in\n    tag_432:\n        /* \"#utility.yul\":1517:1646   */\n      swap2\n      swap1\n      pop\n      jump\t// out\n        /* \"#utility.yul\":1652:1959   */\n    tag_343:\n        /* \"#utility.yul\":1713:1717   */\n      0x00\n        /* \"#utility.yul\":1803:1821   */\n      0xffffffffffffffff\n        /* \"#utility.yul\":1795:1801   */\n      dup3\n        /* \"#utility.yul\":1792:1822   */\n      gt\n        /* \"#utility.yul\":1789:1845   */\n      iszero\n      tag_434\n      jumpi\n        /* \"#utility.yul\":1825:1843   */\n      tag_435\n      tag_340\n      jump\t// in\n    tag_435:\n        /* \"#utility.yul\":1789:1845   */\n    tag_434:\n        /* \"#utility.yul\":1863:1892   */\n      tag_436\n        /* \"#utility.yul\":1885:1891   */\n      dup3\n        /* \"#utility.yul\":1863:1892   */\n      tag_339\n      jump\t// in\n    tag_436:\n        /* \"#utility.yul\":1855:1892   */\n      swap1\n      pop\n        /* \"#utility.yul\":1947:1951   */\n      0x20\n        /* \"#utility.yul\":1941:1945   */\n      dup2\n        /* \"#utility.yul\":1937:1952   */\n      add\n        /* \"#utility.yul\":1929:1952   */\n      swap1\n      pop\n        /* \"#utility.yul\":1652:1959   */\n      swap2\n      swap1\n      pop\n      jump\t// out\n        /* \"#utility.yul\":1965:2111   */\n    tag_344:\n        /* \"#utility.yul\":2062:2068   */\n      dup3\n        /* \"#utility.yul\":2057:2060   */\n      dup2\n        /* \"#utility.yul\":2052:2055   */\n      dup4\n        /* \"#utility.yul\":2039:2069   */\n      calldatacopy\n        /* \"#utility.yul\":2103:2104   */\n      0x00\n        /* \"#utility.yul\":2094:2100   */\n      dup4\n        /* \"#utility.yul\":2089:2092   */\n      dup4\n        /* \"#utility.yul\":2085:2101   */\n      add\n        /* \"#utility.yul\":2078:2105   */\n      mstore\n        /* \"#utility.yul\":1965:2111   */\n      pop\n      pop\n      pop\n      jump\t// out\n        /* \"#utility.yul\":2117:2540   */\n    tag_345:\n        /* \"#utility.yul\":2194:2199   */\n      0x00\n        /* \"#utility.yul\":2219:2284   */\n      tag_439\n        /* \"#utility.yul\":2235:2283   */\n      tag_440\n        /* \"#utility.yul\":2276:2282   */\n      dup5\n        /* \"#utility.yul\":2235:2283   */\n      tag_343\n      jump\t// in\n    tag_440:\n        /* \"#utility.yul\":2219:2284   */\n      tag_342\n      jump\t// in\n    tag_439:\n        /* \"#utility.yul\":2210:2284   */\n      swap1\n      pop\n        /* \"#utility.yul\":2307:2313   */\n      dup3\n        /* \"#utility.yul\":2300:2305   */\n      dup2\n        /* \"#utility.yul\":2293:2314   */\n      mstore\n        /* \"#utility.yul\":2345:2349   */\n      0x20\n        /* \"#utility.yul\":2338:2343   */\n      dup2\n        /* \"#utility.yul\":2334:2350   */\n      add\n        /* \"#utility.yul\":2383:2386   */\n      dup5\n        /* \"#utility.yul\":2374:2380   */\n      dup5\n        /* \"#utility.yul\":2369:2372   */\n      dup5\n        /* \"#utility.yul\":2365:2381   */\n      add\n        /* \"#utility.yul\":2362:2387   */\n      gt\n        /* \"#utility.yul\":2359:2471   */\n      iszero\n      tag_441\n      jumpi\n        /* \"#utility.yul\":2390:2469   */\n      tag_442\n      tag_338\n      jump\t// in\n    tag_442:\n        /* \"#utility.yul\":2359:2471   */\n    tag_441:\n        /* \"#utility.yul\":2480:2534   */\n      tag_443\n        /* \"#utility.yul\":2527:2533   */\n      dup5\n        /* \"#utility.yul\":2522:2525   */\n      dup3\n        /* \"#utility.yul\":2517:2520   */\n      dup6\n        /* \"#utility.yul\":2480:2534   */\n      tag_344\n      jump\t// in\n    tag_443:\n        /* \"#utility.yul\":2200:2540   */\n      pop\n        /* \"#utility.yul\":2117:2540   */\n      swap4\n      swap3\n      pop\n      pop\n      pop\n      jump\t// out\n        /* \"#utility.yul\":2559:2897   */\n    tag_346:\n        /* \"#utility.yul\":2614:2619   */\n      0x00\n        /* \"#utility.yul\":2663:2666   */\n      dup3\n        /* \"#utility.yul\":2656:2660   */\n      0x1f\n        /* \"#utility.yul\":2648:2654   */\n      dup4\n        /* \"#utility.yul\":2644:2661   */\n      add\n        /* \"#utility.yul\":2640:2667   */\n      slt\n        /* \"#utility.yul\":2630:2752   */\n      tag_445\n      jumpi\n        /* \"#utility.yul\":2671:2750   */\n      tag_446\n      tag_337\n      jump\t// in\n    tag_446:\n        /* \"#utility.yul\":2630:2752   */\n    tag_445:\n        /* \"#utility.yul\":2788:2794   */\n      dup2\n        /* \"#utility.yul\":2775:2795   */\n      calldataload\n        /* \"#utility.yul\":2813:2891   */\n      tag_447\n        /* \"#utility.yul\":2887:2890   */\n      dup5\n        /* \"#utility.yul\":2879:2885   */\n      dup3\n        /* \"#utility.yul\":2872:2876   */\n      0x20\n        /* \"#utility.yul\":2864:2870   */\n      dup7\n        /* \"#utility.yul\":2860:2877   */\n      add\n        /* \"#utility.yul\":2813:2891   */\n      tag_345\n      jump\t// in\n    tag_447:\n        /* \"#utility.yul\":2804:2891   */\n      swap2\n      pop\n        /* \"#utility.yul\":2620:2897   */\n      pop\n        /* \"#utility.yul\":2559:2897   */\n      swap3\n      swap2\n      pop\n      pop\n      jump\t// out\n        /* \"#utility.yul\":2903:3878   */\n    tag_17:\n        /* \"#utility.yul\":2998:3004   */\n      0x00\n        /* \"#utility.yul\":3006:3012   */\n      dup1\n        /* \"#utility.yul\":3014:3020   */\n      0x00\n        /* \"#utility.yul\":3063:3065   */\n      0x60\n        /* \"#utility.yul\":3051:3060   */\n      dup5\n        /* \"#utility.yul\":3042:3049   */\n      dup7\n        /* \"#utility.yul\":3038:3061   */\n      sub\n        /* \"#utility.yul\":3034:3066   */\n      slt\n        /* \"#utility.yul\":3031:3150   */\n      iszero\n      tag_449\n      jumpi\n        /* \"#utility.yul\":3069:3148   */\n      tag_450\n      tag_332\n      jump\t// in\n    tag_450:\n        /* \"#utility.yul\":3031:3150   */\n    tag_449:\n        /* \"#utility.yul\":3189:3190   */\n      0x00\n        /* \"#utility.yul\":3214:3267   */\n      tag_451\n        /* \"#utility.yul\":3259:3266   */\n      dup7\n        /* \"#utility.yul\":3250:3256   */\n      dup3\n        /* \"#utility.yul\":3239:3248   */\n      dup8\n        /* \"#utility.yul\":3235:3257   */\n      add\n        /* \"#utility.yul\":3214:3267   */\n      tag_336\n      jump\t// in\n    tag_451:\n        /* \"#utility.yul\":3204:3267   */\n      swap4\n      pop\n        /* \"#utility.yul\":3160:3277   */\n      pop\n        /* \"#utility.yul\":3344:3346   */\n      0x20\n        /* \"#utility.yul\":3333:3342   */\n      dup5\n        /* \"#utility.yul\":3329:3347   */\n      add\n        /* \"#utility.yul\":3316:3348   */\n      calldataload\n        /* \"#utility.yul\":3375:3393   */\n      0xffffffffffffffff\n        /* \"#utility.yul\":3367:3373   */\n      dup2\n        /* \"#utility.yul\":3364:3394   */\n      gt\n        /* \"#utility.yul\":3361:3478   */\n      iszero\n      tag_452\n      jumpi\n        /* \"#utility.yul\":3397:3476   */\n      tag_453\n      tag_333\n      jump\t// in\n    tag_453:\n        /* \"#utility.yul\":3361:3478   */\n    tag_452:\n        /* \"#utility.yul\":3502:3564   */\n      tag_454\n        /* \"#utility.yul\":3556:3563   */\n      dup7\n        /* \"#utility.yul\":3547:3553   */\n      dup3\n        /* \"#utility.yul\":3536:3545   */\n      dup8\n        /* \"#utility.yul\":3532:3554   */\n      add\n        /* \"#utility.yul\":3502:3564   */\n      tag_346\n      jump\t// in\n    tag_454:\n        /* \"#utility.yul\":3492:3564   */\n      swap3\n      pop\n        /* \"#utility.yul\":3287:3574   */\n      pop\n        /* \"#utility.yul\":3641:3643   */\n      0x40\n        /* \"#utility.yul\":3630:3639   */\n      dup5\n        /* \"#utility.yul\":3626:3644   */\n      add\n        /* \"#utility.yul\":3613:3645   */\n      calldataload\n        /* \"#utility.yul\":3672:3690   */\n      0xffffffffffffffff\n        /* \"#utility.yul\":3664:3670   */\n      dup2\n        /* \"#utility.yul\":3661:3691   */\n      gt\n        /* \"#utility.yul\":3658:3775   */\n      iszero\n      tag_455\n      jumpi\n        /* \"#utility.yul\":3694:3773   */\n      tag_456\n      tag_333\n      jump\t// in\n    tag_456:\n        /* \"#utility.yul\":3658:3775   */\n    tag_455:\n        /* \"#utility.yul\":3799:3861   */\n      tag_457\n        /* \"#utility.yul\":3853:3860   */\n      dup7\n        /* \"#utility.yul\":3844:3850   */\n      dup3\n        /* \"#utility.yul\":3833:3842   */\n      dup8\n        /* \"#utility.yul\":3829:3851   */\n      add\n        /* \"#utility.yul\":3799:3861   */\n      tag_346\n      jump\t// in\n    tag_457:\n        /* \"#utility.yul\":3789:3861   */\n      swap2\n      pop\n        /* \"#utility.yul\":3584:3871   */\n      pop\n        /* \"#utility.yul\":2903:3878   */\n      swap3\n      pop\n      swap3\n      pop\n      swap3\n      jump\t// out\n        /* \"#utility.yul\":3884:3982   */\n    tag_347:\n        /* \"#utility.yul\":3935:3941   */\n      0x00\n        /* \"#utility.yul\":3969:3974   */\n      dup2\n        /* \"#utility.yul\":3963:3975   */\n      mload\n        /* \"#utility.yul\":3953:3975   */\n      swap1\n      pop\n        /* \"#utility.yul\":3884:3982   */\n      swap2\n      swap1\n      pop\n      jump\t// out\n        /* \"#utility.yul\":3988:4156   */\n    tag_348:\n        /* \"#utility.yul\":4071:4082   */\n      0x00\n        /* \"#utility.yul\":4105:4111   */\n      dup3\n        /* \"#utility.yul\":4100:4103   */\n      dup3\n        /* \"#utility.yul\":4093:4112   */\n      mstore\n        /* \"#utility.yul\":4145:4149   */\n      0x20\n        /* \"#utility.yul\":4140:4143   */\n      dup3\n        /* \"#utility.yul\":4136:4150   */\n      add\n        /* \"#utility.yul\":4121:4150   */\n      swap1\n      pop\n        /* \"#utility.yul\":3988:4156   */\n      swap3\n      swap2\n      pop\n      pop\n      jump\t// out\n        /* \"#utility.yul\":4162:4408   */\n    tag_349:\n        /* \"#utility.yul\":4243:4244   */\n      0x00\n        /* \"#utility.yul\":4253:4366   */\n    tag_461:\n        /* \"#utility.yul\":4267:4273   */\n      dup4\n        /* \"#utility.yul\":4264:4265   */\n      dup2\n        /* \"#utility.yul\":4261:4274   */\n      lt\n        /* \"#utility.yul\":4253:4366   */\n      iszero\n      tag_463\n      jumpi\n        /* \"#utility.yul\":4352:4353   */\n      dup1\n        /* \"#utility.yul\":4347:4350   */\n      dup3\n        /* \"#utility.yul\":4343:4354   */\n      add\n        /* \"#utility.yul\":4337:4355   */\n      mload\n        /* \"#utility.yul\":4333:4334   */\n      dup2\n        /* \"#utility.yul\":4328:4331   */\n      dup5\n        /* \"#utility.yul\":4324:4335   */\n      add\n        /* \"#utility.yul\":4317:4356   */\n      mstore\n        /* \"#utility.yul\":4289:4291   */\n      0x20\n        /* \"#utility.yul\":4286:4287   */\n      dup2\n        /* \"#utility.yul\":4282:4292   */\n      add\n        /* \"#utility.yul\":4277:4292   */\n      swap1\n      pop\n        /* \"#utility.yul\":4253:4366   */\n      jump(tag_461)\n    tag_463:\n        /* \"#utility.yul\":4400:4401   */\n      0x00\n        /* \"#utility.yul\":4391:4397   */\n      dup5\n        /* \"#utility.yul\":4386:4389   */\n      dup5\n        /* \"#utility.yul\":4382:4398   */\n      add\n        /* \"#utility.yul\":4375:4402   */\n      mstore\n        /* \"#utility.yul\":4224:4408   */\n      pop\n        /* \"#utility.yul\":4162:4408   */\n      pop\n      pop\n      pop\n      jump\t// out\n        /* \"#utility.yul\":4414:4787   */\n    tag_350:\n        /* \"#utility.yul\":4500:4503   */\n      0x00\n        /* \"#utility.yul\":4528:4566   */\n      tag_465\n        /* \"#utility.yul\":4560:4565   */\n      dup3\n        /* \"#utility.yul\":4528:4566   */\n      tag_347\n      jump\t// in\n    tag_465:\n        /* \"#utility.yul\":4582:4652   */\n      tag_466\n        /* \"#utility.yul\":4645:4651   */\n      dup2\n        /* \"#utility.yul\":4640:4643   */\n      dup6\n        /* \"#utility.yul\":4582:4652   */\n      tag_348\n      jump\t// in\n    tag_466:\n        /* \"#utility.yul\":4575:4652   */\n      swap4\n      pop\n        /* \"#utility.yul\":4661:4726   */\n      tag_467\n        /* \"#utility.yul\":4719:4725   */\n      dup2\n        /* \"#utility.yul\":4714:4717   */\n      dup6\n        /* \"#utility.yul\":4707:4711   */\n      0x20\n        /* \"#utility.yul\":4700:4705   */\n      dup7\n        /* \"#utility.yul\":4696:4712   */\n      add\n        /* \"#utility.yul\":4661:4726   */\n      tag_349\n      jump\t// in\n    tag_467:\n        /* \"#utility.yul\":4751:4780   */\n      tag_468\n        /* \"#utility.yul\":4773:4779   */\n      dup2\n        /* \"#utility.yul\":4751:4780   */\n      tag_339\n      jump\t// in\n    tag_468:\n        /* \"#utility.yul\":4746:4749   */\n      dup5\n        /* \"#utility.yul\":4742:4781   */\n      add\n        /* \"#utility.yul\":4735:4781   */\n      swap2\n      pop\n        /* \"#utility.yul\":4504:4787   */\n      pop\n        /* \"#utility.yul\":4414:4787   */\n      swap3\n      swap2\n      pop\n      pop\n      jump\t// out\n        /* \"#utility.yul\":4793:5102   */\n    tag_22:\n        /* \"#utility.yul\":4904:4908   */\n      0x00\n        /* \"#utility.yul\":4942:4944   */\n      0x20\n        /* \"#utility.yul\":4931:4940   */\n      dup3\n        /* \"#utility.yul\":4927:4945   */\n      add\n        /* \"#utility.yul\":4919:4945   */\n      swap1\n      pop\n        /* \"#utility.yul\":4991:5000   */\n      dup2\n        /* \"#utility.yul\":4985:4989   */\n      dup2\n        /* \"#utility.yul\":4981:5001   */\n      sub\n        /* \"#utility.yul\":4977:4978   */\n      0x00\n        /* \"#utility.yul\":4966:4975   */\n      dup4\n        /* \"#utility.yul\":4962:4979   */\n      add\n        /* \"#utility.yul\":4955:5002   */\n      mstore\n        /* \"#utility.yul\":5019:5095   */\n      tag_470\n        /* \"#utility.yul\":5090:5094   */\n      dup2\n        /* \"#utility.yul\":5081:5087   */\n      dup5\n        /* \"#utility.yul\":5019:5095   */\n      tag_350\n      jump\t// in\n    tag_470:\n        /* \"#utility.yul\":5011:5095   */\n      swap1\n      pop\n        /* \"#utility.yul\":4793:5102   */\n      swap3\n      swap2\n      pop\n      pop\n      jump\t// out\n        /* \"#utility.yul\":5108:5416   */\n    tag_351:\n        /* \"#utility.yul\":5170:5174   */\n      0x00\n        /* \"#utility.yul\":5260:5278   */\n      0xffffffffffffffff\n        /* \"#utility.yul\":5252:5258   */\n      dup3\n        /* \"#utility.yul\":5249:5279   */\n      gt\n        /* \"#utility.yul\":5246:5302   */\n      iszero\n      tag_472\n      jumpi\n        /* \"#utility.yul\":5282:5300   */\n      tag_473\n      tag_340\n      jump\t// in\n    tag_473:\n        /* \"#utility.yul\":5246:5302   */\n    tag_472:\n        /* \"#utility.yul\":5320:5349   */\n      tag_474\n        /* \"#utility.yul\":5342:5348   */\n      dup3\n        /* \"#utility.yul\":5320:5349   */\n      tag_339\n      jump\t// in\n    tag_474:\n        /* \"#utility.yul\":5312:5349   */\n      swap1\n      pop\n        /* \"#utility.yul\":5404:5408   */\n      0x20\n        /* \"#utility.yul\":5398:5402   */\n      dup2\n        /* \"#utility.yul\":5394:5409   */\n      add\n        /* \"#utility.yul\":5386:5409   */\n      swap1\n      pop\n        /* \"#utility.yul\":5108:5416   */\n      swap2\n      swap1\n      pop\n      jump\t// out\n        /* \"#utility.yul\":5422:5847   */\n    tag_352:\n        /* \"#utility.yul\":5500:5505   */\n      0x00\n        /* \"#utility.yul\":5525:5591   */\n      tag_476\n        /* \"#utility.yul\":5541:5590   */\n      tag_477\n        /* \"#utility.yul\":5583:5589   */\n      dup5\n        /* \"#utility.yul\":5541:5590   */\n      tag_351\n      jump\t// in\n    tag_477:\n        /* \"#utility.yul\":5525:5591   */\n      tag_342\n      jump\t// in\n    tag_476:\n        /* \"#utility.yul\":5516:5591   */\n      swap1\n      pop\n        /* \"#utility.yul\":5614:5620   */\n      dup3\n        /* \"#utility.yul\":5607:5612   */\n      dup2\n        /* \"#utility.yul\":5600:5621   */\n      mstore\n        /* \"#utility.yul\":5652:5656   */\n      0x20\n        /* \"#utility.yul\":5645:5650   */\n      dup2\n        /* \"#utility.yul\":5641:5657   */\n      add\n        /* \"#utility.yul\":5690:5693   */\n      dup5\n        /* \"#utility.yul\":5681:5687   */\n      dup5\n        /* \"#utility.yul\":5676:5679   */\n      dup5\n        /* \"#utility.yul\":5672:5688   */\n      add\n        /* \"#utility.yul\":5669:5694   */\n      gt\n        /* \"#utility.yul\":5666:5778   */\n      iszero\n      tag_478\n      jumpi\n        /* \"#utility.yul\":5697:5776   */\n      tag_479\n      tag_338\n      jump\t// in\n    tag_479:\n        /* \"#utility.yul\":5666:5778   */\n    tag_478:\n        /* \"#utility.yul\":5787:5841   */\n      tag_480\n        /* \"#utility.yul\":5834:5840   */\n      dup5\n        /* \"#utility.yul\":5829:5832   */\n      dup3\n        /* \"#utility.yul\":5824:5827   */\n      dup6\n        /* \"#utility.yul\":5787:5841   */\n      tag_344\n      jump\t// in\n    tag_480:\n        /* \"#utility.yul\":5506:5847   */\n      pop\n        /* \"#utility.yul\":5422:5847   */\n      swap4\n      swap3\n      pop\n      pop\n      pop\n      jump\t// out\n        /* \"#utility.yul\":5867:6207   */\n    tag_353:\n        /* \"#utility.yul\":5923:5928   */\n      0x00\n        /* \"#utility.yul\":5972:5975   */\n      dup3\n        /* \"#utility.yul\":5965:5969   */\n      0x1f\n        /* \"#utility.yul\":5957:5963   */\n      dup4\n        /* \"#utility.yul\":5953:5970   */\n      add\n        /* \"#utility.yul\":5949:5976   */\n      slt\n        /* \"#utility.yul\":5939:6061   */\n      tag_482\n      jumpi\n        /* \"#utility.yul\":5980:6059   */\n      tag_483\n      tag_337\n      jump\t// in\n    tag_483:\n        /* \"#utility.yul\":5939:6061   */\n    tag_482:\n        /* \"#utility.yul\":6097:6103   */\n      dup2\n        /* \"#utility.yul\":6084:6104   */\n      calldataload\n        /* \"#utility.yul\":6122:6201   */\n      tag_484\n        /* \"#utility.yul\":6197:6200   */\n      dup5\n        /* \"#utility.yul\":6189:6195   */\n      dup3\n        /* \"#utility.yul\":6182:6186   */\n      0x20\n        /* \"#utility.yul\":6174:6180   */\n      dup7\n        /* \"#utility.yul\":6170:6187   */\n      add\n        /* \"#utility.yul\":6122:6201   */\n      tag_352\n      jump\t// in\n    tag_484:\n        /* \"#utility.yul\":6113:6201   */\n      swap2\n      pop\n        /* \"#utility.yul\":5929:6207   */\n      pop\n        /* \"#utility.yul\":5867:6207   */\n      swap3\n      swap2\n      pop\n      pop\n      jump\t// out\n        /* \"#utility.yul\":6213:6299   */\n    tag_354:\n        /* \"#utility.yul\":6248:6255   */\n      0x00\n        /* \"#utility.yul\":6288:6292   */\n      0xff\n        /* \"#utility.yul\":6281:6286   */\n      dup3\n        /* \"#utility.yul\":6277:6293   */\n      and\n        /* \"#utility.yul\":6266:6293   */\n      swap1\n      pop\n        /* \"#utility.yul\":6213:6299   */\n      swap2\n      swap1\n      pop\n      jump\t// out\n        /* \"#utility.yul\":6305:6423   */\n    tag_355:\n        /* \"#utility.yul\":6376:6398   */\n      tag_487\n        /* \"#utility.yul\":6392:6397   */\n      dup2\n        /* \"#utility.yul\":6376:6398   */\n      tag_354\n      jump\t// in\n    tag_487:\n        /* \"#utility.yul\":6369:6374   */\n      dup2\n        /* \"#utility.yul\":6366:6399   */\n      eq\n        /* \"#utility.yul\":6356:6417   */\n      tag_488\n      jumpi\n        /* \"#utility.yul\":6413:6414   */\n      0x00\n        /* \"#utility.yul\":6410:6411   */\n      dup1\n        /* \"#utility.yul\":6403:6415   */\n      revert\n        /* \"#utility.yul\":6356:6417   */\n    tag_488:\n        /* \"#utility.yul\":6305:6423   */\n      pop\n      jump\t// out\n        /* \"#utility.yul\":6429:6564   */\n    tag_356:\n        /* \"#utility.yul\":6473:6478   */\n      0x00\n        /* \"#utility.yul\":6511:6517   */\n      dup2\n        /* \"#utility.yul\":6498:6518   */\n      calldataload\n        /* \"#utility.yul\":6489:6518   */\n      swap1\n      pop\n        /* \"#utility.yul\":6527:6558   */\n      tag_490\n        /* \"#utility.yul\":6552:6557   */\n      dup2\n        /* \"#utility.yul\":6527:6558   */\n      tag_355\n      jump\t// in\n    tag_490:\n        /* \"#utility.yul\":6429:6564   */\n      swap3\n      swap2\n      pop\n      pop\n      jump\t// out\n        /* \"#utility.yul\":6570:6671   */\n    tag_357:\n        /* \"#utility.yul\":6606:6613   */\n      0x00\n        /* \"#utility.yul\":6646:6664   */\n      0xffffffffffffffff\n        /* \"#utility.yul\":6639:6644   */\n      dup3\n        /* \"#utility.yul\":6635:6665   */\n      and\n        /* \"#utility.yul\":6624:6665   */\n      swap1\n      pop\n        /* \"#utility.yul\":6570:6671   */\n      swap2\n      swap1\n      pop\n      jump\t// out\n        /* \"#utility.yul\":6677:6797   */\n    tag_358:\n        /* \"#utility.yul\":6749:6772   */\n      tag_493\n        /* \"#utility.yul\":6766:6771   */\n      dup2\n        /* \"#utility.yul\":6749:6772   */\n      tag_357\n      jump\t// in\n    tag_493:\n        /* \"#utility.yul\":6742:6747   */\n      dup2\n        /* \"#utility.yul\":6739:6773   */\n      eq\n        /* \"#utility.yul\":6729:6791   */\n      tag_494\n      jumpi\n        /* \"#utility.yul\":6787:6788   */\n      0x00\n        /* \"#utility.yul\":6784:6785   */\n      dup1\n        /* \"#utility.yul\":6777:6789   */\n      revert\n        /* \"#utility.yul\":6729:6791   */\n    tag_494:\n        /* \"#utility.yul\":6677:6797   */\n      pop\n      jump\t// out\n        /* \"#utility.yul\":6803:6940   */\n    tag_359:\n        /* \"#utility.yul\":6848:6853   */\n      0x00\n        /* \"#utility.yul\":6886:6892   */\n      dup2\n        /* \"#utility.yul\":6873:6893   */\n      calldataload\n        /* \"#utility.yul\":6864:6893   */\n      swap1\n      pop\n        /* \"#utility.yul\":6902:6934   */\n      tag_496\n        /* \"#utility.yul\":6928:6933   */\n      dup2\n        /* \"#utility.yul\":6902:6934   */\n      tag_358\n      jump\t// in\n    tag_496:\n        /* \"#utility.yul\":6803:6940   */\n      swap3\n      swap2\n      pop\n      pop\n      jump\t// out\n        /* \"#utility.yul\":6946:7267   */\n    tag_360:\n        /* \"#utility.yul\":7033:7037   */\n      0x00\n        /* \"#utility.yul\":7123:7141   */\n      0xffffffffffffffff\n        /* \"#utility.yul\":7115:7121   */\n      dup3\n        /* \"#utility.yul\":7112:7142   */\n      gt\n        /* \"#utility.yul\":7109:7165   */\n      iszero\n      tag_498\n      jumpi\n        /* \"#utility.yul\":7145:7163   */\n      tag_499\n      tag_340\n      jump\t// in\n    tag_499:\n        /* \"#utility.yul\":7109:7165   */\n    tag_498:\n        /* \"#utility.yul\":7195:7199   */\n      0x20\n        /* \"#utility.yul\":7187:7193   */\n      dup3\n        /* \"#utility.yul\":7183:7200   */\n      mul\n        /* \"#utility.yul\":7175:7200   */\n      swap1\n      pop\n        /* \"#utility.yul\":7255:7259   */\n      0x20\n        /* \"#utility.yul\":7249:7253   */\n      dup2\n        /* \"#utility.yul\":7245:7260   */\n      add\n        /* \"#utility.yul\":7237:7260   */\n      swap1\n      pop\n        /* \"#utility.yul\":6946:7267   */\n      swap2\n      swap1\n      pop\n      jump\t// out\n        /* \"#utility.yul\":7273:7390   */\n    tag_361:\n        /* \"#utility.yul\":7382:7383   */\n      0x00\n        /* \"#utility.yul\":7379:7380   */\n      dup1\n        /* \"#utility.yul\":7372:7384   */\n      revert\n        /* \"#utility.yul\":7412:8357   */\n    tag_362:\n        /* \"#utility.yul\":7518:7523   */\n      0x00\n        /* \"#utility.yul\":7543:7634   */\n      tag_502\n        /* \"#utility.yul\":7559:7633   */\n      tag_503\n        /* \"#utility.yul\":7626:7632   */\n      dup5\n        /* \"#utility.yul\":7559:7633   */\n      tag_360\n      jump\t// in\n    tag_503:\n        /* \"#utility.yul\":7543:7634   */\n      tag_342\n      jump\t// in\n    tag_502:\n        /* \"#utility.yul\":7534:7634   */\n      swap1\n      pop\n        /* \"#utility.yul\":7654:7659   */\n      dup1\n        /* \"#utility.yul\":7683:7689   */\n      dup4\n        /* \"#utility.yul\":7676:7681   */\n      dup3\n        /* \"#utility.yul\":7669:7690   */\n      mstore\n        /* \"#utility.yul\":7717:7721   */\n      0x20\n        /* \"#utility.yul\":7710:7715   */\n      dup3\n        /* \"#utility.yul\":7706:7722   */\n      add\n        /* \"#utility.yul\":7699:7722   */\n      swap1\n      pop\n        /* \"#utility.yul\":7770:7774   */\n      0x20\n        /* \"#utility.yul\":7762:7768   */\n      dup5\n        /* \"#utility.yul\":7758:7775   */\n      mul\n        /* \"#utility.yul\":7750:7756   */\n      dup4\n        /* \"#utility.yul\":7746:7776   */\n      add\n        /* \"#utility.yul\":7799:7802   */\n      dup6\n        /* \"#utility.yul\":7791:7797   */\n      dup2\n        /* \"#utility.yul\":7788:7803   */\n      gt\n        /* \"#utility.yul\":7785:7907   */\n      iszero\n      tag_504\n      jumpi\n        /* \"#utility.yul\":7818:7897   */\n      tag_505\n      tag_361\n      jump\t// in\n    tag_505:\n        /* \"#utility.yul\":7785:7907   */\n    tag_504:\n        /* \"#utility.yul\":7933:7939   */\n      dup4\n        /* \"#utility.yul\":7916:8351   */\n    tag_506:\n        /* \"#utility.yul\":7950:7956   */\n      dup2\n        /* \"#utility.yul\":7945:7948   */\n      dup2\n        /* \"#utility.yul\":7942:7957   */\n      lt\n        /* \"#utility.yul\":7916:8351   */\n      iszero\n      tag_508\n      jumpi\n        /* \"#utility.yul\":8039:8042   */\n      dup1\n        /* \"#utility.yul\":8026:8043   */\n      calldataload\n        /* \"#utility.yul\":8075:8093   */\n      0xffffffffffffffff\n        /* \"#utility.yul\":8062:8073   */\n      dup2\n        /* \"#utility.yul\":8059:8094   */\n      gt\n        /* \"#utility.yul\":8056:8178   */\n      iszero\n      tag_509\n      jumpi\n        /* \"#utility.yul\":8097:8176   */\n      tag_510\n      tag_337\n      jump\t// in\n    tag_510:\n        /* \"#utility.yul\":8056:8178   */\n    tag_509:\n        /* \"#utility.yul\":8221:8232   */\n      dup1\n        /* \"#utility.yul\":8213:8219   */\n      dup7\n        /* \"#utility.yul\":8209:8233   */\n      add\n        /* \"#utility.yul\":8259:8306   */\n      tag_511\n        /* \"#utility.yul\":8302:8305   */\n      dup10\n        /* \"#utility.yul\":8290:8300   */\n      dup3\n        /* \"#utility.yul\":8259:8306   */\n      tag_353\n      jump\t// in\n    tag_511:\n        /* \"#utility.yul\":8254:8257   */\n      dup6\n        /* \"#utility.yul\":8247:8307   */\n      mstore\n        /* \"#utility.yul\":8336:8340   */\n      0x20\n        /* \"#utility.yul\":8331:8334   */\n      dup6\n        /* \"#utility.yul\":8327:8341   */\n      add\n        /* \"#utility.yul\":8320:8341   */\n      swap5\n      pop\n        /* \"#utility.yul\":7992:8351   */\n      pop\n      pop\n        /* \"#utility.yul\":7976:7980   */\n      0x20\n        /* \"#utility.yul\":7971:7974   */\n      dup2\n        /* \"#utility.yul\":7967:7981   */\n      add\n        /* \"#utility.yul\":7960:7981   */\n      swap1\n      pop\n        /* \"#utility.yul\":7916:8351   */\n      jump(tag_506)\n    tag_508:\n        /* \"#utility.yul\":7920:7941   */\n      pop\n        /* \"#utility.yul\":7524:8357   */\n      pop\n      pop\n        /* \"#utility.yul\":7412:8357   */\n      swap4\n      swap3\n      pop\n      pop\n      pop\n      jump\t// out\n        /* \"#utility.yul\":8379:8769   */\n    tag_363:\n        /* \"#utility.yul\":8460:8465   */\n      0x00\n        /* \"#utility.yul\":8509:8512   */\n      dup3\n        /* \"#utility.yul\":8502:8506   */\n      0x1f\n        /* \"#utility.yul\":8494:8500   */\n      dup4\n        /* \"#utility.yul\":8490:8507   */\n      add\n        /* \"#utility.yul\":8486:8513   */\n      slt\n        /* \"#utility.yul\":8476:8598   */\n      tag_513\n      jumpi\n        /* \"#utility.yul\":8517:8596   */\n      tag_514\n      tag_337\n      jump\t// in\n    tag_514:\n        /* \"#utility.yul\":8476:8598   */\n    tag_513:\n        /* \"#utility.yul\":8634:8640   */\n      dup2\n        /* \"#utility.yul\":8621:8641   */\n      calldataload\n        /* \"#utility.yul\":8659:8763   */\n      tag_515\n        /* \"#utility.yul\":8759:8762   */\n      dup5\n        /* \"#utility.yul\":8751:8757   */\n      dup3\n        /* \"#utility.yul\":8744:8748   */\n      0x20\n        /* \"#utility.yul\":8736:8742   */\n      dup7\n        /* \"#utility.yul\":8732:8749   */\n      add\n        /* \"#utility.yul\":8659:8763   */\n      tag_362\n      jump\t// in\n    tag_515:\n        /* \"#utility.yul\":8650:8763   */\n      swap2\n      pop\n        /* \"#utility.yul\":8466:8769   */\n      pop\n        /* \"#utility.yul\":8379:8769   */\n      swap3\n      swap2\n      pop\n      pop\n      jump\t// out\n        /* \"#utility.yul\":8775:9095   */\n    tag_364:\n        /* \"#utility.yul\":8861:8865   */\n      0x00\n        /* \"#utility.yul\":8951:8969   */\n      0xffffffffffffffff\n        /* \"#utility.yul\":8943:8949   */\n      dup3\n        /* \"#utility.yul\":8940:8970   */\n      gt\n        /* \"#utility.yul\":8937:8993   */\n      iszero\n      tag_517\n      jumpi\n        /* \"#utility.yul\":8973:8991   */\n      tag_518\n      tag_340\n      jump\t// in\n    tag_518:\n        /* \"#utility.yul\":8937:8993   */\n    tag_517:\n        /* \"#utility.yul\":9023:9027   */\n      0x20\n        /* \"#utility.yul\":9015:9021   */\n      dup3\n        /* \"#utility.yul\":9011:9028   */\n      mul\n        /* \"#utility.yul\":9003:9028   */\n      swap1\n      pop\n        /* \"#utility.yul\":9083:9087   */\n      0x20\n        /* \"#utility.yul\":9077:9081   */\n      dup2\n        /* \"#utility.yul\":9073:9088   */\n      add\n        /* \"#utility.yul\":9065:9088   */\n      swap1\n      pop\n        /* \"#utility.yul\":8775:9095   */\n      swap2\n      swap1\n      pop\n      jump\t// out\n        /* \"#utility.yul\":9116:10058   */\n    tag_365:\n        /* \"#utility.yul\":9221:9226   */\n      0x00\n        /* \"#utility.yul\":9246:9336   */\n      tag_520\n        /* \"#utility.yul\":9262:9335   */\n      tag_521\n        /* \"#utility.yul\":9328:9334   */\n      dup5\n        /* \"#utility.yul\":9262:9335   */\n      tag_364\n      jump\t// in\n    tag_521:\n        /* \"#utility.yul\":9246:9336   */\n      tag_342\n      jump\t// in\n    tag_520:\n        /* \"#utility.yul\":9237:9336   */\n      swap1\n      pop\n        /* \"#utility.yul\":9356:9361   */\n      dup1\n        /* \"#utility.yul\":9385:9391   */\n      dup4\n        /* \"#utility.yul\":9378:9383   */\n      dup3\n        /* \"#utility.yul\":9371:9392   */\n      mstore\n        /* \"#utility.yul\":9419:9423   */\n      0x20\n        /* \"#utility.yul\":9412:9417   */\n      dup3\n        /* \"#utility.yul\":9408:9424   */\n      add\n        /* \"#utility.yul\":9401:9424   */\n      swap1\n      pop\n        /* \"#utility.yul\":9472:9476   */\n      0x20\n        /* \"#utility.yul\":9464:9470   */\n      dup5\n        /* \"#utility.yul\":9460:9477   */\n      mul\n        /* \"#utility.yul\":9452:9458   */\n      dup4\n        /* \"#utility.yul\":9448:9478   */\n      add\n        /* \"#utility.yul\":9501:9504   */\n      dup6\n        /* \"#utility.yul\":9493:9499   */\n      dup2\n        /* \"#utility.yul\":9490:9505   */\n      gt\n        /* \"#utility.yul\":9487:9609   */\n      iszero\n      tag_522\n      jumpi\n        /* \"#utility.yul\":9520:9599   */\n      tag_523\n      tag_361\n      jump\t// in\n    tag_523:\n        /* \"#utility.yul\":9487:9609   */\n    tag_522:\n        /* \"#utility.yul\":9635:9641   */\n      dup4\n        /* \"#utility.yul\":9618:10052   */\n    tag_524:\n        /* \"#utility.yul\":9652:9658   */\n      dup2\n        /* \"#utility.yul\":9647:9650   */\n      dup2\n        /* \"#utility.yul\":9644:9659   */\n      lt\n        /* \"#utility.yul\":9618:10052   */\n      iszero\n      tag_526\n      jumpi\n        /* \"#utility.yul\":9741:9744   */\n      dup1\n        /* \"#utility.yul\":9728:9745   */\n      calldataload\n        /* \"#utility.yul\":9777:9795   */\n      0xffffffffffffffff\n        /* \"#utility.yul\":9764:9775   */\n      dup2\n        /* \"#utility.yul\":9761:9796   */\n      gt\n        /* \"#utility.yul\":9758:9880   */\n      iszero\n      tag_527\n      jumpi\n        /* \"#utility.yul\":9799:9878   */\n      tag_528\n      tag_337\n      jump\t// in\n    tag_528:\n        /* \"#utility.yul\":9758:9880   */\n    tag_527:\n        /* \"#utility.yul\":9923:9934   */\n      dup1\n        /* \"#utility.yul\":9915:9921   */\n      dup7\n        /* \"#utility.yul\":9911:9935   */\n      add\n        /* \"#utility.yul\":9961:10007   */\n      tag_529\n        /* \"#utility.yul\":10003:10006   */\n      dup10\n        /* \"#utility.yul\":9991:10001   */\n      dup3\n        /* \"#utility.yul\":9961:10007   */\n      tag_346\n      jump\t// in\n    tag_529:\n        /* \"#utility.yul\":9956:9959   */\n      dup6\n        /* \"#utility.yul\":9949:10008   */\n      mstore\n        /* \"#utility.yul\":10037:10041   */\n      0x20\n        /* \"#utility.yul\":10032:10035   */\n      dup6\n        /* \"#utility.yul\":10028:10042   */\n      add\n        /* \"#utility.yul\":10021:10042   */\n      swap5\n      pop\n        /* \"#utility.yul\":9694:10052   */\n      pop\n      pop\n        /* \"#utility.yul\":9678:9682   */\n      0x20\n        /* \"#utility.yul\":9673:9676   */\n      dup2\n        /* \"#utility.yul\":9669:9683   */\n      add\n        /* \"#utility.yul\":9662:9683   */\n      swap1\n      pop\n        /* \"#utility.yul\":9618:10052   */\n      jump(tag_524)\n    tag_526:\n        /* \"#utility.yul\":9622:9643   */\n      pop\n        /* \"#utility.yul\":9227:10058   */\n      pop\n      pop\n        /* \"#utility.yul\":9116:10058   */\n      swap4\n      swap3\n      pop\n      pop\n      pop\n      jump\t// out\n        /* \"#utility.yul\":10079:10467   */\n    tag_366:\n        /* \"#utility.yul\":10159:10164   */\n      0x00\n        /* \"#utility.yul\":10208:10211   */\n      dup3\n        /* \"#utility.yul\":10201:10205   */\n      0x1f\n        /* \"#utility.yul\":10193:10199   */\n      dup4\n        /* \"#utility.yul\":10189:10206   */\n      add\n        /* \"#utility.yul\":10185:10212   */\n      slt\n        /* \"#utility.yul\":10175:10297   */\n      tag_531\n      jumpi\n        /* \"#utility.yul\":10216:10295   */\n      tag_532\n      tag_337\n      jump\t// in\n    tag_532:\n        /* \"#utility.yul\":10175:10297   */\n    tag_531:\n        /* \"#utility.yul\":10333:10339   */\n      dup2\n        /* \"#utility.yul\":10320:10340   */\n      calldataload\n        /* \"#utility.yul\":10358:10461   */\n      tag_533\n        /* \"#utility.yul\":10457:10460   */\n      dup5\n        /* \"#utility.yul\":10449:10455   */\n      dup3\n        /* \"#utility.yul\":10442:10446   */\n      0x20\n        /* \"#utility.yul\":10434:10440   */\n      dup7\n        /* \"#utility.yul\":10430:10447   */\n      add\n        /* \"#utility.yul\":10358:10461   */\n      tag_365\n      jump\t// in\n    tag_533:\n        /* \"#utility.yul\":10349:10461   */\n      swap2\n      pop\n        /* \"#utility.yul\":10165:10467   */\n      pop\n        /* \"#utility.yul\":10079:10467   */\n      swap3\n      swap2\n      pop\n      pop\n      jump\t// out\n        /* \"#utility.yul\":10473:10566   */\n    tag_367:\n        /* \"#utility.yul\":10509:10516   */\n      0x00\n        /* \"#utility.yul\":10549:10559   */\n      0xffffffff\n        /* \"#utility.yul\":10542:10547   */\n      dup3\n        /* \"#utility.yul\":10538:10560   */\n      and\n        /* \"#utility.yul\":10527:10560   */\n      swap1\n      pop\n        /* \"#utility.yul\":10473:10566   */\n      swap2\n      swap1\n      pop\n      jump\t// out\n        /* \"#utility.yul\":10572:10692   */\n    tag_368:\n        /* \"#utility.yul\":10644:10667   */\n      tag_536\n        /* \"#utility.yul\":10661:10666   */\n      dup2\n        /* \"#utility.yul\":10644:10667   */\n      tag_367\n      jump\t// in\n    tag_536:\n        /* \"#utility.yul\":10637:10642   */\n      dup2\n        /* \"#utility.yul\":10634:10668   */\n      eq\n        /* \"#utility.yul\":10624:10686   */\n      tag_537\n      jumpi\n        /* \"#utility.yul\":10682:10683   */\n      0x00\n        /* \"#utility.yul\":10679:10680   */\n      dup1\n        /* \"#utility.yul\":10672:10684   */\n      revert\n        /* \"#utility.yul\":10624:10686   */\n    tag_537:\n        /* \"#utility.yul\":10572:10692   */\n      pop\n      jump\t// out\n        /* \"#utility.yul\":10698:10835   */\n    tag_369:\n        /* \"#utility.yul\":10743:10748   */\n      0x00\n        /* \"#utility.yul\":10781:10787   */\n      dup2\n        /* \"#utility.yul\":10768:10788   */\n      calldataload\n        /* \"#utility.yul\":10759:10788   */\n      swap1\n      pop\n        /* \"#utility.yul\":10797:10829   */\n      tag_539\n        /* \"#utility.yul\":10823:10828   */\n      dup2\n        /* \"#utility.yul\":10797:10829   */\n      tag_368\n      jump\t// in\n    tag_539:\n        /* \"#utility.yul\":10698:10835   */\n      swap3\n      swap2\n      pop\n      pop\n      jump\t// out\n        /* \"#utility.yul\":10841:12996   */\n    tag_28:\n        /* \"#utility.yul\":11046:11052   */\n      0x00\n        /* \"#utility.yul\":11054:11060   */\n      dup1\n        /* \"#utility.yul\":11062:11068   */\n      0x00\n        /* \"#utility.yul\":11070:11076   */\n      dup1\n        /* \"#utility.yul\":11078:11084   */\n      0x00\n        /* \"#utility.yul\":11086:11092   */\n      dup1\n        /* \"#utility.yul\":11094:11100   */\n      0x00\n        /* \"#utility.yul\":11102:11108   */\n      dup1\n        /* \"#utility.yul\":11151:11154   */\n      0x0100\n        /* \"#utility.yul\":11139:11148   */\n      dup10\n        /* \"#utility.yul\":11130:11137   */\n      dup12\n        /* \"#utility.yul\":11126:11149   */\n      sub\n        /* \"#utility.yul\":11122:11155   */\n      slt\n        /* \"#utility.yul\":11119:11239   */\n      iszero\n      tag_541\n      jumpi\n        /* \"#utility.yul\":11158:11237   */\n      tag_542\n      tag_332\n      jump\t// in\n    tag_542:\n        /* \"#utility.yul\":11119:11239   */\n    tag_541:\n        /* \"#utility.yul\":11306:11307   */\n      0x00\n        /* \"#utility.yul\":11295:11304   */\n      dup10\n        /* \"#utility.yul\":11291:11308   */\n      add\n        /* \"#utility.yul\":11278:11309   */\n      calldataload\n        /* \"#utility.yul\":11336:11354   */\n      0xffffffffffffffff\n        /* \"#utility.yul\":11328:11334   */\n      dup2\n        /* \"#utility.yul\":11325:11355   */\n      gt\n        /* \"#utility.yul\":11322:11439   */\n      iszero\n      tag_543\n      jumpi\n        /* \"#utility.yul\":11358:11437   */\n      tag_544\n      tag_333\n      jump\t// in\n    tag_544:\n        /* \"#utility.yul\":11322:11439   */\n    tag_543:\n        /* \"#utility.yul\":11463:11526   */\n      tag_545\n        /* \"#utility.yul\":11518:11525   */\n      dup12\n        /* \"#utility.yul\":11509:11515   */\n      dup3\n        /* \"#utility.yul\":11498:11507   */\n      dup13\n        /* \"#utility.yul\":11494:11516   */\n      add\n        /* \"#utility.yul\":11463:11526   */\n      tag_353\n      jump\t// in\n    tag_545:\n        /* \"#utility.yul\":11453:11526   */\n      swap9\n      pop\n        /* \"#utility.yul\":11249:11536   */\n      pop\n        /* \"#utility.yul\":11603:11605   */\n      0x20\n        /* \"#utility.yul\":11592:11601   */\n      dup10\n        /* \"#utility.yul\":11588:11606   */\n      add\n        /* \"#utility.yul\":11575:11607   */\n      calldataload\n        /* \"#utility.yul\":11634:11652   */\n      0xffffffffffffffff\n        /* \"#utility.yul\":11626:11632   */\n      dup2\n        /* \"#utility.yul\":11623:11653   */\n      gt\n        /* \"#utility.yul\":11620:11737   */\n      iszero\n      tag_546\n      jumpi\n        /* \"#utility.yul\":11656:11735   */\n      tag_547\n      tag_333\n      jump\t// in\n    tag_547:\n        /* \"#utility.yul\":11620:11737   */\n    tag_546:\n        /* \"#utility.yul\":11761:11823   */\n      tag_548\n        /* \"#utility.yul\":11815:11822   */\n      dup12\n        /* \"#utility.yul\":11806:11812   */\n      dup3\n        /* \"#utility.yul\":11795:11804   */\n      dup13\n        /* \"#utility.yul\":11791:11813   */\n      add\n        /* \"#utility.yul\":11761:11823   */\n      tag_346\n      jump\t// in\n    tag_548:\n        /* \"#utility.yul\":11751:11823   */\n      swap8\n      pop\n        /* \"#utility.yul\":11546:11833   */\n      pop\n        /* \"#utility.yul\":11872:11874   */\n      0x40\n        /* \"#utility.yul\":11898:11949   */\n      tag_549\n        /* \"#utility.yul\":11941:11948   */\n      dup12\n        /* \"#utility.yul\":11932:11938   */\n      dup3\n        /* \"#utility.yul\":11921:11930   */\n      dup13\n        /* \"#utility.yul\":11917:11939   */\n      add\n        /* \"#utility.yul\":11898:11949   */\n      tag_356\n      jump\t// in\n    tag_549:\n        /* \"#utility.yul\":11888:11949   */\n      swap7\n      pop\n        /* \"#utility.yul\":11843:11959   */\n      pop\n        /* \"#utility.yul\":11998:12000   */\n      0x60\n        /* \"#utility.yul\":12024:12076   */\n      tag_550\n        /* \"#utility.yul\":12068:12075   */\n      dup12\n        /* \"#utility.yul\":12059:12065   */\n      dup3\n        /* \"#utility.yul\":12048:12057   */\n      dup13\n        /* \"#utility.yul\":12044:12066   */\n      add\n        /* \"#utility.yul\":12024:12076   */\n      tag_359\n      jump\t// in\n    tag_550:\n        /* \"#utility.yul\":12014:12076   */\n      swap6\n      pop\n        /* \"#utility.yul\":11969:12086   */\n      pop\n        /* \"#utility.yul\":12153:12156   */\n      0x80\n        /* \"#utility.yul\":12142:12151   */\n      dup10\n        /* \"#utility.yul\":12138:12157   */\n      add\n        /* \"#utility.yul\":12125:12158   */\n      calldataload\n        /* \"#utility.yul\":12185:12203   */\n      0xffffffffffffffff\n        /* \"#utility.yul\":12177:12183   */\n      dup2\n        /* \"#utility.yul\":12174:12204   */\n      gt\n        /* \"#utility.yul\":12171:12288   */\n      iszero\n      tag_551\n      jumpi\n        /* \"#utility.yul\":12207:12286   */\n      tag_552\n      tag_333\n      jump\t// in\n    tag_552:\n        /* \"#utility.yul\":12171:12288   */\n    tag_551:\n        /* \"#utility.yul\":12312:12400   */\n      tag_553\n        /* \"#utility.yul\":12392:12399   */\n      dup12\n        /* \"#utility.yul\":12383:12389   */\n      dup3\n        /* \"#utility.yul\":12372:12381   */\n      dup13\n        /* \"#utility.yul\":12368:12390   */\n      add\n        /* \"#utility.yul\":12312:12400   */\n      tag_363\n      jump\t// in\n    tag_553:\n        /* \"#utility.yul\":12302:12400   */\n      swap5\n      pop\n        /* \"#utility.yul\":12096:12410   */\n      pop\n        /* \"#utility.yul\":12477:12480   */\n      0xa0\n        /* \"#utility.yul\":12466:12475   */\n      dup10\n        /* \"#utility.yul\":12462:12481   */\n      add\n        /* \"#utility.yul\":12449:12482   */\n      calldataload\n        /* \"#utility.yul\":12509:12527   */\n      0xffffffffffffffff\n        /* \"#utility.yul\":12501:12507   */\n      dup2\n        /* \"#utility.yul\":12498:12528   */\n      gt\n        /* \"#utility.yul\":12495:12612   */\n      iszero\n      tag_554\n      jumpi\n        /* \"#utility.yul\":12531:12610   */\n      tag_555\n      tag_333\n      jump\t// in\n    tag_555:\n        /* \"#utility.yul\":12495:12612   */\n    tag_554:\n        /* \"#utility.yul\":12636:12723   */\n      tag_556\n        /* \"#utility.yul\":12715:12722   */\n      dup12\n        /* \"#utility.yul\":12706:12712   */\n      dup3\n        /* \"#utility.yul\":12695:12704   */\n      dup13\n        /* \"#utility.yul\":12691:12713   */\n      add\n        /* \"#utility.yul\":12636:12723   */\n      tag_366\n      jump\t// in\n    tag_556:\n        /* \"#utility.yul\":12626:12723   */\n      swap4\n      pop\n        /* \"#utility.yul\":12420:12733   */\n      pop\n        /* \"#utility.yul\":12772:12775   */\n      0xc0\n        /* \"#utility.yul\":12799:12851   */\n      tag_557\n        /* \"#utility.yul\":12843:12850   */\n      dup12\n        /* \"#utility.yul\":12834:12840   */\n      dup3\n        /* \"#utility.yul\":12823:12832   */\n      dup13\n        /* \"#utility.yul\":12819:12841   */\n      add\n        /* \"#utility.yul\":12799:12851   */\n      tag_359\n      jump\t// in\n    tag_557:\n        /* \"#utility.yul\":12789:12851   */\n      swap3\n      pop\n        /* \"#utility.yul\":12743:12861   */\n      pop\n        /* \"#utility.yul\":12900:12903   */\n      0xe0\n        /* \"#utility.yul\":12927:12979   */\n      tag_558\n        /* \"#utility.yul\":12971:12978   */\n      dup12\n        /* \"#utility.yul\":12962:12968   */\n      dup3\n        /* \"#utility.yul\":12951:12960   */\n      dup13\n        /* \"#utility.yul\":12947:12969   */\n      add\n        /* \"#utility.yul\":12927:12979   */\n      tag_369\n      jump\t// in\n    tag_558:\n        /* \"#utility.yul\":12917:12979   */\n      swap2\n      pop\n        /* \"#utility.yul\":12871:12989   */\n      pop\n        /* \"#utility.yul\":10841:12996   */\n      swap3\n      swap6\n      swap9\n      pop\n      swap3\n      swap6\n      swap9\n      swap1\n      swap4\n      swap7\n      pop\n      jump\t// out\n        /* \"#utility.yul\":13002:13120   */\n    tag_370:\n        /* \"#utility.yul\":13089:13113   */\n      tag_560\n        /* \"#utility.yul\":13107:13112   */\n      dup2\n        /* \"#utility.yul\":13089:13113   */\n      tag_334\n      jump\t// in\n    tag_560:\n        /* \"#utility.yul\":13084:13087   */\n      dup3\n        /* \"#utility.yul\":13077:13114   */\n      mstore\n        /* \"#utility.yul\":13002:13120   */\n      pop\n      pop\n      jump\t// out\n        /* \"#utility.yul\":13126:13348   */\n    tag_31:\n        /* \"#utility.yul\":13219:13223   */\n      0x00\n        /* \"#utility.yul\":13257:13259   */\n      0x20\n        /* \"#utility.yul\":13246:13255   */\n      dup3\n        /* \"#utility.yul\":13242:13260   */\n      add\n        /* \"#utility.yul\":13234:13260   */\n      swap1\n      pop\n        /* \"#utility.yul\":13270:13341   */\n      tag_562\n        /* \"#utility.yul\":13338:13339   */\n      0x00\n        /* \"#utility.yul\":13327:13336   */\n      dup4\n        /* \"#utility.yul\":13323:13340   */\n      add\n        /* \"#utility.yul\":13314:13320   */\n      dup5\n        /* \"#utility.yul\":13270:13341   */\n      tag_370\n      jump\t// in\n    tag_562:\n        /* \"#utility.yul\":13126:13348   */\n      swap3\n      swap2\n      pop\n      pop\n      jump\t// out\n        /* \"#utility.yul\":13354:13431   */\n    tag_371:\n        /* \"#utility.yul\":13391:13398   */\n      0x00\n        /* \"#utility.yul\":13420:13425   */\n      dup2\n        /* \"#utility.yul\":13409:13425   */\n      swap1\n      pop\n        /* \"#utility.yul\":13354:13431   */\n      swap2\n      swap1\n      pop\n      jump\t// out\n        /* \"#utility.yul\":13437:13555   */\n    tag_372:\n        /* \"#utility.yul\":13524:13548   */\n      tag_565\n        /* \"#utility.yul\":13542:13547   */\n      dup2\n        /* \"#utility.yul\":13524:13548   */\n      tag_371\n      jump\t// in\n    tag_565:\n        /* \"#utility.yul\":13519:13522   */\n      dup3\n        /* \"#utility.yul\":13512:13549   */\n      mstore\n        /* \"#utility.yul\":13437:13555   */\n      pop\n      pop\n      jump\t// out\n        /* \"#utility.yul\":13561:13783   */\n    tag_35:\n        /* \"#utility.yul\":13654:13658   */\n      0x00\n        /* \"#utility.yul\":13692:13694   */\n      0x20\n        /* \"#utility.yul\":13681:13690   */\n      dup3\n        /* \"#utility.yul\":13677:13695   */\n      add\n        /* \"#utility.yul\":13669:13695   */\n      swap1\n      pop\n        /* \"#utility.yul\":13705:13776   */\n      tag_567\n        /* \"#utility.yul\":13773:13774   */\n      0x00\n        /* \"#utility.yul\":13762:13771   */\n      dup4\n        /* \"#utility.yul\":13758:13775   */\n      add\n        /* \"#utility.yul\":13749:13755   */\n      dup5\n        /* \"#utility.yul\":13705:13776   */\n      tag_372\n      jump\t// in\n    tag_567:\n        /* \"#utility.yul\":13561:13783   */\n      swap3\n      swap2\n      pop\n      pop\n      jump\t// out\n        /* \"#utility.yul\":13789:13915   */\n    tag_373:\n        /* \"#utility.yul\":13826:13833   */\n      0x00\n        /* \"#utility.yul\":13866:13908   */\n      0xffffffffffffffffffffffffffffffffffffffff\n        /* \"#utility.yul\":13859:13864   */\n      dup3\n        /* \"#utility.yul\":13855:13909   */\n      and\n        /* \"#utility.yul\":13844:13909   */\n      swap1\n      pop\n        /* \"#utility.yul\":13789:13915   */\n      swap2\n      swap1\n      pop\n      jump\t// out\n        /* \"#utility.yul\":13921:14017   */\n    tag_374:\n        /* \"#utility.yul\":13958:13965   */\n      0x00\n        /* \"#utility.yul\":13987:14011   */\n      tag_570\n        /* \"#utility.yul\":14005:14010   */\n      dup3\n        /* \"#utility.yul\":13987:14011   */\n      tag_373\n      jump\t// in\n    tag_570:\n        /* \"#utility.yul\":13976:14011   */\n      swap1\n      pop\n        /* \"#utility.yul\":13921:14017   */\n      swap2\n      swap1\n      pop\n      jump\t// out\n        /* \"#utility.yul\":14023:14141   */\n    tag_375:\n        /* \"#utility.yul\":14110:14134   */\n      tag_572\n        /* \"#utility.yul\":14128:14133   */\n      dup2\n        /* \"#utility.yul\":14110:14134   */\n      tag_374\n      jump\t// in\n    tag_572:\n        /* \"#utility.yul\":14105:14108   */\n      dup3\n        /* \"#utility.yul\":14098:14135   */\n      mstore\n        /* \"#utility.yul\":14023:14141   */\n      pop\n      pop\n      jump\t// out\n        /* \"#utility.yul\":14147:14369   */\n    tag_41:\n        /* \"#utility.yul\":14240:14244   */\n      0x00\n        /* \"#utility.yul\":14278:14280   */\n      0x20\n        /* \"#utility.yul\":14267:14276   */\n      dup3\n        /* \"#utility.yul\":14263:14281   */\n      add\n        /* \"#utility.yul\":14255:14281   */\n      swap1\n      pop\n        /* \"#utility.yul\":14291:14362   */\n      tag_574\n        /* \"#utility.yul\":14359:14360   */\n      0x00\n        /* \"#utility.yul\":14348:14357   */\n      dup4\n        /* \"#utility.yul\":14344:14361   */\n      add\n        /* \"#utility.yul\":14335:14341   */\n      dup5\n        /* \"#utility.yul\":14291:14362   */\n      tag_375\n      jump\t// in\n    tag_574:\n        /* \"#utility.yul\":14147:14369   */\n      swap3\n      swap2\n      pop\n      pop\n      jump\t// out\n        /* \"#utility.yul\":14375:15168   */\n    tag_49:\n        /* \"#utility.yul\":14459:14465   */\n      0x00\n        /* \"#utility.yul\":14467:14473   */\n      dup1\n        /* \"#utility.yul\":14475:14481   */\n      0x00\n        /* \"#utility.yul\":14524:14526   */\n      0x60\n        /* \"#utility.yul\":14512:14521   */\n      dup5\n        /* \"#utility.yul\":14503:14510   */\n      dup7\n        /* \"#utility.yul\":14499:14522   */\n      sub\n        /* \"#utility.yul\":14495:14527   */\n      slt\n        /* \"#utility.yul\":14492:14611   */\n      iszero\n      tag_576\n      jumpi\n        /* \"#utility.yul\":14530:14609   */\n      tag_577\n      tag_332\n      jump\t// in\n    tag_577:\n        /* \"#utility.yul\":14492:14611   */\n    tag_576:\n        /* \"#utility.yul\":14678:14679   */\n      0x00\n        /* \"#utility.yul\":14667:14676   */\n      dup5\n        /* \"#utility.yul\":14663:14680   */\n      add\n        /* \"#utility.yul\":14650:14681   */\n      calldataload\n        /* \"#utility.yul\":14708:14726   */\n      0xffffffffffffffff\n        /* \"#utility.yul\":14700:14706   */\n      dup2\n        /* \"#utility.yul\":14697:14727   */\n      gt\n        /* \"#utility.yul\":14694:14811   */\n      iszero\n      tag_578\n      jumpi\n        /* \"#utility.yul\":14730:14809   */\n      tag_579\n      tag_333\n      jump\t// in\n    tag_579:\n        /* \"#utility.yul\":14694:14811   */\n    tag_578:\n        /* \"#utility.yul\":14835:14897   */\n      tag_580\n        /* \"#utility.yul\":14889:14896   */\n      dup7\n        /* \"#utility.yul\":14880:14886   */\n      dup3\n        /* \"#utility.yul\":14869:14878   */\n      dup8\n        /* \"#utility.yul\":14865:14887   */\n      add\n        /* \"#utility.yul\":14835:14897   */\n      tag_346\n      jump\t// in\n    tag_580:\n        /* \"#utility.yul\":14825:14897   */\n      swap4\n      pop\n        /* \"#utility.yul\":14621:14907   */\n      pop\n        /* \"#utility.yul\":14946:14948   */\n      0x20\n        /* \"#utility.yul\":14972:15024   */\n      tag_581\n        /* \"#utility.yul\":15016:15023   */\n      dup7\n        /* \"#utility.yul\":15007:15013   */\n      dup3\n        /* \"#utility.yul\":14996:15005   */\n      dup8\n        /* \"#utility.yul\":14992:15014   */\n      add\n        /* \"#utility.yul\":14972:15024   */\n      tag_359\n      jump\t// in\n    tag_581:\n        /* \"#utility.yul\":14962:15024   */\n      swap3\n      pop\n        /* \"#utility.yul\":14917:15034   */\n      pop\n        /* \"#utility.yul\":15073:15075   */\n      0x40\n        /* \"#utility.yul\":15099:15151   */\n      tag_582\n        /* \"#utility.yul\":15143:15150   */\n      dup7\n        /* \"#utility.yul\":15134:15140   */\n      dup3\n        /* \"#utility.yul\":15123:15132   */\n      dup8\n        /* \"#utility.yul\":15119:15141   */\n      add\n        /* \"#utility.yul\":15099:15151   */\n      tag_369\n      jump\t// in\n    tag_582:\n        /* \"#utility.yul\":15089:15151   */\n      swap2\n      pop\n        /* \"#utility.yul\":15044:15161   */\n      pop\n        /* \"#utility.yul\":14375:15168   */\n      swap3\n      pop\n      swap3\n      pop\n      swap3\n      jump\t// out\n        /* \"#utility.yul\":15174:15296   */\n    tag_376:\n        /* \"#utility.yul\":15247:15271   */\n      tag_584\n        /* \"#utility.yul\":15265:15270   */\n      dup2\n        /* \"#utility.yul\":15247:15271   */\n      tag_374\n      jump\t// in\n    tag_584:\n        /* \"#utility.yul\":15240:15245   */\n      dup2\n        /* \"#utility.yul\":15237:15272   */\n      eq\n        /* \"#utility.yul\":15227:15290   */\n      tag_585\n      jumpi\n        /* \"#utility.yul\":15286:15287   */\n      0x00\n        /* \"#utility.yul\":15283:15284   */\n      dup1\n        /* \"#utility.yul\":15276:15288   */\n      revert\n        /* \"#utility.yul\":15227:15290   */\n    tag_585:\n        /* \"#utility.yul\":15174:15296   */\n      pop\n      jump\t// out\n        /* \"#utility.yul\":15302:15441   */\n    tag_377:\n        /* \"#utility.yul\":15348:15353   */\n      0x00\n        /* \"#utility.yul\":15386:15392   */\n      dup2\n        /* \"#utility.yul\":15373:15393   */\n      calldataload\n        /* \"#utility.yul\":15364:15393   */\n      swap1\n      pop\n        /* \"#utility.yul\":15402:15435   */\n      tag_587\n        /* \"#utility.yul\":15429:15434   */\n      dup2\n        /* \"#utility.yul\":15402:15435   */\n      tag_376\n      jump\t// in\n    tag_587:\n        /* \"#utility.yul\":15302:15441   */\n      swap3\n      swap2\n      pop\n      pop\n      jump\t// out\n        /* \"#utility.yul\":15447:15776   */\n    tag_54:\n        /* \"#utility.yul\":15506:15512   */\n      0x00\n        /* \"#utility.yul\":15555:15557   */\n      0x20\n        /* \"#utility.yul\":15543:15552   */\n      dup3\n        /* \"#utility.yul\":15534:15541   */\n      dup5\n        /* \"#utility.yul\":15530:15553   */\n      sub\n        /* \"#utility.yul\":15526:15558   */\n      slt\n        /* \"#utility.yul\":15523:15642   */\n      iszero\n      tag_589\n      jumpi\n        /* \"#utility.yul\":15561:15640   */\n      tag_590\n      tag_332\n      jump\t// in\n    tag_590:\n        /* \"#utility.yul\":15523:15642   */\n    tag_589:\n        /* \"#utility.yul\":15681:15682   */\n      0x00\n        /* \"#utility.yul\":15706:15759   */\n      tag_591\n        /* \"#utility.yul\":15751:15758   */\n      dup5\n        /* \"#utility.yul\":15742:15748   */\n      dup3\n        /* \"#utility.yul\":15731:15740   */\n      dup6\n        /* \"#utility.yul\":15727:15749   */\n      add\n        /* \"#utility.yul\":15706:15759   */\n      tag_377\n      jump\t// in\n    tag_591:\n        /* \"#utility.yul\":15696:15759   */\n      swap2\n      pop\n        /* \"#utility.yul\":15652:15769   */\n      pop\n        /* \"#utility.yul\":15447:15776   */\n      swap3\n      swap2\n      pop\n      pop\n      jump\t// out\n        /* \"#utility.yul\":15782:15962   */\n    tag_378:\n        /* \"#utility.yul\":15830:15907   */\n      0x4e487b7100000000000000000000000000000000000000000000000000000000\n        /* \"#utility.yul\":15827:15828   */\n      0x00\n        /* \"#utility.yul\":15820:15908   */\n      mstore\n        /* \"#utility.yul\":15927:15931   */\n      0x22\n        /* \"#utility.yul\":15924:15925   */\n      0x04\n        /* \"#utility.yul\":15917:15932   */\n      mstore\n        /* \"#utility.yul\":15951:15955   */\n      0x24\n        /* \"#utility.yul\":15948:15949   */\n      0x00\n        /* \"#utility.yul\":15941:15956   */\n      revert\n        /* \"#utility.yul\":15968:16288   */\n    tag_61:\n        /* \"#utility.yul\":16012:16018   */\n      0x00\n        /* \"#utility.yul\":16049:16050   */\n      0x02\n        /* \"#utility.yul\":16043:16047   */\n      dup3\n        /* \"#utility.yul\":16039:16051   */\n      div\n        /* \"#utility.yul\":16029:16051   */\n      swap1\n      pop\n        /* \"#utility.yul\":16096:16097   */\n      0x01\n        /* \"#utility.yul\":16090:16094   */\n      dup3\n        /* \"#utility.yul\":16086:16098   */\n      and\n        /* \"#utility.yul\":16117:16135   */\n      dup1\n        /* \"#utility.yul\":16107:16188   */\n      tag_594\n      jumpi\n        /* \"#utility.yul\":16173:16177   */\n      0x7f\n        /* \"#utility.yul\":16165:16171   */\n      dup3\n        /* \"#utility.yul\":16161:16178   */\n      and\n        /* \"#utility.yul\":16151:16178   */\n      swap2\n      pop\n        /* \"#utility.yul\":16107:16188   */\n    tag_594:\n        /* \"#utility.yul\":16235:16237   */\n      0x20\n        /* \"#utility.yul\":16227:16233   */\n      dup3\n        /* \"#utility.yul\":16224:16238   */\n      lt\n        /* \"#utility.yul\":16204:16222   */\n      dup2\n        /* \"#utility.yul\":16201:16239   */\n      sub\n        /* \"#utility.yul\":16198:16282   */\n      tag_595\n      jumpi\n        /* \"#utility.yul\":16254:16272   */\n      tag_596\n      tag_378\n      jump\t// in\n    tag_596:\n        /* \"#utility.yul\":16198:16282   */\n    tag_595:\n        /* \"#utility.yul\":16019:16288   */\n      pop\n        /* \"#utility.yul\":15968:16288   */\n      swap2\n      swap1\n      pop\n      jump\t// out\n        /* \"#utility.yul\":16294:16463   */\n    tag_379:\n        /* \"#utility.yul\":16378:16389   */\n      0x00\n        /* \"#utility.yul\":16412:16418   */\n      dup3\n        /* \"#utility.yul\":16407:16410   */\n      dup3\n        /* \"#utility.yul\":16400:16419   */\n      mstore\n        /* \"#utility.yul\":16452:16456   */\n      0x20\n        /* \"#utility.yul\":16447:16450   */\n      dup3\n        /* \"#utility.yul\":16443:16457   */\n      add\n        /* \"#utility.yul\":16428:16457   */\n      swap1\n      pop\n        /* \"#utility.yul\":16294:16463   */\n      swap3\n      swap2\n      pop\n      pop\n      jump\t// out\n        /* \"#utility.yul\":16469:16641   */\n    tag_380:\n        /* \"#utility.yul\":16609:16633   */\n      0x4d7573742062652070726f706f736564206f776e657200000000000000000000\n        /* \"#utility.yul\":16605:16606   */\n      0x00\n        /* \"#utility.yul\":16597:16603   */\n      dup3\n        /* \"#utility.yul\":16593:16607   */\n      add\n        /* \"#utility.yul\":16586:16634   */\n      mstore\n        /* \"#utility.yul\":16469:16641   */\n      pop\n      jump\t// out\n        /* \"#utility.yul\":16647:17013   */\n    tag_381:\n        /* \"#utility.yul\":16789:16792   */\n      0x00\n        /* \"#utility.yul\":16810:16877   */\n      tag_600\n        /* \"#utility.yul\":16874:16876   */\n      0x16\n        /* \"#utility.yul\":16869:16872   */\n      dup4\n        /* \"#utility.yul\":16810:16877   */\n      tag_379\n      jump\t// in\n    tag_600:\n        /* \"#utility.yul\":16803:16877   */\n      swap2\n      pop\n        /* \"#utility.yul\":16886:16979   */\n      tag_601\n        /* \"#utility.yul\":16975:16978   */\n      dup3\n        /* \"#utility.yul\":16886:16979   */\n      tag_380\n      jump\t// in\n    tag_601:\n        /* \"#utility.yul\":17004:17006   */\n      0x20\n        /* \"#utility.yul\":16999:17002   */\n      dup3\n        /* \"#utility.yul\":16995:17007   */\n      add\n        /* \"#utility.yul\":16988:17007   */\n      swap1\n      pop\n        /* \"#utility.yul\":16647:17013   */\n      swap2\n      swap1\n      pop\n      jump\t// out\n        /* \"#utility.yul\":17019:17438   */\n    tag_99:\n        /* \"#utility.yul\":17185:17189   */\n      0x00\n        /* \"#utility.yul\":17223:17225   */\n      0x20\n        /* \"#utility.yul\":17212:17221   */\n      dup3\n        /* \"#utility.yul\":17208:17226   */\n      add\n        /* \"#utility.yul\":17200:17226   */\n      swap1\n      pop\n        /* \"#utility.yul\":17272:17281   */\n      dup2\n        /* \"#utility.yul\":17266:17270   */\n      dup2\n        /* \"#utility.yul\":17262:17282   */\n      sub\n        /* \"#utility.yul\":17258:17259   */\n      0x00\n        /* \"#utility.yul\":17247:17256   */\n      dup4\n        /* \"#utility.yul\":17243:17260   */\n      add\n        /* \"#utility.yul\":17236:17283   */\n      mstore\n        /* \"#utility.yul\":17300:17431   */\n      tag_603\n        /* \"#utility.yul\":17426:17430   */\n      dup2\n        /* \"#utility.yul\":17300:17431   */\n      tag_381\n      jump\t// in\n    tag_603:\n        /* \"#utility.yul\":17292:17431   */\n      swap1\n      pop\n        /* \"#utility.yul\":17019:17438   */\n      swap2\n      swap1\n      pop\n      jump\t// out\n        /* \"#utility.yul\":17444:17624   */\n    tag_382:\n        /* \"#utility.yul\":17492:17569   */\n      0x4e487b7100000000000000000000000000000000000000000000000000000000\n        /* \"#utility.yul\":17489:17490   */\n      0x00\n        /* \"#utility.yul\":17482:17570   */\n      mstore\n        /* \"#utility.yul\":17589:17593   */\n      0x11\n        /* \"#utility.yul\":17586:17587   */\n      0x04\n        /* \"#utility.yul\":17579:17594   */\n      mstore\n        /* \"#utility.yul\":17613:17617   */\n      0x24\n        /* \"#utility.yul\":17610:17611   */\n      0x00\n        /* \"#utility.yul\":17603:17618   */\n      revert\n        /* \"#utility.yul\":17630:17863   */\n    tag_103:\n        /* \"#utility.yul\":17669:17672   */\n      0x00\n        /* \"#utility.yul\":17692:17716   */\n      tag_606\n        /* \"#utility.yul\":17710:17715   */\n      dup3\n        /* \"#utility.yul\":17692:17716   */\n      tag_371\n      jump\t// in\n    tag_606:\n        /* \"#utility.yul\":17683:17716   */\n      swap2\n      pop\n        /* \"#utility.yul\":17738:17804   */\n      0xffffffffffffffffffffffffffffffffffffffffffffffffffffffffffffffff\n        /* \"#utility.yul\":17731:17736   */\n      dup3\n        /* \"#utility.yul\":17728:17805   */\n      sub\n        /* \"#utility.yul\":17725:17828   */\n      tag_607\n      jumpi\n        /* \"#utility.yul\":17808:17826   */\n      tag_608\n      tag_382\n      jump\t// in\n    tag_608:\n        /* \"#utility.yul\":17725:17828   */\n    tag_607:\n        /* \"#utility.yul\":17855:17856   */\n      0x01\n        /* \"#utility.yul\":17848:17853   */\n      dup3\n        /* \"#utility.yul\":17844:17857   */\n      add\n        /* \"#utility.yul\":17837:17857   */\n      swap1\n      pop\n        /* \"#utility.yul\":17630:17863   */\n      swap2\n      swap1\n      pop\n      jump\t// out\n        /* \"#utility.yul\":17869:18009   */\n    tag_383:\n        /* \"#utility.yul\":17917:17921   */\n      0x00\n        /* \"#utility.yul\":17940:17943   */\n      dup2\n        /* \"#utility.yul\":17932:17943   */\n      swap1\n      pop\n        /* \"#utility.yul\":17963:17966   */\n      dup2\n        /* \"#utility.yul\":17960:17961   */\n      0x00\n        /* \"#utility.yul\":17953:17967   */\n      mstore\n        /* \"#utility.yul\":17997:18001   */\n      0x20\n        /* \"#utility.yul\":17994:17995   */\n      0x00\n        /* \"#utility.yul\":17984:18002   */\n      keccak256\n        /* \"#utility.yul\":17976:18002   */\n      swap1\n      pop\n        /* \"#utility.yul\":17869:18009   */\n      swap2\n      swap1\n      pop\n      jump\t// out\n        /* \"#utility.yul\":18015:18108   */\n    tag_384:\n        /* \"#utility.yul\":18052:18058   */\n      0x00\n        /* \"#utility.yul\":18099:18101   */\n      0x20\n        /* \"#utility.yul\":18094:18096   */\n      0x1f\n        /* \"#utility.yul\":18087:18092   */\n      dup4\n        /* \"#utility.yul\":18083:18097   */\n      add\n        /* \"#utility.yul\":18079:18102   */\n      div\n        /* \"#utility.yul\":18069:18102   */\n      swap1\n      pop\n        /* \"#utility.yul\":18015:18108   */\n      swap2\n      swap1\n      pop\n      jump\t// out\n        /* \"#utility.yul\":18114:18221   */\n    tag_385:\n        /* \"#utility.yul\":18158:18166   */\n      0x00\n        /* \"#utility.yul\":18208:18213   */\n      dup3\n        /* \"#utility.yul\":18202:18206   */\n      dup3\n        /* \"#utility.yul\":18198:18214   */\n      shl\n        /* \"#utility.yul\":18177:18214   */\n      swap1\n      pop\n        /* \"#utility.yul\":18114:18221   */\n      swap3\n      swap2\n      pop\n      pop\n      jump\t// out\n        /* \"#utility.yul\":18227:18620   */\n    tag_386:\n        /* \"#utility.yul\":18296:18302   */\n      0x00\n        /* \"#utility.yul\":18346:18347   */\n      0x08\n        /* \"#utility.yul\":18334:18344   */\n      dup4\n        /* \"#utility.yul\":18330:18348   */\n      mul\n        /* \"#utility.yul\":18369:18466   */\n      tag_613\n        /* \"#utility.yul\":18399:18465   */\n      0xffffffffffffffffffffffffffffffffffffffffffffffffffffffffffffffff\n        /* \"#utility.yul\":18388:18397   */\n      dup3\n        /* \"#utility.yul\":18369:18466   */\n      tag_385\n      jump\t// in\n    tag_613:\n        /* \"#utility.yul\":18487:18526   */\n      tag_614\n        /* \"#utility.yul\":18517:18525   */\n      dup7\n        /* \"#utility.yul\":18506:18515   */\n      dup4\n        /* \"#utility.yul\":18487:18526   */\n      tag_385\n      jump\t// in\n    tag_614:\n        /* \"#utility.yul\":18475:18526   */\n      swap6\n      pop\n        /* \"#utility.yul\":18559:18563   */\n      dup1\n        /* \"#utility.yul\":18555:18564   */\n      not\n        /* \"#utility.yul\":18548:18553   */\n      dup5\n        /* \"#utility.yul\":18544:18565   */\n      and\n        /* \"#utility.yul\":18535:18565   */\n      swap4\n      pop\n        /* \"#utility.yul\":18608:18612   */\n      dup1\n        /* \"#utility.yul\":18598:18606   */\n      dup7\n        /* \"#utility.yul\":18594:18613   */\n      and\n        /* \"#utility.yul\":18587:18592   */\n      dup5\n        /* \"#utility.yul\":18584:18614   */\n      or\n        /* \"#utility.yul\":18574:18614   */\n      swap3\n      pop\n        /* \"#utility.yul\":18303:18620   */\n      pop\n      pop\n        /* \"#utility.yul\":18227:18620   */\n      swap4\n      swap3\n      pop\n      pop\n      pop\n      jump\t// out\n        /* \"#utility.yul\":18626:18686   */\n    tag_387:\n        /* \"#utility.yul\":18654:18657   */\n      0x00\n        /* \"#utility.yul\":18675:18680   */\n      dup2\n        /* \"#utility.yul\":18668:18680   */\n      swap1\n      pop\n        /* \"#utility.yul\":18626:18686   */\n      swap2\n      swap1\n      pop\n      jump\t// out\n        /* \"#utility.yul\":18692:18834   */\n    tag_388:\n        /* \"#utility.yul\":18742:18751   */\n      0x00\n        /* \"#utility.yul\":18775:18828   */\n      tag_617\n        /* \"#utility.yul\":18793:18827   */\n      tag_618\n        /* \"#utility.yul\":18802:18826   */\n      tag_619\n        /* \"#utility.yul\":18820:18825   */\n      dup5\n        /* \"#utility.yul\":18802:18826   */\n      tag_371\n      jump\t// in\n    tag_619:\n        /* \"#utility.yul\":18793:18827   */\n      tag_387\n      jump\t// in\n    tag_618:\n        /* \"#utility.yul\":18775:18828   */\n      tag_371\n      jump\t// in\n    tag_617:\n        /* \"#utility.yul\":18762:18828   */\n      swap1\n      pop\n        /* \"#utility.yul\":18692:18834   */\n      swap2\n      swap1\n      pop\n      jump\t// out\n        /* \"#utility.yul\":18840:18915   */\n    tag_389:\n        /* \"#utility.yul\":18883:18886   */\n      0x00\n        /* \"#utility.yul\":18904:18909   */\n      dup2\n        /* \"#utility.yul\":18897:18909   */\n      swap1\n      pop\n        /* \"#utility.yul\":18840:18915   */\n      swap2\n      swap1\n      pop\n      jump\t// out\n        /* \"#utility.yul\":18921:19190   */\n    tag_390:\n        /* \"#utility.yul\":19031:19070   */\n      tag_622\n        /* \"#utility.yul\":19062:19069   */\n      dup4\n        /* \"#utility.yul\":19031:19070   */\n      tag_388\n      jump\t// in\n    tag_622:\n        /* \"#utility.yul\":19092:19183   */\n      tag_623\n        /* \"#utility.yul\":19141:19182   */\n      tag_624\n        /* \"#utility.yul\":19165:19181   */\n      dup3\n        /* \"#utility.yul\":19141:19182   */\n      tag_389\n      jump\t// in\n    tag_624:\n        /* \"#utility.yul\":19133:19139   */\n      dup5\n        /* \"#utility.yul\":19126:19130   */\n      dup5\n        /* \"#utility.yul\":19120:19131   */\n      sload\n        /* \"#utility.yul\":19092:19183   */\n      tag_386\n      jump\t// in\n    tag_623:\n        /* \"#utility.yul\":19086:19090   */\n      dup3\n        /* \"#utility.yul\":19079:19184   */\n      sstore\n        /* \"#utility.yul\":18997:19190   */\n      pop\n        /* \"#utility.yul\":18921:19190   */\n      pop\n      pop\n      pop\n      jump\t// out\n        /* \"#utility.yul\":19196:19269   */\n    tag_391:\n        /* \"#utility.yul\":19241:19244   */\n      0x00\n        /* \"#utility.yul\":19196:19269   */\n      swap1\n      jump\t// out\n        /* \"#utility.yul\":19275:19464   */\n    tag_392:\n        /* \"#utility.yul\":19352:19384   */\n      tag_627\n      tag_391\n      jump\t// in\n    tag_627:\n        /* \"#utility.yul\":19393:19458   */\n      tag_628\n        /* \"#utility.yul\":19451:19457   */\n      dup2\n        /* \"#utility.yul\":19443:19449   */\n      dup5\n        /* \"#utility.yul\":19437:19441   */\n      dup5\n        /* \"#utility.yul\":19393:19458   */\n      tag_390\n      jump\t// in\n    tag_628:\n        /* \"#utility.yul\":19328:19464   */\n      pop\n        /* \"#utility.yul\":19275:19464   */\n      pop\n      pop\n      jump\t// out\n        /* \"#utility.yul\":19470:19656   */\n    tag_393:\n        /* \"#utility.yul\":19530:19650   */\n    tag_630:\n        /* \"#utility.yul\":19547:19550   */\n      dup2\n        /* \"#utility.yul\":19540:19545   */\n      dup2\n        /* \"#utility.yul\":19537:19551   */\n      lt\n        /* \"#utility.yul\":19530:19650   */\n      iszero\n      tag_632\n      jumpi\n        /* \"#utility.yul\":19601:19640   */\n      tag_633\n        /* \"#utility.yul\":19638:19639   */\n      0x00\n        /* \"#utility.yul\":19631:19636   */\n      dup3\n        /* \"#utility.yul\":19601:19640   */\n      tag_392\n      jump\t// in\n    tag_633:\n        /* \"#utility.yul\":19574:19575   */\n      0x01\n        /* \"#utility.yul\":19567:19572   */\n      dup2\n        /* \"#utility.yul\":19563:19576   */\n      add\n        /* \"#utility.yul\":19554:19576   */\n      swap1\n      pop\n        /* \"#utility.yul\":19530:19650   */\n      jump(tag_630)\n    tag_632:\n        /* \"#utility.yul\":19470:19656   */\n      pop\n      pop\n      jump\t// out\n        /* \"#utility.yul\":19662:20203   */\n    tag_394:\n        /* \"#utility.yul\":19762:19764   */\n      0x1f\n        /* \"#utility.yul\":19757:19760   */\n      dup3\n        /* \"#utility.yul\":19754:19765   */\n      gt\n        /* \"#utility.yul\":19751:20196   */\n      iszero\n      tag_635\n      jumpi\n        /* \"#utility.yul\":19796:19833   */\n      tag_636\n        /* \"#utility.yul\":19827:19832   */\n      dup2\n        /* \"#utility.yul\":19796:19833   */\n      tag_383\n      jump\t// in\n    tag_636:\n        /* \"#utility.yul\":19879:19908   */\n      tag_637\n        /* \"#utility.yul\":19897:19907   */\n      dup5\n        /* \"#utility.yul\":19879:19908   */\n      tag_384\n      jump\t// in\n    tag_637:\n        /* \"#utility.yul\":19869:19877   */\n      dup2\n        /* \"#utility.yul\":19865:19909   */\n      add\n        /* \"#utility.yul\":20062:20064   */\n      0x20\n        /* \"#utility.yul\":20050:20060   */\n      dup6\n        /* \"#utility.yul\":20047:20065   */\n      lt\n        /* \"#utility.yul\":20044:20093   */\n      iszero\n      tag_638\n      jumpi\n        /* \"#utility.yul\":20083:20091   */\n      dup2\n        /* \"#utility.yul\":20068:20091   */\n      swap1\n      pop\n        /* \"#utility.yul\":20044:20093   */\n    tag_638:\n        /* \"#utility.yul\":20106:20186   */\n      tag_639\n        /* \"#utility.yul\":20162:20184   */\n      tag_640\n        /* \"#utility.yul\":20180:20183   */\n      dup6\n        /* \"#utility.yul\":20162:20184   */\n      tag_384\n      jump\t// in\n    tag_640:\n        /* \"#utility.yul\":20152:20160   */\n      dup4\n        /* \"#utility.yul\":20148:20185   */\n      add\n        /* \"#utility.yul\":20135:20146   */\n      dup3\n        /* \"#utility.yul\":20106:20186   */\n      tag_393\n      jump\t// in\n    tag_639:\n        /* \"#utility.yul\":19766:20196   */\n      pop\n      pop\n        /* \"#utility.yul\":19751:20196   */\n    tag_635:\n        /* \"#utility.yul\":19662:20203   */\n      pop\n      pop\n      pop\n      jump\t// out\n        /* \"#utility.yul\":20209:20326   */\n    tag_395:\n        /* \"#utility.yul\":20263:20271   */\n      0x00\n        /* \"#utility.yul\":20313:20318   */\n      dup3\n        /* \"#utility.yul\":20307:20311   */\n      dup3\n        /* \"#utility.yul\":20303:20319   */\n      shr\n        /* \"#utility.yul\":20282:20319   */\n      swap1\n      pop\n        /* \"#utility.yul\":20209:20326   */\n      swap3\n      swap2\n      pop\n      pop\n      jump\t// out\n        /* \"#utility.yul\":20332:20501   */\n    tag_396:\n        /* \"#utility.yul\":20376:20382   */\n      0x00\n        /* \"#utility.yul\":20409:20460   */\n      tag_643\n        /* \"#utility.yul\":20457:20458   */\n      0x00\n        /* \"#utility.yul\":20453:20459   */\n      not\n        /* \"#utility.yul\":20445:20450   */\n      dup5\n        /* \"#utility.yul\":20442:20443   */\n      0x08\n        /* \"#utility.yul\":20438:20451   */\n      mul\n        /* \"#utility.yul\":20409:20460   */\n      tag_395\n      jump\t// in\n    tag_643:\n        /* \"#utility.yul\":20405:20461   */\n      not\n        /* \"#utility.yul\":20490:20494   */\n      dup1\n        /* \"#utility.yul\":20484:20488   */\n      dup4\n        /* \"#utility.yul\":20480:20495   */\n      and\n        /* \"#utility.yul\":20470:20495   */\n      swap2\n      pop\n        /* \"#utility.yul\":20383:20501   */\n      pop\n        /* \"#utility.yul\":20332:20501   */\n      swap3\n      swap2\n      pop\n      pop\n      jump\t// out\n        /* \"#utility.yul\":20506:20801   */\n    tag_397:\n        /* \"#utility.yul\":20582:20586   */\n      0x00\n        /* \"#utility.yul\":20728:20757   */\n      tag_645\n        /* \"#utility.yul\":20753:20756   */\n      dup4\n        /* \"#utility.yul\":20747:20751   */\n      dup4\n        /* \"#utility.yul\":20728:20757   */\n      tag_396\n      jump\t// in\n    tag_645:\n        /* \"#utility.yul\":20720:20757   */\n      swap2\n      pop\n        /* \"#utility.yul\":20790:20793   */\n      dup3\n        /* \"#utility.yul\":20787:20788   */\n      0x02\n        /* \"#utility.yul\":20783:20794   */\n      mul\n        /* \"#utility.yul\":20777:20781   */\n      dup3\n        /* \"#utility.yul\":20774:20795   */\n      or\n        /* \"#utility.yul\":20766:20795   */\n      swap1\n      pop\n        /* \"#utility.yul\":20506:20801   */\n      swap3\n      swap2\n      pop\n      pop\n      jump\t// out\n        /* \"#utility.yul\":20806:22196   */\n    tag_117:\n        /* \"#utility.yul\":20921:20957   */\n      tag_647\n        /* \"#utility.yul\":20953:20956   */\n      dup3\n        /* \"#utility.yul\":20921:20957   */\n      tag_347\n      jump\t// in\n    tag_647:\n        /* \"#utility.yul\":21022:21040   */\n      0xffffffffffffffff\n        /* \"#utility.yul\":21014:21020   */\n      dup2\n        /* \"#utility.yul\":21011:21041   */\n      gt\n        /* \"#utility.yul\":21008:21064   */\n      iszero\n      tag_648\n      jumpi\n        /* \"#utility.yul\":21044:21062   */\n      tag_649\n      tag_340\n      jump\t// in\n    tag_649:\n        /* \"#utility.yul\":21008:21064   */\n    tag_648:\n        /* \"#utility.yul\":21088:21126   */\n      tag_650\n        /* \"#utility.yul\":21120:21124   */\n      dup3\n        /* \"#utility.yul\":21114:21125   */\n      sload\n        /* \"#utility.yul\":21088:21126   */\n      tag_61\n      jump\t// in\n    tag_650:\n        /* \"#utility.yul\":21173:21239   */\n      tag_651\n        /* \"#utility.yul\":21232:21238   */\n      dup3\n        /* \"#utility.yul\":21224:21230   */\n      dup3\n        /* \"#utility.yul\":21218:21222   */\n      dup6\n        /* \"#utility.yul\":21173:21239   */\n      tag_394\n      jump\t// in\n    tag_651:\n        /* \"#utility.yul\":21266:21267   */\n      0x00\n        /* \"#utility.yul\":21290:21294   */\n      0x20\n        /* \"#utility.yul\":21277:21294   */\n      swap1\n      pop\n        /* \"#utility.yul\":21322:21324   */\n      0x1f\n        /* \"#utility.yul\":21314:21320   */\n      dup4\n        /* \"#utility.yul\":21311:21325   */\n      gt\n        /* \"#utility.yul\":21339:21340   */\n      0x01\n        /* \"#utility.yul\":21334:21951   */\n      dup2\n      eq\n      tag_653\n      jumpi\n        /* \"#utility.yul\":21995:21996   */\n      0x00\n        /* \"#utility.yul\":22012:22018   */\n      dup5\n        /* \"#utility.yul\":22009:22086   */\n      iszero\n      tag_654\n      jumpi\n        /* \"#utility.yul\":22061:22070   */\n      dup3\n        /* \"#utility.yul\":22056:22059   */\n      dup8\n        /* \"#utility.yul\":22052:22071   */\n      add\n        /* \"#utility.yul\":22046:22072   */\n      mload\n        /* \"#utility.yul\":22037:22072   */\n      swap1\n      pop\n        /* \"#utility.yul\":22009:22086   */\n    tag_654:\n        /* \"#utility.yul\":22112:22179   */\n      tag_655\n        /* \"#utility.yul\":22172:22178   */\n      dup6\n        /* \"#utility.yul\":22165:22170   */\n      dup3\n        /* \"#utility.yul\":22112:22179   */\n      tag_397\n      jump\t// in\n    tag_655:\n        /* \"#utility.yul\":22106:22110   */\n      dup7\n        /* \"#utility.yul\":22099:22180   */\n      sstore\n        /* \"#utility.yul\":21968:22190   */\n      pop\n        /* \"#utility.yul\":21304:22190   */\n      jump(tag_652)\n        /* \"#utility.yul\":21334:21951   */\n    tag_653:\n        /* \"#utility.yul\":21386:21390   */\n      0x1f\n        /* \"#utility.yul\":21382:21391   */\n      not\n        /* \"#utility.yul\":21374:21380   */\n      dup5\n        /* \"#utility.yul\":21370:21392   */\n      and\n        /* \"#utility.yul\":21420:21456   */\n      tag_656\n        /* \"#utility.yul\":21451:21455   */\n      dup7\n        /* \"#utility.yul\":21420:21456   */\n      tag_383\n      jump\t// in\n    tag_656:\n        /* \"#utility.yul\":21478:21479   */\n      0x00\n        /* \"#utility.yul\":21492:21700   */\n    tag_657:\n        /* \"#utility.yul\":21506:21513   */\n      dup3\n        /* \"#utility.yul\":21503:21504   */\n      dup2\n        /* \"#utility.yul\":21500:21514   */\n      lt\n        /* \"#utility.yul\":21492:21700   */\n      iszero\n      tag_659\n      jumpi\n        /* \"#utility.yul\":21585:21594   */\n      dup5\n        /* \"#utility.yul\":21580:21583   */\n      dup10\n        /* \"#utility.yul\":21576:21595   */\n      add\n        /* \"#utility.yul\":21570:21596   */\n      mload\n        /* \"#utility.yul\":21562:21568   */\n      dup3\n        /* \"#utility.yul\":21555:21597   */\n      sstore\n        /* \"#utility.yul\":21636:21637   */\n      0x01\n        /* \"#utility.yul\":21628:21634   */\n      dup3\n        /* \"#utility.yul\":21624:21638   */\n      add\n        /* \"#utility.yul\":21614:21638   */\n      swap2\n      pop\n        /* \"#utility.yul\":21683:21685   */\n      0x20\n        /* \"#utility.yul\":21672:21681   */\n      dup6\n        /* \"#utility.yul\":21668:21686   */\n      add\n        /* \"#utility.yul\":21655:21686   */\n      swap5\n      pop\n        /* \"#utility.yul\":21529:21533   */\n      0x20\n        /* \"#utility.yul\":21526:21527   */\n      dup2\n        /* \"#utility.yul\":21522:21534   */\n      add\n        /* \"#utility.yul\":21517:21534   */\n      swap1\n      pop\n        /* \"#utility.yul\":21492:21700   */\n      jump(tag_657)\n    tag_659:\n        /* \"#utility.yul\":21728:21734   */\n      dup7\n        /* \"#utility.yul\":21719:21726   */\n      dup4\n        /* \"#utility.yul\":21716:21735   */\n      lt\n        /* \"#utility.yul\":21713:21892   */\n      iszero\n      tag_660\n      jumpi\n        /* \"#utility.yul\":21786:21795   */\n      dup5\n        /* \"#utility.yul\":21781:21784   */\n      dup10\n        /* \"#utility.yul\":21777:21796   */\n      add\n        /* \"#utility.yul\":21771:21797   */\n      mload\n        /* \"#utility.yul\":21829:21877   */\n      tag_661\n        /* \"#utility.yul\":21871:21875   */\n      0x1f\n        /* \"#utility.yul\":21863:21869   */\n      dup10\n        /* \"#utility.yul\":21859:21876   */\n      and\n        /* \"#utility.yul\":21848:21857   */\n      dup3\n        /* \"#utility.yul\":21829:21877   */\n      tag_396\n      jump\t// in\n    tag_661:\n        /* \"#utility.yul\":21821:21827   */\n      dup4\n        /* \"#utility.yul\":21814:21878   */\n      sstore\n        /* \"#utility.yul\":21736:21892   */\n      pop\n        /* \"#utility.yul\":21713:21892   */\n    tag_660:\n        /* \"#utility.yul\":21938:21939   */\n      0x01\n        /* \"#utility.yul\":21934:21935   */\n      0x02\n        /* \"#utility.yul\":21926:21932   */\n      dup9\n        /* \"#utility.yul\":21922:21936   */\n      mul\n        /* \"#utility.yul\":21918:21940   */\n      add\n        /* \"#utility.yul\":21912:21916   */\n      dup9\n        /* \"#utility.yul\":21905:21941   */\n      sstore\n        /* \"#utility.yul\":21341:21951   */\n      pop\n      pop\n      pop\n        /* \"#utility.yul\":21304:22190   */\n    tag_652:\n      pop\n        /* \"#utility.yul\":20896:22196   */\n      pop\n      pop\n      pop\n        /* \"#utility.yul\":20806:22196   */\n      pop\n      pop\n      jump\t// out\n        /* \"#utility.yul\":22224:23051   */\n    tag_398:\n        /* \"#utility.yul\":22307:22310   */\n      0x00\n        /* \"#utility.yul\":22344:22349   */\n      dup2\n        /* \"#utility.yul\":22338:22350   */\n      sload\n        /* \"#utility.yul\":22373:22409   */\n      tag_663\n        /* \"#utility.yul\":22399:22408   */\n      dup2\n        /* \"#utility.yul\":22373:22409   */\n      tag_61\n      jump\t// in\n    tag_663:\n        /* \"#utility.yul\":22425:22495   */\n      tag_664\n        /* \"#utility.yul\":22488:22494   */\n      dup2\n        /* \"#utility.yul\":22483:22486   */\n      dup7\n        /* \"#utility.yul\":22425:22495   */\n      tag_348\n      jump\t// in\n    tag_664:\n        /* \"#utility.yul\":22418:22495   */\n      swap5\n      pop\n        /* \"#utility.yul\":22526:22527   */\n      0x01\n        /* \"#utility.yul\":22515:22524   */\n      dup3\n        /* \"#utility.yul\":22511:22528   */\n      and\n        /* \"#utility.yul\":22542:22543   */\n      0x00\n        /* \"#utility.yul\":22537:22701   */\n      dup2\n      eq\n      tag_666\n      jumpi\n        /* \"#utility.yul\":22715:22716   */\n      0x01\n        /* \"#utility.yul\":22710:23045   */\n      dup2\n      eq\n      tag_667\n      jumpi\n        /* \"#utility.yul\":22504:23045   */\n      jump(tag_665)\n        /* \"#utility.yul\":22537:22701   */\n    tag_666:\n        /* \"#utility.yul\":22621:22625   */\n      0xff\n        /* \"#utility.yul\":22617:22626   */\n      not\n        /* \"#utility.yul\":22606:22615   */\n      dup4\n        /* \"#utility.yul\":22602:22627   */\n      and\n        /* \"#utility.yul\":22597:22600   */\n      dup7\n        /* \"#utility.yul\":22590:22628   */\n      mstore\n        /* \"#utility.yul\":22681:22687   */\n      dup2\n        /* \"#utility.yul\":22674:22688   */\n      iszero\n        /* \"#utility.yul\":22667:22689   */\n      iszero\n        /* \"#utility.yul\":22661:22665   */\n      0x20\n        /* \"#utility.yul\":22657:22690   */\n      mul\n        /* \"#utility.yul\":22652:22655   */\n      dup7\n        /* \"#utility.yul\":22648:22691   */\n      add\n        /* \"#utility.yul\":22641:22691   */\n      swap4\n      pop\n        /* \"#utility.yul\":22537:22701   */\n      jump(tag_665)\n        /* \"#utility.yul\":22710:23045   */\n    tag_667:\n        /* \"#utility.yul\":22777:22814   */\n      tag_668\n        /* \"#utility.yul\":22808:22813   */\n      dup6\n        /* \"#utility.yul\":22777:22814   */\n      tag_383\n      jump\t// in\n    tag_668:\n        /* \"#utility.yul\":22836:22837   */\n      0x00\n        /* \"#utility.yul\":22850:23004   */\n    tag_669:\n        /* \"#utility.yul\":22864:22870   */\n      dup4\n        /* \"#utility.yul\":22861:22862   */\n      dup2\n        /* \"#utility.yul\":22858:22871   */\n      lt\n        /* \"#utility.yul\":22850:23004   */\n      iszero\n      tag_671\n      jumpi\n        /* \"#utility.yul\":22938:22945   */\n      dup2\n        /* \"#utility.yul\":22932:22946   */\n      sload\n        /* \"#utility.yul\":22928:22929   */\n      dup2\n        /* \"#utility.yul\":22923:22926   */\n      dup10\n        /* \"#utility.yul\":22919:22930   */\n      add\n        /* \"#utility.yul\":22912:22947   */\n      mstore\n        /* \"#utility.yul\":22988:22989   */\n      0x01\n        /* \"#utility.yul\":22979:22986   */\n      dup3\n        /* \"#utility.yul\":22975:22990   */\n      add\n        /* \"#utility.yul\":22964:22990   */\n      swap2\n      pop\n        /* \"#utility.yul\":22886:22890   */\n      0x20\n        /* \"#utility.yul\":22883:22884   */\n      dup2\n        /* \"#utility.yul\":22879:22891   */\n      add\n        /* \"#utility.yul\":22874:22891   */\n      swap1\n      pop\n        /* \"#utility.yul\":22850:23004   */\n      jump(tag_669)\n    tag_671:\n        /* \"#utility.yul\":23033:23034   */\n      dup1\n        /* \"#utility.yul\":23028:23031   */\n      dup9\n        /* \"#utility.yul\":23024:23035   */\n      add\n        /* \"#utility.yul\":23017:23035   */\n      swap6\n      pop\n        /* \"#utility.yul\":22717:23045   */\n      pop\n      pop\n        /* \"#utility.yul\":22504:23045   */\n    tag_665:\n      pop\n        /* \"#utility.yul\":22311:23051   */\n      pop\n      pop\n        /* \"#utility.yul\":22224:23051   */\n      swap3\n      swap2\n      pop\n      pop\n      jump\t// out\n        /* \"#utility.yul\":23057:23551   */\n    tag_120:\n        /* \"#utility.yul\":23208:23212   */\n      0x00\n        /* \"#utility.yul\":23246:23248   */\n      0x40\n        /* \"#utility.yul\":23235:23244   */\n      dup3\n        /* \"#utility.yul\":23231:23249   */\n      add\n        /* \"#utility.yul\":23223:23249   */\n      swap1\n      pop\n        /* \"#utility.yul\":23295:23304   */\n      dup2\n        /* \"#utility.yul\":23289:23293   */\n      dup2\n        /* \"#utility.yul\":23285:23305   */\n      sub\n        /* \"#utility.yul\":23281:23282   */\n      0x00\n        /* \"#utility.yul\":23270:23279   */\n      dup4\n        /* \"#utility.yul\":23266:23283   */\n      add\n        /* \"#utility.yul\":23259:23306   */\n      mstore\n        /* \"#utility.yul\":23323:23396   */\n      tag_673\n        /* \"#utility.yul\":23391:23395   */\n      dup2\n        /* \"#utility.yul\":23382:23388   */\n      dup6\n        /* \"#utility.yul\":23323:23396   */\n      tag_398\n      jump\t// in\n    tag_673:\n        /* \"#utility.yul\":23315:23396   */\n      swap1\n      pop\n        /* \"#utility.yul\":23443:23452   */\n      dup2\n        /* \"#utility.yul\":23437:23441   */\n      dup2\n        /* \"#utility.yul\":23433:23453   */\n      sub\n        /* \"#utility.yul\":23428:23430   */\n      0x20\n        /* \"#utility.yul\":23417:23426   */\n      dup4\n        /* \"#utility.yul\":23413:23431   */\n      add\n        /* \"#utility.yul\":23406:23454   */\n      mstore\n        /* \"#utility.yul\":23471:23544   */\n      tag_674\n        /* \"#utility.yul\":23539:23543   */\n      dup2\n        /* \"#utility.yul\":23530:23536   */\n      dup5\n        /* \"#utility.yul\":23471:23544   */\n      tag_398\n      jump\t// in\n    tag_674:\n        /* \"#utility.yul\":23463:23544   */\n      swap1\n      pop\n        /* \"#utility.yul\":23057:23551   */\n      swap4\n      swap3\n      pop\n      pop\n      pop\n      jump\t// out\n        /* \"#utility.yul\":23557:23729   */\n    tag_399:\n        /* \"#utility.yul\":23697:23721   */\n      0x4f6e6c792063616c6c61626c65206279206f776e657200000000000000000000\n        /* \"#utility.yul\":23693:23694   */\n      0x00\n        /* \"#utility.yul\":23685:23691   */\n      dup3\n        /* \"#utility.yul\":23681:23695   */\n      add\n        /* \"#utility.yul\":23674:23722   */\n      mstore\n        /* \"#utility.yul\":23557:23729   */\n      pop\n      jump\t// out\n        /* \"#utility.yul\":23735:24101   */\n    tag_400:\n        /* \"#utility.yul\":23877:23880   */\n      0x00\n        /* \"#utility.yul\":23898:23965   */\n      tag_677\n        /* \"#utility.yul\":23962:23964   */\n      0x16\n        /* \"#utility.yul\":23957:23960   */\n      dup4\n        /* \"#utility.yul\":23898:23965   */\n      tag_379\n      jump\t// in\n    tag_677:\n        /* \"#utility.yul\":23891:23965   */\n      swap2\n      pop\n        /* \"#utility.yul\":23974:24067   */\n      tag_678\n        /* \"#utility.yul\":24063:24066   */\n      dup3\n        /* \"#utility.yul\":23974:24067   */\n      tag_399\n      jump\t// in\n    tag_678:\n        /* \"#utility.yul\":24092:24094   */\n      0x20\n        /* \"#utility.yul\":24087:24090   */\n      dup3\n        /* \"#utility.yul\":24083:24095   */\n      add\n        /* \"#utility.yul\":24076:24095   */\n      swap1\n      pop\n        /* \"#utility.yul\":23735:24101   */\n      swap2\n      swap1\n      pop\n      jump\t// out\n        /* \"#utility.yul\":24107:24526   */\n    tag_124:\n        /* \"#utility.yul\":24273:24277   */\n      0x00\n        /* \"#utility.yul\":24311:24313   */\n      0x20\n        /* \"#utility.yul\":24300:24309   */\n      dup3\n        /* \"#utility.yul\":24296:24314   */\n      add\n        /* \"#utility.yul\":24288:24314   */\n      swap1\n      pop\n        /* \"#utility.yul\":24360:24369   */\n      dup2\n        /* \"#utility.yul\":24354:24358   */\n      dup2\n        /* \"#utility.yul\":24350:24370   */\n      sub\n        /* \"#utility.yul\":24346:24347   */\n      0x00\n        /* \"#utility.yul\":24335:24344   */\n      dup4\n        /* \"#utility.yul\":24331:24348   */\n      add\n        /* \"#utility.yul\":24324:24371   */\n      mstore\n        /* \"#utility.yul\":24388:24519   */\n      tag_680\n        /* \"#utility.yul\":24514:24518   */\n      dup2\n        /* \"#utility.yul\":24388:24519   */\n      tag_400\n      jump\t// in\n    tag_680:\n        /* \"#utility.yul\":24380:24519   */\n      swap1\n      pop\n        /* \"#utility.yul\":24107:24526   */\n      swap2\n      swap1\n      pop\n      jump\t// out\n        /* \"#utility.yul\":24532:24712   */\n    tag_132:\n        /* \"#utility.yul\":24580:24657   */\n      0x4e487b7100000000000000000000000000000000000000000000000000000000\n        /* \"#utility.yul\":24577:24578   */\n      0x00\n        /* \"#utility.yul\":24570:24658   */\n      mstore\n        /* \"#utility.yul\":24677:24681   */\n      0x21\n        /* \"#utility.yul\":24674:24675   */\n      0x04\n        /* \"#utility.yul\":24667:24682   */\n      mstore\n        /* \"#utility.yul\":24701:24705   */\n      0x24\n        /* \"#utility.yul\":24698:24699   */\n      0x00\n        /* \"#utility.yul\":24691:24706   */\n      revert\n        /* \"#utility.yul\":24718:24898   */\n    tag_175:\n        /* \"#utility.yul\":24766:24843   */\n      0x4e487b7100000000000000000000000000000000000000000000000000000000\n        /* \"#utility.yul\":24763:24764   */\n      0x00\n        /* \"#utility.yul\":24756:24844   */\n      mstore\n        /* \"#utility.yul\":24863:24867   */\n      0x32\n        /* \"#utility.yul\":24860:24861   */\n      0x04\n        /* \"#utility.yul\":24853:24868   */\n      mstore\n        /* \"#utility.yul\":24887:24891   */\n      0x24\n        /* \"#utility.yul\":24884:24885   */\n      0x00\n        /* \"#utility.yul\":24877:24892   */\n      revert\n        /* \"#utility.yul\":24904:25019   */\n    tag_401:\n        /* \"#utility.yul\":24989:25012   */\n      tag_684\n        /* \"#utility.yul\":25006:25011   */\n      dup2\n        /* \"#utility.yul\":24989:25012   */\n      tag_357\n      jump\t// in\n    tag_684:\n        /* \"#utility.yul\":24984:24987   */\n      dup3\n        /* \"#utility.yul\":24977:25013   */\n      mstore\n        /* \"#utility.yul\":24904:25019   */\n      pop\n      pop\n      jump\t// out\n        /* \"#utility.yul\":25025:25114   */\n    tag_402:\n        /* \"#utility.yul\":25061:25068   */\n      0x00\n        /* \"#utility.yul\":25101:25107   */\n      0xffff\n        /* \"#utility.yul\":25094:25099   */\n      dup3\n        /* \"#utility.yul\":25090:25108   */\n      and\n        /* \"#utility.yul\":25079:25108   */\n      swap1\n      pop\n        /* \"#utility.yul\":25025:25114   */\n      swap2\n      swap1\n      pop\n      jump\t// out\n        /* \"#utility.yul\":25120:25235   */\n    tag_403:\n        /* \"#utility.yul\":25205:25228   */\n      tag_687\n        /* \"#utility.yul\":25222:25227   */\n      dup2\n        /* \"#utility.yul\":25205:25228   */\n      tag_402\n      jump\t// in\n    tag_687:\n        /* \"#utility.yul\":25200:25203   */\n      dup3\n        /* \"#utility.yul\":25193:25229   */\n      mstore\n        /* \"#utility.yul\":25120:25235   */\n      pop\n      pop\n      jump\t// out\n        /* \"#utility.yul\":25241:25356   */\n    tag_404:\n        /* \"#utility.yul\":25326:25349   */\n      tag_689\n        /* \"#utility.yul\":25343:25348   */\n      dup2\n        /* \"#utility.yul\":25326:25349   */\n      tag_367\n      jump\t// in\n    tag_689:\n        /* \"#utility.yul\":25321:25324   */\n      dup3\n        /* \"#utility.yul\":25314:25350   */\n      mstore\n        /* \"#utility.yul\":25241:25356   */\n      pop\n      pop\n      jump\t// out\n        /* \"#utility.yul\":25362:26101   */\n    tag_205:\n        /* \"#utility.yul\":25579:25583   */\n      0x00\n        /* \"#utility.yul\":25617:25620   */\n      0xa0\n        /* \"#utility.yul\":25606:25615   */\n      dup3\n        /* \"#utility.yul\":25602:25621   */\n      add\n        /* \"#utility.yul\":25594:25621   */\n      swap1\n      pop\n        /* \"#utility.yul\":25631:25700   */\n      tag_691\n        /* \"#utility.yul\":25697:25698   */\n      0x00\n        /* \"#utility.yul\":25686:25695   */\n      dup4\n        /* \"#utility.yul\":25682:25699   */\n      add\n        /* \"#utility.yul\":25673:25679   */\n      dup9\n        /* \"#utility.yul\":25631:25700   */\n      tag_401\n      jump\t// in\n    tag_691:\n        /* \"#utility.yul\":25747:25756   */\n      dup2\n        /* \"#utility.yul\":25741:25745   */\n      dup2\n        /* \"#utility.yul\":25737:25757   */\n      sub\n        /* \"#utility.yul\":25732:25734   */\n      0x20\n        /* \"#utility.yul\":25721:25730   */\n      dup4\n        /* \"#utility.yul\":25717:25735   */\n      add\n        /* \"#utility.yul\":25710:25758   */\n      mstore\n        /* \"#utility.yul\":25775:25851   */\n      tag_692\n        /* \"#utility.yul\":25846:25850   */\n      dup2\n        /* \"#utility.yul\":25837:25843   */\n      dup8\n        /* \"#utility.yul\":25775:25851   */\n      tag_350\n      jump\t// in\n    tag_692:\n        /* \"#utility.yul\":25767:25851   */\n      swap1\n      pop\n        /* \"#utility.yul\":25861:25931   */\n      tag_693\n        /* \"#utility.yul\":25927:25929   */\n      0x40\n        /* \"#utility.yul\":25916:25925   */\n      dup4\n        /* \"#utility.yul\":25912:25930   */\n      add\n        /* \"#utility.yul\":25903:25909   */\n      dup7\n        /* \"#utility.yul\":25861:25931   */\n      tag_403\n      jump\t// in\n    tag_693:\n        /* \"#utility.yul\":25941:26011   */\n      tag_694\n        /* \"#utility.yul\":26007:26009   */\n      0x60\n        /* \"#utility.yul\":25996:26005   */\n      dup4\n        /* \"#utility.yul\":25992:26010   */\n      add\n        /* \"#utility.yul\":25983:25989   */\n      dup6\n        /* \"#utility.yul\":25941:26011   */\n      tag_404\n      jump\t// in\n    tag_694:\n        /* \"#utility.yul\":26021:26094   */\n      tag_695\n        /* \"#utility.yul\":26089:26092   */\n      0x80\n        /* \"#utility.yul\":26078:26087   */\n      dup4\n        /* \"#utility.yul\":26074:26093   */\n      add\n        /* \"#utility.yul\":26065:26071   */\n      dup5\n        /* \"#utility.yul\":26021:26094   */\n      tag_370\n      jump\t// in\n    tag_695:\n        /* \"#utility.yul\":25362:26101   */\n      swap7\n      swap6\n      pop\n      pop\n      pop\n      pop\n      pop\n      pop\n      jump\t// out\n        /* \"#utility.yul\":26107:26250   */\n    tag_405:\n        /* \"#utility.yul\":26164:26169   */\n      0x00\n        /* \"#utility.yul\":26195:26201   */\n      dup2\n        /* \"#utility.yul\":26189:26202   */\n      mload\n        /* \"#utility.yul\":26180:26202   */\n      swap1\n      pop\n        /* \"#utility.yul\":26211:26244   */\n      tag_697\n        /* \"#utility.yul\":26238:26243   */\n      dup2\n        /* \"#utility.yul\":26211:26244   */\n      tag_335\n      jump\t// in\n    tag_697:\n        /* \"#utility.yul\":26107:26250   */\n      swap3\n      swap2\n      pop\n      pop\n      jump\t// out\n        /* \"#utility.yul\":26256:26607   */\n    tag_209:\n        /* \"#utility.yul\":26326:26332   */\n      0x00\n        /* \"#utility.yul\":26375:26377   */\n      0x20\n        /* \"#utility.yul\":26363:26372   */\n      dup3\n        /* \"#utility.yul\":26354:26361   */\n      dup5\n        /* \"#utility.yul\":26350:26373   */\n      sub\n        /* \"#utility.yul\":26346:26378   */\n      slt\n        /* \"#utility.yul\":26343:26462   */\n      iszero\n      tag_699\n      jumpi\n        /* \"#utility.yul\":26381:26460   */\n      tag_700\n      tag_332\n      jump\t// in\n    tag_700:\n        /* \"#utility.yul\":26343:26462   */\n    tag_699:\n        /* \"#utility.yul\":26501:26502   */\n      0x00\n        /* \"#utility.yul\":26526:26590   */\n      tag_701\n        /* \"#utility.yul\":26582:26589   */\n      dup5\n        /* \"#utility.yul\":26573:26579   */\n      dup3\n        /* \"#utility.yul\":26562:26571   */\n      dup6\n        /* \"#utility.yul\":26558:26580   */\n      add\n        /* \"#utility.yul\":26526:26590   */\n      tag_405\n      jump\t// in\n    tag_701:\n        /* \"#utility.yul\":26516:26590   */\n      swap2\n      pop\n        /* \"#utility.yul\":26472:26600   */\n      pop\n        /* \"#utility.yul\":26256:26607   */\n      swap3\n      swap2\n      pop\n      pop\n      jump\t// out\n        /* \"#utility.yul\":26613:26786   */\n    tag_406:\n        /* \"#utility.yul\":26753:26778   */\n      0x43616e6e6f74207472616e7366657220746f2073656c66000000000000000000\n        /* \"#utility.yul\":26749:26750   */\n      0x00\n        /* \"#utility.yul\":26741:26747   */\n      dup3\n        /* \"#utility.yul\":26737:26751   */\n      add\n        /* \"#utility.yul\":26730:26779   */\n      mstore\n        /* \"#utility.yul\":26613:26786   */\n      pop\n      jump\t// out\n        /* \"#utility.yul\":26792:27158   */\n    tag_407:\n        /* \"#utility.yul\":26934:26937   */\n      0x00\n        /* \"#utility.yul\":26955:27022   */\n      tag_704\n        /* \"#utility.yul\":27019:27021   */\n      0x17\n        /* \"#utility.yul\":27014:27017   */\n      dup4\n        /* \"#utility.yul\":26955:27022   */\n      tag_379\n      jump\t// in\n    tag_704:\n        /* \"#utility.yul\":26948:27022   */\n      swap2\n      pop\n        /* \"#utility.yul\":27031:27124   */\n      tag_705\n        /* \"#utility.yul\":27120:27123   */\n      dup3\n        /* \"#utility.yul\":27031:27124   */\n      tag_406\n      jump\t// in\n    tag_705:\n        /* \"#utility.yul\":27149:27151   */\n      0x20\n        /* \"#utility.yul\":27144:27147   */\n      dup3\n        /* \"#utility.yul\":27140:27152   */\n      add\n        /* \"#utility.yul\":27133:27152   */\n      swap1\n      pop\n        /* \"#utility.yul\":26792:27158   */\n      swap2\n      swap1\n      pop\n      jump\t// out\n        /* \"#utility.yul\":27164:27583   */\n    tag_213:\n        /* \"#utility.yul\":27330:27334   */\n      0x00\n        /* \"#utility.yul\":27368:27370   */\n      0x20\n        /* \"#utility.yul\":27357:27366   */\n      dup3\n        /* \"#utility.yul\":27353:27371   */\n      add\n        /* \"#utility.yul\":27345:27371   */\n      swap1\n      pop\n        /* \"#utility.yul\":27417:27426   */\n      dup2\n        /* \"#utility.yul\":27411:27415   */\n      dup2\n        /* \"#utility.yul\":27407:27427   */\n      sub\n        /* \"#utility.yul\":27403:27404   */\n      0x00\n        /* \"#utility.yul\":27392:27401   */\n      dup4\n        /* \"#utility.yul\":27388:27405   */\n      add\n        /* \"#utility.yul\":27381:27428   */\n      mstore\n        /* \"#utility.yul\":27445:27576   */\n      tag_707\n        /* \"#utility.yul\":27571:27575   */\n      dup2\n        /* \"#utility.yul\":27445:27576   */\n      tag_407\n      jump\t// in\n    tag_707:\n        /* \"#utility.yul\":27437:27576   */\n      swap1\n      pop\n        /* \"#utility.yul\":27164:27583   */\n      swap2\n      swap1\n      pop\n      jump\t// out\n        /* \"#utility.yul\":27589:27780   */\n    tag_245:\n        /* \"#utility.yul\":27629:27632   */\n      0x00\n        /* \"#utility.yul\":27648:27668   */\n      tag_709\n        /* \"#utility.yul\":27666:27667   */\n      dup3\n        /* \"#utility.yul\":27648:27668   */\n      tag_371\n      jump\t// in\n    tag_709:\n        /* \"#utility.yul\":27643:27668   */\n      swap2\n      pop\n        /* \"#utility.yul\":27682:27702   */\n      tag_710\n        /* \"#utility.yul\":27700:27701   */\n      dup4\n        /* \"#utility.yul\":27682:27702   */\n      tag_371\n      jump\t// in\n    tag_710:\n        /* \"#utility.yul\":27677:27702   */\n      swap3\n      pop\n        /* \"#utility.yul\":27725:27726   */\n      dup3\n        /* \"#utility.yul\":27722:27723   */\n      dup3\n        /* \"#utility.yul\":27718:27727   */\n      add\n        /* \"#utility.yul\":27711:27727   */\n      swap1\n      pop\n        /* \"#utility.yul\":27746:27749   */\n      dup1\n        /* \"#utility.yul\":27743:27744   */\n      dup3\n        /* \"#utility.yul\":27740:27750   */\n      gt\n        /* \"#utility.yul\":27737:27773   */\n      iszero\n      tag_711\n      jumpi\n        /* \"#utility.yul\":27753:27771   */\n      tag_712\n      tag_382\n      jump\t// in\n    tag_712:\n        /* \"#utility.yul\":27737:27773   */\n    tag_711:\n        /* \"#utility.yul\":27589:27780   */\n      swap3\n      swap2\n      pop\n      pop\n      jump\t// out\n        /* \"#utility.yul\":27786:27980   */\n    tag_249:\n        /* \"#utility.yul\":27826:27830   */\n      0x00\n        /* \"#utility.yul\":27846:27866   */\n      tag_714\n        /* \"#utility.yul\":27864:27865   */\n      dup3\n        /* \"#utility.yul\":27846:27866   */\n      tag_371\n      jump\t// in\n    tag_714:\n        /* \"#utility.yul\":27841:27866   */\n      swap2\n      pop\n        /* \"#utility.yul\":27880:27900   */\n      tag_715\n        /* \"#utility.yul\":27898:27899   */\n      dup4\n        /* \"#utility.yul\":27880:27900   */\n      tag_371\n      jump\t// in\n    tag_715:\n        /* \"#utility.yul\":27875:27900   */\n      swap3\n      pop\n        /* \"#utility.yul\":27924:27925   */\n      dup3\n        /* \"#utility.yul\":27921:27922   */\n      dup3\n        /* \"#utility.yul\":27917:27926   */\n      sub\n        /* \"#utility.yul\":27909:27926   */\n      swap1\n      pop\n        /* \"#utility.yul\":27948:27949   */\n      dup2\n        /* \"#utility.yul\":27942:27946   */\n      dup2\n        /* \"#utility.yul\":27939:27950   */\n      gt\n        /* \"#utility.yul\":27936:27973   */\n      iszero\n      tag_716\n      jumpi\n        /* \"#utility.yul\":27953:27971   */\n      tag_717\n      tag_382\n      jump\t// in\n    tag_717:\n        /* \"#utility.yul\":27936:27973   */\n    tag_716:\n        /* \"#utility.yul\":27786:27980   */\n      swap3\n      swap2\n      pop\n      pop\n      jump\t// out\n        /* \"#utility.yul\":27986:28166   */\n    tag_408:\n        /* \"#utility.yul\":28034:28111   */\n      0x4e487b7100000000000000000000000000000000000000000000000000000000\n        /* \"#utility.yul\":28031:28032   */\n      0x00\n        /* \"#utility.yul\":28024:28112   */\n      mstore\n        /* \"#utility.yul\":28131:28135   */\n      0x12\n        /* \"#utility.yul\":28128:28129   */\n      0x04\n        /* \"#utility.yul\":28121:28136   */\n      mstore\n        /* \"#utility.yul\":28155:28159   */\n      0x24\n        /* \"#utility.yul\":28152:28153   */\n      0x00\n        /* \"#utility.yul\":28145:28160   */\n      revert\n        /* \"#utility.yul\":28172:28348   */\n    tag_257:\n        /* \"#utility.yul\":28204:28205   */\n      0x00\n        /* \"#utility.yul\":28221:28241   */\n      tag_720\n        /* \"#utility.yul\":28239:28240   */\n      dup3\n        /* \"#utility.yul\":28221:28241   */\n      tag_371\n      jump\t// in\n    tag_720:\n        /* \"#utility.yul\":28216:28241   */\n      swap2\n      pop\n        /* \"#utility.yul\":28255:28275   */\n      tag_721\n        /* \"#utility.yul\":28273:28274   */\n      dup4\n        /* \"#utility.yul\":28255:28275   */\n      tag_371\n      jump\t// in\n    tag_721:\n        /* \"#utility.yul\":28250:28275   */\n      swap3\n      pop\n        /* \"#utility.yul\":28294:28295   */\n      dup3\n        /* \"#utility.yul\":28284:28319   */\n      tag_722\n      jumpi\n        /* \"#utility.yul\":28299:28317   */\n      tag_723\n      tag_408\n      jump\t// in\n    tag_723:\n        /* \"#utility.yul\":28284:28319   */\n    tag_722:\n        /* \"#utility.yul\":28340:28341   */\n      dup3\n        /* \"#utility.yul\":28337:28338   */\n      dup3\n        /* \"#utility.yul\":28333:28342   */\n      mod\n        /* \"#utility.yul\":28328:28342   */\n      swap1\n      pop\n        /* \"#utility.yul\":28172:28348   */\n      swap3\n      swap2\n      pop\n      pop\n      jump\t// out\n        /* \"#utility.yul\":28354:28764   */\n    tag_292:\n        /* \"#utility.yul\":28394:28401   */\n      0x00\n        /* \"#utility.yul\":28417:28437   */\n      tag_725\n        /* \"#utility.yul\":28435:28436   */\n      dup3\n        /* \"#utility.yul\":28417:28437   */\n      tag_371\n      jump\t// in\n    tag_725:\n        /* \"#utility.yul\":28412:28437   */\n      swap2\n      pop\n        /* \"#utility.yul\":28451:28471   */\n      tag_726\n        /* \"#utility.yul\":28469:28470   */\n      dup4\n        /* \"#utility.yul\":28451:28471   */\n      tag_371\n      jump\t// in\n    tag_726:\n        /* \"#utility.yul\":28446:28471   */\n      swap3\n      pop\n        /* \"#utility.yul\":28506:28507   */\n      dup3\n        /* \"#utility.yul\":28503:28504   */\n      dup3\n        /* \"#utility.yul\":28499:28508   */\n      mul\n        /* \"#utility.yul\":28528:28558   */\n      tag_727\n        /* \"#utility.yul\":28546:28557   */\n      dup2\n        /* \"#utility.yul\":28528:28558   */\n      tag_371\n      jump\t// in\n    tag_727:\n        /* \"#utility.yul\":28517:28558   */\n      swap2\n      pop\n        /* \"#utility.yul\":28707:28708   */\n      dup3\n        /* \"#utility.yul\":28698:28705   */\n      dup3\n        /* \"#utility.yul\":28694:28709   */\n      div\n        /* \"#utility.yul\":28691:28692   */\n      dup5\n        /* \"#utility.yul\":28688:28710   */\n      eq\n        /* \"#utility.yul\":28668:28669   */\n      dup4\n        /* \"#utility.yul\":28661:28670   */\n      iszero\n        /* \"#utility.yul\":28641:28724   */\n      or\n        /* \"#utility.yul\":28618:28757   */\n      tag_728\n      jumpi\n        /* \"#utility.yul\":28737:28755   */\n      tag_729\n      tag_382\n      jump\t// in\n    tag_729:\n        /* \"#utility.yul\":28618:28757   */\n    tag_728:\n        /* \"#utility.yul\":28402:28764   */\n      pop\n        /* \"#utility.yul\":28354:28764   */\n      swap3\n      swap2\n      pop\n      pop\n      jump\t// out\n        /* \"#utility.yul\":28770:28872   */\n    tag_409:\n        /* \"#utility.yul\":28812:28820   */\n      0x00\n        /* \"#utility.yul\":28859:28864   */\n      dup2\n        /* \"#utility.yul\":28856:28857   */\n      0x01\n        /* \"#utility.yul\":28852:28865   */\n      shr\n        /* \"#utility.yul\":28831:28865   */\n      swap1\n      pop\n        /* \"#utility.yul\":28770:28872   */\n      swap2\n      swap1\n      pop\n      jump\t// out\n        /* \"#utility.yul\":28878:29726   */\n    tag_410:\n        /* \"#utility.yul\":28939:28944   */\n      0x00\n        /* \"#utility.yul\":28946:28950   */\n      dup1\n        /* \"#utility.yul\":28970:28976   */\n      dup3\n        /* \"#utility.yul\":28961:28976   */\n      swap2\n      pop\n        /* \"#utility.yul\":28994:28999   */\n      dup4\n        /* \"#utility.yul\":28985:28999   */\n      swap1\n      pop\n        /* \"#utility.yul\":29008:29720   */\n    tag_732:\n        /* \"#utility.yul\":29029:29030   */\n      0x01\n        /* \"#utility.yul\":29019:29027   */\n      dup6\n        /* \"#utility.yul\":29016:29031   */\n      gt\n        /* \"#utility.yul\":29008:29720   */\n      iszero\n      tag_734\n      jumpi\n        /* \"#utility.yul\":29124:29128   */\n      dup1\n        /* \"#utility.yul\":29119:29122   */\n      dup7\n        /* \"#utility.yul\":29115:29129   */\n      div\n        /* \"#utility.yul\":29109:29113   */\n      dup2\n        /* \"#utility.yul\":29106:29130   */\n      gt\n        /* \"#utility.yul\":29103:29153   */\n      iszero\n      tag_735\n      jumpi\n        /* \"#utility.yul\":29133:29151   */\n      tag_736\n      tag_382\n      jump\t// in\n    tag_736:\n        /* \"#utility.yul\":29103:29153   */\n    tag_735:\n        /* \"#utility.yul\":29183:29184   */\n      0x01\n        /* \"#utility.yul\":29173:29181   */\n      dup6\n        /* \"#utility.yul\":29169:29185   */\n      and\n        /* \"#utility.yul\":29166:29617   */\n      iszero\n      tag_737\n      jumpi\n        /* \"#utility.yul\":29598:29602   */\n      dup1\n        /* \"#utility.yul\":29591:29596   */\n      dup3\n        /* \"#utility.yul\":29587:29603   */\n      mul\n        /* \"#utility.yul\":29578:29603   */\n      swap2\n      pop\n        /* \"#utility.yul\":29166:29617   */\n    tag_737:\n        /* \"#utility.yul\":29648:29652   */\n      dup1\n        /* \"#utility.yul\":29642:29646   */\n      dup2\n        /* \"#utility.yul\":29638:29653   */\n      mul\n        /* \"#utility.yul\":29630:29653   */\n      swap1\n      pop\n        /* \"#utility.yul\":29678:29710   */\n      tag_738\n        /* \"#utility.yul\":29701:29709   */\n      dup6\n        /* \"#utility.yul\":29678:29710   */\n      tag_409\n      jump\t// in\n    tag_738:\n        /* \"#utility.yul\":29666:29710   */\n      swap5\n      pop\n        /* \"#utility.yul\":29008:29720   */\n      jump(tag_732)\n    tag_734:\n        /* \"#utility.yul\":28878:29726   */\n      swap5\n      pop\n      swap5\n      swap3\n      pop\n      pop\n      pop\n      jump\t// out\n        /* \"#utility.yul\":29732:30805   */\n    tag_411:\n        /* \"#utility.yul\":29786:29791   */\n      0x00\n        /* \"#utility.yul\":29977:29985   */\n      dup3\n        /* \"#utility.yul\":29967:30007   */\n      tag_740\n      jumpi\n        /* \"#utility.yul\":29998:29999   */\n      0x01\n        /* \"#utility.yul\":29989:29999   */\n      swap1\n      pop\n        /* \"#utility.yul\":30000:30005   */\n      jump(tag_739)\n        /* \"#utility.yul\":29967:30007   */\n    tag_740:\n        /* \"#utility.yul\":30026:30030   */\n      dup2\n        /* \"#utility.yul\":30016:30052   */\n      tag_741\n      jumpi\n        /* \"#utility.yul\":30043:30044   */\n      0x00\n        /* \"#utility.yul\":30034:30044   */\n      swap1\n      pop\n        /* \"#utility.yul\":30045:30050   */\n      jump(tag_739)\n        /* \"#utility.yul\":30016:30052   */\n    tag_741:\n        /* \"#utility.yul\":30112:30116   */\n      dup2\n        /* \"#utility.yul\":30160:30161   */\n      0x01\n        /* \"#utility.yul\":30155:30182   */\n      dup2\n      eq\n      tag_743\n      jumpi\n        /* \"#utility.yul\":30196:30197   */\n      0x02\n        /* \"#utility.yul\":30191:30382   */\n      dup2\n      eq\n      tag_744\n      jumpi\n        /* \"#utility.yul\":30105:30382   */\n      jump(tag_742)\n        /* \"#utility.yul\":30155:30182   */\n    tag_743:\n        /* \"#utility.yul\":30173:30174   */\n      0x01\n        /* \"#utility.yul\":30164:30174   */\n      swap2\n      pop\n        /* \"#utility.yul\":30175:30180   */\n      pop\n      jump(tag_739)\n        /* \"#utility.yul\":30191:30382   */\n    tag_744:\n        /* \"#utility.yul\":30236:30239   */\n      0xff\n        /* \"#utility.yul\":30226:30234   */\n      dup5\n        /* \"#utility.yul\":30223:30240   */\n      gt\n        /* \"#utility.yul\":30220:30263   */\n      iszero\n      tag_745\n      jumpi\n        /* \"#utility.yul\":30243:30261   */\n      tag_746\n      tag_382\n      jump\t// in\n    tag_746:\n        /* \"#utility.yul\":30220:30263   */\n    tag_745:\n        /* \"#utility.yul\":30292:30300   */\n      dup4\n        /* \"#utility.yul\":30289:30290   */\n      0x02\n        /* \"#utility.yul\":30285:30301   */\n      exp\n        /* \"#utility.yul\":30276:30301   */\n      swap2\n      pop\n        /* \"#utility.yul\":30327:30330   */\n      dup5\n        /* \"#utility.yul\":30320:30325   */\n      dup3\n        /* \"#utility.yul\":30317:30331   */\n      gt\n        /* \"#utility.yul\":30314:30354   */\n      iszero\n      tag_747\n      jumpi\n        /* \"#utility.yul\":30334:30352   */\n      tag_748\n      tag_382\n      jump\t// in\n    tag_748:\n        /* \"#utility.yul\":30314:30354   */\n    tag_747:\n        /* \"#utility.yul\":30367:30372   */\n      pop\n      jump(tag_739)\n        /* \"#utility.yul\":30105:30382   */\n    tag_742:\n      pop\n        /* \"#utility.yul\":30491:30493   */\n      0x20\n        /* \"#utility.yul\":30481:30489   */\n      dup4\n        /* \"#utility.yul\":30478:30494   */\n      lt\n        /* \"#utility.yul\":30472:30475   */\n      0x0133\n        /* \"#utility.yul\":30466:30470   */\n      dup4\n        /* \"#utility.yul\":30463:30476   */\n      lt\n        /* \"#utility.yul\":30459:30495   */\n      and\n        /* \"#utility.yul\":30441:30443   */\n      0x4e\n        /* \"#utility.yul\":30431:30439   */\n      dup5\n        /* \"#utility.yul\":30428:30444   */\n      lt\n        /* \"#utility.yul\":30423:30425   */\n      0x0b\n        /* \"#utility.yul\":30417:30421   */\n      dup5\n        /* \"#utility.yul\":30414:30426   */\n      lt\n        /* \"#utility.yul\":30410:30445   */\n      and\n        /* \"#utility.yul\":30394:30505   */\n      or\n        /* \"#utility.yul\":30391:30637   */\n      iszero\n      tag_749\n      jumpi\n        /* \"#utility.yul\":30547:30555   */\n      dup3\n        /* \"#utility.yul\":30541:30545   */\n      dup3\n        /* \"#utility.yul\":30537:30556   */\n      exp\n        /* \"#utility.yul\":30528:30556   */\n      swap1\n      pop\n        /* \"#utility.yul\":30582:30585   */\n      dup4\n        /* \"#utility.yul\":30575:30580   */\n      dup2\n        /* \"#utility.yul\":30572:30586   */\n      gt\n        /* \"#utility.yul\":30569:30609   */\n      iszero\n      tag_750\n      jumpi\n        /* \"#utility.yul\":30589:30607   */\n      tag_751\n      tag_382\n      jump\t// in\n    tag_751:\n        /* \"#utility.yul\":30569:30609   */\n    tag_750:\n        /* \"#utility.yul\":30622:30627   */\n      jump(tag_739)\n        /* \"#utility.yul\":30391:30637   */\n    tag_749:\n        /* \"#utility.yul\":30662:30704   */\n      tag_752\n        /* \"#utility.yul\":30700:30703   */\n      dup5\n        /* \"#utility.yul\":30690:30698   */\n      dup5\n        /* \"#utility.yul\":30684:30688   */\n      dup5\n        /* \"#utility.yul\":30681:30682   */\n      0x01\n        /* \"#utility.yul\":30662:30704   */\n      tag_410\n      jump\t// in\n    tag_752:\n        /* \"#utility.yul\":30647:30704   */\n      swap3\n      pop\n      swap1\n      pop\n        /* \"#utility.yul\":30736:30740   */\n      dup2\n        /* \"#utility.yul\":30731:30734   */\n      dup5\n        /* \"#utility.yul\":30727:30741   */\n      div\n        /* \"#utility.yul\":30720:30725   */\n      dup2\n        /* \"#utility.yul\":30717:30742   */\n      gt\n        /* \"#utility.yul\":30714:30765   */\n      iszero\n      tag_753\n      jumpi\n        /* \"#utility.yul\":30745:30763   */\n      tag_754\n      tag_382\n      jump\t// in\n    tag_754:\n        /* \"#utility.yul\":30714:30765   */\n    tag_753:\n        /* \"#utility.yul\":30794:30798   */\n      dup2\n        /* \"#utility.yul\":30787:30792   */\n      dup2\n        /* \"#utility.yul\":30783:30799   */\n      mul\n        /* \"#utility.yul\":30774:30799   */\n      swap1\n      pop\n        /* \"#utility.yul\":29732:30805   */\n    tag_739:\n      swap4\n      swap3\n      pop\n      pop\n      pop\n      jump\t// out\n        /* \"#utility.yul\":30811:31096   */\n    tag_304:\n        /* \"#utility.yul\":30871:30876   */\n      0x00\n        /* \"#utility.yul\":30895:30918   */\n      tag_756\n        /* \"#utility.yul\":30913:30917   */\n      dup3\n        /* \"#utility.yul\":30895:30918   */\n      tag_371\n      jump\t// in\n    tag_756:\n        /* \"#utility.yul\":30887:30918   */\n      swap2\n      pop\n        /* \"#utility.yul\":30939:30966   */\n      tag_757\n        /* \"#utility.yul\":30957:30965   */\n      dup4\n        /* \"#utility.yul\":30939:30966   */\n      tag_371\n      jump\t// in\n    tag_757:\n        /* \"#utility.yul\":30927:30966   */\n      swap3\n      pop\n        /* \"#utility.yul\":30985:31089   */\n      tag_758\n        /* \"#utility.yul\":31022:31088   */\n      0xffffffffffffffffffffffffffffffffffffffffffffffffffffffffffffffff\n        /* \"#utility.yul\":31012:31020   */\n      dup5\n        /* \"#utility.yul\":31006:31010   */\n      dup5\n        /* \"#utility.yul\":30985:31089   */\n      tag_411\n      jump\t// in\n    tag_758:\n        /* \"#utility.yul\":30976:31089   */\n      swap1\n      pop\n        /* \"#utility.yul\":30811:31096   */\n      swap3\n      swap2\n      pop\n      pop\n      jump\t// out\n\n    auxdata: 0xa2646970667358221220570c23f0ef788f6908525b0d099fab7171fd41db7bdbc3b210b620507f9ef4a564736f6c63430008130033\n}\n",
				"bytecode": {
					"linkReferences": {},
					"object": "60a0604052600060025573c22a79eba640940abb6df0f7982cc119578e11de600660006101000a81548173ffffffffffffffffffffffffffffffffffffffff021916908373ffffffffffffffffffffffffffffffffffffffff1602179055507f66756e2d706f6c79676f6e2d616d6f792d31000000000000000000000000000060001b6007553480156200009257600080fd5b5033806000600660009054906101000a900473ffffffffffffffffffffffffffffffffffffffff168073ffffffffffffffffffffffffffffffffffffffff1660808173ffffffffffffffffffffffffffffffffffffffff168152505050600073ffffffffffffffffffffffffffffffffffffffff168273ffffffffffffffffffffffffffffffffffffffff160362000161576040517f08c379a0000000000000000000000000000000000000000000000000000000008152600401620001589062000381565b60405180910390fd5b816000806101000a81548173ffffffffffffffffffffffffffffffffffffffff021916908373ffffffffffffffffffffffffffffffffffffffff160217905550600073ffffffffffffffffffffffffffffffffffffffff168173ffffffffffffffffffffffffffffffffffffffff1614620001e857620001e781620001f160201b60201c565b5b50505062000415565b3373ffffffffffffffffffffffffffffffffffffffff168173ffffffffffffffffffffffffffffffffffffffff160362000262576040517f08c379a00000000000000000000000000000000000000000000000000000000081526004016200025990620003f3565b60405180910390fd5b80600160006101000a81548173ffffffffffffffffffffffffffffffffffffffff021916908373ffffffffffffffffffffffffffffffffffffffff1602179055508073ffffffffffffffffffffffffffffffffffffffff1660008054906101000a900473ffffffffffffffffffffffffffffffffffffffff1673ffffffffffffffffffffffffffffffffffffffff167fed8889f560326eb138920d842192f0eb3dd22b4f139c87a2c57538e05bae127860405160405180910390a350565b600082825260208201905092915050565b7f43616e6e6f7420736574206f776e657220746f207a65726f0000000000000000600082015250565b60006200036960188362000320565b9150620003768262000331565b602082019050919050565b600060208201905081810360008301526200039c816200035a565b9050919050565b7f43616e6e6f74207472616e7366657220746f2073656c66000000000000000000600082015250565b6000620003db60178362000320565b9150620003e882620003a3565b602082019050919050565b600060208201905081810360008301526200040e81620003cc565b9050919050565b60805161291162000438600039600081816101f20152610e4d01526129116000f3fe608060405234801561001057600080fd5b50600436106100a95760003560e01c806379ba50971161007157806379ba5097146101545780638da5cb5b1461015e578063b1e217491461017c578063d09de08a1461019a578063d5f226bc146101a4578063f2fde38b146101d4576100a9565b80630ca76175146100ae5780633944ea3a146100ca5780634b0795a8146100e85780634d533ad61461010657806361bc221a14610136575b600080fd5b6100c860048036038101906100c391906118c8565b6101f0565b005b6100d26102b2565b6040516100df91906119d2565b60405180910390f35b6100f0610340565b6040516100fd91906119d2565b60405180910390f35b610120600480360381019061011b9190611d11565b6103ce565b60405161012d9190611e46565b60405180910390f35b61013e6104a9565b60405161014b9190611e7a565b60405180910390f35b61015c6104af565b005b610166610644565b6040516101739190611ed6565b60405180910390f35b61018461066d565b6040516101919190611e46565b60405180910390f35b6101a2610673565b005b6101be60048036038101906101b99190611ef1565b61068d565b6040516101cb9190611e46565b60405180910390f35b6101ee60048036038101906101e99190611f8c565b6106b7565b005b7f000000000000000000000000000000000000000000000000000000000000000073ffffffffffffffffffffffffffffffffffffffff163373ffffffffffffffffffffffffffffffffffffffff1614610275576040517fc6829f8300000000000000000000000000000000000000000000000000000000815260040160405180910390fd5b6102808383836106cb565b827f85e1543bf2f84fe80c6badbce3648c8539ad1df4d2b3d822938ca0538be727e660405160405180910390a2505050565b600480546102bf90611fe8565b80601f01602080910402602001604051908101604052809291908181526020018280546102eb90611fe8565b80156103385780601f1061030d57610100808354040283529160200191610338565b820191906000526020600020905b81548152906001019060200180831161031b57829003601f168201915b505050505081565b6005805461034d90611fe8565b80601f016020809104026020016040519081016040528092919081815260200182805461037990611fe8565b80156103c65780601f1061039b576101008083540402835291602001916103c6565b820191906000526020600020905b8154815290600101906020018083116103a957829003601f168201915b505050505081565b60006103d8610772565b6103e061168c565b6103f38a8261080290919063ffffffff16565b60008951111561041557610410898261081390919063ffffffff16565b61043f565b60008767ffffffffffffffff16111561043e5761043d88888361088c9092919063ffffffff16565b5b5b60008651111561045d5761045c868261099c90919063ffffffff16565b5b60008551111561047b5761047a85826109e490919063ffffffff16565b5b61049161048782610a2c565b8585600754610e48565b60038190555060035491505098975050505050505050565b60025481565b600160009054906101000a900473ffffffffffffffffffffffffffffffffffffffff1673ffffffffffffffffffffffffffffffffffffffff163373ffffffffffffffffffffffffffffffffffffffff161461053f576040517f08c379a000000000000000000000000000000000000000000000000000000000815260040161053690612076565b60405180910390fd5b60008060009054906101000a900473ffffffffffffffffffffffffffffffffffffffff169050336000806101000a81548173ffffffffffffffffffffffffffffffffffffffff021916908373ffffffffffffffffffffffffffffffffffffffff1602179055506000600160006101000a81548173ffffffffffffffffffffffffffffffffffffffff021916908373ffffffffffffffffffffffffffffffffffffffff1602179055503373ffffffffffffffffffffffffffffffffffffffff168173ffffffffffffffffffffffffffffffffffffffff167f8be0079c531659141344cd1fd0a4f28419497f9722a3daafe3b4186f6b6457e060405160405180910390a350565b60008060009054906101000a900473ffffffffffffffffffffffffffffffffffffffff16905090565b60035481565b60026000815480929190610686906120c5565b9190505550565b6000610697610772565b6106a5848484600754610e48565b60038190555060035490509392505050565b6106bf610772565b6106c881610f2b565b50565b826003541461071157826040517fd068bf5b0000000000000000000000000000000000000000000000000000000081526004016107089190611e46565b60405180910390fd5b816004908161072091906122b9565b50806005908161073091906122b9565b50827f7873807bf6ddc50401cd3d29bbe0decee23fd4d68d273f4b5eb83cded4d2f1726004600560405161076592919061240f565b60405180910390a2505050565b60008054906101000a900473ffffffffffffffffffffffffffffffffffffffff1673ffffffffffffffffffffffffffffffffffffffff163373ffffffffffffffffffffffffffffffffffffffff1614610800576040517f08c379a00000000000000000000000000000000000000000000000000000000081526004016107f790612492565b60405180910390fd5b565b61080f8260008084611057565b5050565b600081510361084e576040517fe889636f00000000000000000000000000000000000000000000000000000000815260040160405180910390fd5b600182602001906002811115610867576108666124b2565b5b9081600281111561087b5761087a6124b2565b5b815250508082608001819052505050565b6000610899610100611101565b90506108e36040518060400160405280600681526020017f736c6f74494400000000000000000000000000000000000000000000000000008152508261112890919063ffffffff16565b6108f98360ff168261115190919063ffffffff16565b6109416040518060400160405280600781526020017f76657273696f6e000000000000000000000000000000000000000000000000008152508261112890919063ffffffff16565b610954828261115190919063ffffffff16565b60028460200190600281111561096d5761096c6124b2565b5b90816002811115610981576109806124b2565b5b81525050806000015160000151846080018190525050505050565b60008151036109d7576040517ffe936cb700000000000000000000000000000000000000000000000000000000815260040160405180910390fd5b808260a001819052505050565b6000815103610a1f576040517ffe936cb700000000000000000000000000000000000000000000000000000000815260040160405180910390fd5b808260c001819052505050565b60606000610a3b610100611101565b9050610a856040518060400160405280600c81526020017f636f64654c6f636174696f6e00000000000000000000000000000000000000008152508261112890919063ffffffff16565b610aae83600001516002811115610a9f57610a9e6124b2565b5b8261116190919063ffffffff16565b610af66040518060400160405280600881526020017f6c616e67756167650000000000000000000000000000000000000000000000008152508261112890919063ffffffff16565b610b1f83604001516000811115610b1057610b0f6124b2565b5b8261116190919063ffffffff16565b610b676040518060400160405280600681526020017f736f7572636500000000000000000000000000000000000000000000000000008152508261112890919063ffffffff16565b610b7e83606001518261112890919063ffffffff16565b60008360a00151511115610c3a57610bd46040518060400160405280600481526020017f61726773000000000000000000000000000000000000000000000000000000008152508261112890919063ffffffff16565b610bdd816111b1565b60005b8360a0015151811015610c2f57610c1e8460a001518281518110610c0757610c066124e1565b5b60200260200101518361112890919063ffffffff16565b80610c28906120c5565b9050610be0565b50610c39816111d9565b5b60008360800151511115610d7b5760006002811115610c5c57610c5b6124b2565b5b83602001516002811115610c7357610c726124b2565b5b03610caa576040517fa80d31f700000000000000000000000000000000000000000000000000000000815260040160405180910390fd5b610cf26040518060400160405280600f81526020017f736563726574734c6f636174696f6e00000000000000000000000000000000008152508261112890919063ffffffff16565b610d1b83602001516002811115610d0c57610d0b6124b2565b5b8261116190919063ffffffff16565b610d636040518060400160405280600781526020017f73656372657473000000000000000000000000000000000000000000000000008152508261112890919063ffffffff16565b610d7a83608001518261120190919063ffffffff16565b5b60008360c00151511115610e3757610dd16040518060400160405280600981526020017f62797465734172677300000000000000000000000000000000000000000000008152508261112890919063ffffffff16565b610dda816111b1565b60005b8360c0015151811015610e2c57610e1b8460c001518281518110610e0457610e036124e1565b5b60200260200101518361120190919063ffffffff16565b80610e25906120c5565b9050610ddd565b50610e36816111d9565b5b806000015160000151915050919050565b6000807f000000000000000000000000000000000000000000000000000000000000000073ffffffffffffffffffffffffffffffffffffffff1663461d27628688600188886040518663ffffffff1660e01b8152600401610ead95949392919061254b565b6020604051808303816000875af1158015610ecc573d6000803e3d6000fd5b505050506040513d601f19601f82011682018060405250810190610ef091906125ba565b9050807f1131472297a800fee664d1d89cfa8f7676ff07189ecc53f80bbb5f4969099db860405160405180910390a280915050949350505050565b3373ffffffffffffffffffffffffffffffffffffffff168173ffffffffffffffffffffffffffffffffffffffff1603610f99576040517f08c379a0000000000000000000000000000000000000000000000000000000008152600401610f9090612633565b60405180910390fd5b80600160006101000a81548173ffffffffffffffffffffffffffffffffffffffff021916908373ffffffffffffffffffffffffffffffffffffffff1602179055508073ffffffffffffffffffffffffffffffffffffffff1660008054906101000a900473ffffffffffffffffffffffffffffffffffffffff1673ffffffffffffffffffffffffffffffffffffffff167fed8889f560326eb138920d842192f0eb3dd22b4f139c87a2c57538e05bae127860405160405180910390a350565b6000815103611092576040517f22ce3edd00000000000000000000000000000000000000000000000000000000815260040160405180910390fd5b82846000019060028111156110aa576110a96124b2565b5b908160028111156110be576110bd6124b2565b5b8152505081846040019060008111156110da576110d96124b2565b5b908160008111156110ee576110ed6124b2565b5b8152505080846060018190525050505050565b6111096116fe565b61111781600001518361122a565b506000816020018181525050919050565b61113582600383516112a3565b61114c81836000015161144c90919063ffffffff16565b505050565b61115d826000836112a3565b5050565b61118360026005600660ff16901b17836000015161146890919063ffffffff16565b506111ad82826040516020016111999190611e7a565b604051602081830303815290604052611201565b5050565b6111bc8160046114d2565b6001816020018181516111cf9190612653565b9150818152505050565b6111e48160076114d2565b6001816020018181516111f79190612687565b9150818152505050565b61120e82600283516112a3565b61122581836000015161144c90919063ffffffff16565b505050565b61123261171e565b600060208361124191906126ea565b1461126d5760208261125391906126ea565b602061125f9190612687565b8261126a9190612653565b91505b81836020018181525050604051808452600081528281016020018181101561129457600080fd5b80604052505082905092915050565b60178167ffffffffffffffff16116112de576112d88160058460ff16901b60ff1617846000015161146890919063ffffffff16565b50611447565b60ff8167ffffffffffffffff161161133c57611311601860058460ff16901b17846000015161146890919063ffffffff16565b506113368167ffffffffffffffff16600185600001516114f89092919063ffffffff16565b50611446565b61ffff8167ffffffffffffffff161161139b57611370601960058460ff16901b17846000015161146890919063ffffffff16565b506113958167ffffffffffffffff16600285600001516114f89092919063ffffffff16565b50611445565b63ffffffff8167ffffffffffffffff16116113fc576113d1601a60058460ff16901b17846000015161146890919063ffffffff16565b506113f68167ffffffffffffffff16600485600001516114f89092919063ffffffff16565b50611444565b61141d601b60058460ff16901b17846000015161146890919063ffffffff16565b506114428167ffffffffffffffff16600885600001516114f89092919063ffffffff16565b505b5b5b5b505050565b61145461171e565b61146083838451611585565b905092915050565b61147061171e565b6000836000015151905060006001826114899190612653565b9050846020015182106114ad576114ac856002836114a7919061271b565b611668565b5b845160208382010185815381518311156114c5578282525b5050849250505092915050565b6114f3601f60058360ff16901b17836000015161146890919063ffffffff16565b505050565b61150061171e565b60008460000151519050600081846115189190612653565b9050856020015181111561153d5761153c86600283611537919061271b565b611668565b5b600060018561010061154f9190612890565b6115599190612687565b905086518281018783198251161781528151841115611576578382525b50508693505050509392505050565b61158d61171e565b825182111561159b57600080fd5b60008460000151519050600083826115b39190612653565b905085602001518111156115d8576115d7866002836115d2919061271b565b611668565b5b600080875180518560208301019350808511156115f3578482525b60208901925050505b6020861061163a57805182526020826116159190612653565b91506020816116249190612653565b90506020866116339190612687565b95506115fc565b60006001876020036101000a0390508019825116818451168181178552505050879450505050509392505050565b60008260000151905061167b838361122a565b50611686838261144c565b50505050565b6040518060e00160405280600060028111156116ab576116aa6124b2565b5b8152602001600060028111156116c4576116c36124b2565b5b81526020016000808111156116dc576116db6124b2565b5b8152602001606081526020016060815260200160608152602001606081525090565b604051806040016040528061171161171e565b8152602001600081525090565b604051806040016040528060608152602001600081525090565b6000604051905090565b600080fd5b600080fd5b6000819050919050565b61175f8161174c565b811461176a57600080fd5b50565b60008135905061177c81611756565b92915050565b600080fd5b600080fd5b6000601f19601f8301169050919050565b7f4e487b7100000000000000000000000000000000000000000000000000000000600052604160045260246000fd5b6117d58261178c565b810181811067ffffffffffffffff821117156117f4576117f361179d565b5b80604052505050565b6000611807611738565b905061181382826117cc565b919050565b600067ffffffffffffffff8211156118335761183261179d565b5b61183c8261178c565b9050602081019050919050565b82818337600083830152505050565b600061186b61186684611818565b6117fd565b90508281526020810184848401111561188757611886611787565b5b611892848285611849565b509392505050565b600082601f8301126118af576118ae611782565b5b81356118bf848260208601611858565b91505092915050565b6000806000606084860312156118e1576118e0611742565b5b60006118ef8682870161176d565b935050602084013567ffffffffffffffff8111156119105761190f611747565b5b61191c8682870161189a565b925050604084013567ffffffffffffffff81111561193d5761193c611747565b5b6119498682870161189a565b9150509250925092565b600081519050919050565b600082825260208201905092915050565b60005b8381101561198d578082015181840152602081019050611972565b60008484015250505050565b60006119a482611953565b6119ae818561195e565b93506119be81856020860161196f565b6119c78161178c565b840191505092915050565b600060208201905081810360008301526119ec8184611999565b905092915050565b600067ffffffffffffffff821115611a0f57611a0e61179d565b5b611a188261178c565b9050602081019050919050565b6000611a38611a33846119f4565b6117fd565b905082815260208101848484011115611a5457611a53611787565b5b611a5f848285611849565b509392505050565b600082601f830112611a7c57611a7b611782565b5b8135611a8c848260208601611a25565b91505092915050565b600060ff82169050919050565b611aab81611a95565b8114611ab657600080fd5b50565b600081359050611ac881611aa2565b92915050565b600067ffffffffffffffff82169050919050565b611aeb81611ace565b8114611af657600080fd5b50565b600081359050611b0881611ae2565b92915050565b600067ffffffffffffffff821115611b2957611b2861179d565b5b602082029050602081019050919050565b600080fd5b6000611b52611b4d84611b0e565b6117fd565b90508083825260208201905060208402830185811115611b7557611b74611b3a565b5b835b81811015611bbc57803567ffffffffffffffff811115611b9a57611b99611782565b5b808601611ba78982611a67565b85526020850194505050602081019050611b77565b5050509392505050565b600082601f830112611bdb57611bda611782565b5b8135611beb848260208601611b3f565b91505092915050565b600067ffffffffffffffff821115611c0f57611c0e61179d565b5b602082029050602081019050919050565b6000611c33611c2e84611bf4565b6117fd565b90508083825260208201905060208402830185811115611c5657611c55611b3a565b5b835b81811015611c9d57803567ffffffffffffffff811115611c7b57611c7a611782565b5b808601611c88898261189a565b85526020850194505050602081019050611c58565b5050509392505050565b600082601f830112611cbc57611cbb611782565b5b8135611ccc848260208601611c20565b91505092915050565b600063ffffffff82169050919050565b611cee81611cd5565b8114611cf957600080fd5b50565b600081359050611d0b81611ce5565b92915050565b600080600080600080600080610100898b031215611d3257611d31611742565b5b600089013567ffffffffffffffff811115611d5057611d4f611747565b5b611d5c8b828c01611a67565b985050602089013567ffffffffffffffff811115611d7d57611d7c611747565b5b611d898b828c0161189a565b9750506040611d9a8b828c01611ab9565b9650506060611dab8b828c01611af9565b955050608089013567ffffffffffffffff811115611dcc57611dcb611747565b5b611dd88b828c01611bc6565b94505060a089013567ffffffffffffffff811115611df957611df8611747565b5b611e058b828c01611ca7565b93505060c0611e168b828c01611af9565b92505060e0611e278b828c01611cfc565b9150509295985092959890939650565b611e408161174c565b82525050565b6000602082019050611e5b6000830184611e37565b92915050565b6000819050919050565b611e7481611e61565b82525050565b6000602082019050611e8f6000830184611e6b565b92915050565b600073ffffffffffffffffffffffffffffffffffffffff82169050919050565b6000611ec082611e95565b9050919050565b611ed081611eb5565b82525050565b6000602082019050611eeb6000830184611ec7565b92915050565b600080600060608486031215611f0a57611f09611742565b5b600084013567ffffffffffffffff811115611f2857611f27611747565b5b611f348682870161189a565b9350506020611f4586828701611af9565b9250506040611f5686828701611cfc565b9150509250925092565b611f6981611eb5565b8114611f7457600080fd5b50565b600081359050611f8681611f60565b92915050565b600060208284031215611fa257611fa1611742565b5b6000611fb084828501611f77565b91505092915050565b7f4e487b7100000000000000000000000000000000000000000000000000000000600052602260045260246000fd5b6000600282049050600182168061200057607f821691505b60208210810361201357612012611fb9565b5b50919050565b600082825260208201905092915050565b7f4d7573742062652070726f706f736564206f776e657200000000000000000000600082015250565b6000612060601683612019565b915061206b8261202a565b602082019050919050565b6000602082019050818103600083015261208f81612053565b9050919050565b7f4e487b7100000000000000000000000000000000000000000000000000000000600052601160045260246000fd5b60006120d082611e61565b91507fffffffffffffffffffffffffffffffffffffffffffffffffffffffffffffffff820361210257612101612096565b5b600182019050919050565b60008190508160005260206000209050919050565b60006020601f8301049050919050565b600082821b905092915050565b60006008830261216f7fffffffffffffffffffffffffffffffffffffffffffffffffffffffffffffffff82612132565b6121798683612132565b95508019841693508086168417925050509392505050565b6000819050919050565b60006121b66121b16121ac84611e61565b612191565b611e61565b9050919050565b6000819050919050565b6121d08361219b565b6121e46121dc826121bd565b84845461213f565b825550505050565b600090565b6121f96121ec565b6122048184846121c7565b505050565b5b818110156122285761221d6000826121f1565b60018101905061220a565b5050565b601f82111561226d5761223e8161210d565b61224784612122565b81016020851015612256578190505b61226a61226285612122565b830182612209565b50505b505050565b600082821c905092915050565b600061229060001984600802612272565b1980831691505092915050565b60006122a9838361227f565b9150826002028217905092915050565b6122c282611953565b67ffffffffffffffff8111156122db576122da61179d565b5b6122e58254611fe8565b6122f082828561222c565b600060209050601f8311600181146123235760008415612311578287015190505b61231b858261229d565b865550612383565b601f1984166123318661210d565b60005b8281101561235957848901518255600182019150602085019450602081019050612334565b868310156123765784890151612372601f89168261227f565b8355505b6001600288020188555050505b505050505050565b6000815461239881611fe8565b6123a2818661195e565b945060018216600081146123bd57600181146123d357612406565b60ff198316865281151560200286019350612406565b6123dc8561210d565b60005b838110156123fe578154818901526001820191506020810190506123df565b808801955050505b50505092915050565b60006040820190508181036000830152612429818561238b565b9050818103602083015261243d818461238b565b90509392505050565b7f4f6e6c792063616c6c61626c65206279206f776e657200000000000000000000600082015250565b600061247c601683612019565b915061248782612446565b602082019050919050565b600060208201905081810360008301526124ab8161246f565b9050919050565b7f4e487b7100000000000000000000000000000000000000000000000000000000600052602160045260246000fd5b7f4e487b7100000000000000000000000000000000000000000000000000000000600052603260045260246000fd5b61251981611ace565b82525050565b600061ffff82169050919050565b6125368161251f565b82525050565b61254581611cd5565b82525050565b600060a0820190506125606000830188612510565b81810360208301526125728187611999565b9050612581604083018661252d565b61258e606083018561253c565b61259b6080830184611e37565b9695505050505050565b6000815190506125b481611756565b92915050565b6000602082840312156125d0576125cf611742565b5b60006125de848285016125a5565b91505092915050565b7f43616e6e6f74207472616e7366657220746f2073656c66000000000000000000600082015250565b600061261d601783612019565b9150612628826125e7565b602082019050919050565b6000602082019050818103600083015261264c81612610565b9050919050565b600061265e82611e61565b915061266983611e61565b925082820190508082111561268157612680612096565b5b92915050565b600061269282611e61565b915061269d83611e61565b92508282039050818111156126b5576126b4612096565b5b92915050565b7f4e487b7100000000000000000000000000000000000000000000000000000000600052601260045260246000fd5b60006126f582611e61565b915061270083611e61565b9250826127105761270f6126bb565b5b828206905092915050565b600061272682611e61565b915061273183611e61565b925082820261273f81611e61565b9150828204841483151761275657612755612096565b5b5092915050565b60008160011c9050919050565b6000808291508390505b60018511156127b4578086048111156127905761278f612096565b5b600185161561279f5780820291505b80810290506127ad8561275d565b9450612774565b94509492505050565b6000826127cd5760019050612889565b816127db5760009050612889565b81600181146127f157600281146127fb5761282a565b6001915050612889565b60ff84111561280d5761280c612096565b5b8360020a91508482111561282457612823612096565b5b50612889565b5060208310610133831016604e8410600b841016171561285f5782820a90508381111561285a57612859612096565b5b612889565b61286c848484600161276a565b9250905081840481111561288357612882612096565b5b81810290505b9392505050565b600061289b82611e61565b91506128a683611e61565b92506128d37fffffffffffffffffffffffffffffffffffffffffffffffffffffffffffffffff84846127bd565b90509291505056fea2646970667358221220570c23f0ef788f6908525b0d099fab7171fd41db7bdbc3b210b620507f9ef4a564736f6c63430008130033",
					"opcodes": "PUSH1 0xA0 PUSH1 0x40 MSTORE PUSH1 0x0 PUSH1 0x2 SSTORE PUSH20 0xC22A79EBA640940ABB6DF0F7982CC119578E11DE PUSH1 0x6 PUSH1 0x0 PUSH2 0x100 EXP DUP2 SLOAD DUP2 PUSH20 0xFFFFFFFFFFFFFFFFFFFFFFFFFFFFFFFFFFFFFFFF MUL NOT AND SWAP1 DUP4 PUSH20 0xFFFFFFFFFFFFFFFFFFFFFFFFFFFFFFFFFFFFFFFF AND MUL OR SWAP1 SSTORE POP PUSH32 0x66756E2D706F6C79676F6E2D616D6F792D310000000000000000000000000000 PUSH1 0x0 SHL PUSH1 0x7 SSTORE CALLVALUE DUP1 ISZERO PUSH3 0x92 JUMPI PUSH1 0x0 DUP1 REVERT JUMPDEST POP CALLER DUP1 PUSH1 0x0 PUSH1 0x6 PUSH1 0x0 SWAP1 SLOAD SWAP1 PUSH2 0x100 EXP SWAP1 DIV PUSH20 0xFFFFFFFFFFFFFFFFFFFFFFFFFFFFFFFFFFFFFFFF AND DUP1 PUSH20 0xFFFFFFFFFFFFFFFFFFFFFFFFFFFFFFFFFFFFFFFF AND PUSH1 0x80 DUP2 PUSH20 0xFFFFFFFFFFFFFFFFFFFFFFFFFFFFFFFFFFFFFFFF AND DUP2 MSTORE POP POP POP PUSH1 0x0 PUSH20 0xFFFFFFFFFFFFFFFFFFFFFFFFFFFFFFFFFFFFFFFF AND DUP3 PUSH20 0xFFFFFFFFFFFFFFFFFFFFFFFFFFFFFFFFFFFFFFFF AND SUB PUSH3 0x161 JUMPI PUSH1 0x40 MLOAD PUSH32 0x8C379A000000000000000000000000000000000000000000000000000000000 DUP2 MSTORE PUSH1 0x4 ADD PUSH3 0x158 SWAP1 PUSH3 0x381 JUMP JUMPDEST PUSH1 0x40 MLOAD DUP1 SWAP2 SUB SWAP1 REVERT JUMPDEST DUP2 PUSH1 0x0 DUP1 PUSH2 0x100 EXP DUP2 SLOAD DUP2 PUSH20 0xFFFFFFFFFFFFFFFFFFFFFFFFFFFFFFFFFFFFFFFF MUL NOT AND SWAP1 DUP4 PUSH20 0xFFFFFFFFFFFFFFFFFFFFFFFFFFFFFFFFFFFFFFFF AND MUL OR SWAP1 SSTORE POP PUSH1 0x0 PUSH20 0xFFFFFFFFFFFFFFFFFFFFFFFFFFFFFFFFFFFFFFFF AND DUP2 PUSH20 0xFFFFFFFFFFFFFFFFFFFFFFFFFFFFFFFFFFFFFFFF AND EQ PUSH3 0x1E8 JUMPI PUSH3 0x1E7 DUP2 PUSH3 0x1F1 PUSH1 0x20 SHL PUSH1 0x20 SHR JUMP JUMPDEST JUMPDEST POP POP POP PUSH3 0x415 JUMP JUMPDEST CALLER PUSH20 0xFFFFFFFFFFFFFFFFFFFFFFFFFFFFFFFFFFFFFFFF AND DUP2 PUSH20 0xFFFFFFFFFFFFFFFFFFFFFFFFFFFFFFFFFFFFFFFF AND SUB PUSH3 0x262 JUMPI PUSH1 0x40 MLOAD PUSH32 0x8C379A000000000000000000000000000000000000000000000000000000000 DUP2 MSTORE PUSH1 0x4 ADD PUSH3 0x259 SWAP1 PUSH3 0x3F3 JUMP JUMPDEST PUSH1 0x40 MLOAD DUP1 SWAP2 SUB SWAP1 REVERT JUMPDEST DUP1 PUSH1 0x1 PUSH1 0x0 PUSH2 0x100 EXP DUP2 SLOAD DUP2 PUSH20 0xFFFFFFFFFFFFFFFFFFFFFFFFFFFFFFFFFFFFFFFF MUL NOT AND SWAP1 DUP4 PUSH20 0xFFFFFFFFFFFFFFFFFFFFFFFFFFFFFFFFFFFFFFFF AND MUL OR SWAP1 SSTORE POP DUP1 PUSH20 0xFFFFFFFFFFFFFFFFFFFFFFFFFFFFFFFFFFFFFFFF AND PUSH1 0x0 DUP1 SLOAD SWAP1 PUSH2 0x100 EXP SWAP1 DIV PUSH20 0xFFFFFFFFFFFFFFFFFFFFFFFFFFFFFFFFFFFFFFFF AND PUSH20 0xFFFFFFFFFFFFFFFFFFFFFFFFFFFFFFFFFFFFFFFF AND PUSH32 0xED8889F560326EB138920D842192F0EB3DD22B4F139C87A2C57538E05BAE1278 PUSH1 0x40 MLOAD PUSH1 0x40 MLOAD DUP1 SWAP2 SUB SWAP1 LOG3 POP JUMP JUMPDEST PUSH1 0x0 DUP3 DUP3 MSTORE PUSH1 0x20 DUP3 ADD SWAP1 POP SWAP3 SWAP2 POP POP JUMP JUMPDEST PUSH32 0x43616E6E6F7420736574206F776E657220746F207A65726F0000000000000000 PUSH1 0x0 DUP3 ADD MSTORE POP JUMP JUMPDEST PUSH1 0x0 PUSH3 0x369 PUSH1 0x18 DUP4 PUSH3 0x320 JUMP JUMPDEST SWAP2 POP PUSH3 0x376 DUP3 PUSH3 0x331 JUMP JUMPDEST PUSH1 0x20 DUP3 ADD SWAP1 POP SWAP2 SWAP1 POP JUMP JUMPDEST PUSH1 0x0 PUSH1 0x20 DUP3 ADD SWAP1 POP DUP2 DUP2 SUB PUSH1 0x0 DUP4 ADD MSTORE PUSH3 0x39C DUP2 PUSH3 0x35A JUMP JUMPDEST SWAP1 POP SWAP2 SWAP1 POP JUMP JUMPDEST PUSH32 0x43616E6E6F74207472616E7366657220746F2073656C66000000000000000000 PUSH1 0x0 DUP3 ADD MSTORE POP JUMP JUMPDEST PUSH1 0x0 PUSH3 0x3DB PUSH1 0x17 DUP4 PUSH3 0x320 JUMP JUMPDEST SWAP2 POP PUSH3 0x3E8 DUP3 PUSH3 0x3A3 JUMP JUMPDEST PUSH1 0x20 DUP3 ADD SWAP1 POP SWAP2 SWAP1 POP JUMP JUMPDEST PUSH1 0x0 PUSH1 0x20 DUP3 ADD SWAP1 POP DUP2 DUP2 SUB PUSH1 0x0 DUP4 ADD MSTORE PUSH3 0x40E DUP2 PUSH3 0x3CC JUMP JUMPDEST SWAP1 POP SWAP2 SWAP1 POP JUMP JUMPDEST PUSH1 0x80 MLOAD PUSH2 0x2911 PUSH3 0x438 PUSH1 0x0 CODECOPY PUSH1 0x0 DUP2 DUP2 PUSH2 0x1F2 ADD MSTORE PUSH2 0xE4D ADD MSTORE PUSH2 0x2911 PUSH1 0x0 RETURN INVALID PUSH1 0x80 PUSH1 0x40 MSTORE CALLVALUE DUP1 ISZERO PUSH2 0x10 JUMPI PUSH1 0x0 DUP1 REVERT JUMPDEST POP PUSH1 0x4 CALLDATASIZE LT PUSH2 0xA9 JUMPI PUSH1 0x0 CALLDATALOAD PUSH1 0xE0 SHR DUP1 PUSH4 0x79BA5097 GT PUSH2 0x71 JUMPI DUP1 PUSH4 0x79BA5097 EQ PUSH2 0x154 JUMPI DUP1 PUSH4 0x8DA5CB5B EQ PUSH2 0x15E JUMPI DUP1 PUSH4 0xB1E21749 EQ PUSH2 0x17C JUMPI DUP1 PUSH4 0xD09DE08A EQ PUSH2 0x19A JUMPI DUP1 PUSH4 0xD5F226BC EQ PUSH2 0x1A4 JUMPI DUP1 PUSH4 0xF2FDE38B EQ PUSH2 0x1D4 JUMPI PUSH2 0xA9 JUMP JUMPDEST DUP1 PUSH4 0xCA76175 EQ PUSH2 0xAE JUMPI DUP1 PUSH4 0x3944EA3A EQ PUSH2 0xCA JUMPI DUP1 PUSH4 0x4B0795A8 EQ PUSH2 0xE8 JUMPI DUP1 PUSH4 0x4D533AD6 EQ PUSH2 0x106 JUMPI DUP1 PUSH4 0x61BC221A EQ PUSH2 0x136 JUMPI JUMPDEST PUSH1 0x0 DUP1 REVERT JUMPDEST PUSH2 0xC8 PUSH1 0x4 DUP1 CALLDATASIZE SUB DUP2 ADD SWAP1 PUSH2 0xC3 SWAP2 SWAP1 PUSH2 0x18C8 JUMP JUMPDEST PUSH2 0x1F0 JUMP JUMPDEST STOP JUMPDEST PUSH2 0xD2 PUSH2 0x2B2 JUMP JUMPDEST PUSH1 0x40 MLOAD PUSH2 0xDF SWAP2 SWAP1 PUSH2 0x19D2 JUMP JUMPDEST PUSH1 0x40 MLOAD DUP1 SWAP2 SUB SWAP1 RETURN JUMPDEST PUSH2 0xF0 PUSH2 0x340 JUMP JUMPDEST PUSH1 0x40 MLOAD PUSH2 0xFD SWAP2 SWAP1 PUSH2 0x19D2 JUMP JUMPDEST PUSH1 0x40 MLOAD DUP1 SWAP2 SUB SWAP1 RETURN JUMPDEST PUSH2 0x120 PUSH1 0x4 DUP1 CALLDATASIZE SUB DUP2 ADD SWAP1 PUSH2 0x11B SWAP2 SWAP1 PUSH2 0x1D11 JUMP JUMPDEST PUSH2 0x3CE JUMP JUMPDEST PUSH1 0x40 MLOAD PUSH2 0x12D SWAP2 SWAP1 PUSH2 0x1E46 JUMP JUMPDEST PUSH1 0x40 MLOAD DUP1 SWAP2 SUB SWAP1 RETURN JUMPDEST PUSH2 0x13E PUSH2 0x4A9 JUMP JUMPDEST PUSH1 0x40 MLOAD PUSH2 0x14B SWAP2 SWAP1 PUSH2 0x1E7A JUMP JUMPDEST PUSH1 0x40 MLOAD DUP1 SWAP2 SUB SWAP1 RETURN JUMPDEST PUSH2 0x15C PUSH2 0x4AF JUMP JUMPDEST STOP JUMPDEST PUSH2 0x166 PUSH2 0x644 JUMP JUMPDEST PUSH1 0x40 MLOAD PUSH2 0x173 SWAP2 SWAP1 PUSH2 0x1ED6 JUMP JUMPDEST PUSH1 0x40 MLOAD DUP1 SWAP2 SUB SWAP1 RETURN JUMPDEST PUSH2 0x184 PUSH2 0x66D JUMP JUMPDEST PUSH1 0x40 MLOAD PUSH2 0x191 SWAP2 SWAP1 PUSH2 0x1E46 JUMP JUMPDEST PUSH1 0x40 MLOAD DUP1 SWAP2 SUB SWAP1 RETURN JUMPDEST PUSH2 0x1A2 PUSH2 0x673 JUMP JUMPDEST STOP JUMPDEST PUSH2 0x1BE PUSH1 0x4 DUP1 CALLDATASIZE SUB DUP2 ADD SWAP1 PUSH2 0x1B9 SWAP2 SWAP1 PUSH2 0x1EF1 JUMP JUMPDEST PUSH2 0x68D JUMP JUMPDEST PUSH1 0x40 MLOAD PUSH2 0x1CB SWAP2 SWAP1 PUSH2 0x1E46 JUMP JUMPDEST PUSH1 0x40 MLOAD DUP1 SWAP2 SUB SWAP1 RETURN JUMPDEST PUSH2 0x1EE PUSH1 0x4 DUP1 CALLDATASIZE SUB DUP2 ADD SWAP1 PUSH2 0x1E9 SWAP2 SWAP1 PUSH2 0x1F8C JUMP JUMPDEST PUSH2 0x6B7 JUMP JUMPDEST STOP JUMPDEST PUSH32 0x0 PUSH20 0xFFFFFFFFFFFFFFFFFFFFFFFFFFFFFFFFFFFFFFFF AND CALLER PUSH20 0xFFFFFFFFFFFFFFFFFFFFFFFFFFFFFFFFFFFFFFFF AND EQ PUSH2 0x275 JUMPI PUSH1 0x40 MLOAD PUSH32 0xC6829F8300000000000000000000000000000000000000000000000000000000 DUP2 MSTORE PUSH1 0x4 ADD PUSH1 0x40 MLOAD DUP1 SWAP2 SUB SWAP1 REVERT JUMPDEST PUSH2 0x280 DUP4 DUP4 DUP4 PUSH2 0x6CB JUMP JUMPDEST DUP3 PUSH32 0x85E1543BF2F84FE80C6BADBCE3648C8539AD1DF4D2B3D822938CA0538BE727E6 PUSH1 0x40 MLOAD PUSH1 0x40 MLOAD DUP1 SWAP2 SUB SWAP1 LOG2 POP POP POP JUMP JUMPDEST PUSH1 0x4 DUP1 SLOAD PUSH2 0x2BF SWAP1 PUSH2 0x1FE8 JUMP JUMPDEST DUP1 PUSH1 0x1F ADD PUSH1 0x20 DUP1 SWAP2 DIV MUL PUSH1 0x20 ADD PUSH1 0x40 MLOAD SWAP1 DUP2 ADD PUSH1 0x40 MSTORE DUP1 SWAP3 SWAP2 SWAP1 DUP2 DUP2 MSTORE PUSH1 0x20 ADD DUP3 DUP1 SLOAD PUSH2 0x2EB SWAP1 PUSH2 0x1FE8 JUMP JUMPDEST DUP1 ISZERO PUSH2 0x338 JUMPI DUP1 PUSH1 0x1F LT PUSH2 0x30D JUMPI PUSH2 0x100 DUP1 DUP4 SLOAD DIV MUL DUP4 MSTORE SWAP2 PUSH1 0x20 ADD SWAP2 PUSH2 0x338 JUMP JUMPDEST DUP3 ADD SWAP2 SWAP1 PUSH1 0x0 MSTORE PUSH1 0x20 PUSH1 0x0 KECCAK256 SWAP1 JUMPDEST DUP2 SLOAD DUP2 MSTORE SWAP1 PUSH1 0x1 ADD SWAP1 PUSH1 0x20 ADD DUP1 DUP4 GT PUSH2 0x31B JUMPI DUP3 SWAP1 SUB PUSH1 0x1F AND DUP3 ADD SWAP2 JUMPDEST POP POP POP POP POP DUP2 JUMP JUMPDEST PUSH1 0x5 DUP1 SLOAD PUSH2 0x34D SWAP1 PUSH2 0x1FE8 JUMP JUMPDEST DUP1 PUSH1 0x1F ADD PUSH1 0x20 DUP1 SWAP2 DIV MUL PUSH1 0x20 ADD PUSH1 0x40 MLOAD SWAP1 DUP2 ADD PUSH1 0x40 MSTORE DUP1 SWAP3 SWAP2 SWAP1 DUP2 DUP2 MSTORE PUSH1 0x20 ADD DUP3 DUP1 SLOAD PUSH2 0x379 SWAP1 PUSH2 0x1FE8 JUMP JUMPDEST DUP1 ISZERO PUSH2 0x3C6 JUMPI DUP1 PUSH1 0x1F LT PUSH2 0x39B JUMPI PUSH2 0x100 DUP1 DUP4 SLOAD DIV MUL DUP4 MSTORE SWAP2 PUSH1 0x20 ADD SWAP2 PUSH2 0x3C6 JUMP JUMPDEST DUP3 ADD SWAP2 SWAP1 PUSH1 0x0 MSTORE PUSH1 0x20 PUSH1 0x0 KECCAK256 SWAP1 JUMPDEST DUP2 SLOAD DUP2 MSTORE SWAP1 PUSH1 0x1 ADD SWAP1 PUSH1 0x20 ADD DUP1 DUP4 GT PUSH2 0x3A9 JUMPI DUP3 SWAP1 SUB PUSH1 0x1F AND DUP3 ADD SWAP2 JUMPDEST POP POP POP POP POP DUP2 JUMP JUMPDEST PUSH1 0x0 PUSH2 0x3D8 PUSH2 0x772 JUMP JUMPDEST PUSH2 0x3E0 PUSH2 0x168C JUMP JUMPDEST PUSH2 0x3F3 DUP11 DUP3 PUSH2 0x802 SWAP1 SWAP2 SWAP1 PUSH4 0xFFFFFFFF AND JUMP JUMPDEST PUSH1 0x0 DUP10 MLOAD GT ISZERO PUSH2 0x415 JUMPI PUSH2 0x410 DUP10 DUP3 PUSH2 0x813 SWAP1 SWAP2 SWAP1 PUSH4 0xFFFFFFFF AND JUMP JUMPDEST PUSH2 0x43F JUMP JUMPDEST PUSH1 0x0 DUP8 PUSH8 0xFFFFFFFFFFFFFFFF AND GT ISZERO PUSH2 0x43E JUMPI PUSH2 0x43D DUP9 DUP9 DUP4 PUSH2 0x88C SWAP1 SWAP3 SWAP2 SWAP1 PUSH4 0xFFFFFFFF AND JUMP JUMPDEST JUMPDEST JUMPDEST PUSH1 0x0 DUP7 MLOAD GT ISZERO PUSH2 0x45D JUMPI PUSH2 0x45C DUP7 DUP3 PUSH2 0x99C SWAP1 SWAP2 SWAP1 PUSH4 0xFFFFFFFF AND JUMP JUMPDEST JUMPDEST PUSH1 0x0 DUP6 MLOAD GT ISZERO PUSH2 0x47B JUMPI PUSH2 0x47A DUP6 DUP3 PUSH2 0x9E4 SWAP1 SWAP2 SWAP1 PUSH4 0xFFFFFFFF AND JUMP JUMPDEST JUMPDEST PUSH2 0x491 PUSH2 0x487 DUP3 PUSH2 0xA2C JUMP JUMPDEST DUP6 DUP6 PUSH1 0x7 SLOAD PUSH2 0xE48 JUMP JUMPDEST PUSH1 0x3 DUP2 SWAP1 SSTORE POP PUSH1 0x3 SLOAD SWAP2 POP POP SWAP9 SWAP8 POP POP POP POP POP POP POP POP JUMP JUMPDEST PUSH1 0x2 SLOAD DUP2 JUMP JUMPDEST PUSH1 0x1 PUSH1 0x0 SWAP1 SLOAD SWAP1 PUSH2 0x100 EXP SWAP1 DIV PUSH20 0xFFFFFFFFFFFFFFFFFFFFFFFFFFFFFFFFFFFFFFFF AND PUSH20 0xFFFFFFFFFFFFFFFFFFFFFFFFFFFFFFFFFFFFFFFF AND CALLER PUSH20 0xFFFFFFFFFFFFFFFFFFFFFFFFFFFFFFFFFFFFFFFF AND EQ PUSH2 0x53F JUMPI PUSH1 0x40 MLOAD PUSH32 0x8C379A000000000000000000000000000000000000000000000000000000000 DUP2 MSTORE PUSH1 0x4 ADD PUSH2 0x536 SWAP1 PUSH2 0x2076 JUMP JUMPDEST PUSH1 0x40 MLOAD DUP1 SWAP2 SUB SWAP1 REVERT JUMPDEST PUSH1 0x0 DUP1 PUSH1 0x0 SWAP1 SLOAD SWAP1 PUSH2 0x100 EXP SWAP1 DIV PUSH20 0xFFFFFFFFFFFFFFFFFFFFFFFFFFFFFFFFFFFFFFFF AND SWAP1 POP CALLER PUSH1 0x0 DUP1 PUSH2 0x100 EXP DUP2 SLOAD DUP2 PUSH20 0xFFFFFFFFFFFFFFFFFFFFFFFFFFFFFFFFFFFFFFFF MUL NOT AND SWAP1 DUP4 PUSH20 0xFFFFFFFFFFFFFFFFFFFFFFFFFFFFFFFFFFFFFFFF AND MUL OR SWAP1 SSTORE POP PUSH1 0x0 PUSH1 0x1 PUSH1 0x0 PUSH2 0x100 EXP DUP2 SLOAD DUP2 PUSH20 0xFFFFFFFFFFFFFFFFFFFFFFFFFFFFFFFFFFFFFFFF MUL NOT AND SWAP1 DUP4 PUSH20 0xFFFFFFFFFFFFFFFFFFFFFFFFFFFFFFFFFFFFFFFF AND MUL OR SWAP1 SSTORE POP CALLER PUSH20 0xFFFFFFFFFFFFFFFFFFFFFFFFFFFFFFFFFFFFFFFF AND DUP2 PUSH20 0xFFFFFFFFFFFFFFFFFFFFFFFFFFFFFFFFFFFFFFFF AND PUSH32 0x8BE0079C531659141344CD1FD0A4F28419497F9722A3DAAFE3B4186F6B6457E0 PUSH1 0x40 MLOAD PUSH1 0x40 MLOAD DUP1 SWAP2 SUB SWAP1 LOG3 POP JUMP JUMPDEST PUSH1 0x0 DUP1 PUSH1 0x0 SWAP1 SLOAD SWAP1 PUSH2 0x100 EXP SWAP1 DIV PUSH20 0xFFFFFFFFFFFFFFFFFFFFFFFFFFFFFFFFFFFFFFFF AND SWAP1 POP SWAP1 JUMP JUMPDEST PUSH1 0x3 SLOAD DUP2 JUMP JUMPDEST PUSH1 0x2 PUSH1 0x0 DUP2 SLOAD DUP1 SWAP3 SWAP2 SWAP1 PUSH2 0x686 SWAP1 PUSH2 0x20C5 JUMP JUMPDEST SWAP2 SWAP1 POP SSTORE POP JUMP JUMPDEST PUSH1 0x0 PUSH2 0x697 PUSH2 0x772 JUMP JUMPDEST PUSH2 0x6A5 DUP5 DUP5 DUP5 PUSH1 0x7 SLOAD PUSH2 0xE48 JUMP JUMPDEST PUSH1 0x3 DUP2 SWAP1 SSTORE POP PUSH1 0x3 SLOAD SWAP1 POP SWAP4 SWAP3 POP POP POP JUMP JUMPDEST PUSH2 0x6BF PUSH2 0x772 JUMP JUMPDEST PUSH2 0x6C8 DUP2 PUSH2 0xF2B JUMP JUMPDEST POP JUMP JUMPDEST DUP3 PUSH1 0x3 SLOAD EQ PUSH2 0x711 JUMPI DUP3 PUSH1 0x40 MLOAD PUSH32 0xD068BF5B00000000000000000000000000000000000000000000000000000000 DUP2 MSTORE PUSH1 0x4 ADD PUSH2 0x708 SWAP2 SWAP1 PUSH2 0x1E46 JUMP JUMPDEST PUSH1 0x40 MLOAD DUP1 SWAP2 SUB SWAP1 REVERT JUMPDEST DUP2 PUSH1 0x4 SWAP1 DUP2 PUSH2 0x720 SWAP2 SWAP1 PUSH2 0x22B9 JUMP JUMPDEST POP DUP1 PUSH1 0x5 SWAP1 DUP2 PUSH2 0x730 SWAP2 SWAP1 PUSH2 0x22B9 JUMP JUMPDEST POP DUP3 PUSH32 0x7873807BF6DDC50401CD3D29BBE0DECEE23FD4D68D273F4B5EB83CDED4D2F172 PUSH1 0x4 PUSH1 0x5 PUSH1 0x40 MLOAD PUSH2 0x765 SWAP3 SWAP2 SWAP1 PUSH2 0x240F JUMP JUMPDEST PUSH1 0x40 MLOAD DUP1 SWAP2 SUB SWAP1 LOG2 POP POP POP JUMP JUMPDEST PUSH1 0x0 DUP1 SLOAD SWAP1 PUSH2 0x100 EXP SWAP1 DIV PUSH20 0xFFFFFFFFFFFFFFFFFFFFFFFFFFFFFFFFFFFFFFFF AND PUSH20 0xFFFFFFFFFFFFFFFFFFFFFFFFFFFFFFFFFFFFFFFF AND CALLER PUSH20 0xFFFFFFFFFFFFFFFFFFFFFFFFFFFFFFFFFFFFFFFF AND EQ PUSH2 0x800 JUMPI PUSH1 0x40 MLOAD PUSH32 0x8C379A000000000000000000000000000000000000000000000000000000000 DUP2 MSTORE PUSH1 0x4 ADD PUSH2 0x7F7 SWAP1 PUSH2 0x2492 JUMP JUMPDEST PUSH1 0x40 MLOAD DUP1 SWAP2 SUB SWAP1 REVERT JUMPDEST JUMP JUMPDEST PUSH2 0x80F DUP3 PUSH1 0x0 DUP1 DUP5 PUSH2 0x1057 JUMP JUMPDEST POP POP JUMP JUMPDEST PUSH1 0x0 DUP2 MLOAD SUB PUSH2 0x84E JUMPI PUSH1 0x40 MLOAD PUSH32 0xE889636F00000000000000000000000000000000000000000000000000000000 DUP2 MSTORE PUSH1 0x4 ADD PUSH1 0x40 MLOAD DUP1 SWAP2 SUB SWAP1 REVERT JUMPDEST PUSH1 0x1 DUP3 PUSH1 0x20 ADD SWAP1 PUSH1 0x2 DUP2 GT ISZERO PUSH2 0x867 JUMPI PUSH2 0x866 PUSH2 0x24B2 JUMP JUMPDEST JUMPDEST SWAP1 DUP2 PUSH1 0x2 DUP2 GT ISZERO PUSH2 0x87B JUMPI PUSH2 0x87A PUSH2 0x24B2 JUMP JUMPDEST JUMPDEST DUP2 MSTORE POP POP DUP1 DUP3 PUSH1 0x80 ADD DUP2 SWAP1 MSTORE POP POP POP JUMP JUMPDEST PUSH1 0x0 PUSH2 0x899 PUSH2 0x100 PUSH2 0x1101 JUMP JUMPDEST SWAP1 POP PUSH2 0x8E3 PUSH1 0x40 MLOAD DUP1 PUSH1 0x40 ADD PUSH1 0x40 MSTORE DUP1 PUSH1 0x6 DUP2 MSTORE PUSH1 0x20 ADD PUSH32 0x736C6F7449440000000000000000000000000000000000000000000000000000 DUP2 MSTORE POP DUP3 PUSH2 0x1128 SWAP1 SWAP2 SWAP1 PUSH4 0xFFFFFFFF AND JUMP JUMPDEST PUSH2 0x8F9 DUP4 PUSH1 0xFF AND DUP3 PUSH2 0x1151 SWAP1 SWAP2 SWAP1 PUSH4 0xFFFFFFFF AND JUMP JUMPDEST PUSH2 0x941 PUSH1 0x40 MLOAD DUP1 PUSH1 0x40 ADD PUSH1 0x40 MSTORE DUP1 PUSH1 0x7 DUP2 MSTORE PUSH1 0x20 ADD PUSH32 0x76657273696F6E00000000000000000000000000000000000000000000000000 DUP2 MSTORE POP DUP3 PUSH2 0x1128 SWAP1 SWAP2 SWAP1 PUSH4 0xFFFFFFFF AND JUMP JUMPDEST PUSH2 0x954 DUP3 DUP3 PUSH2 0x1151 SWAP1 SWAP2 SWAP1 PUSH4 0xFFFFFFFF AND JUMP JUMPDEST PUSH1 0x2 DUP5 PUSH1 0x20 ADD SWAP1 PUSH1 0x2 DUP2 GT ISZERO PUSH2 0x96D JUMPI PUSH2 0x96C PUSH2 0x24B2 JUMP JUMPDEST JUMPDEST SWAP1 DUP2 PUSH1 0x2 DUP2 GT ISZERO PUSH2 0x981 JUMPI PUSH2 0x980 PUSH2 0x24B2 JUMP JUMPDEST JUMPDEST DUP2 MSTORE POP POP DUP1 PUSH1 0x0 ADD MLOAD PUSH1 0x0 ADD MLOAD DUP5 PUSH1 0x80 ADD DUP2 SWAP1 MSTORE POP POP POP POP POP JUMP JUMPDEST PUSH1 0x0 DUP2 MLOAD SUB PUSH2 0x9D7 JUMPI PUSH1 0x40 MLOAD PUSH32 0xFE936CB700000000000000000000000000000000000000000000000000000000 DUP2 MSTORE PUSH1 0x4 ADD PUSH1 0x40 MLOAD DUP1 SWAP2 SUB SWAP1 REVERT JUMPDEST DUP1 DUP3 PUSH1 0xA0 ADD DUP2 SWAP1 MSTORE POP POP POP JUMP JUMPDEST PUSH1 0x0 DUP2 MLOAD SUB PUSH2 0xA1F JUMPI PUSH1 0x40 MLOAD PUSH32 0xFE936CB700000000000000000000000000000000000000000000000000000000 DUP2 MSTORE PUSH1 0x4 ADD PUSH1 0x40 MLOAD DUP1 SWAP2 SUB SWAP1 REVERT JUMPDEST DUP1 DUP3 PUSH1 0xC0 ADD DUP2 SWAP1 MSTORE POP POP POP JUMP JUMPDEST PUSH1 0x60 PUSH1 0x0 PUSH2 0xA3B PUSH2 0x100 PUSH2 0x1101 JUMP JUMPDEST SWAP1 POP PUSH2 0xA85 PUSH1 0x40 MLOAD DUP1 PUSH1 0x40 ADD PUSH1 0x40 MSTORE DUP1 PUSH1 0xC DUP2 MSTORE PUSH1 0x20 ADD PUSH32 0x636F64654C6F636174696F6E0000000000000000000000000000000000000000 DUP2 MSTORE POP DUP3 PUSH2 0x1128 SWAP1 SWAP2 SWAP1 PUSH4 0xFFFFFFFF AND JUMP JUMPDEST PUSH2 0xAAE DUP4 PUSH1 0x0 ADD MLOAD PUSH1 0x2 DUP2 GT ISZERO PUSH2 0xA9F JUMPI PUSH2 0xA9E PUSH2 0x24B2 JUMP JUMPDEST JUMPDEST DUP3 PUSH2 0x1161 SWAP1 SWAP2 SWAP1 PUSH4 0xFFFFFFFF AND JUMP JUMPDEST PUSH2 0xAF6 PUSH1 0x40 MLOAD DUP1 PUSH1 0x40 ADD PUSH1 0x40 MSTORE DUP1 PUSH1 0x8 DUP2 MSTORE PUSH1 0x20 ADD PUSH32 0x6C616E6775616765000000000000000000000000000000000000000000000000 DUP2 MSTORE POP DUP3 PUSH2 0x1128 SWAP1 SWAP2 SWAP1 PUSH4 0xFFFFFFFF AND JUMP JUMPDEST PUSH2 0xB1F DUP4 PUSH1 0x40 ADD MLOAD PUSH1 0x0 DUP2 GT ISZERO PUSH2 0xB10 JUMPI PUSH2 0xB0F PUSH2 0x24B2 JUMP JUMPDEST JUMPDEST DUP3 PUSH2 0x1161 SWAP1 SWAP2 SWAP1 PUSH4 0xFFFFFFFF AND JUMP JUMPDEST PUSH2 0xB67 PUSH1 0x40 MLOAD DUP1 PUSH1 0x40 ADD PUSH1 0x40 MSTORE DUP1 PUSH1 0x6 DUP2 MSTORE PUSH1 0x20 ADD PUSH32 0x736F757263650000000000000000000000000000000000000000000000000000 DUP2 MSTORE POP DUP3 PUSH2 0x1128 SWAP1 SWAP2 SWAP1 PUSH4 0xFFFFFFFF AND JUMP JUMPDEST PUSH2 0xB7E DUP4 PUSH1 0x60 ADD MLOAD DUP3 PUSH2 0x1128 SWAP1 SWAP2 SWAP1 PUSH4 0xFFFFFFFF AND JUMP JUMPDEST PUSH1 0x0 DUP4 PUSH1 0xA0 ADD MLOAD MLOAD GT ISZERO PUSH2 0xC3A JUMPI PUSH2 0xBD4 PUSH1 0x40 MLOAD DUP1 PUSH1 0x40 ADD PUSH1 0x40 MSTORE DUP1 PUSH1 0x4 DUP2 MSTORE PUSH1 0x20 ADD PUSH32 0x6172677300000000000000000000000000000000000000000000000000000000 DUP2 MSTORE POP DUP3 PUSH2 0x1128 SWAP1 SWAP2 SWAP1 PUSH4 0xFFFFFFFF AND JUMP JUMPDEST PUSH2 0xBDD DUP2 PUSH2 0x11B1 JUMP JUMPDEST PUSH1 0x0 JUMPDEST DUP4 PUSH1 0xA0 ADD MLOAD MLOAD DUP2 LT ISZERO PUSH2 0xC2F JUMPI PUSH2 0xC1E DUP5 PUSH1 0xA0 ADD MLOAD DUP3 DUP2 MLOAD DUP2 LT PUSH2 0xC07 JUMPI PUSH2 0xC06 PUSH2 0x24E1 JUMP JUMPDEST JUMPDEST PUSH1 0x20 MUL PUSH1 0x20 ADD ADD MLOAD DUP4 PUSH2 0x1128 SWAP1 SWAP2 SWAP1 PUSH4 0xFFFFFFFF AND JUMP JUMPDEST DUP1 PUSH2 0xC28 SWAP1 PUSH2 0x20C5 JUMP JUMPDEST SWAP1 POP PUSH2 0xBE0 JUMP JUMPDEST POP PUSH2 0xC39 DUP2 PUSH2 0x11D9 JUMP JUMPDEST JUMPDEST PUSH1 0x0 DUP4 PUSH1 0x80 ADD MLOAD MLOAD GT ISZERO PUSH2 0xD7B JUMPI PUSH1 0x0 PUSH1 0x2 DUP2 GT ISZERO PUSH2 0xC5C JUMPI PUSH2 0xC5B PUSH2 0x24B2 JUMP JUMPDEST JUMPDEST DUP4 PUSH1 0x20 ADD MLOAD PUSH1 0x2 DUP2 GT ISZERO PUSH2 0xC73 JUMPI PUSH2 0xC72 PUSH2 0x24B2 JUMP JUMPDEST JUMPDEST SUB PUSH2 0xCAA JUMPI PUSH1 0x40 MLOAD PUSH32 0xA80D31F700000000000000000000000000000000000000000000000000000000 DUP2 MSTORE PUSH1 0x4 ADD PUSH1 0x40 MLOAD DUP1 SWAP2 SUB SWAP1 REVERT JUMPDEST PUSH2 0xCF2 PUSH1 0x40 MLOAD DUP1 PUSH1 0x40 ADD PUSH1 0x40 MSTORE DUP1 PUSH1 0xF DUP2 MSTORE PUSH1 0x20 ADD PUSH32 0x736563726574734C6F636174696F6E0000000000000000000000000000000000 DUP2 MSTORE POP DUP3 PUSH2 0x1128 SWAP1 SWAP2 SWAP1 PUSH4 0xFFFFFFFF AND JUMP JUMPDEST PUSH2 0xD1B DUP4 PUSH1 0x20 ADD MLOAD PUSH1 0x2 DUP2 GT ISZERO PUSH2 0xD0C JUMPI PUSH2 0xD0B PUSH2 0x24B2 JUMP JUMPDEST JUMPDEST DUP3 PUSH2 0x1161 SWAP1 SWAP2 SWAP1 PUSH4 0xFFFFFFFF AND JUMP JUMPDEST PUSH2 0xD63 PUSH1 0x40 MLOAD DUP1 PUSH1 0x40 ADD PUSH1 0x40 MSTORE DUP1 PUSH1 0x7 DUP2 MSTORE PUSH1 0x20 ADD PUSH32 0x7365637265747300000000000000000000000000000000000000000000000000 DUP2 MSTORE POP DUP3 PUSH2 0x1128 SWAP1 SWAP2 SWAP1 PUSH4 0xFFFFFFFF AND JUMP JUMPDEST PUSH2 0xD7A DUP4 PUSH1 0x80 ADD MLOAD DUP3 PUSH2 0x1201 SWAP1 SWAP2 SWAP1 PUSH4 0xFFFFFFFF AND JUMP JUMPDEST JUMPDEST PUSH1 0x0 DUP4 PUSH1 0xC0 ADD MLOAD MLOAD GT ISZERO PUSH2 0xE37 JUMPI PUSH2 0xDD1 PUSH1 0x40 MLOAD DUP1 PUSH1 0x40 ADD PUSH1 0x40 MSTORE DUP1 PUSH1 0x9 DUP2 MSTORE PUSH1 0x20 ADD PUSH32 0x6279746573417267730000000000000000000000000000000000000000000000 DUP2 MSTORE POP DUP3 PUSH2 0x1128 SWAP1 SWAP2 SWAP1 PUSH4 0xFFFFFFFF AND JUMP JUMPDEST PUSH2 0xDDA DUP2 PUSH2 0x11B1 JUMP JUMPDEST PUSH1 0x0 JUMPDEST DUP4 PUSH1 0xC0 ADD MLOAD MLOAD DUP2 LT ISZERO PUSH2 0xE2C JUMPI PUSH2 0xE1B DUP5 PUSH1 0xC0 ADD MLOAD DUP3 DUP2 MLOAD DUP2 LT PUSH2 0xE04 JUMPI PUSH2 0xE03 PUSH2 0x24E1 JUMP JUMPDEST JUMPDEST PUSH1 0x20 MUL PUSH1 0x20 ADD ADD MLOAD DUP4 PUSH2 0x1201 SWAP1 SWAP2 SWAP1 PUSH4 0xFFFFFFFF AND JUMP JUMPDEST DUP1 PUSH2 0xE25 SWAP1 PUSH2 0x20C5 JUMP JUMPDEST SWAP1 POP PUSH2 0xDDD JUMP JUMPDEST POP PUSH2 0xE36 DUP2 PUSH2 0x11D9 JUMP JUMPDEST JUMPDEST DUP1 PUSH1 0x0 ADD MLOAD PUSH1 0x0 ADD MLOAD SWAP2 POP POP SWAP2 SWAP1 POP JUMP JUMPDEST PUSH1 0x0 DUP1 PUSH32 0x0 PUSH20 0xFFFFFFFFFFFFFFFFFFFFFFFFFFFFFFFFFFFFFFFF AND PUSH4 0x461D2762 DUP7 DUP9 PUSH1 0x1 DUP9 DUP9 PUSH1 0x40 MLOAD DUP7 PUSH4 0xFFFFFFFF AND PUSH1 0xE0 SHL DUP2 MSTORE PUSH1 0x4 ADD PUSH2 0xEAD SWAP6 SWAP5 SWAP4 SWAP3 SWAP2 SWAP1 PUSH2 0x254B JUMP JUMPDEST PUSH1 0x20 PUSH1 0x40 MLOAD DUP1 DUP4 SUB DUP2 PUSH1 0x0 DUP8 GAS CALL ISZERO DUP1 ISZERO PUSH2 0xECC JUMPI RETURNDATASIZE PUSH1 0x0 DUP1 RETURNDATACOPY RETURNDATASIZE PUSH1 0x0 REVERT JUMPDEST POP POP POP POP PUSH1 0x40 MLOAD RETURNDATASIZE PUSH1 0x1F NOT PUSH1 0x1F DUP3 ADD AND DUP3 ADD DUP1 PUSH1 0x40 MSTORE POP DUP2 ADD SWAP1 PUSH2 0xEF0 SWAP2 SWAP1 PUSH2 0x25BA JUMP JUMPDEST SWAP1 POP DUP1 PUSH32 0x1131472297A800FEE664D1D89CFA8F7676FF07189ECC53F80BBB5F4969099DB8 PUSH1 0x40 MLOAD PUSH1 0x40 MLOAD DUP1 SWAP2 SUB SWAP1 LOG2 DUP1 SWAP2 POP POP SWAP5 SWAP4 POP POP POP POP JUMP JUMPDEST CALLER PUSH20 0xFFFFFFFFFFFFFFFFFFFFFFFFFFFFFFFFFFFFFFFF AND DUP2 PUSH20 0xFFFFFFFFFFFFFFFFFFFFFFFFFFFFFFFFFFFFFFFF AND SUB PUSH2 0xF99 JUMPI PUSH1 0x40 MLOAD PUSH32 0x8C379A000000000000000000000000000000000000000000000000000000000 DUP2 MSTORE PUSH1 0x4 ADD PUSH2 0xF90 SWAP1 PUSH2 0x2633 JUMP JUMPDEST PUSH1 0x40 MLOAD DUP1 SWAP2 SUB SWAP1 REVERT JUMPDEST DUP1 PUSH1 0x1 PUSH1 0x0 PUSH2 0x100 EXP DUP2 SLOAD DUP2 PUSH20 0xFFFFFFFFFFFFFFFFFFFFFFFFFFFFFFFFFFFFFFFF MUL NOT AND SWAP1 DUP4 PUSH20 0xFFFFFFFFFFFFFFFFFFFFFFFFFFFFFFFFFFFFFFFF AND MUL OR SWAP1 SSTORE POP DUP1 PUSH20 0xFFFFFFFFFFFFFFFFFFFFFFFFFFFFFFFFFFFFFFFF AND PUSH1 0x0 DUP1 SLOAD SWAP1 PUSH2 0x100 EXP SWAP1 DIV PUSH20 0xFFFFFFFFFFFFFFFFFFFFFFFFFFFFFFFFFFFFFFFF AND PUSH20 0xFFFFFFFFFFFFFFFFFFFFFFFFFFFFFFFFFFFFFFFF AND PUSH32 0xED8889F560326EB138920D842192F0EB3DD22B4F139C87A2C57538E05BAE1278 PUSH1 0x40 MLOAD PUSH1 0x40 MLOAD DUP1 SWAP2 SUB SWAP1 LOG3 POP JUMP JUMPDEST PUSH1 0x0 DUP2 MLOAD SUB PUSH2 0x1092 JUMPI PUSH1 0x40 MLOAD PUSH32 0x22CE3EDD00000000000000000000000000000000000000000000000000000000 DUP2 MSTORE PUSH1 0x4 ADD PUSH1 0x40 MLOAD DUP1 SWAP2 SUB SWAP1 REVERT JUMPDEST DUP3 DUP5 PUSH1 0x0 ADD SWAP1 PUSH1 0x2 DUP2 GT ISZERO PUSH2 0x10AA JUMPI PUSH2 0x10A9 PUSH2 0x24B2 JUMP JUMPDEST JUMPDEST SWAP1 DUP2 PUSH1 0x2 DUP2 GT ISZERO PUSH2 0x10BE JUMPI PUSH2 0x10BD PUSH2 0x24B2 JUMP JUMPDEST JUMPDEST DUP2 MSTORE POP POP DUP2 DUP5 PUSH1 0x40 ADD SWAP1 PUSH1 0x0 DUP2 GT ISZERO PUSH2 0x10DA JUMPI PUSH2 0x10D9 PUSH2 0x24B2 JUMP JUMPDEST JUMPDEST SWAP1 DUP2 PUSH1 0x0 DUP2 GT ISZERO PUSH2 0x10EE JUMPI PUSH2 0x10ED PUSH2 0x24B2 JUMP JUMPDEST JUMPDEST DUP2 MSTORE POP POP DUP1 DUP5 PUSH1 0x60 ADD DUP2 SWAP1 MSTORE POP POP POP POP POP JUMP JUMPDEST PUSH2 0x1109 PUSH2 0x16FE JUMP JUMPDEST PUSH2 0x1117 DUP2 PUSH1 0x0 ADD MLOAD DUP4 PUSH2 0x122A JUMP JUMPDEST POP PUSH1 0x0 DUP2 PUSH1 0x20 ADD DUP2 DUP2 MSTORE POP POP SWAP2 SWAP1 POP JUMP JUMPDEST PUSH2 0x1135 DUP3 PUSH1 0x3 DUP4 MLOAD PUSH2 0x12A3 JUMP JUMPDEST PUSH2 0x114C DUP2 DUP4 PUSH1 0x0 ADD MLOAD PUSH2 0x144C SWAP1 SWAP2 SWAP1 PUSH4 0xFFFFFFFF AND JUMP JUMPDEST POP POP POP JUMP JUMPDEST PUSH2 0x115D DUP3 PUSH1 0x0 DUP4 PUSH2 0x12A3 JUMP JUMPDEST POP POP JUMP JUMPDEST PUSH2 0x1183 PUSH1 0x2 PUSH1 0x5 PUSH1 0x6 PUSH1 0xFF AND SWAP1 SHL OR DUP4 PUSH1 0x0 ADD MLOAD PUSH2 0x1468 SWAP1 SWAP2 SWAP1 PUSH4 0xFFFFFFFF AND JUMP JUMPDEST POP PUSH2 0x11AD DUP3 DUP3 PUSH1 0x40 MLOAD PUSH1 0x20 ADD PUSH2 0x1199 SWAP2 SWAP1 PUSH2 0x1E7A JUMP JUMPDEST PUSH1 0x40 MLOAD PUSH1 0x20 DUP2 DUP4 SUB SUB DUP2 MSTORE SWAP1 PUSH1 0x40 MSTORE PUSH2 0x1201 JUMP JUMPDEST POP POP JUMP JUMPDEST PUSH2 0x11BC DUP2 PUSH1 0x4 PUSH2 0x14D2 JUMP JUMPDEST PUSH1 0x1 DUP2 PUSH1 0x20 ADD DUP2 DUP2 MLOAD PUSH2 0x11CF SWAP2 SWAP1 PUSH2 0x2653 JUMP JUMPDEST SWAP2 POP DUP2 DUP2 MSTORE POP POP POP JUMP JUMPDEST PUSH2 0x11E4 DUP2 PUSH1 0x7 PUSH2 0x14D2 JUMP JUMPDEST PUSH1 0x1 DUP2 PUSH1 0x20 ADD DUP2 DUP2 MLOAD PUSH2 0x11F7 SWAP2 SWAP1 PUSH2 0x2687 JUMP JUMPDEST SWAP2 POP DUP2 DUP2 MSTORE POP POP POP JUMP JUMPDEST PUSH2 0x120E DUP3 PUSH1 0x2 DUP4 MLOAD PUSH2 0x12A3 JUMP JUMPDEST PUSH2 0x1225 DUP2 DUP4 PUSH1 0x0 ADD MLOAD PUSH2 0x144C SWAP1 SWAP2 SWAP1 PUSH4 0xFFFFFFFF AND JUMP JUMPDEST POP POP POP JUMP JUMPDEST PUSH2 0x1232 PUSH2 0x171E JUMP JUMPDEST PUSH1 0x0 PUSH1 0x20 DUP4 PUSH2 0x1241 SWAP2 SWAP1 PUSH2 0x26EA JUMP JUMPDEST EQ PUSH2 0x126D JUMPI PUSH1 0x20 DUP3 PUSH2 0x1253 SWAP2 SWAP1 PUSH2 0x26EA JUMP JUMPDEST PUSH1 0x20 PUSH2 0x125F SWAP2 SWAP1 PUSH2 0x2687 JUMP JUMPDEST DUP3 PUSH2 0x126A SWAP2 SWAP1 PUSH2 0x2653 JUMP JUMPDEST SWAP2 POP JUMPDEST DUP2 DUP4 PUSH1 0x20 ADD DUP2 DUP2 MSTORE POP POP PUSH1 0x40 MLOAD DUP1 DUP5 MSTORE PUSH1 0x0 DUP2 MSTORE DUP3 DUP2 ADD PUSH1 0x20 ADD DUP2 DUP2 LT ISZERO PUSH2 0x1294 JUMPI PUSH1 0x0 DUP1 REVERT JUMPDEST DUP1 PUSH1 0x40 MSTORE POP POP DUP3 SWAP1 POP SWAP3 SWAP2 POP POP JUMP JUMPDEST PUSH1 0x17 DUP2 PUSH8 0xFFFFFFFFFFFFFFFF AND GT PUSH2 0x12DE JUMPI PUSH2 0x12D8 DUP2 PUSH1 0x5 DUP5 PUSH1 0xFF AND SWAP1 SHL PUSH1 0xFF AND OR DUP5 PUSH1 0x0 ADD MLOAD PUSH2 0x1468 SWAP1 SWAP2 SWAP1 PUSH4 0xFFFFFFFF AND JUMP JUMPDEST POP PUSH2 0x1447 JUMP JUMPDEST PUSH1 0xFF DUP2 PUSH8 0xFFFFFFFFFFFFFFFF AND GT PUSH2 0x133C JUMPI PUSH2 0x1311 PUSH1 0x18 PUSH1 0x5 DUP5 PUSH1 0xFF AND SWAP1 SHL OR DUP5 PUSH1 0x0 ADD MLOAD PUSH2 0x1468 SWAP1 SWAP2 SWAP1 PUSH4 0xFFFFFFFF AND JUMP JUMPDEST POP PUSH2 0x1336 DUP2 PUSH8 0xFFFFFFFFFFFFFFFF AND PUSH1 0x1 DUP6 PUSH1 0x0 ADD MLOAD PUSH2 0x14F8 SWAP1 SWAP3 SWAP2 SWAP1 PUSH4 0xFFFFFFFF AND JUMP JUMPDEST POP PUSH2 0x1446 JUMP JUMPDEST PUSH2 0xFFFF DUP2 PUSH8 0xFFFFFFFFFFFFFFFF AND GT PUSH2 0x139B JUMPI PUSH2 0x1370 PUSH1 0x19 PUSH1 0x5 DUP5 PUSH1 0xFF AND SWAP1 SHL OR DUP5 PUSH1 0x0 ADD MLOAD PUSH2 0x1468 SWAP1 SWAP2 SWAP1 PUSH4 0xFFFFFFFF AND JUMP JUMPDEST POP PUSH2 0x1395 DUP2 PUSH8 0xFFFFFFFFFFFFFFFF AND PUSH1 0x2 DUP6 PUSH1 0x0 ADD MLOAD PUSH2 0x14F8 SWAP1 SWAP3 SWAP2 SWAP1 PUSH4 0xFFFFFFFF AND JUMP JUMPDEST POP PUSH2 0x1445 JUMP JUMPDEST PUSH4 0xFFFFFFFF DUP2 PUSH8 0xFFFFFFFFFFFFFFFF AND GT PUSH2 0x13FC JUMPI PUSH2 0x13D1 PUSH1 0x1A PUSH1 0x5 DUP5 PUSH1 0xFF AND SWAP1 SHL OR DUP5 PUSH1 0x0 ADD MLOAD PUSH2 0x1468 SWAP1 SWAP2 SWAP1 PUSH4 0xFFFFFFFF AND JUMP JUMPDEST POP PUSH2 0x13F6 DUP2 PUSH8 0xFFFFFFFFFFFFFFFF AND PUSH1 0x4 DUP6 PUSH1 0x0 ADD MLOAD PUSH2 0x14F8 SWAP1 SWAP3 SWAP2 SWAP1 PUSH4 0xFFFFFFFF AND JUMP JUMPDEST POP PUSH2 0x1444 JUMP JUMPDEST PUSH2 0x141D PUSH1 0x1B PUSH1 0x5 DUP5 PUSH1 0xFF AND SWAP1 SHL OR DUP5 PUSH1 0x0 ADD MLOAD PUSH2 0x1468 SWAP1 SWAP2 SWAP1 PUSH4 0xFFFFFFFF AND JUMP JUMPDEST POP PUSH2 0x1442 DUP2 PUSH8 0xFFFFFFFFFFFFFFFF AND PUSH1 0x8 DUP6 PUSH1 0x0 ADD MLOAD PUSH2 0x14F8 SWAP1 SWAP3 SWAP2 SWAP1 PUSH4 0xFFFFFFFF AND JUMP JUMPDEST POP JUMPDEST JUMPDEST JUMPDEST JUMPDEST POP POP POP JUMP JUMPDEST PUSH2 0x1454 PUSH2 0x171E JUMP JUMPDEST PUSH2 0x1460 DUP4 DUP4 DUP5 MLOAD PUSH2 0x1585 JUMP JUMPDEST SWAP1 POP SWAP3 SWAP2 POP POP JUMP JUMPDEST PUSH2 0x1470 PUSH2 0x171E JUMP JUMPDEST PUSH1 0x0 DUP4 PUSH1 0x0 ADD MLOAD MLOAD SWAP1 POP PUSH1 0x0 PUSH1 0x1 DUP3 PUSH2 0x1489 SWAP2 SWAP1 PUSH2 0x2653 JUMP JUMPDEST SWAP1 POP DUP5 PUSH1 0x20 ADD MLOAD DUP3 LT PUSH2 0x14AD JUMPI PUSH2 0x14AC DUP6 PUSH1 0x2 DUP4 PUSH2 0x14A7 SWAP2 SWAP1 PUSH2 0x271B JUMP JUMPDEST PUSH2 0x1668 JUMP JUMPDEST JUMPDEST DUP5 MLOAD PUSH1 0x20 DUP4 DUP3 ADD ADD DUP6 DUP2 MSTORE8 DUP2 MLOAD DUP4 GT ISZERO PUSH2 0x14C5 JUMPI DUP3 DUP3 MSTORE JUMPDEST POP POP DUP5 SWAP3 POP POP POP SWAP3 SWAP2 POP POP JUMP JUMPDEST PUSH2 0x14F3 PUSH1 0x1F PUSH1 0x5 DUP4 PUSH1 0xFF AND SWAP1 SHL OR DUP4 PUSH1 0x0 ADD MLOAD PUSH2 0x1468 SWAP1 SWAP2 SWAP1 PUSH4 0xFFFFFFFF AND JUMP JUMPDEST POP POP POP JUMP JUMPDEST PUSH2 0x1500 PUSH2 0x171E JUMP JUMPDEST PUSH1 0x0 DUP5 PUSH1 0x0 ADD MLOAD MLOAD SWAP1 POP PUSH1 0x0 DUP2 DUP5 PUSH2 0x1518 SWAP2 SWAP1 PUSH2 0x2653 JUMP JUMPDEST SWAP1 POP DUP6 PUSH1 0x20 ADD MLOAD DUP2 GT ISZERO PUSH2 0x153D JUMPI PUSH2 0x153C DUP7 PUSH1 0x2 DUP4 PUSH2 0x1537 SWAP2 SWAP1 PUSH2 0x271B JUMP JUMPDEST PUSH2 0x1668 JUMP JUMPDEST JUMPDEST PUSH1 0x0 PUSH1 0x1 DUP6 PUSH2 0x100 PUSH2 0x154F SWAP2 SWAP1 PUSH2 0x2890 JUMP JUMPDEST PUSH2 0x1559 SWAP2 SWAP1 PUSH2 0x2687 JUMP JUMPDEST SWAP1 POP DUP7 MLOAD DUP3 DUP2 ADD DUP8 DUP4 NOT DUP3 MLOAD AND OR DUP2 MSTORE DUP2 MLOAD DUP5 GT ISZERO PUSH2 0x1576 JUMPI DUP4 DUP3 MSTORE JUMPDEST POP POP DUP7 SWAP4 POP POP POP POP SWAP4 SWAP3 POP POP POP JUMP JUMPDEST PUSH2 0x158D PUSH2 0x171E JUMP JUMPDEST DUP3 MLOAD DUP3 GT ISZERO PUSH2 0x159B JUMPI PUSH1 0x0 DUP1 REVERT JUMPDEST PUSH1 0x0 DUP5 PUSH1 0x0 ADD MLOAD MLOAD SWAP1 POP PUSH1 0x0 DUP4 DUP3 PUSH2 0x15B3 SWAP2 SWAP1 PUSH2 0x2653 JUMP JUMPDEST SWAP1 POP DUP6 PUSH1 0x20 ADD MLOAD DUP2 GT ISZERO PUSH2 0x15D8 JUMPI PUSH2 0x15D7 DUP7 PUSH1 0x2 DUP4 PUSH2 0x15D2 SWAP2 SWAP1 PUSH2 0x271B JUMP JUMPDEST PUSH2 0x1668 JUMP JUMPDEST JUMPDEST PUSH1 0x0 DUP1 DUP8 MLOAD DUP1 MLOAD DUP6 PUSH1 0x20 DUP4 ADD ADD SWAP4 POP DUP1 DUP6 GT ISZERO PUSH2 0x15F3 JUMPI DUP5 DUP3 MSTORE JUMPDEST PUSH1 0x20 DUP10 ADD SWAP3 POP POP POP JUMPDEST PUSH1 0x20 DUP7 LT PUSH2 0x163A JUMPI DUP1 MLOAD DUP3 MSTORE PUSH1 0x20 DUP3 PUSH2 0x1615 SWAP2 SWAP1 PUSH2 0x2653 JUMP JUMPDEST SWAP2 POP PUSH1 0x20 DUP2 PUSH2 0x1624 SWAP2 SWAP1 PUSH2 0x2653 JUMP JUMPDEST SWAP1 POP PUSH1 0x20 DUP7 PUSH2 0x1633 SWAP2 SWAP1 PUSH2 0x2687 JUMP JUMPDEST SWAP6 POP PUSH2 0x15FC JUMP JUMPDEST PUSH1 0x0 PUSH1 0x1 DUP8 PUSH1 0x20 SUB PUSH2 0x100 EXP SUB SWAP1 POP DUP1 NOT DUP3 MLOAD AND DUP2 DUP5 MLOAD AND DUP2 DUP2 OR DUP6 MSTORE POP POP POP DUP8 SWAP5 POP POP POP POP POP SWAP4 SWAP3 POP POP POP JUMP JUMPDEST PUSH1 0x0 DUP3 PUSH1 0x0 ADD MLOAD SWAP1 POP PUSH2 0x167B DUP4 DUP4 PUSH2 0x122A JUMP JUMPDEST POP PUSH2 0x1686 DUP4 DUP3 PUSH2 0x144C JUMP JUMPDEST POP POP POP POP JUMP JUMPDEST PUSH1 0x40 MLOAD DUP1 PUSH1 0xE0 ADD PUSH1 0x40 MSTORE DUP1 PUSH1 0x0 PUSH1 0x2 DUP2 GT ISZERO PUSH2 0x16AB JUMPI PUSH2 0x16AA PUSH2 0x24B2 JUMP JUMPDEST JUMPDEST DUP2 MSTORE PUSH1 0x20 ADD PUSH1 0x0 PUSH1 0x2 DUP2 GT ISZERO PUSH2 0x16C4 JUMPI PUSH2 0x16C3 PUSH2 0x24B2 JUMP JUMPDEST JUMPDEST DUP2 MSTORE PUSH1 0x20 ADD PUSH1 0x0 DUP1 DUP2 GT ISZERO PUSH2 0x16DC JUMPI PUSH2 0x16DB PUSH2 0x24B2 JUMP JUMPDEST JUMPDEST DUP2 MSTORE PUSH1 0x20 ADD PUSH1 0x60 DUP2 MSTORE PUSH1 0x20 ADD PUSH1 0x60 DUP2 MSTORE PUSH1 0x20 ADD PUSH1 0x60 DUP2 MSTORE PUSH1 0x20 ADD PUSH1 0x60 DUP2 MSTORE POP SWAP1 JUMP JUMPDEST PUSH1 0x40 MLOAD DUP1 PUSH1 0x40 ADD PUSH1 0x40 MSTORE DUP1 PUSH2 0x1711 PUSH2 0x171E JUMP JUMPDEST DUP2 MSTORE PUSH1 0x20 ADD PUSH1 0x0 DUP2 MSTORE POP SWAP1 JUMP JUMPDEST PUSH1 0x40 MLOAD DUP1 PUSH1 0x40 ADD PUSH1 0x40 MSTORE DUP1 PUSH1 0x60 DUP2 MSTORE PUSH1 0x20 ADD PUSH1 0x0 DUP2 MSTORE POP SWAP1 JUMP JUMPDEST PUSH1 0x0 PUSH1 0x40 MLOAD SWAP1 POP SWAP1 JUMP JUMPDEST PUSH1 0x0 DUP1 REVERT JUMPDEST PUSH1 0x0 DUP1 REVERT JUMPDEST PUSH1 0x0 DUP2 SWAP1 POP SWAP2 SWAP1 POP JUMP JUMPDEST PUSH2 0x175F DUP2 PUSH2 0x174C JUMP JUMPDEST DUP2 EQ PUSH2 0x176A JUMPI PUSH1 0x0 DUP1 REVERT JUMPDEST POP JUMP JUMPDEST PUSH1 0x0 DUP2 CALLDATALOAD SWAP1 POP PUSH2 0x177C DUP2 PUSH2 0x1756 JUMP JUMPDEST SWAP3 SWAP2 POP POP JUMP JUMPDEST PUSH1 0x0 DUP1 REVERT JUMPDEST PUSH1 0x0 DUP1 REVERT JUMPDEST PUSH1 0x0 PUSH1 0x1F NOT PUSH1 0x1F DUP4 ADD AND SWAP1 POP SWAP2 SWAP1 POP JUMP JUMPDEST PUSH32 0x4E487B7100000000000000000000000000000000000000000000000000000000 PUSH1 0x0 MSTORE PUSH1 0x41 PUSH1 0x4 MSTORE PUSH1 0x24 PUSH1 0x0 REVERT JUMPDEST PUSH2 0x17D5 DUP3 PUSH2 0x178C JUMP JUMPDEST DUP2 ADD DUP2 DUP2 LT PUSH8 0xFFFFFFFFFFFFFFFF DUP3 GT OR ISZERO PUSH2 0x17F4 JUMPI PUSH2 0x17F3 PUSH2 0x179D JUMP JUMPDEST JUMPDEST DUP1 PUSH1 0x40 MSTORE POP POP POP JUMP JUMPDEST PUSH1 0x0 PUSH2 0x1807 PUSH2 0x1738 JUMP JUMPDEST SWAP1 POP PUSH2 0x1813 DUP3 DUP3 PUSH2 0x17CC JUMP JUMPDEST SWAP2 SWAP1 POP JUMP JUMPDEST PUSH1 0x0 PUSH8 0xFFFFFFFFFFFFFFFF DUP3 GT ISZERO PUSH2 0x1833 JUMPI PUSH2 0x1832 PUSH2 0x179D JUMP JUMPDEST JUMPDEST PUSH2 0x183C DUP3 PUSH2 0x178C JUMP JUMPDEST SWAP1 POP PUSH1 0x20 DUP2 ADD SWAP1 POP SWAP2 SWAP1 POP JUMP JUMPDEST DUP3 DUP2 DUP4 CALLDATACOPY PUSH1 0x0 DUP4 DUP4 ADD MSTORE POP POP POP JUMP JUMPDEST PUSH1 0x0 PUSH2 0x186B PUSH2 0x1866 DUP5 PUSH2 0x1818 JUMP JUMPDEST PUSH2 0x17FD JUMP JUMPDEST SWAP1 POP DUP3 DUP2 MSTORE PUSH1 0x20 DUP2 ADD DUP5 DUP5 DUP5 ADD GT ISZERO PUSH2 0x1887 JUMPI PUSH2 0x1886 PUSH2 0x1787 JUMP JUMPDEST JUMPDEST PUSH2 0x1892 DUP5 DUP3 DUP6 PUSH2 0x1849 JUMP JUMPDEST POP SWAP4 SWAP3 POP POP POP JUMP JUMPDEST PUSH1 0x0 DUP3 PUSH1 0x1F DUP4 ADD SLT PUSH2 0x18AF JUMPI PUSH2 0x18AE PUSH2 0x1782 JUMP JUMPDEST JUMPDEST DUP2 CALLDATALOAD PUSH2 0x18BF DUP5 DUP3 PUSH1 0x20 DUP7 ADD PUSH2 0x1858 JUMP JUMPDEST SWAP2 POP POP SWAP3 SWAP2 POP POP JUMP JUMPDEST PUSH1 0x0 DUP1 PUSH1 0x0 PUSH1 0x60 DUP5 DUP7 SUB SLT ISZERO PUSH2 0x18E1 JUMPI PUSH2 0x18E0 PUSH2 0x1742 JUMP JUMPDEST JUMPDEST PUSH1 0x0 PUSH2 0x18EF DUP7 DUP3 DUP8 ADD PUSH2 0x176D JUMP JUMPDEST SWAP4 POP POP PUSH1 0x20 DUP5 ADD CALLDATALOAD PUSH8 0xFFFFFFFFFFFFFFFF DUP2 GT ISZERO PUSH2 0x1910 JUMPI PUSH2 0x190F PUSH2 0x1747 JUMP JUMPDEST JUMPDEST PUSH2 0x191C DUP7 DUP3 DUP8 ADD PUSH2 0x189A JUMP JUMPDEST SWAP3 POP POP PUSH1 0x40 DUP5 ADD CALLDATALOAD PUSH8 0xFFFFFFFFFFFFFFFF DUP2 GT ISZERO PUSH2 0x193D JUMPI PUSH2 0x193C PUSH2 0x1747 JUMP JUMPDEST JUMPDEST PUSH2 0x1949 DUP7 DUP3 DUP8 ADD PUSH2 0x189A JUMP JUMPDEST SWAP2 POP POP SWAP3 POP SWAP3 POP SWAP3 JUMP JUMPDEST PUSH1 0x0 DUP2 MLOAD SWAP1 POP SWAP2 SWAP1 POP JUMP JUMPDEST PUSH1 0x0 DUP3 DUP3 MSTORE PUSH1 0x20 DUP3 ADD SWAP1 POP SWAP3 SWAP2 POP POP JUMP JUMPDEST PUSH1 0x0 JUMPDEST DUP4 DUP2 LT ISZERO PUSH2 0x198D JUMPI DUP1 DUP3 ADD MLOAD DUP2 DUP5 ADD MSTORE PUSH1 0x20 DUP2 ADD SWAP1 POP PUSH2 0x1972 JUMP JUMPDEST PUSH1 0x0 DUP5 DUP5 ADD MSTORE POP POP POP POP JUMP JUMPDEST PUSH1 0x0 PUSH2 0x19A4 DUP3 PUSH2 0x1953 JUMP JUMPDEST PUSH2 0x19AE DUP2 DUP6 PUSH2 0x195E JUMP JUMPDEST SWAP4 POP PUSH2 0x19BE DUP2 DUP6 PUSH1 0x20 DUP7 ADD PUSH2 0x196F JUMP JUMPDEST PUSH2 0x19C7 DUP2 PUSH2 0x178C JUMP JUMPDEST DUP5 ADD SWAP2 POP POP SWAP3 SWAP2 POP POP JUMP JUMPDEST PUSH1 0x0 PUSH1 0x20 DUP3 ADD SWAP1 POP DUP2 DUP2 SUB PUSH1 0x0 DUP4 ADD MSTORE PUSH2 0x19EC DUP2 DUP5 PUSH2 0x1999 JUMP JUMPDEST SWAP1 POP SWAP3 SWAP2 POP POP JUMP JUMPDEST PUSH1 0x0 PUSH8 0xFFFFFFFFFFFFFFFF DUP3 GT ISZERO PUSH2 0x1A0F JUMPI PUSH2 0x1A0E PUSH2 0x179D JUMP JUMPDEST JUMPDEST PUSH2 0x1A18 DUP3 PUSH2 0x178C JUMP JUMPDEST SWAP1 POP PUSH1 0x20 DUP2 ADD SWAP1 POP SWAP2 SWAP1 POP JUMP JUMPDEST PUSH1 0x0 PUSH2 0x1A38 PUSH2 0x1A33 DUP5 PUSH2 0x19F4 JUMP JUMPDEST PUSH2 0x17FD JUMP JUMPDEST SWAP1 POP DUP3 DUP2 MSTORE PUSH1 0x20 DUP2 ADD DUP5 DUP5 DUP5 ADD GT ISZERO PUSH2 0x1A54 JUMPI PUSH2 0x1A53 PUSH2 0x1787 JUMP JUMPDEST JUMPDEST PUSH2 0x1A5F DUP5 DUP3 DUP6 PUSH2 0x1849 JUMP JUMPDEST POP SWAP4 SWAP3 POP POP POP JUMP JUMPDEST PUSH1 0x0 DUP3 PUSH1 0x1F DUP4 ADD SLT PUSH2 0x1A7C JUMPI PUSH2 0x1A7B PUSH2 0x1782 JUMP JUMPDEST JUMPDEST DUP2 CALLDATALOAD PUSH2 0x1A8C DUP5 DUP3 PUSH1 0x20 DUP7 ADD PUSH2 0x1A25 JUMP JUMPDEST SWAP2 POP POP SWAP3 SWAP2 POP POP JUMP JUMPDEST PUSH1 0x0 PUSH1 0xFF DUP3 AND SWAP1 POP SWAP2 SWAP1 POP JUMP JUMPDEST PUSH2 0x1AAB DUP2 PUSH2 0x1A95 JUMP JUMPDEST DUP2 EQ PUSH2 0x1AB6 JUMPI PUSH1 0x0 DUP1 REVERT JUMPDEST POP JUMP JUMPDEST PUSH1 0x0 DUP2 CALLDATALOAD SWAP1 POP PUSH2 0x1AC8 DUP2 PUSH2 0x1AA2 JUMP JUMPDEST SWAP3 SWAP2 POP POP JUMP JUMPDEST PUSH1 0x0 PUSH8 0xFFFFFFFFFFFFFFFF DUP3 AND SWAP1 POP SWAP2 SWAP1 POP JUMP JUMPDEST PUSH2 0x1AEB DUP2 PUSH2 0x1ACE JUMP JUMPDEST DUP2 EQ PUSH2 0x1AF6 JUMPI PUSH1 0x0 DUP1 REVERT JUMPDEST POP JUMP JUMPDEST PUSH1 0x0 DUP2 CALLDATALOAD SWAP1 POP PUSH2 0x1B08 DUP2 PUSH2 0x1AE2 JUMP JUMPDEST SWAP3 SWAP2 POP POP JUMP JUMPDEST PUSH1 0x0 PUSH8 0xFFFFFFFFFFFFFFFF DUP3 GT ISZERO PUSH2 0x1B29 JUMPI PUSH2 0x1B28 PUSH2 0x179D JUMP JUMPDEST JUMPDEST PUSH1 0x20 DUP3 MUL SWAP1 POP PUSH1 0x20 DUP2 ADD SWAP1 POP SWAP2 SWAP1 POP JUMP JUMPDEST PUSH1 0x0 DUP1 REVERT JUMPDEST PUSH1 0x0 PUSH2 0x1B52 PUSH2 0x1B4D DUP5 PUSH2 0x1B0E JUMP JUMPDEST PUSH2 0x17FD JUMP JUMPDEST SWAP1 POP DUP1 DUP4 DUP3 MSTORE PUSH1 0x20 DUP3 ADD SWAP1 POP PUSH1 0x20 DUP5 MUL DUP4 ADD DUP6 DUP2 GT ISZERO PUSH2 0x1B75 JUMPI PUSH2 0x1B74 PUSH2 0x1B3A JUMP JUMPDEST JUMPDEST DUP4 JUMPDEST DUP2 DUP2 LT ISZERO PUSH2 0x1BBC JUMPI DUP1 CALLDATALOAD PUSH8 0xFFFFFFFFFFFFFFFF DUP2 GT ISZERO PUSH2 0x1B9A JUMPI PUSH2 0x1B99 PUSH2 0x1782 JUMP JUMPDEST JUMPDEST DUP1 DUP7 ADD PUSH2 0x1BA7 DUP10 DUP3 PUSH2 0x1A67 JUMP JUMPDEST DUP6 MSTORE PUSH1 0x20 DUP6 ADD SWAP5 POP POP POP PUSH1 0x20 DUP2 ADD SWAP1 POP PUSH2 0x1B77 JUMP JUMPDEST POP POP POP SWAP4 SWAP3 POP POP POP JUMP JUMPDEST PUSH1 0x0 DUP3 PUSH1 0x1F DUP4 ADD SLT PUSH2 0x1BDB JUMPI PUSH2 0x1BDA PUSH2 0x1782 JUMP JUMPDEST JUMPDEST DUP2 CALLDATALOAD PUSH2 0x1BEB DUP5 DUP3 PUSH1 0x20 DUP7 ADD PUSH2 0x1B3F JUMP JUMPDEST SWAP2 POP POP SWAP3 SWAP2 POP POP JUMP JUMPDEST PUSH1 0x0 PUSH8 0xFFFFFFFFFFFFFFFF DUP3 GT ISZERO PUSH2 0x1C0F JUMPI PUSH2 0x1C0E PUSH2 0x179D JUMP JUMPDEST JUMPDEST PUSH1 0x20 DUP3 MUL SWAP1 POP PUSH1 0x20 DUP2 ADD SWAP1 POP SWAP2 SWAP1 POP JUMP JUMPDEST PUSH1 0x0 PUSH2 0x1C33 PUSH2 0x1C2E DUP5 PUSH2 0x1BF4 JUMP JUMPDEST PUSH2 0x17FD JUMP JUMPDEST SWAP1 POP DUP1 DUP4 DUP3 MSTORE PUSH1 0x20 DUP3 ADD SWAP1 POP PUSH1 0x20 DUP5 MUL DUP4 ADD DUP6 DUP2 GT ISZERO PUSH2 0x1C56 JUMPI PUSH2 0x1C55 PUSH2 0x1B3A JUMP JUMPDEST JUMPDEST DUP4 JUMPDEST DUP2 DUP2 LT ISZERO PUSH2 0x1C9D JUMPI DUP1 CALLDATALOAD PUSH8 0xFFFFFFFFFFFFFFFF DUP2 GT ISZERO PUSH2 0x1C7B JUMPI PUSH2 0x1C7A PUSH2 0x1782 JUMP JUMPDEST JUMPDEST DUP1 DUP7 ADD PUSH2 0x1C88 DUP10 DUP3 PUSH2 0x189A JUMP JUMPDEST DUP6 MSTORE PUSH1 0x20 DUP6 ADD SWAP5 POP POP POP PUSH1 0x20 DUP2 ADD SWAP1 POP PUSH2 0x1C58 JUMP JUMPDEST POP POP POP SWAP4 SWAP3 POP POP POP JUMP JUMPDEST PUSH1 0x0 DUP3 PUSH1 0x1F DUP4 ADD SLT PUSH2 0x1CBC JUMPI PUSH2 0x1CBB PUSH2 0x1782 JUMP JUMPDEST JUMPDEST DUP2 CALLDATALOAD PUSH2 0x1CCC DUP5 DUP3 PUSH1 0x20 DUP7 ADD PUSH2 0x1C20 JUMP JUMPDEST SWAP2 POP POP SWAP3 SWAP2 POP POP JUMP JUMPDEST PUSH1 0x0 PUSH4 0xFFFFFFFF DUP3 AND SWAP1 POP SWAP2 SWAP1 POP JUMP JUMPDEST PUSH2 0x1CEE DUP2 PUSH2 0x1CD5 JUMP JUMPDEST DUP2 EQ PUSH2 0x1CF9 JUMPI PUSH1 0x0 DUP1 REVERT JUMPDEST POP JUMP JUMPDEST PUSH1 0x0 DUP2 CALLDATALOAD SWAP1 POP PUSH2 0x1D0B DUP2 PUSH2 0x1CE5 JUMP JUMPDEST SWAP3 SWAP2 POP POP JUMP JUMPDEST PUSH1 0x0 DUP1 PUSH1 0x0 DUP1 PUSH1 0x0 DUP1 PUSH1 0x0 DUP1 PUSH2 0x100 DUP10 DUP12 SUB SLT ISZERO PUSH2 0x1D32 JUMPI PUSH2 0x1D31 PUSH2 0x1742 JUMP JUMPDEST JUMPDEST PUSH1 0x0 DUP10 ADD CALLDATALOAD PUSH8 0xFFFFFFFFFFFFFFFF DUP2 GT ISZERO PUSH2 0x1D50 JUMPI PUSH2 0x1D4F PUSH2 0x1747 JUMP JUMPDEST JUMPDEST PUSH2 0x1D5C DUP12 DUP3 DUP13 ADD PUSH2 0x1A67 JUMP JUMPDEST SWAP9 POP POP PUSH1 0x20 DUP10 ADD CALLDATALOAD PUSH8 0xFFFFFFFFFFFFFFFF DUP2 GT ISZERO PUSH2 0x1D7D JUMPI PUSH2 0x1D7C PUSH2 0x1747 JUMP JUMPDEST JUMPDEST PUSH2 0x1D89 DUP12 DUP3 DUP13 ADD PUSH2 0x189A JUMP JUMPDEST SWAP8 POP POP PUSH1 0x40 PUSH2 0x1D9A DUP12 DUP3 DUP13 ADD PUSH2 0x1AB9 JUMP JUMPDEST SWAP7 POP POP PUSH1 0x60 PUSH2 0x1DAB DUP12 DUP3 DUP13 ADD PUSH2 0x1AF9 JUMP JUMPDEST SWAP6 POP POP PUSH1 0x80 DUP10 ADD CALLDATALOAD PUSH8 0xFFFFFFFFFFFFFFFF DUP2 GT ISZERO PUSH2 0x1DCC JUMPI PUSH2 0x1DCB PUSH2 0x1747 JUMP JUMPDEST JUMPDEST PUSH2 0x1DD8 DUP12 DUP3 DUP13 ADD PUSH2 0x1BC6 JUMP JUMPDEST SWAP5 POP POP PUSH1 0xA0 DUP10 ADD CALLDATALOAD PUSH8 0xFFFFFFFFFFFFFFFF DUP2 GT ISZERO PUSH2 0x1DF9 JUMPI PUSH2 0x1DF8 PUSH2 0x1747 JUMP JUMPDEST JUMPDEST PUSH2 0x1E05 DUP12 DUP3 DUP13 ADD PUSH2 0x1CA7 JUMP JUMPDEST SWAP4 POP POP PUSH1 0xC0 PUSH2 0x1E16 DUP12 DUP3 DUP13 ADD PUSH2 0x1AF9 JUMP JUMPDEST SWAP3 POP POP PUSH1 0xE0 PUSH2 0x1E27 DUP12 DUP3 DUP13 ADD PUSH2 0x1CFC JUMP JUMPDEST SWAP2 POP POP SWAP3 SWAP6 SWAP9 POP SWAP3 SWAP6 SWAP9 SWAP1 SWAP4 SWAP7 POP JUMP JUMPDEST PUSH2 0x1E40 DUP2 PUSH2 0x174C JUMP JUMPDEST DUP3 MSTORE POP POP JUMP JUMPDEST PUSH1 0x0 PUSH1 0x20 DUP3 ADD SWAP1 POP PUSH2 0x1E5B PUSH1 0x0 DUP4 ADD DUP5 PUSH2 0x1E37 JUMP JUMPDEST SWAP3 SWAP2 POP POP JUMP JUMPDEST PUSH1 0x0 DUP2 SWAP1 POP SWAP2 SWAP1 POP JUMP JUMPDEST PUSH2 0x1E74 DUP2 PUSH2 0x1E61 JUMP JUMPDEST DUP3 MSTORE POP POP JUMP JUMPDEST PUSH1 0x0 PUSH1 0x20 DUP3 ADD SWAP1 POP PUSH2 0x1E8F PUSH1 0x0 DUP4 ADD DUP5 PUSH2 0x1E6B JUMP JUMPDEST SWAP3 SWAP2 POP POP JUMP JUMPDEST PUSH1 0x0 PUSH20 0xFFFFFFFFFFFFFFFFFFFFFFFFFFFFFFFFFFFFFFFF DUP3 AND SWAP1 POP SWAP2 SWAP1 POP JUMP JUMPDEST PUSH1 0x0 PUSH2 0x1EC0 DUP3 PUSH2 0x1E95 JUMP JUMPDEST SWAP1 POP SWAP2 SWAP1 POP JUMP JUMPDEST PUSH2 0x1ED0 DUP2 PUSH2 0x1EB5 JUMP JUMPDEST DUP3 MSTORE POP POP JUMP JUMPDEST PUSH1 0x0 PUSH1 0x20 DUP3 ADD SWAP1 POP PUSH2 0x1EEB PUSH1 0x0 DUP4 ADD DUP5 PUSH2 0x1EC7 JUMP JUMPDEST SWAP3 SWAP2 POP POP JUMP JUMPDEST PUSH1 0x0 DUP1 PUSH1 0x0 PUSH1 0x60 DUP5 DUP7 SUB SLT ISZERO PUSH2 0x1F0A JUMPI PUSH2 0x1F09 PUSH2 0x1742 JUMP JUMPDEST JUMPDEST PUSH1 0x0 DUP5 ADD CALLDATALOAD PUSH8 0xFFFFFFFFFFFFFFFF DUP2 GT ISZERO PUSH2 0x1F28 JUMPI PUSH2 0x1F27 PUSH2 0x1747 JUMP JUMPDEST JUMPDEST PUSH2 0x1F34 DUP7 DUP3 DUP8 ADD PUSH2 0x189A JUMP JUMPDEST SWAP4 POP POP PUSH1 0x20 PUSH2 0x1F45 DUP7 DUP3 DUP8 ADD PUSH2 0x1AF9 JUMP JUMPDEST SWAP3 POP POP PUSH1 0x40 PUSH2 0x1F56 DUP7 DUP3 DUP8 ADD PUSH2 0x1CFC JUMP JUMPDEST SWAP2 POP POP SWAP3 POP SWAP3 POP SWAP3 JUMP JUMPDEST PUSH2 0x1F69 DUP2 PUSH2 0x1EB5 JUMP JUMPDEST DUP2 EQ PUSH2 0x1F74 JUMPI PUSH1 0x0 DUP1 REVERT JUMPDEST POP JUMP JUMPDEST PUSH1 0x0 DUP2 CALLDATALOAD SWAP1 POP PUSH2 0x1F86 DUP2 PUSH2 0x1F60 JUMP JUMPDEST SWAP3 SWAP2 POP POP JUMP JUMPDEST PUSH1 0x0 PUSH1 0x20 DUP3 DUP5 SUB SLT ISZERO PUSH2 0x1FA2 JUMPI PUSH2 0x1FA1 PUSH2 0x1742 JUMP JUMPDEST JUMPDEST PUSH1 0x0 PUSH2 0x1FB0 DUP5 DUP3 DUP6 ADD PUSH2 0x1F77 JUMP JUMPDEST SWAP2 POP POP SWAP3 SWAP2 POP POP JUMP JUMPDEST PUSH32 0x4E487B7100000000000000000000000000000000000000000000000000000000 PUSH1 0x0 MSTORE PUSH1 0x22 PUSH1 0x4 MSTORE PUSH1 0x24 PUSH1 0x0 REVERT JUMPDEST PUSH1 0x0 PUSH1 0x2 DUP3 DIV SWAP1 POP PUSH1 0x1 DUP3 AND DUP1 PUSH2 0x2000 JUMPI PUSH1 0x7F DUP3 AND SWAP2 POP JUMPDEST PUSH1 0x20 DUP3 LT DUP2 SUB PUSH2 0x2013 JUMPI PUSH2 0x2012 PUSH2 0x1FB9 JUMP JUMPDEST JUMPDEST POP SWAP2 SWAP1 POP JUMP JUMPDEST PUSH1 0x0 DUP3 DUP3 MSTORE PUSH1 0x20 DUP3 ADD SWAP1 POP SWAP3 SWAP2 POP POP JUMP JUMPDEST PUSH32 0x4D7573742062652070726F706F736564206F776E657200000000000000000000 PUSH1 0x0 DUP3 ADD MSTORE POP JUMP JUMPDEST PUSH1 0x0 PUSH2 0x2060 PUSH1 0x16 DUP4 PUSH2 0x2019 JUMP JUMPDEST SWAP2 POP PUSH2 0x206B DUP3 PUSH2 0x202A JUMP JUMPDEST PUSH1 0x20 DUP3 ADD SWAP1 POP SWAP2 SWAP1 POP JUMP JUMPDEST PUSH1 0x0 PUSH1 0x20 DUP3 ADD SWAP1 POP DUP2 DUP2 SUB PUSH1 0x0 DUP4 ADD MSTORE PUSH2 0x208F DUP2 PUSH2 0x2053 JUMP JUMPDEST SWAP1 POP SWAP2 SWAP1 POP JUMP JUMPDEST PUSH32 0x4E487B7100000000000000000000000000000000000000000000000000000000 PUSH1 0x0 MSTORE PUSH1 0x11 PUSH1 0x4 MSTORE PUSH1 0x24 PUSH1 0x0 REVERT JUMPDEST PUSH1 0x0 PUSH2 0x20D0 DUP3 PUSH2 0x1E61 JUMP JUMPDEST SWAP2 POP PUSH32 0xFFFFFFFFFFFFFFFFFFFFFFFFFFFFFFFFFFFFFFFFFFFFFFFFFFFFFFFFFFFFFFFF DUP3 SUB PUSH2 0x2102 JUMPI PUSH2 0x2101 PUSH2 0x2096 JUMP JUMPDEST JUMPDEST PUSH1 0x1 DUP3 ADD SWAP1 POP SWAP2 SWAP1 POP JUMP JUMPDEST PUSH1 0x0 DUP2 SWAP1 POP DUP2 PUSH1 0x0 MSTORE PUSH1 0x20 PUSH1 0x0 KECCAK256 SWAP1 POP SWAP2 SWAP1 POP JUMP JUMPDEST PUSH1 0x0 PUSH1 0x20 PUSH1 0x1F DUP4 ADD DIV SWAP1 POP SWAP2 SWAP1 POP JUMP JUMPDEST PUSH1 0x0 DUP3 DUP3 SHL SWAP1 POP SWAP3 SWAP2 POP POP JUMP JUMPDEST PUSH1 0x0 PUSH1 0x8 DUP4 MUL PUSH2 0x216F PUSH32 0xFFFFFFFFFFFFFFFFFFFFFFFFFFFFFFFFFFFFFFFFFFFFFFFFFFFFFFFFFFFFFFFF DUP3 PUSH2 0x2132 JUMP JUMPDEST PUSH2 0x2179 DUP7 DUP4 PUSH2 0x2132 JUMP JUMPDEST SWAP6 POP DUP1 NOT DUP5 AND SWAP4 POP DUP1 DUP7 AND DUP5 OR SWAP3 POP POP POP SWAP4 SWAP3 POP POP POP JUMP JUMPDEST PUSH1 0x0 DUP2 SWAP1 POP SWAP2 SWAP1 POP JUMP JUMPDEST PUSH1 0x0 PUSH2 0x21B6 PUSH2 0x21B1 PUSH2 0x21AC DUP5 PUSH2 0x1E61 JUMP JUMPDEST PUSH2 0x2191 JUMP JUMPDEST PUSH2 0x1E61 JUMP JUMPDEST SWAP1 POP SWAP2 SWAP1 POP JUMP JUMPDEST PUSH1 0x0 DUP2 SWAP1 POP SWAP2 SWAP1 POP JUMP JUMPDEST PUSH2 0x21D0 DUP4 PUSH2 0x219B JUMP JUMPDEST PUSH2 0x21E4 PUSH2 0x21DC DUP3 PUSH2 0x21BD JUMP JUMPDEST DUP5 DUP5 SLOAD PUSH2 0x213F JUMP JUMPDEST DUP3 SSTORE POP POP POP POP JUMP JUMPDEST PUSH1 0x0 SWAP1 JUMP JUMPDEST PUSH2 0x21F9 PUSH2 0x21EC JUMP JUMPDEST PUSH2 0x2204 DUP2 DUP5 DUP5 PUSH2 0x21C7 JUMP JUMPDEST POP POP POP JUMP JUMPDEST JUMPDEST DUP2 DUP2 LT ISZERO PUSH2 0x2228 JUMPI PUSH2 0x221D PUSH1 0x0 DUP3 PUSH2 0x21F1 JUMP JUMPDEST PUSH1 0x1 DUP2 ADD SWAP1 POP PUSH2 0x220A JUMP JUMPDEST POP POP JUMP JUMPDEST PUSH1 0x1F DUP3 GT ISZERO PUSH2 0x226D JUMPI PUSH2 0x223E DUP2 PUSH2 0x210D JUMP JUMPDEST PUSH2 0x2247 DUP5 PUSH2 0x2122 JUMP JUMPDEST DUP2 ADD PUSH1 0x20 DUP6 LT ISZERO PUSH2 0x2256 JUMPI DUP2 SWAP1 POP JUMPDEST PUSH2 0x226A PUSH2 0x2262 DUP6 PUSH2 0x2122 JUMP JUMPDEST DUP4 ADD DUP3 PUSH2 0x2209 JUMP JUMPDEST POP POP JUMPDEST POP POP POP JUMP JUMPDEST PUSH1 0x0 DUP3 DUP3 SHR SWAP1 POP SWAP3 SWAP2 POP POP JUMP JUMPDEST PUSH1 0x0 PUSH2 0x2290 PUSH1 0x0 NOT DUP5 PUSH1 0x8 MUL PUSH2 0x2272 JUMP JUMPDEST NOT DUP1 DUP4 AND SWAP2 POP POP SWAP3 SWAP2 POP POP JUMP JUMPDEST PUSH1 0x0 PUSH2 0x22A9 DUP4 DUP4 PUSH2 0x227F JUMP JUMPDEST SWAP2 POP DUP3 PUSH1 0x2 MUL DUP3 OR SWAP1 POP SWAP3 SWAP2 POP POP JUMP JUMPDEST PUSH2 0x22C2 DUP3 PUSH2 0x1953 JUMP JUMPDEST PUSH8 0xFFFFFFFFFFFFFFFF DUP2 GT ISZERO PUSH2 0x22DB JUMPI PUSH2 0x22DA PUSH2 0x179D JUMP JUMPDEST JUMPDEST PUSH2 0x22E5 DUP3 SLOAD PUSH2 0x1FE8 JUMP JUMPDEST PUSH2 0x22F0 DUP3 DUP3 DUP6 PUSH2 0x222C JUMP JUMPDEST PUSH1 0x0 PUSH1 0x20 SWAP1 POP PUSH1 0x1F DUP4 GT PUSH1 0x1 DUP2 EQ PUSH2 0x2323 JUMPI PUSH1 0x0 DUP5 ISZERO PUSH2 0x2311 JUMPI DUP3 DUP8 ADD MLOAD SWAP1 POP JUMPDEST PUSH2 0x231B DUP6 DUP3 PUSH2 0x229D JUMP JUMPDEST DUP7 SSTORE POP PUSH2 0x2383 JUMP JUMPDEST PUSH1 0x1F NOT DUP5 AND PUSH2 0x2331 DUP7 PUSH2 0x210D JUMP JUMPDEST PUSH1 0x0 JUMPDEST DUP3 DUP2 LT ISZERO PUSH2 0x2359 JUMPI DUP5 DUP10 ADD MLOAD DUP3 SSTORE PUSH1 0x1 DUP3 ADD SWAP2 POP PUSH1 0x20 DUP6 ADD SWAP5 POP PUSH1 0x20 DUP2 ADD SWAP1 POP PUSH2 0x2334 JUMP JUMPDEST DUP7 DUP4 LT ISZERO PUSH2 0x2376 JUMPI DUP5 DUP10 ADD MLOAD PUSH2 0x2372 PUSH1 0x1F DUP10 AND DUP3 PUSH2 0x227F JUMP JUMPDEST DUP4 SSTORE POP JUMPDEST PUSH1 0x1 PUSH1 0x2 DUP9 MUL ADD DUP9 SSTORE POP POP POP JUMPDEST POP POP POP POP POP POP JUMP JUMPDEST PUSH1 0x0 DUP2 SLOAD PUSH2 0x2398 DUP2 PUSH2 0x1FE8 JUMP JUMPDEST PUSH2 0x23A2 DUP2 DUP7 PUSH2 0x195E JUMP JUMPDEST SWAP5 POP PUSH1 0x1 DUP3 AND PUSH1 0x0 DUP2 EQ PUSH2 0x23BD JUMPI PUSH1 0x1 DUP2 EQ PUSH2 0x23D3 JUMPI PUSH2 0x2406 JUMP JUMPDEST PUSH1 0xFF NOT DUP4 AND DUP7 MSTORE DUP2 ISZERO ISZERO PUSH1 0x20 MUL DUP7 ADD SWAP4 POP PUSH2 0x2406 JUMP JUMPDEST PUSH2 0x23DC DUP6 PUSH2 0x210D JUMP JUMPDEST PUSH1 0x0 JUMPDEST DUP4 DUP2 LT ISZERO PUSH2 0x23FE JUMPI DUP2 SLOAD DUP2 DUP10 ADD MSTORE PUSH1 0x1 DUP3 ADD SWAP2 POP PUSH1 0x20 DUP2 ADD SWAP1 POP PUSH2 0x23DF JUMP JUMPDEST DUP1 DUP9 ADD SWAP6 POP POP POP JUMPDEST POP POP POP SWAP3 SWAP2 POP POP JUMP JUMPDEST PUSH1 0x0 PUSH1 0x40 DUP3 ADD SWAP1 POP DUP2 DUP2 SUB PUSH1 0x0 DUP4 ADD MSTORE PUSH2 0x2429 DUP2 DUP6 PUSH2 0x238B JUMP JUMPDEST SWAP1 POP DUP2 DUP2 SUB PUSH1 0x20 DUP4 ADD MSTORE PUSH2 0x243D DUP2 DUP5 PUSH2 0x238B JUMP JUMPDEST SWAP1 POP SWAP4 SWAP3 POP POP POP JUMP JUMPDEST PUSH32 0x4F6E6C792063616C6C61626C65206279206F776E657200000000000000000000 PUSH1 0x0 DUP3 ADD MSTORE POP JUMP JUMPDEST PUSH1 0x0 PUSH2 0x247C PUSH1 0x16 DUP4 PUSH2 0x2019 JUMP JUMPDEST SWAP2 POP PUSH2 0x2487 DUP3 PUSH2 0x2446 JUMP JUMPDEST PUSH1 0x20 DUP3 ADD SWAP1 POP SWAP2 SWAP1 POP JUMP JUMPDEST PUSH1 0x0 PUSH1 0x20 DUP3 ADD SWAP1 POP DUP2 DUP2 SUB PUSH1 0x0 DUP4 ADD MSTORE PUSH2 0x24AB DUP2 PUSH2 0x246F JUMP JUMPDEST SWAP1 POP SWAP2 SWAP1 POP JUMP JUMPDEST PUSH32 0x4E487B7100000000000000000000000000000000000000000000000000000000 PUSH1 0x0 MSTORE PUSH1 0x21 PUSH1 0x4 MSTORE PUSH1 0x24 PUSH1 0x0 REVERT JUMPDEST PUSH32 0x4E487B7100000000000000000000000000000000000000000000000000000000 PUSH1 0x0 MSTORE PUSH1 0x32 PUSH1 0x4 MSTORE PUSH1 0x24 PUSH1 0x0 REVERT JUMPDEST PUSH2 0x2519 DUP2 PUSH2 0x1ACE JUMP JUMPDEST DUP3 MSTORE POP POP JUMP JUMPDEST PUSH1 0x0 PUSH2 0xFFFF DUP3 AND SWAP1 POP SWAP2 SWAP1 POP JUMP JUMPDEST PUSH2 0x2536 DUP2 PUSH2 0x251F JUMP JUMPDEST DUP3 MSTORE POP POP JUMP JUMPDEST PUSH2 0x2545 DUP2 PUSH2 0x1CD5 JUMP JUMPDEST DUP3 MSTORE POP POP JUMP JUMPDEST PUSH1 0x0 PUSH1 0xA0 DUP3 ADD SWAP1 POP PUSH2 0x2560 PUSH1 0x0 DUP4 ADD DUP9 PUSH2 0x2510 JUMP JUMPDEST DUP2 DUP2 SUB PUSH1 0x20 DUP4 ADD MSTORE PUSH2 0x2572 DUP2 DUP8 PUSH2 0x1999 JUMP JUMPDEST SWAP1 POP PUSH2 0x2581 PUSH1 0x40 DUP4 ADD DUP7 PUSH2 0x252D JUMP JUMPDEST PUSH2 0x258E PUSH1 0x60 DUP4 ADD DUP6 PUSH2 0x253C JUMP JUMPDEST PUSH2 0x259B PUSH1 0x80 DUP4 ADD DUP5 PUSH2 0x1E37 JUMP JUMPDEST SWAP7 SWAP6 POP POP POP POP POP POP JUMP JUMPDEST PUSH1 0x0 DUP2 MLOAD SWAP1 POP PUSH2 0x25B4 DUP2 PUSH2 0x1756 JUMP JUMPDEST SWAP3 SWAP2 POP POP JUMP JUMPDEST PUSH1 0x0 PUSH1 0x20 DUP3 DUP5 SUB SLT ISZERO PUSH2 0x25D0 JUMPI PUSH2 0x25CF PUSH2 0x1742 JUMP JUMPDEST JUMPDEST PUSH1 0x0 PUSH2 0x25DE DUP5 DUP3 DUP6 ADD PUSH2 0x25A5 JUMP JUMPDEST SWAP2 POP POP SWAP3 SWAP2 POP POP JUMP JUMPDEST PUSH32 0x43616E6E6F74207472616E7366657220746F2073656C66000000000000000000 PUSH1 0x0 DUP3 ADD MSTORE POP JUMP JUMPDEST PUSH1 0x0 PUSH2 0x261D PUSH1 0x17 DUP4 PUSH2 0x2019 JUMP JUMPDEST SWAP2 POP PUSH2 0x2628 DUP3 PUSH2 0x25E7 JUMP JUMPDEST PUSH1 0x20 DUP3 ADD SWAP1 POP SWAP2 SWAP1 POP JUMP JUMPDEST PUSH1 0x0 PUSH1 0x20 DUP3 ADD SWAP1 POP DUP2 DUP2 SUB PUSH1 0x0 DUP4 ADD MSTORE PUSH2 0x264C DUP2 PUSH2 0x2610 JUMP JUMPDEST SWAP1 POP SWAP2 SWAP1 POP JUMP JUMPDEST PUSH1 0x0 PUSH2 0x265E DUP3 PUSH2 0x1E61 JUMP JUMPDEST SWAP2 POP PUSH2 0x2669 DUP4 PUSH2 0x1E61 JUMP JUMPDEST SWAP3 POP DUP3 DUP3 ADD SWAP1 POP DUP1 DUP3 GT ISZERO PUSH2 0x2681 JUMPI PUSH2 0x2680 PUSH2 0x2096 JUMP JUMPDEST JUMPDEST SWAP3 SWAP2 POP POP JUMP JUMPDEST PUSH1 0x0 PUSH2 0x2692 DUP3 PUSH2 0x1E61 JUMP JUMPDEST SWAP2 POP PUSH2 0x269D DUP4 PUSH2 0x1E61 JUMP JUMPDEST SWAP3 POP DUP3 DUP3 SUB SWAP1 POP DUP2 DUP2 GT ISZERO PUSH2 0x26B5 JUMPI PUSH2 0x26B4 PUSH2 0x2096 JUMP JUMPDEST JUMPDEST SWAP3 SWAP2 POP POP JUMP JUMPDEST PUSH32 0x4E487B7100000000000000000000000000000000000000000000000000000000 PUSH1 0x0 MSTORE PUSH1 0x12 PUSH1 0x4 MSTORE PUSH1 0x24 PUSH1 0x0 REVERT JUMPDEST PUSH1 0x0 PUSH2 0x26F5 DUP3 PUSH2 0x1E61 JUMP JUMPDEST SWAP2 POP PUSH2 0x2700 DUP4 PUSH2 0x1E61 JUMP JUMPDEST SWAP3 POP DUP3 PUSH2 0x2710 JUMPI PUSH2 0x270F PUSH2 0x26BB JUMP JUMPDEST JUMPDEST DUP3 DUP3 MOD SWAP1 POP SWAP3 SWAP2 POP POP JUMP JUMPDEST PUSH1 0x0 PUSH2 0x2726 DUP3 PUSH2 0x1E61 JUMP JUMPDEST SWAP2 POP PUSH2 0x2731 DUP4 PUSH2 0x1E61 JUMP JUMPDEST SWAP3 POP DUP3 DUP3 MUL PUSH2 0x273F DUP2 PUSH2 0x1E61 JUMP JUMPDEST SWAP2 POP DUP3 DUP3 DIV DUP5 EQ DUP4 ISZERO OR PUSH2 0x2756 JUMPI PUSH2 0x2755 PUSH2 0x2096 JUMP JUMPDEST JUMPDEST POP SWAP3 SWAP2 POP POP JUMP JUMPDEST PUSH1 0x0 DUP2 PUSH1 0x1 SHR SWAP1 POP SWAP2 SWAP1 POP JUMP JUMPDEST PUSH1 0x0 DUP1 DUP3 SWAP2 POP DUP4 SWAP1 POP JUMPDEST PUSH1 0x1 DUP6 GT ISZERO PUSH2 0x27B4 JUMPI DUP1 DUP7 DIV DUP2 GT ISZERO PUSH2 0x2790 JUMPI PUSH2 0x278F PUSH2 0x2096 JUMP JUMPDEST JUMPDEST PUSH1 0x1 DUP6 AND ISZERO PUSH2 0x279F JUMPI DUP1 DUP3 MUL SWAP2 POP JUMPDEST DUP1 DUP2 MUL SWAP1 POP PUSH2 0x27AD DUP6 PUSH2 0x275D JUMP JUMPDEST SWAP5 POP PUSH2 0x2774 JUMP JUMPDEST SWAP5 POP SWAP5 SWAP3 POP POP POP JUMP JUMPDEST PUSH1 0x0 DUP3 PUSH2 0x27CD JUMPI PUSH1 0x1 SWAP1 POP PUSH2 0x2889 JUMP JUMPDEST DUP2 PUSH2 0x27DB JUMPI PUSH1 0x0 SWAP1 POP PUSH2 0x2889 JUMP JUMPDEST DUP2 PUSH1 0x1 DUP2 EQ PUSH2 0x27F1 JUMPI PUSH1 0x2 DUP2 EQ PUSH2 0x27FB JUMPI PUSH2 0x282A JUMP JUMPDEST PUSH1 0x1 SWAP2 POP POP PUSH2 0x2889 JUMP JUMPDEST PUSH1 0xFF DUP5 GT ISZERO PUSH2 0x280D JUMPI PUSH2 0x280C PUSH2 0x2096 JUMP JUMPDEST JUMPDEST DUP4 PUSH1 0x2 EXP SWAP2 POP DUP5 DUP3 GT ISZERO PUSH2 0x2824 JUMPI PUSH2 0x2823 PUSH2 0x2096 JUMP JUMPDEST JUMPDEST POP PUSH2 0x2889 JUMP JUMPDEST POP PUSH1 0x20 DUP4 LT PUSH2 0x133 DUP4 LT AND PUSH1 0x4E DUP5 LT PUSH1 0xB DUP5 LT AND OR ISZERO PUSH2 0x285F JUMPI DUP3 DUP3 EXP SWAP1 POP DUP4 DUP2 GT ISZERO PUSH2 0x285A JUMPI PUSH2 0x2859 PUSH2 0x2096 JUMP JUMPDEST JUMPDEST PUSH2 0x2889 JUMP JUMPDEST PUSH2 0x286C DUP5 DUP5 DUP5 PUSH1 0x1 PUSH2 0x276A JUMP JUMPDEST SWAP3 POP SWAP1 POP DUP2 DUP5 DIV DUP2 GT ISZERO PUSH2 0x2883 JUMPI PUSH2 0x2882 PUSH2 0x2096 JUMP JUMPDEST JUMPDEST DUP2 DUP2 MUL SWAP1 POP JUMPDEST SWAP4 SWAP3 POP POP POP JUMP JUMPDEST PUSH1 0x0 PUSH2 0x289B DUP3 PUSH2 0x1E61 JUMP JUMPDEST SWAP2 POP PUSH2 0x28A6 DUP4 PUSH2 0x1E61 JUMP JUMPDEST SWAP3 POP PUSH2 0x28D3 PUSH32 0xFFFFFFFFFFFFFFFFFFFFFFFFFFFFFFFFFFFFFFFFFFFFFFFFFFFFFFFFFFFFFFFF DUP5 DUP5 PUSH2 0x27BD JUMP JUMPDEST SWAP1 POP SWAP3 SWAP2 POP POP JUMP INVALID LOG2 PUSH5 0x6970667358 0x22 SLT KECCAK256 JUMPI 0xC 0x23 CREATE 0xEF PUSH25 0x8F6908525B0D099FAB7171FD41DB7BDBC3B210B620507F9EF4 0xA5 PUSH5 0x736F6C6343 STOP ADDMOD SGT STOP CALLER "
				},
				"gasEstimates": {
					"creation": {
						"codeDepositCost": "2102600",
						"executionCost": "infinite",
						"totalCost": "infinite"
					},
					"external": {
						"acceptOwnership()": "54540",
						"counter()": "2518",
						"handleOracleFulfillment(bytes32,bytes,bytes)": "infinite",
						"increment()": "24567",
						"owner()": "2544",
						"s_lastError()": "infinite",
						"s_lastRequestId()": "2473",
						"s_lastResponse()": "infinite",
						"sendRequest(string,bytes,uint8,uint64,string[],bytes[],uint64,uint32)": "infinite",
						"sendRequestCBOR(bytes,uint64,uint32)": "infinite",
						"transferOwnership(address)": "30764"
					},
					"internal": {
						"fulfillRequest(bytes32,bytes memory,bytes memory)": "infinite"
					}
				},
				"methodIdentifiers": {
					"acceptOwnership()": "79ba5097",
					"counter()": "61bc221a",
					"handleOracleFulfillment(bytes32,bytes,bytes)": "0ca76175",
					"increment()": "d09de08a",
					"owner()": "8da5cb5b",
					"s_lastError()": "4b0795a8",
					"s_lastRequestId()": "b1e21749",
					"s_lastResponse()": "3944ea3a",
					"sendRequest(string,bytes,uint8,uint64,string[],bytes[],uint64,uint32)": "4d533ad6",
					"sendRequestCBOR(bytes,uint64,uint32)": "d5f226bc",
					"transferOwnership(address)": "f2fde38b"
				}
			},
			"storageLayout": {
				"storage": [
					{
						"astId": 816,
						"contract": "code-sample/docs.chain.link/samples/ChainlinkFunctions/Storage.sol:Storage",
						"label": "s_owner",
						"offset": 0,
						"slot": "0",
						"type": "t_address"
					},
					{
						"astId": 818,
						"contract": "code-sample/docs.chain.link/samples/ChainlinkFunctions/Storage.sol:Storage",
						"label": "s_pendingOwner",
						"offset": 0,
						"slot": "1",
						"type": "t_address"
					},
					{
						"astId": 2285,
						"contract": "code-sample/docs.chain.link/samples/ChainlinkFunctions/Storage.sol:Storage",
						"label": "counter",
						"offset": 0,
						"slot": "2",
						"type": "t_uint256"
					},
					{
						"astId": 2287,
						"contract": "code-sample/docs.chain.link/samples/ChainlinkFunctions/Storage.sol:Storage",
						"label": "s_lastRequestId",
						"offset": 0,
						"slot": "3",
						"type": "t_bytes32"
					},
					{
						"astId": 2289,
						"contract": "code-sample/docs.chain.link/samples/ChainlinkFunctions/Storage.sol:Storage",
						"label": "s_lastResponse",
						"offset": 0,
						"slot": "4",
						"type": "t_bytes_storage"
					},
					{
						"astId": 2291,
						"contract": "code-sample/docs.chain.link/samples/ChainlinkFunctions/Storage.sol:Storage",
						"label": "s_lastError",
						"offset": 0,
						"slot": "5",
						"type": "t_bytes_storage"
					},
					{
						"astId": 2306,
						"contract": "code-sample/docs.chain.link/samples/ChainlinkFunctions/Storage.sol:Storage",
						"label": "router",
						"offset": 0,
						"slot": "6",
						"type": "t_address"
					},
					{
						"astId": 2309,
						"contract": "code-sample/docs.chain.link/samples/ChainlinkFunctions/Storage.sol:Storage",
						"label": "donID",
						"offset": 0,
						"slot": "7",
						"type": "t_bytes32"
					}
				],
				"types": {
					"t_address": {
						"encoding": "inplace",
						"label": "address",
						"numberOfBytes": "20"
					},
					"t_bytes32": {
						"encoding": "inplace",
						"label": "bytes32",
						"numberOfBytes": "32"
					},
					"t_bytes_storage": {
						"encoding": "bytes",
						"label": "bytes",
						"numberOfBytes": "32"
					},
					"t_uint256": {
						"encoding": "inplace",
						"label": "uint256",
						"numberOfBytes": "32"
					}
				}
			},
			"userdoc": {
				"kind": "user",
				"methods": {
					"acceptOwnership()": {
						"notice": "Allows an ownership transfer to be completed by the recipient."
					},
					"handleOracleFulfillment(bytes32,bytes,bytes)": {
						"notice": "Chainlink Functions response handler called by the Functions Router during fullilment from the designated transmitter node in an OCR round."
					},
					"owner()": {
						"notice": "Get the current owner"
					},
					"transferOwnership(address)": {
						"notice": "Allows an owner to begin transferring ownership to a new address."
					}
				},
				"version": 1
			}
		}
	}
}